S0130000766973696F6E5F435055312E7372656301
S3150208000060A40E2239200802FD1E080243200802B7
S31502080010432008024320080243200802432008021C
S31502080020000000000000000000000000C10D0802E8
S315020800304320080200000000D90D0802410E0802FA
S3150208004039190802791B0802811C080239190802A3
S30D02080050791A08025D11080283
S3150208005801000000770000002800000004000000E4
S31502080068010000001D0000000A000000040000004C
S315020800780303000003000000037300000273000074
S31502080088010000000A0A0000006060000000000083
S31502080098D45D08020000000001000000000000000C
S315020800A8003E000010A00E220100000020A00E2229
S315020800B880B54AF2F86045F6F461C2F20E20C0F23B
S315020800C8082101F06BF900B980BD45F6830045F6AB
S315020800D8651245F67113C0F20820C0F20822C0F26A
S315020800E808230C2101F0BCFE8188FF290CDDB1F535
S315020800F8006F22DBB1F5005F49DAB1F5006F4FD020
S31502080108B1F5805F0CD017E08A1E1E2A45D801234E
S3150208011803FA02F244F24503C4F200031A423CD037
S315020801284AF28F41C2F20E2101220A7080684AF207
S315020801389041C2F20E2108807047B1F5807FEFD050
S31502080148B1F5007FECD0B1F5806FF5D110B54AF25A
S315020801588D41C2F20E2101224AF28C440A70C2F279
S315020801680E242178042988BF10BD21784AF29442C0
S31502080178C2F20E224C2311FB032200F11401104687
S315020801884C2204F09DFB20780130207010BDC7D0A0
S31502080198B1F5804F18BF7047C2E78029C0D0CBE7B0
S315020801A84AF28E40C2F20E20012101707047D4D459
S315020801B8B0B54AF210640546C00FC2F20E244FF4CF
S315020801C8807121600121607345F60200A180082129
S315020801D8C5F60200A1710021C4F80E0041F22700F3
S315020801E8A160FD2160824AF2F8602173C2F20E20EC
S315020801F80021224601F05AFA002854D1002D00D5CA
S315020802086D42284604F018F99FED370B53EC102B6C
S3150208021804F066F89FED360B53EC102B04F084FABB
S3150208022841EC100B04F04AFC51EC100B04F0A8F848
S3150208023840F2011121600821A171FD212173010DE6
S315020802486173010BA1730109000120744FF48170CF
S31502080258A4F811006B20E173E07405204FF47A7153
S3150208026801F001FE4AF2F860C2F20E200021224687
S3150208027801F01CFA30BB02214AF28E40CFF6FF7112
S31502080288C2F20E2002781AB9002901F10101F9D140
S315020802980021017032B105204FF47A71BDE8B040E9
S315020802A801F0E1BDB0BD45F6830045F6B64245F60E
S315020802B89C03C0F20820C0F20822C0F2082388214B
S315020802C801F0CEFD45F6830045F6B64245F69C038F
S315020802D8C0F20820C0F20822C0F208239B2101F0C6
S315020802E8BFFD00BF00BF00BFCDCCCCCCCCCCFC3FF9
S315020802F80000000000C06240B0B50546C0434AF295
S315020803081064C00FC2F20E244FF400712160012155
S31502080318607345F60200A1800821C5F60200A1719C
S315020803280021C4F80E0041F22700A160FD2160826F
S315020803384AF2F8602173C2F20E200021224601F021
S31502080348B5F9002855D1002D00D56D42284604F086
S3150208035873F89FED370B53EC102B03F0C1FF9FED93
S31502080368360B53EC102B04F0DFF941EC100B04F0B2
S31502080378A5FB51EC100B04F003F840F201212160A9
S315020803880821A171FD212173010D6173010BA17366
S315020803980109000120744FF48170A4F811006B203A
S315020803A8E173E07405204FF47A7101F05CFD4AF2B4
S315020803B8F860C2F20E200021224601F077F938BB0E
S315020803C802214AF28E40CFF6FF71C2F20E2000BF12
S315020803D802781AB9002901F10101F9D1002101703F
S315020803E832B105204FF47A71BDE8B04001F03BBD41
S315020803F8B0BD45F6830045F6AD0245F69C03C0F244
S315020804080820C0F20822C0F20823BF2101F028FDFD
S3150208041845F6830045F6AD0245F69C03C0F2082068
S31502080428C0F20822C0F20823D22101F019FD00BF42
S31502080438CDCCCCCCCCCCFC3F00000000008061407F
S31502080448B0B50546C0434AF21064C00FC2F20E247C
S315020804584FF4407121600121607345F60200A180BC
S315020804680821C5F60200A1710021C4F80E0041F25E
S315020804782700A160FD2160824AF2F8602173C2F260
S315020804880E200021224601F011F9002855D1002D27
S3150208049800D56D42284603F0CFFF9FED370B53EC84
S315020804A8102B03F01DFF9FED360B53EC102B04F0AF
S315020804B83BF941EC100B04F001FB51EC100B03F06D
S315020804C85FFF40F2013121600821A171FD212173E4
S315020804D8010D6173010BA1730109000120744FF420
S315020804E88170A4F811006B20E173E07405204FF4BB
S315020804F87A7101F0B8FC4AF2F860C2F20E200021BD
S31502080508224601F0D3F838BB02214AF28E40CFF6CA
S31502080518FF71C2F20E2000BF02781AB9002901F14A
S315020805280101F9D10021017032B105204FF47A711F
S31502080538BDE8B04001F097BCB0BD45F6830045F268
S31502080548246245F69C03C0F20820C0F20822C0F2CB
S315020805580823F62101F084FC45F6830045F2246255
S3150208056845F69C03C0F20820C0F20822C0F2082306
S3150208057840F2091101F074FCCDCCCCCCCCCCFC3FB2
S315020805880000000000C05240B0B54AF210640546A1
S31502080598C00FC2F20E244FF4A061216001216073D4
S315020805A845F60200A1800821C5F60200A1710021BC
S315020805B8C4F80E0041F22700A160FD2160824AF2C2
S315020805C8F8602173C2F20E200021224601F06EF865
S315020805D8002854D1002D00D56D42284603F02CFF79
S315020805E89FED370B53EC102B03F07AFE9FED360B73
S315020805F853EC102B04F098F841EC100B04F05EFA51
S3150208060851EC100B03F0BCFE40F20151216008219F
S31502080618A171FD212173010D6173010BA1730109F2
S31502080628000120744FF48170A4F811006B20E1735D
S31502080638E07405204FF47A7101F015FC4AF2F86065
S31502080648C2F20E200021224601F030F838BB0221F8
S315020806584AF28E40CFF6FF71C2F20E2002781AB914
S31502080668002901F10101F9D10021017032B10520F1
S315020806784FF47A71BDE8B04001F0F5BBB0BD45F656
S31502080688830045F2EB7245F69C03C0F20820C0F2D5
S315020806980822C0F208234FF4B37101F0E1FB45F6CC
S315020806A8830045F2EB7245F69C03C0F20820C0F2B5
S315020806B80822C0F2082340F2791101F0D1FB00BFE3
S315020806C8CDCCCCCCCCCCFC3F9A9999999999224015
S315020806D810B54AF21064C2F20E24002020600121E5
S315020806E8A06046F2FF60A1800321A0816B20A17158
S315020806F8A07305204FF47A7101F0B5FB4AF2F86047
S31502080708C2F20E200021224600F0D0FF30B9052099
S315020807184FF47A71BDE8104001F0A5BB45F683008F
S3150208072845F6F91245F69C03C0F20820C0F20822DB
S31502080738C0F208234FF4C97101F092FBD4D4D4D479
S315020807482DE9F04F81B02DED088B8AB0B0EE40BA8C
S31502080758B0EE419AF0EE60BAB0EE410AB0EE4B1A24
S31502080768B0EE42AAF0EE619AF0EE610AF0EE6B1A62
S31502080778984691468A460990F0EE62AA04F0F8FB72
S3150208078851EC190BB0EE408A02460B46F0EE608A27
S3150208079803F0CAFF04460D4651EC1B0B02460B46EC
S315020807A803F0C2FF22462B4603F0AAFB41EC100BC4
S315020807B804F0B4F851EC100B9FEDA70B53EC102B71
S315020807C803F09EFB9FEDA60B53EC102B03F098FB48
S315020807D89FEDA50B04460D4641EC190B51EC1A0B75
S315020807E853EC102B03F08CFB02460B4641EC1A0B12
S315020807F803F09AFF06460F462046294622462B4606
S3150208080803F092FF32463B4603F07AFB41EC100BA3
S3150208081805468B4604F082F854EC106B9FED940B50
S31502080828304653EC102B2146002703F0D5FF002843
S3150208083840F009819FED900B304653EC102B214668
S3150208084803F0A0FF002840F0FE809FED8D0B284696
S3150208085853EC102B5946CDF810B003F051FB9FED17
S315020808688A0B53EC102BCDE9022303F049FB9FEDC3
S31502080878880B53EC102B03F033FD9FED870BCDE95C
S3150208088805A95AEC109B4A46534600940446CDF8E5
S315020808981C80884603F0A0FF9FED810B002857ECC1
S315020808A810BB1CBFD0464C46204641465A463B46D4
S315020808B803F068FF00281CBFB8465C46099848EC4E
S315020808C81B4B03F089FDB0EE4B0AF0EE6B0A804625
S315020808D80C46019104F044F951EC100B42462346A2
S315020808E803F022FF9FED700B53EC102B03F008FB65
S315020808F8B0EE490AB0EE4A1AF0EE690AF0EE6A1A3A
S31502080908CDE9081004F034FBB0EE409AF0EE609A8E
S315020809189FED670B049953EC102B284603F0F0FA5F
S31502080928DDE9022303F0ECFA9FED630B0D46009905
S31502080938044653EC102B304603F0F6FE02460B46E5
S315020809482046294603F0CCFC4A46534604460D4639
S3150208095803F042FF002804BFAA46A1464846514664
S315020809685A463B4603F00EFF002804BF5746CB46B5
S3150208097847EC10BB04F0F4F8019953EC102B4046E7
S3150208098803F0D2FE02460B4651EC190B03F0D6FECB
S3150208099880468946DDE9081042464B4603F0B0FA16
S315020809A89FED470BCDE903105AEC10BB51EC180B17
S315020809B85A46534603F0B8FE9FED430B56EC107B96
S315020809C83A46334603F08CFC41EC100B04F076F8F1
S315020809D80598494680ED000B9FED3D0B404654ECC1
S315020809E8105B2A46234603F09FFE3A46334603F02F
S315020809F877FC41EC100B04F061F806985A4680ED2C
S31502080A08000BDDE90810534603F08EFE3A463346D4
S31502080A1803F066FC41EC100B04F050F807982A46D6
S31502080A2880ED000BDDE90310234603F07DFE3A4606
S31502080A38334603F055FC41EC100B04F03FF81C98BA
S31502080A48012780ED000B38460AB0BDEC088B01B0C9
S31502080A58BDE8F08F00BF00BF00000000000054C0C8
S31502080A680000000000C042C000000000004065C047
S31502080A784A0D55156AF17240602BAFAA5EE93040F5
S31502080A88000000000000D9C0F7285C8F92FED3C088
S31502080A9839A15435895BE640000000000000F03FA2
S31502080AA8000000000000F0BFE11A6D75CE73F7BFAB
S31502080AB8000000000000D940000000000000744051
S31502080AC800000000008066C06E861BF0F921094006
S31502080AD800000000008066408168B1F5803F31D188
S31502080AE84AF25C61C2F20E210A78012A0AD08AB948
S31502080AF8406844F65272C4F24F32904218BF7047A1
S31502080B0801201EE040684AF26062C2F20E221060B4
S31502080B18022016E04AF26062C2F20E2212684AF20D
S31502080B286463C2F20E2340681A604AF26862C2F225
S31502080B380E2210604AF26C60C2F20E20012202707E
S31502080B48002008707047D4D48AB045F6E861C0F226
S31502080B58082107C91268904710B1002002F0F1F877
S31502080B68FFF7A6FA4AF26C659FED318BC2F20E259B
S31502080B784FF0000A0DF1080B0DF120080DF11809BE
S31502080B8804AE00BF287801284CD100F0DCF94AF2F5
S31502080B986460C2F20E2007684AF26860C2F20E2042
S31502080BA8046885F800A000F0F9F9384603F0E0FB76
S31502080BB841EC190B204603F0DBFB41EC110BB0EEB6
S31502080BC8490AB0EE482AF0EE690AF0EE682A0120C8
S31502080BD841464A463346CDF800B0FFF7B1FD08B399
S31502080BE89DED080B51EC100B03F0CAFBFFF7E0FA70
S31502080BF89DED060B51EC100B03F0C2FBFFF77CFBCD
S31502080C089DED040B51EC100B03F0BAFBFFF718FC29
S31502080C189DED020B51EC100B03F0B2FBFFF7B4FC87
S31502080C28FFF756FD012002F04DFAABE700BF00BFF9
S31502080C380000000000007440022818BF70474AF2F4
S31502080C48D46045F61C71C2F20E20C0F2082100F0E3
S31502080C58D2BA80B584B04AF21C70C2F20E20016874
S31502080C684AF2706C0131016042F62070C2F20F2016
S31502080C780421CDE9001040F6C54045F6754145F60A
S31502080C88D463C2F20E2CC0F20820C0F20821C0F2C0
S31502080C9808234FF48062CDF808C001F057FF4AF2DC
S31502080CA8D061C2F20E21086008B104B080BD0020E6
S31502080CB8002104B0BDE8804000F00CB810B504461F
S31502080CC800F00AF82046BDE81040FFF73DBF704716
S31502080CD8FFF7FDBF00BE7047B0B54AF21474C2F2F8
S31502080CE80E2420684FF0FF3101F014FE012803D0C4
S31502080CF820680021FFF7EEFF4AF21870C2F20E20AA
S31502080D08017801B1B0BD01210170FFF7E1FF4AF28E
S31502080D181C75C2F20E2500BF286801382860F1D072
S31502080D28206800210022002301F0CAFB0128F3D01B
S31502080D3820680021FFF7CEFFEEE780B54AF21C705D
S31502080D48C2F20E20002101604AF21870C2F20E2081
S31502080D584AF220720170C2F20E224FF48070012103
S31502080D6801F08EFB4AF21471C2F20E21086018B914
S31502080D7800200021FFF7AEFFFFF76BFF02F021FA0A
S31502080D88002080BD4AF26873C2F20E2303604AF253
S31502080D98C870C2F20E2008608020106070474AF6B2
S31502080DA8C813C2F20E2303604AF62820C2F20E209E
S31502080DB808608020106070471EF0040F0CBFEFF31E
S31502080DC80880EFF30980014908470000670E080200
S31502080DD80F4B1968EFF309821EF0100F08BF22EDB0
S31502080DE8108A22E9F04FEFF30B8342F8043D0A60B2
S31502080DF84FF0100080F31188BFF34F8FBFF36F8F40
S31502080E0802F090F94FF0000080F3118800F002B85A
S31502080E181C2D0F22074801680A6802CA81F30B8843
S31502080E28B2E8F04F1EF0100F08BFB2EC108A82F330
S31502080E38098870471C2D0F2210B5EFF3118410206C
S31502080E4880F3118802F040FA30B14EF60450CEF219
S31502080E5800004FF08051016084F3118810BD806943
S31502080E6810F8020C022808BFFFF7D4BF042838BFB7
S31502080E78704780B545F29E4045F6831245F2A95356
S31502080E88C0F20820C0F20822C0F208234FF47E7185
S31502080E9800F0E6FF283140F8481D40F6C561C0F261
S31502080EA808214FF0807C22F00102C1636FF002012B
S31502080EB80264C0F844C0C0E90913704700BE00BFFF
S31502080EC8FEE7D4D44EF62250CEF20000F021017085
S31502080ED800F016F84EF63470CEF20000016841F0BA
S31502080EE84041016062B6BFF36F8FEFF3148C2CF0A2
S31502080EF8040C8CF31488BFF36F8F02DF00BEFDE77C
S31502080F084AF6B440C2F20E20006844F6D351C1F23A
S31502080F186201A0FB01014FF0FF3000EB911100209E
S31502080F28B0EB116F18BF70474EF21002CEF20002EC
S31502080F3851604EF62351CEF20001F0230B709060F1
S31502080F480720106070471021EFF3118081F311888A
S31502080F584AF62841C2F20E210A68531C0B605AB98E
S31502080F684AF62C41C2F20E2108604EF60450CEF219
S31502080F7800000068C00500D1704780B545F29E405A
S31502080F8845F2C44245F6D603C0F20820C0F2082242
S31502080F98C0F2082340F2A44100F062FF4AF628404C
S31502080FA8C2F20E20016859B10139016018BF7047AB
S31502080FB84AF62C40C2F20E20006880F31188704760
S31502080FC880B545F29E4045F6C94245F27843C0F2D5
S31502080FD80820C0F20822C0F2082340F2AD4100F008
S31502080FE83FFF80B598B34EF6902EC4F2010E9EF8CE
S31502080FF800100A0722D04EF2FA32C4F20102138806
S315020810084AF2025CCFF6FF7C0020A2F800C08EF8EE
S31502081018000043F425401080BFF34F8F30BFBFF35B
S315020810286F8F62B6BFF36F8F72B61088A2F800C0C8
S3150208103840F425408EF80010108080BDBFF34F8F0C
S3150208104830BFBFF36F8F62B6BFF36F8F72B680BDBC
S3150208105880B572B601F013FF0120FFF7C2FF62B628
S31502081068BDE8804001F066BF416002468868C02331
S315020810781061C868C4F202039061002050610868CA
S3150208108803EB40109060086803EB40104030D060CC
S3150208109891F90400002829D449794EF2001CCEF2A7
S315020810A8000C090100EB0C0383F800134AF6904179
S315020810B8C2F20E2141F820204CF20031C4F2000196
S315020810C851F8203023F4803341F8203051F82010A3
S315020810D800F01F010123400903FA01F10CEB800312
S315020810E8BFF35F8FC3F880114CF8201045F243010D
S315020810F8C5F2492100201160704780680268920388
S315020811084EBF0C208160002070478268002051601B
S3150208111870478446C0E904130020CCF818207047A3
S315020811280146406890F9040000280FD400F01F020F
S31502081138012303FA02F24EF280134009CEF20003A3
S3150208114843F82020BFF34F8FBFF36F8F002200208A
S315020811580A607047B0B5EFF303804FF0704101EBB0
S3150208116800604CF200318015C4F20001425822F49C
S315020811788032425041584AF69041C2F20E210C5822
S31502081188E0680568E80304D520464FF4803100F084
S315020811980BF835F4403508BFB0BD2046294600F09D
S315020811A803F8E0680561B0BD2DE9F04184B004464C
S315020811B84069E84630B1034693E8E400C4468CE839
S315020811C8E40000E040466268B1F5803F1268816033
S315020811D80260A269C26002D1E168C96800E000211A
S315020811E8416021698847606910B198E88E008EC007
S315020811F804B0BDE8F08180B545F25422C5F24F0223
S315020812080260084600F002F8002080BD70B5044660
S3150208121800F05CF84AF68C4CEFF31080012181F352
S315020812281088C2F20E2CDCF8001039B940F61451AF
S31502081238C4F2400100220A7040220A70DCF8001043
S315020812480131CCF8001080F31088208810B340F6D4
S31502081258000E0021C4F2400E606800EBC1029288B3
S3150208126850F83130100ADD03D2B20BD50EEB8015D1
S3150208127855F8226026F4803645F8226023F480362B
S3150208128845F822600EEB801040F82230208801319A
S315020812988142E1D3EFF31081012080F31088DCF84C
S315020812A8000020B1DCF800000138CCF80000DCF8B0
S315020812B8000038B940F61450C4F240000022027001
S315020812C88022027081F3108870BDD4D42DE9F04FBC
S315020812D881B00446008800285CD042F240084EF6DF
S315020812E84C4A45F6487BC4F220080026C4F2010A8D
S315020812F8C0F2082B4FF00109002700BF60683BF8C7
S31502081308172000EBC600818891423CD100689AF8FA
S31502081318001000F0B85009FA07F5B0F1807F05EA1F
S31502081328010015D150B9012000F05AFE9AF80000BA
S3150208133828438AF80000012000F029FE18F9170048
S31502081348002820D418F8170040F0800015E000BFDE
S3150208135850B1012000F044FE9AF80000A8438AF822
S315020813680000012000F013FE18F91700B0F1FF3F3C
S3150208137809DC18F8170000F07F0008F81700C820DB
S31502081388012100F070FD0137032FB7D120880136F5
S315020813988642B1D301B0BDE8F08FD4D42DE9F04F17
S315020813A881B082460E680020C4F23800894600EBEE
S315020813B8463B0F69CAE900B9886843F20802CAF8BF
S315020813C81000C868C4F22002CAF818000020CAF831
S315020813D81400D7F81C80EFF31085012080F31088D3
S315020813E8C6F11B011368884023EA000010601068DA
S315020813F81E20012100F037FD85F31088DBF81C0052
S315020814080007FBD44EF200144CF2003550468121EF
S31502081418CEF20004C4F2000500F0BEF9D8F80400BA
S315020814284EF20342CBF814004FF48010CBF82C0086
S315020814380020CBF8B000D8F81010CEF20002CBF88C
S315020814483010D8F80810CBF83C10D8F80C10CBF89E
S31502081458401098F815104FEA011151704AF6904152
S31502081468C2F20E210861286920F4803028612869A9
S315020814784FF01000BFF35F8FC4F880012060D8F8D8
S315020814880000CBF81800D8F8180020F00100CBF8AD
S31502081498540086B998F8140000011070C1F80CA017
S315020814A8E86820F48030E860E8680820BFF35F8FB0
S315020814B8C4F8800120604AF63040C2F20E204FF482
S315020814C8807C40F826A0CBF828C0D7F800E0F201BD
S315020814D85FFA82F8002300970EEB0306CBF828C0BA
S315020814E80BEB030596E8870005F5907487C4D5F8CB
S315020814F82801103320F0800040EA0800B3F5807FFF
S31502081508C5F82801E8D10020CBF828005046012161
S31502081518012600F041F9D9F804004AF6904590E800
S315020815280E00C06801396FF39F2141EA4241A1F5CD
S3150208153800315A1E41EA42614FF60042CFF6FF725F
S3150208154802EB80200843CBF80000009FC2F20E2562
S31502081558786990E80E00C0680139C9B241EA0221E1
S315020815680022CFF6FF72A1F5807102EB03421143FE
S31502081578013841EA0060CBF8000178694EF2001397
S315020815884068CEF20003FF2828BFFF20397E0004F0
S3150208159840EA412040F201410843CBF80401B86801
S315020815A8CBF8880038694CF2003740F00300CBF8CC
S315020815B8040099F91500C4F2000700281CD499F802
S315020815C814101A18090182F8001345F820A057F8CA
S315020815D8201021F4803147F8201057F8201000F01F
S315020815E81F01400906FA01F103EB8002BFF35F8F78
S315020815F8C2F8801143F8201099F9170000281DD45B
S3150208160899F814101A18090182F8001345F820A047
S3150208161857F82010012221F4803147F8201057F88C
S31502081628201000F01F01400902FA01F103EB8002BB
S31502081638BFF35F8FC2F8801143F8201099F9160094
S3150208164800281DD499F814101A18090182F80013EB
S3150208165845F820A057F82010012221F4803147F8CE
S31502081668201057F8201000F01F01400902FA01F16C
S3150208167803EB8002BFF35F8FC2F8801143F820108C
S315020816885046802100F088F850460021002400F0D0
S3150208169883F844F24461C5F24321AAF80C400020B3
S315020816A8CAF8081001B0BDE8F08FD4D4F0B51368AB
S315020816B85679272943EA8673167943EAC67315D9EA
S315020816C806684C2501FB05664FF6D815CFF6FF7551
S315020816D873519379A1F1280C092B23D3182B1ED8F9
S315020816E803F57E73082606EB93031BE0066875184E
S315020816F895F874502D0744BF4EF66320F0BD4C2565
S3150208170801FB0566C6F804369379092B14D3182BF8
S315020817180FD803F57E73082606EB93030CE00B260F
S3150208172806EB131340F2C45E4FF4B86440F2BC5594
S3150208173809E00B2606EB13134FF4C26E40F20C644B
S315020817484FF4C1658C4607684C261B070CFB06F640
S315020817583D44AB519368056803F007032C44A3512B
S3150208176893795BB104680C3204EB0E07BD1900BF06
S3150208177812F8017B013B05F8017BF9D10068272994
S3150208178804D900EB8C00FF21C16503E060440121FE
S3150208179880F870100020F0BD10B54AB20368B2F19D
S315020817A8FF3F01F00F0233DDD3F804C05FEAC17EBA
S315020817B802D11CF0040104D1052A08BF1CF0010154
S315020817C80AD15968012464F302015960996801F03B
S315020817D807010129FAD10368596821F0070111435B
S315020817E8596000BF996801F007019142FAD1BEF122
S315020817F8000F41D11CF003013ED0D0E9001212694C
S31502081808D26992694B6D02F001021A434A6533E0BE
S31502081818D3F818E05FEAC17C0EF0010E12D0BEF1C9
S31502081828000F0FD10368D96B21F00101D96301684A
S315020818380B6C23F001030B6401684B6D23F001035B
S315020818484B650368996921F007011143996100BF3D
S31502081858D96901F007019142FAD1BCF1000F0BD1FF
S31502081868BEF1000F08D0D0E900121269D26993684E
S31502081878CB63D168026811640168496801F00701F7
S31502081888017310BD80B51F290FD84FEAC11C40F253
S31502081898FF332CEA030300EB030C01F0070E4C2373
S315020818A81EFB03C303F5126C08E04C2301FB030372
S315020818B8282934BFA3F58C6CA3F5C56CDCF800E0BF
S315020818C8CEF380735371DCF8083003F0070393608C
S315020818D82EF0604313604FEADE731371DCF80430A6
S315020818E85FEA137E45F66073C0F2082313F80EE022
S315020818F882F806E009D00CF10C030C3213F801CB76
S31502081908BEF1010E02F801CBF8D11F2905D801222A
S3150208191802FA01F1C943416380BD00EB8100282917
S315020819284FF0FF012CBF40F8441C40F8341C80BD18
S315020819382DE9F04FB1B0EFF303801038C1B203298D
S3150208194855D101A84AF6304A051D00240126C2F2D5
S315020819580E2A4FF070480DF1640900205AF820B093
S31502081968BBF1000F3CD028465C2102F0A5FF4FF4D4
S315020819788050ADF80800DBF80000016A08EA01326F
S3150208198802EB01428907039204620DD5DBF80000CF
S31502081998816E91FAA1F1B1FA81F1049100EB810005
S315020819A8416C21F004014164DBE905700194059054
S315020819B857B148463946602202F082FF384601A9DD
S315020819C8602202F07DFF00E001AFDBF8101038460E
S315020819D88847DBF8140018B14946602202F070FFFE
S315020819E80120F1074FF00006B8D1032530E045B2C9
S315020819F84AF69040C2F20E2001AF50F82560381D0B
S31502081A085C2102F059FF4FF48070ADF8080030687F
S31502081A18C16889B203910021C160D6E905400191DE
S31502081A280590049154B119A82146602202F048FF8C
S31502081A3801A92046602202F043FF00E03C463169CC
S31502081A4820468847706918B119A9602202F038FF3A
S31502081A584CF20030C4F2000050F8251021F4803107
S31502081A6840F8251050F8250031B0BDE8F08FD4D4D7
S31502081A782DE9F04FB1B001A800226C2300F1140534
S31502081A884FF00008C4F23802C4F238034FF0010ACC
S31502081A984AF63040C2F20E2050F8280000285DD0D7
S31502081AA84FEA4830185842EA483790FAA0F0B0FA8E
S31502081AB880F6012E47D84FF4806046F02004ADF828
S31502081AC808000494386E012101FA06F9009600BF47
S31502081AD810EA090F2AD1384621462A46CDF8048043
S31502081AE8FFF7D0FE01984AF63041C2F20E2151F8A4
S31502081AF820B0DBE90560059056B119A8314660227F
S31502081B0802F0DEFE304601A9602202F0D9FE00E0A4
S31502081B1801AEDBF8101030468847DBF8140018B116
S31502081B2819A9602202F0CCFE386ED1E70098002285
S31502081B3807EB8000416C6C2321F00801C4F23802D5
S31502081B48C4F238034164F86E40B94CF21031C4F253
S31502081B580001086820F48030086008684FF0010818
S31502081B685FEACA704FF0000A92D131B0BDE8F08F29
S31502081B782DE9F047B0B0EFF303804FF0704101EB5F
S31502081B8800604AF690428115C2F20E2257584FEA69
S31502081B98206979680A68D1F81080B96900920491AF
S31502081BA83C6894F8A410002956D0EA4618AD00BF36
S31502081BB894F8A400C10705D100071FD44FF4007092
S31502081BC8842102E04FF4006080213A68ADF80400E7
S31502081BD8505890FAA0F0B0FA80F0082806D35018A0
S31502081BE8406890FAA0F0B0FA80F02030111891F8FF
S31502081BF8742002F0F90281F8742010E0D8F81C0063
S31502081C088069C0044FF4006058BF4FF40050ADF81D
S31502081C1804003868816D21F01001816528207E69E3
S31502081C2803905EB128463146602202F049FE3046E4
S31502081C385146602202F044FE01E000BF5646396961
S31502081C4830468847786918B12946602202F038FE74
S31502081C5894F8A4000028ABD14CF20030C4F2000074
S31502081C6850F8291021F4803140F8291050F8290033
S31502081C7830B0BDE8F087D4D42DE9F04FB1B04FF0B3
S31502081C887041EFF3038001EB00684AF690414FEA88
S31502081C98A850C2F20E210C584FF480616068006899
S31502081CA8ADF808100190282004902068016EC9052D
S31502081CB82ED40DF104094AF6304A09F11405C2F27E
S31502081CC80E2A0DF1640B00BF28212A46FFF7DAFD12
S31502081CD801985AF82060D6E90570059057B1584612
S31502081CE83946602202F0ECFD38464946602202F07F
S31502081CF8E7FD00E04F46316938468847706918B1EA
S31502081D085946602202F0DCFD2068016EC905DBD55A
S31502081D18816D21F0080181652068806D00070DD460
S31502081D284CF200314FEA2860C4F2000151F820202B
S31502081D3822F4803241F8202051F8200031B0BDE85B
S31502081D48F08FD4D44EF22401C4F2010188780988A6
S31502081D58C1F30312A2F1080103293BD8DFE801F00F
S31502081D68022C101E4AF26041C2F20E2151F82000D6
S31502081D784AF6AB21CAF6AA21A0FB0101480830E0B7
S31502081D884AF26041C2F20E2151F820004AF6AB2106
S31502081D98CAF6AA21A0FB0101C80822E04AF2604154
S31502081DA8C2F20E2151F820004AF6AB21CAF6AA2138
S31502081DB8A0FB0101080914E04AF26041C2F20E21A9
S31502081DC851F820004AF6AB21CAF6AA21A0FB01015E
S31502081DD8880806E04AF26041C2F20E2151F820004C
S31502081DE8D0404AF6B441C2F20E210860704770B56F
S31502081DF84AF2604046F6004141F20022C2F20E203B
S31502081E08C0F2DC21C0F27A0243F2006C4FF40043B6
S31502081E18C0F26E1C4CF6002E44F2553448F20045C0
S31502081E2844F2006680E80E1040F6000143F6000206
S31502081E38C3F69A3EC1F2DE34C1F2D775C2F2C33688
S31502081E48C2F6AF71C1F69C42C0E9043EC0E906640F
S31502081E58C0E908518262BDE87040FFF773BFD4D45F
S31502081E6800BE00BFFEE74AF6B442C2F20E22126864
S31502081E7841F20023C0F27A039A4201FB00F00FD31B
S31502081E8840F6FF01C0F23D0111444DF68362C4F2E1
S31502081E981B32A1FB0212110DA0FB0101E9B11FE0D9
S31502081EA84CF6002348F63811C3F69A33C0F24101B4
S31502081EB8B3FBF2F2884207D24FF47A7100FB01F0BB
S31502081EC8B0FBF2F0800808E09200B0FBF2F0884214
S31502081ED806D24FF47A7100FB01F028B100F005B872
S31502081EE84FF0FF3000F001B8704701380028FCD1DE
S31502081EF87047D4D4F0B581B04CF20015C4F2000587
S31502081F082868296A4AF6384701EA00060024C2F20E
S31502081F180E2700BF26FA04F0C00704D057F8241083
S31502081F2809B1204688470134152CF3D12E6100BF22
S31502081F38286A3042FCD101B0F0BDD4D470B545F652
S31502081F4828714CF2003246F240034FF0000EC0F2F6
S31502081F580821C4F20002C4F200034FF0010C002063
S31502081F6831F8104074B1BEEB942F42F8204009D1DB
S31502081F78650953F8256004F01F040CFA04F434437F
S31502081F8843F825400130062808BF70BDE8E7012254
S31502081F98EFF3108182F310884AF6A842C2F20E229B
S31502081FA832F8103023B132F81030013B22F81030DB
S31502081FB832F810208AB94EF2FA3CC4F2010C46F2FB
S31502081FC8BC12BCF80030C0F2082232F8100043F4FA
S31502081FD8254222EA0000ACF8000081F3108870470F
S31502081FE880B50122EFF3108182F310884AF6A842D7
S31502081FF8C2F20E2232F810308BB94EF2FA3C46F289
S31502082008BC13C4F2010CC0F20823BCF800E033F88A
S31502082018103043EA0E0343F42543ACF8003032F88D
S315020820281030013322F8103081F3108880BDD4D4D9
S3150208203800F006F8FEF781FEFEE700BE7047D4D424
S31502082048B0B54EF60850CEF200004FF47001C0F84B
S31502082058801040F20001C0F208214CF20404016023
S315020820680020C4F20104FEF7E7FDFFF7C0FE206868
S3150208207840F00100206000BF20680028FCD101203A
S3150208208844F8040CFEF7D8FD4AF26000C2F20E20A4
S3150208209880F30A88002000F02FF8FFF753FE012084
S315020820A800F02AF842F62074C2F20F24204602F0FB
S315020820B817FC204602F028FC46F29E2046F29E218C
S315020820C8C0F20820C0F20821081A8410012C08DB7D
S315020820D846F29E25C0F2082555F8040B8047013CAE
S315020820E8FAD10220FEF7A8FDFFF728FF0020BDE86F
S315020820F8B04000F02EB8D4D4F0B581B045F6907544
S31502082108C0F208252E68044676B16868071D00BF1E
S315020821187879844204D157E90101091A02F0CCFBFD
S31502082128013E07F10C07F3D1AE6886B1E86800F1FB
S31502082138080500BF6879844205D155E9020229686B
S31502082148121A02F0BDFB013E05F11005F2D101B0E3
S31502082158F0BD704770B5002841D04AF6C846A0F1C6
S315020821680805C2F20E260446B54254D347F6FF704E
S31502082178304485424FD854F8040C00285BD52968A0
S31502082188002968D120F0004044F8040C00F077FED4
S315020821984AF6BC40C2F20E2054F8041C02684AF6F3
S315020821A8C0430A44C2F20E2302601A46104612684F
S315020821B8AA42FBD3984206D0B0425CD347F6FF73CD
S315020821C83344984257D84368C618AE4202D11944CE
S315020821D8054641606B18934202D013460CE070BD5F
S315020821E84AF6B843C2F20E231B689A4204D05268CA
S315020821F81144696001680B68A8422B6018BF05601C
S3150208220842F6C840C2F20F20016801310160BDE8F2
S31502082218704000F08FBE45F6951045F6F22245F253
S315020822283763C0F20820C0F20822C0F208234FF426
S31502082238B571FFF715FE45F6951045F6F22245F6ED
S315020822480F23C0F20820C0F20822C0F2082340F27F
S315020822586B11FFF705FE45F6951045F6F22245F687
S31502082268DB43C0F20820C0F20822C0F208234FF462
S31502082278B671FFF7F5FD45F6951045F2A66245F2E1
S31502082288C163C0F20820C0F20822C0F208234FF43C
S31502082298FD71FFF7E5FD4FF0FF31024642F8081FC8
S315020822A80021C0E90322C0E9001270470021016132
S315020822B8704742684A6093688B6059609160086102
S315020822C8016801310160704780B5D1F800C01CF178
S315020822D8010207D000F10802964652681368634558
S315020822E8FAD903E0D0F810E0DEF804204A609160D3
S315020822F8C1F808E0CEF804100861016801310160E6
S3150208230880BDD0E901230169936042685A604A6828
S31502082318824201D182684A6000220261086801384D
S315020823280860704770B500284BD00446C06BC0B326
S315020823380E46216CA0FB010199BBFEF704FE206834
S31502082348D4E90F12002502FB0103013901FB020138
S31502082358A563C4E90103FF20E16084F8440084F810
S31502082368450004F110004EB1FFF795FF04F1240069
S31502082378FFF791FFFEF712FE012070BD01680029DA
S31502082388F8D001F0DBF80028F4D04EF60450CEF265
S3150208239800004FF080510160BFF34F8FBFF36F8F74
S315020823A8E8E745F6C72045F69B4245F60543C0F2D7
S315020823B80820C0F20822C0F208234FF4B671FFF7C4
S315020823C84FFD45F6C72045F69B4245F6F233C0F25D
S315020823D80820C0F20822C0F2082340F23711FFF794
S315020823E83FFD10B582B05BB3D0B11C4601B9BAB984
S315020823F801B1AAB148230193019B482B30D1019B0D
S31502082408012384F84630002908BF2246C4E90F0189
S31502082418204601212260FFF785FF204602B010BD3B
S3150208242845F6C72045F64B1245F67933C0F2082019
S31502082438C0F20822C0F208234FF4D871FFF710FD3C
S3150208244845F6C72045F64B1245F26D73C0F20820C9
S31502082458C0F20822C0F208234FF4C271FFF700FD42
S3150208246845F6C72045F64B1245F61C13C0F2082056
S31502082478C0F20822C0F208234FF4CB71FFF7F0FC2A
S31502082488B0B582B060B10D46814209D8144600211A
S3150208249800222346FFF7A5FF2046A56302B0B0BD72
S315020824A845F6C72045F6822245F27B73C0F2082014
S315020824B8C0F20822C0F208234FF45E71FFF7D0FC77
S315020824C82DE9F04F85B00028049200F09D809946C0
S315020824D81546044619B9206C002840F0C580B9F19A
S315020824E8020F03D1E06B012840F0AE80019101F09A
S315020824F80FF910B9002D40F09780FEF724FDA06B5E
S31502082508B9F1020F59D0E16B884256D304F1100784
S31502082518012002AE4FF0000B04AD00BF0499002952
S3150208252866D0C00702D0304601F08EF8FEF736FDAF
S3150208253800F0A5FCFEF707FD94F84400FF2808BF3B
S3150208254884F844B094F84500FF2808BF84F845B0D3
S31502082558FEF724FD3046294601F083F800284AD1B9
S31502082568FEF7F1FCD4F838A0D4F83C80FEF716FD3D
S31502082578C24515D10499384600F082FF204600F074
S31502082588B5F800F0D7FC80B94EF60450CEF2000032
S315020825984FF080510160BFF34F8FBFF36F8F04E08E
S315020825A8204600F0A3F800F0C5FCFEF7CCFCA06BA9
S315020825B8E16B88424FF00000B0D2019920464A469C
S315020825C800F062F854F8240F70B1204600F0B6FFFE
S315020825D850B14EF60450CEF200004FF08051016019
S315020825E8BFF34F8FBFF36F8FFEF7D8FC012008E0C1
S315020825F8FEF7D4FC04E0204600F078F800F09AFCCE
S31502082608002005B0BDE8F08F45F6C72045F2BF524F
S3150208261845F6F233C0F20820C0F20822C0F20823AF
S3150208262840F2B631FFF71CFC45F6C72045F2BF5201
S3150208263845F2D153C0F20820C0F20822C0F2082394
S3150208264840F2BB31FFF70CFC45F6C72045F2BF52EC
S3150208265845F28373C0F20820C0F20822C0F20823A2
S315020826684FF46E71FFF7FCFB45F6C72045F2BF52D9
S3150208267845F63E53C0F20820C0F20822C0F20823E3
S3150208268840F2B731FFF7ECFB70B5866B036C04466C
S3150208269843B31546CAB1E0681A4602F011F9E16869
S315020826A8206C2268091A9142E16003D2A168404265
S315020826B80844E060A81EB0FA80F040093146002EA8
S315020826C818BF01210840361A0CE060681A4602F05B
S315020826D8F7F8D4E90101226C10448842606001D3F4
S315020826E820686060701CA06370BDD4D4F0B581B050
S315020826F80446FEF728FC94F94560012E0EDB04F120
S31502082708240500BF286848B1284600F017FF08B113
S3150208271800F0F7FF70B2013E0128F3DCFF2684F8C1
S315020827284560FEF73BFCFEF70EFC94F94470012F50
S315020827380EDB04F1100500BF286848B1284600F0E8
S31502082748FDFE08B100F0DDFF78B2013F0128F3DC8F
S3150208275884F8446001B0BDE8F040FEF71FBCD4D443
S315020827682DE9F04F83B00028029200F0A28016469F
S315020827788946044619B9206C002840F0BA8000F048
S31502082788C7FF10B9002E40F0A480FEF7DCFBD4F888
S3150208279838A0BAF1000F28D0226C52B1D4E9020146
S315020827A81144E160814224BF2168E160484602F08B
S315020827B887F854F8100FAAF10101A16270B12046F0
S315020827C800F0BCFE50B14EF60450CEF200004FF0AF
S315020827D880510160BFF34F8FBFF36F8F0124FEF755
S315020827E8DDFB204603B0BDE8F08F04F1240801207A
S315020827F86F464FF0000B02AE0299002955D0C00762
S3150208280802D0384600F020FFFEF7C8FB00F037FB77
S31502082818FEF799FB94F84400FF2808BF84F844B0E9
S3150208282894F84500FF2808BF84F845B0FEF7B6FBBA
S315020828383846314600F015FF60B12046FFF756FFC5
S3150208284800F078FBFEF77FFBA56BFEF7A7FB75B3CF
S3150208285822E000BFFEF777FBA56BFEF79FFB2DB1BB
S315020828682046FFF743FF00F065FB15E0029940464C
S3150208287800F006FE2046FFF739FF00F05BFB58B961
S315020828884EF60450CEF200004FF080510160BFF3B5
S315020828984F8FBFF36F8F00BFFEF755FBD4F838A0EA
S315020828A80020BAF1000FA7D076E7002497E700249C
S315020828B897E745F6C72045F6A62245F25273C0F2AF
S315020828C80820C0F20822C0F2082340F2E951FFF7AD
S315020828D8C7FA45F6C72045F6A62245F2D153C0F2ED
S315020828E80820C0F20822C0F2082340F2F251FFF784
S315020828F8B7FA45F6C72045F6A62245F68433C0F246
S315020829080820C0F20822C0F2082340F2ED51FFF768
S31502082918A7FAD4D42DE9F04F83B00028029100F023
S315020829288E800446006C002840F099800D4600F017
S31502082938EFFE10B9002D40F0A280FEF704FBA16B4A
S31502082948D1B154F8100F0139A16270B1204600F0CE
S31502082958F5FD50B14EF60450CEF200004FF0805104
S315020829680160BFF34F8FBFF36F8F0124FEF716FB83
S31502082978204603B0BDE8F08F4EF6045904F1240840
S3150208298801206E464FF0000B02AFCEF200094FF057
S31502082998805A00BF029900294DD0C00702D0304696
S315020829A800F052FEFEF7FAFA00F069FAFEF7CBFAD9
S315020829B894F84400FF2808BF84F844B094F8450000
S315020829C8FF2808BF84F845B0FEF7E8FA30463946C4
S315020829D800F047FE60B12046FFF788FE00F0AAFA23
S315020829E8FEF7B1FAA56BFEF7D9FA35B31CE000BFB4
S315020829F8FEF7A9FAA56BFEF7D1FA2DB12046FFF71D
S31502082A0875FE00F097FA0FE00299404600F038FD85
S31502082A182046FFF76BFE00F08DFA28B9C9F800A020
S31502082A28BFF34F8FBFF36F8FFEF78DFAA16B0020A6
S31502082A380029AFD085E7002498E7002498E745F6E9
S31502082A48C72045F6371245F25273C0F20820C0F27B
S31502082A580822C0F2082340F28261FFF701FA45F616
S31502082A68C72045F6371245F60153C0F20820C0F2C8
S31502082A780822C0F2082340F28661FFF7F1F945F603
S31502082A88C72045F6371245F2D153C0F20820C0F2DC
S31502082A980822C0F2082340F28B61FFF7E1F9D4D481
S31502082AA8B0B500B3D1B142F6CC4E4FF0000CC2F223
S31502082AB80F2E0022002300BF0EEB02046568A84207
S31502082AC80DD023B92368002B18BF6446234608325B
S31502082AD8502AF1D1002B18BFC3E90010B0BD23460E
S31502082AE8C3E90010B0BD45F6C72045F28A4245F645
S31502082AF83F43C0F20820C0F20822C0F2082340F673
S31502082B08C931FFF7ADF970B515460E460446FEF704
S31502082B181AFA94F84400FF2804BF002084F84400EF
S31502082B2894F84500FF2804BF002084F84500FEF7FC
S31502082B3835FAA06B28B904F1240031462A4600F072
S31502082B48C0FC2046BDE87040FFF7D0BD2DE9F04726
S31502082B5886B0DDF83C9007460020B9F1000F0490CC
S31502082B6826D0109CA4B360200590059860283FD10A
S31502082B7805980E46DDF838A020466021984615467F
S31502082B8801F09AFE022084F85D0004A8C4F8309081
S31502082B98CDE900A0384631462A464346029400F053
S31502082BA8CBFD204600F034F8049806B0BDE8F08755
S31502082BB845F6423045F6FC2245F26053C0F2082033
S31502082BC8C0F20822C0F2082340F2F141FFF748F999
S31502082BD845F6423045F6FC2245F65303C0F208206C
S31502082BE8C0F20822C0F2082340F2F241FFF738F988
S31502082BF845F6423045F6FC2245F69453C0F20820BB
S31502082C08C0F20822C0F2082340F2FA41FFF728F96F
S31502082C182DE9F0470446FEF796F942F64050C2F205
S31502082C280F20016842F61C5701310160C2F20F27CC
S31502082C38396842F6245A42F64C56C2F20F2AC2F2AA
S31502082C480F2651B1DAF8000000283DD13868E16A42
S31502082C58C06A884298BF3C6036E03C600068012832
S31502082C6832D100257019FFF716FB1435642DF9D1F0
S31502082C7842F6F858C2F20F284046FFF70CFB42F60E
S31502082C880C69C2F20F294846FFF705FB42F6CC50F3
S31502082C98C2F20F20FFF7FFFA42F62850C2F20F20B7
S31502082CA8FFF7F9FA42F6B450C2F20F20FFF7F3FA21
S31502082CB842F6EC50C2F20F20C0F8008042F6F050F5
S31502082CC8C2F20F20C0F8009042F62050C2F20F2036
S31502082CD801680131016042F6B051C2F20F21E06A79
S31502082CE80A68904288BF086000EB800006EB8000FD
S31502082CF84068221DA0608168E1604A608260E06AD5
S31502082D0800EB800006EB8001616156F8201001315C
S31502082D1846F82010FEF742F9DAF8000078B1386862
S31502082D28E16AC06A88420AD24EF60450CEF2000018
S31502082D384FF080510160BFF34F8FBFF36F8FBDE825
S31502082D48F087F0B581B00446FEF7FDF842F61C5640
S31502082D58C2F20F2604B93468251D2846FFF7D1FAA8
S31502082D68A06A18B104F11800FFF7CBFA42F6205008
S31502082D78C2F20F20016842F6245701310160C2F2F5
S31502082D880F273068396891B1844210D142F6285023
S31502082D98C2F20F202946FFF78CFA42F63C50C2F2D5
S31502082DA80F20016801310160FEF7F8F81DE042F6C6
S31502082DB84050C2F20F2001680139016042F6EC5010
S31502082DC8C2F20F200168096819B10068C06800686C
S31502082DD801E04FF0FF3042F6E051C2F20F210860D7
S31502082DE8FEF7DCF8204600F028F8386898B130680B
S31502082DF8844210D142F64450C2F20F20006860B9E4
S31502082E084EF60450CEF200004FF080510160BFF32F
S31502082E184F8FBFF36F8F01B0F0BD45F6423045F6C6
S31502082E286D3245F23873C0F20820C0F20822C0F2A1
S31502082E38082340F61411FFF713F810B5044690F85C
S31502082E485D00022808BF10BD012803D038B9206BD7
S31502082E58FFF780F92046BDE81040FFF77BB945F62B
S31502082E68423045F2FE7245F61033C0F20820C0F227
S31502082E780822C0F2082341F62E11FEF7F1FF42F6A0
S31502082E884450C2F20F2001680131016070472DE9EA
S31502082E98F04381B00E4642F64851C2F20F210D6838
S31502082EA842F6EC51C2F20F21D1F8008042F6F051EF
S31502082EB842F61C54C2F20F21C2F20F24D1F800902E
S31502082EC821680746081DFFF71CFA781C16D1AEB109
S31502082ED842F6B450C2F20F20D0E900122368013133
S31502082EE89A6093682768FB60276804375F602368D7
S31502082EF80433936022680160506117E02068ED196F
S31502082F084560206800F1040105D3484601B0BDE8CA
S31502082F18F043FFF7D9B94046FFF7D6F942F6E0502B
S31502082F28C2F20F2001688D4238BF056001B0BDE8BC
S31502082F38F083D4D42DE9F047FEF705F842F6445053
S31502082F48C2F20F200168002900F0AC800168013935
S31502082F580160006828B10024FEF720F82046BDE87B
S31502082F68F08742F64050C2F20F2000680028F2D0D5
S31502082F7842F6CC50C2F20F20016842F6C85A42F607
S31502082F881C590029C2F20F2AC2F20F2964D042F646
S31502082F98B05242F64C530021C2F20F22C2F20F2354
S31502082FA84FF0010CC768FC68D4E90775A66ABD60C4
S31502082FB8E7696F60776804F11805AF4201D1276A95
S31502082FC87760A1623768013F3760D4E902656769A5
S31502082FD8B560A6686E607D68261DB54201D1E568AA
S31502082FE87D6061613D68013D3D60E76A1568AF42EB
S31502082FF888BF176007EB870703EB87077F68A76011
S31502083008BD68E5606E60BE60E76A07EB870703EB93
S315020830188706666153F82760013643F82760E76A28
S31502083028D9F80060F66AB74288BFCAF800C00768C6
S31502083038002FB7D142F6EC50C2F20F200168096890
S3150208304819B10068C068006801E04FF0FF3042F61F
S31502083058E051C2F20F21086042F6E858C2F20F2878
S31502083068D8F8006056B1012400F02EF908B1CAF85A
S315020830780040013EF8D10020C8F80000DAF800003E
S3150208308800283FF468AFD9F800004EF60450CEF28D
S3150208309800004FF080510160BFF34F8F0124BFF340
S315020830A86F8F59E745F6423045F60B0245F65A43FD
S315020830B8C0F20820C0F20822C0F2082340F68B7133
S315020830C8FEF7CEFE80B580B142F64451C2F20F2110
S315020830D80A6801320A600968012912D10021FFF734
S315020830E8D6FEFFF727FF00B180BD4EF60450CEF292
S315020830F800004FF080510160BFF34F8FBFF36F8F07
S3150208310880BD45F6423045F6FA3245F6D213C0F284
S315020831180820C0F20822C0F2082340F68E11FEF7EC
S315020831289FFED4D480B542F64450C2F20F200068F6
S3150208313830B142F6C850C2F20F200121016080BDA3
S3150208314842F6C850C2F20F20002142F6B05C01606E
S31502083158C2F20F2CDCF8001042F64C5301EB81023E
S31502083168C2F20F2353F8220003EB820230B900BFDA
S31502083178B9B152F8140D01390028F9D050684368D4
S3150208318802F108008342536001D1D3685360D868B4
S3150208319842F61C52C2F20F221060CCF800101068D0
S315020831A880BD45F6423045F24D5245F63053C0F2D7
S315020831B80820C0F20822C0F2082341F2FA31FEF7C3
S315020831C84FFE10B58AB044F24940C4F24C50002466
S315020831D8069005A804A903AA8DF81C40CDE904445B
S315020831E8FDF7D0FDDDE90320DDF814C0CDE900407E
S315020831F843F2D570C0F2082006A90023CDF808C004
S31502083208FFF7A4FC42F6E451C2F20F21086060B344
S3150208321800F0F3FA012811D0013026D145F64230DA
S3150208322845F6464245F6FD13C0F20820C0F20822C2
S31502083238C0F2082340F6A961FEF712FE42F6E051EB
S31502083248C2F20F214FF0FF32012080F310880A607C
S3150208325842F62451C2F20F21086042F64850C2F2D9
S315020832680F2000210160FDF72DFE46F2C810C0F2B4
S31502083278082000680AB010BDF0B581B042F63C5580
S31502083288C2F20F252868E0B142F6285642F6405798
S31502083298C2F20F26C2F20F27FDF755FEF068C46878
S315020832A8201DFFF72EF83868013838602868013873
S315020832B82860FDF773FE2046FFF7BFFD2868002839
S315020832C8EAD101B0F0BDD4D42DE9F04742F644500C
S315020832D8C2F20F20006848B142F6E850C2F20F203F
S315020832E80168013101600020BDE8F08742F64850BE
S315020832F8C2F20F20016842F6E05C4A1CC2F20F2CA1
S31502083308026022D342F6EC50C2F20F20016809681D
S31502083318002940F09F8042F6F053C2F20F23016853
S315020833281F680760196042F6F451C2F20F210B684A
S3150208333801330B600168096819B10068C06800683A
S3150208334801E04FF0FF30CCF80000DCF800008242BA
S3150208335801D2002074E042F6EC5AC2F20F2ADAF8D1
S3150208336800004FF000090068002864D042F6B05EF3
S3150208337842F64C5442F61C58C2F20F2EC2F20F24D9
S31502083388C2F20F28002000BFDAF80050ED68EE688E
S31502083398374657F8045FAA4250D3D6E90213756925
S315020833A88B60B16859606968B94201D1F168696088
S315020833B8C6F81490296801392960B56A85B1D6E92B
S315020833C807138B60F1695960696806F1180399420F
S315020833D801D1316A6960C6F82890296801392960D5
S315020833E8F56ADEF800108D4205EB850188BFCEF82E
S315020833F8005004EB81014968B1608B68F3605F602D
S315020834088F60F16A01EB810104EB8103736154F859
S315020834182130013344F82130F16AD8F80030DB6AE2
S31502083428DAF80050994288BF012029680029ABD1E9
S315020834384FF0FF3502E04FF0FF350020CCF8005078
S3150208344842F6C851C2F20F210968002918BF01209D
S31502083458BDE8F08745F6423045F6B42245F2D74329
S31502083468C0F20820C0F20822C0F2082341F25F21FE
S31502083478FEF7F6FC42F64850C2F20F20006870477B
S3150208348810B570B10C4642F61C51C2F20F210968F2
S315020834981831FEF719FF20460121BDE81040FFF74B
S315020834A8F6BC45F6423045F6294245F6ED13C0F212
S315020834B80820C0F20822C0F208234FF4A451FEF7E6
S315020834C8CFFC10B550B342F61C5CC2F20F2C034669
S315020834D8D0F804E0DCF80000002AC0F81CE0DEF8A0
S315020834E80800DCF800402062DCF8004004F1180401
S315020834F84460DCF8000000F11800CEF80800DCF891
S3150208350800008362186818BF4FF0FF31441C08464A
S3150208351811461C60BDE81040FFF7B9BC45F64230B3
S3150208352845F61A0245F6ED13C0F20820C0F208223B
S31502083538C0F2082341F2BE41FEF792FC80B5C06884
S31502083548C068002870D0D0E90713826A8B60C169FF
S315020835585960536800F118018B4201D1036A536016
S31502083568002383621368013B136042F64452C2F28F
S315020835780F2212688AB142F6CC5CC2F20F2CDCE939
S3150208358800E2C26193680362596091600EF1010113
S31502083598C0F828C0CCF8001034E0D0E90213426912
S315020835A88B60816859605368011D8B4201D1C368D3
S315020835B8536000234361136842F6B05C013B13600B
S315020835C8C2F20F2CC26ADCF800309A4288BFCCF8DD
S315020835D8002042F64C5C02EB8202C2F20F2C0CEB7C
S315020835E88202526882609368C36059609160C16AB0
S315020835F801EB81010CEB810242615CF82120013260
S315020836084CF8212042F61C51C2F20F21C06A0968F9
S31502083618C96A884291BF002042F6C851C2F20F21F0
S31502083628012088BF086080BD45F6423045F63A0251
S3150208363845F25E73C0F20820C0F20822C0F20823D7
S3150208364841F2F541FEF70CFC42F6F451C2F20F219B
S315020836580968016042F64851C2F20F2109684160B9
S31502083668704770B568B30D46D9B30446FDF76BFCC7
S3150208367842F6485EC2F20F2EDEF8003029684A1C66
S3150208368816D042F6F45CC2F20F2CD4E90002DCF832
S315020836980060864201D093420CD29A1A914209D9FD
S315020836A8881A2860DCF800002060DEF800006060EE
S315020836B8002402E0002001242860FDF76FFC20465A
S315020836C870BD45F6423045F6DD3245F2D073C0F292
S315020836D80820C0F20822C0F2082341F2A551FEF7D3
S315020836E8BFFB45F6423045F6DD3245F6C003C0F261
S315020836F80820C0F20822C0F2082341F2A651FEF7B2
S31502083708AFFB42F6C850C2F20F200121016070478A
S3150208371842F62450C2F20F20006850B142F64450CD
S31502083728C2F20F20006800284FF0000008BF0220E6
S31502083738704701207047D4D42DE9F0470A9F82467C
S31502083748089C386B984669B107F13403002600BF0E
S315020837588D5D9D551DB10F2E06F10106F8D1002182
S3150208376887F84310052C21D200EB8200043820F092
S315020837780706DDF82490381DFC62FEF797FD07F167
S315020837881800FEF793FDC4F10500396BB861304697
S31502083798524643463F617F62FDF77CFBB9F1000F4B
S315020837A8386018BFC9F80070BDE8F08745F6423098
S315020837B845F66E0245F2DA73C0F20820C0F208220C
S315020837C8C0F2082340F26471FEF74AFB42F64C54EB
S315020837D84EF60455C2F20F24CEF200054FF0805673
S315020837E8FFF74AFD2068022822BF2E60BFF34F8FD3
S315020837F8BFF36F8FFDF72CFCF2E780B586B000F0B1
S315020838083BF842F62060C2F20F20006820B3002077
S31502083818CDE9040005A804A903AAFDF7C0FADDE95B
S3150208382803200321DDF814C0CDE9001043F6FD0094
S3150208383845F6AE41C0F20820C0F208210023CDF8A9
S3150208384808C0FFF783F942F62461C2F20F2108601D
S3150208385810B1012006B080BD45F27D5045F61A52D0
S3150208386845F6CE03C0F20820C0F20822C0F20823A1
S315020838784FF4A371FEF7F4FA70B582B0FDF763FB4D
S3150208388842F62066C2F20F26306868BB42F63464EE
S31502083898C2F20F242046FEF7FEFC42F64865C2F23B
S315020838A80F252846FEF7F7FC42F62860C2F20F20D3
S315020838B8046042F62C60C2F20F2042F6A46242F66F
S315020838C85C6305600025C2F20F22C2F20F230A20A2
S315020838D80C210095FEF785FD306028B145F2BA51EC
S315020838E8C0F20821FFF7DCF802B0BDE87040FDF720
S315020838F855BBD4D484B042F6286842F62065C2F28B
S315020839080F2801ACC2F20F254FF0000BEA4600BF9A
S31502083918D8F80000D0F80090B9F1000F02D0C068B4
S31502083928066800E00026FFF7AAFA204600F0AAF879
S31502083938019919B1FFF7FEFA2EE000BF0746B9F159
S31502083948000F08D0BE4206D8FFF7F4FA30463946C1
S3150208395800F0C3F820E0B9F1000F01D0002208E010
S3150208396842F62C60C2F20F2000680068B0FA80F0AE
S3150208397842092868F11BFFF7C6F8FFF7DBFA58B9B8
S315020839884EF60450CEF200004FF080510160BFF3A4
S315020839984F8FBFF36F8F00BF2868CDE902BBCDF8FA
S315020839A804B000BF21460022FEF7DAFE0028AFD08F
S315020839B8019800284CD4039E706910B1301DFEF791
S315020839C8A0FC504600F05EF80199013908293FD84B
S315020839D80746DFE801F005052C1C3F05052C1C00E7
S315020839E896F82400029BB16940F0010086F8240083
S315020839F8194430463A4600F0A8F848B396F824001F
S31502083A0841071BD400F0FA0086F824001DE096F850
S31502083A18240040F00101029886F82410B06108B320
S31502083A28C11930463A463B4600F08FF810E096F838
S31502083A38240000F0FE0086F8240009E00298B1691D
S31502083A483A460144304600F069F8316A30468847F2
S31502083A582868A7E796F824008107EAD43046FEF7CD
S31502083A6879FBF5E745F27D5045F6804245F6AD53B2
S31502083A78C0F20820C0F20822C0F208234FF4826175
S31502083A88FEF7EEF9F0B581B00446FFF7F3FC42F605
S31502083A983066C2F20F263168054688420ED242F6C9
S31502083AA82867C2F20F2700BF3868016841B1C068A3
S31502083AB84FF0FF31006800F010F8F5E7002007E03C
S31502083AC842F62C61C2F20F210A68086001203A60A0
S31502083AD820602846356001B0F0BD70B542F6286206
S31502083AE8C2F20F2212680646D2680D46D468201D0D
S31502083AF8FEF707FC94F82400410704D400F0FA00FC
S31502083B0884F8240004E0204631462A4600F006F8DE
S31502083B18216A2046BDE870400847D4D470B50546E0
S31502083B28806914460E460144284600BF334600F00B
S31502083B380CF848B1A869296A064428468847A86934
S31502083B48224681192846F1E770BD8C46014641F896
S31502083B5804CF9445006108D942F628609A42C2F20F
S31502083B680F200AD29C4508D30DE08069D21A8242F0
S31502083B7809D242F62C60C2F20F2080B50068FEF719
S31502083B88A3FB002080BD01207047D4D4D4D4D4D452
S31502083B982DE9F04381B052EC101B002558EC113B75
S31502083BA8C8F210054FF0010C22F000474E1E28F005
S31502083BB8004007EB050474EB0506C0F08F8046192A
S31502083BC8B3EB0C04AE41C0F08980CE1A964677EB61
S31502083BD8000018463CBF0846194643463CBF1346EA
S31502083BE8C6467446CEF30A5C6FF31F54C3F30A55E6
S31502083BF8BCF1000F1CD1B1FA81F7002C07F1200796
S31502083C0818BFB4FA84F7A7F10B09B7F12B0604FA19
S31502083C1809FCC7F12B0421FA04F444EA0C04C7F197
S31502083C280C0C58BF01FA06F401FA09F158BF00212B
S31502083C386FF31F53D5B9B0FA80F5002B05F12005A5
S31502083C4818BFB3FA83F5C5F12B07A5F10B0620FAB7
S31502083C5807F7B3403B43B5F12B07C5F10C0558BF27
S31502083C6800FA07F300FA06F058BF002088EA0206A7
S31502083C78DA0042EA5072E30042F4000243EA517358
S31502083C88C000AC453FD0ACEB05043F2C39D8C4F18B
S31502083C984005C5F1200702FA05F800FA05F520FAE3
S31502083CA807F747EA0807D4F1200858BF00FA08F7C1
S31502083CB858BF0025E0403D4302FA08F740EA0700E4
S31502083CC818BF0125B4F1200758BF22FA07F022FACD
S31502083CD804F240EA050058BF002214E000244E1EEA
S31502083CE8C7F6F07477EB040602D342F400206EE0B6
S31502083CF85E1E70EB040628D348F4002040EC113BFC
S31502083D08E3E00022012043F400030EF00044C90050
S31502083D18B6F1FF3F0DDD09185A41D3014ED55FEAC0
S31502083D2852024FEA310100F001000CF1010C01437D
S31502083D3844E081EA000783EA0206091A63EB0202EB
S31502083D483743DFB99FED6A1BBFE087EA04060E43CD
S31502083D5840F0918083EA0100BCF101039FED660BEE
S31502083D6880EA030065F5801388EA02077B4056EC69
S31502083D78105B18431CBF16460D46A4E00020B0EB9C
S31502083D88D25F1BD1B1FA81F0002A00F1200018BFD0
S31502083D98B2FA82F0A0F10803C0F12807ACEB030CCB
S31502083DA89A40283821FA07F742EA070258BF01FA61
S31502083DB800F201FA03F158BF00210BE040F2FF7046
S31502083DC8844507DB44F0E040002140F07F6040EC80
S31502083DD8111B7AE0BCF1000F2BDC6FF01E070CF101
S31502083DE83F00A7EB0C0702FA00F301FA00F021FAE2
S31502083DF807F633431CF11F0658BF01FA06F358BFE4
S31502083E0800201843CCF10103C3F1200618BF01208C
S31502083E18D940002F02FA06F641EA060158BF22FAE5
S31502083E2807F122FA03F241EA00014FF0000C58BFE3
S31502083E380022C80840EA4275C2F3D30001F0070710
S31502083E4840EA0C5040EA040600F064F802282BD02F
S31502083E58012820D098BB681C46F10001042F9CBF94
S31502083E682846314638D105F001002D1846F10006D4
S31502083E7800F05CF827E080EA04061E4325D051EADA
S31502083E8807062CD0B0EE401A53EA0006F0EE601A7E
S31502083E987FF49BAE19E03846002F18BF0120002C84
S31502083EA818BF0124204007E0B4FA84F13846002FE7
S31502083EB818BF0120490908402D1846F10006002FA7
S31502083EC818BF00F033F846EC115BB0EE410AF0EE83
S31502083ED8610A01B0BDE8F08305460E46EFE71843C6
S31502083EE8F3D103EA010008EA020141EC110BECE7F7
S31502083EF80000000000000000000000000000F87F33
S31502083F0880B541EC100B43EC112BFFF741FE51EC3F
S31502083F18100B80BD0448F1EE101AC1F3815178449A
S31502083F2850F82100704700BF26200000F1EE100A5B
S31502083F3840F01000E1EE100A00207047D4D4D4D419
S31502083F482DE9F04F85B051EC11AB4FF6020754EC48
S31502083F5810BBCFF6FF7781EA04000E46A64600F0A4
S31502083F68004CC4F30A506FF31F56A0F2FF726FF3A0
S31502083F781F5EC1F30A53BA4221BFA3F2FF724FF674
S31502083F880107CFF6FF77BA420FD8002524F0004773
S31502083F98C7F6F075BBF1010277EB0502C0F093800C
S31502083FA844F4002040EC10BB81E102A981E809101B
S31502083FB80020019046F4801C4FEA5A514FF23332D8
S31502083FC8002341EACC21C7F20452521ACDF800A0BE
S31502083FD8A1FB02567542A5FB0225D20F42EA450203
S31502083FE8A2FB01567542A2FB0525D20F42EA4502F3
S31502083FF8A2FB015675420026A2FB0525D20F42EA04
S3150208400845024FEACA25013AA5FB02570025E1FBF4
S315020840180275D7F1010166EB0505A2FB0557A1FB57
S3150208402802127F0047EAD577C90F41EA420111EB26
S31502084038450147EBD2724EF48017E13962F1000264
S315020840484FEA4B0E780040EADB79A2FB0E04E2FB44
S315020840580943A1FB09256419A1FB0E1543F10003BF
S31502084068A91846F100024018DDE90210624143F137
S315020840780008081A0199B6EB585F01EB000404F226
S31502084088FF312CD1B8F5801F38BF012602FA06F08F
S315020840984FEA5202A0FB0A5300FB0C3786F01F03AD
S315020840A8039538BF04F2FE3108FA06F5DA4045EAFE
S315020840B80203039C013903FB0A724FEA4B5766420D
S315020840C867EB02081CE021F00044BAF1010274EB1E
S315020840D805022ED341F4002040EC10ABE7E05FEA74
S315020840E858034FEA3200A0FB0A264FEA0B54DE466B
S315020840F8B94600FB0C6603FB0A65564264EB0508DB
S3150208410840F2FF72914205DB049840F0E04040F025
S315020841187F607FE0012922DB4FEA48026FF31F53CB
S3150208412842EAD67443EA01527100049DDDF800A0FA
S31502084138AAE087EA050151EA0B0107D184EA0500D4
S3150208414850EA0A0064D19FED640BB0E084EA0501DF
S3150208415851EA0A010BD100204CEC100BA7E011F129
S31502084168350F5BDC0499002041EC100B9FE05BEAF3
S31502084178070100F09F805AEA040149D04FF0000966
S315020841880025B9EB175F1ED1BBFA8BF2BEF1000FF9
S3150208419802F1200218BFBEFA8EF2C2F12B05A2F16D
S315020841A80B072BFA05F50EFA07F145EA010EB2F1E5
S315020841B82B0558BF0BFA05FEC2F10C050BFA07FBCD
S315020841C858BF4FF0000B02A9B9EB145F81E8091032
S315020841D87ED1BAFA8AF1002E01F1200118BFB6FA81
S315020841E886F1A1F10B0206FA02F7C1F12B062AFAA1
S315020841F806F63E43B1F12B07294458BF0AFA07F6D1
S31502084208A1F10C000AFA02FA58BF4FF0000AD0E6E2
S315020842184CEA0500002140EC101B48E0C1F10102F6
S315020842286FF01304C2F12007641AD04023FA02F287
S3150208423803FA07F738436FF01E072EFA04F47F1AB3
S3150208424858BF23FA07F0DDF800A058BF0022AAFBD8
S3150208425800760AFB026301F13406143109FA06F5F7
S315020842680CFB003345EA040558BF0EFA01F50EFAA7
S3150208427806F158BF0021B1EB47014FEA430343EA67
S31502084288D77365EB0304049D431C00F0010642F14B
S315020842980007891944F10006BAEB01017CEB06010D
S315020842A824BF0346174647EA050040EC103B05B00B
S315020842B8BDE8F08F9FED080B5AEA04014FF000009B
S315020842C851EC102B1CBF6146024641EC102BEEE757
S315020842D801956FE600BF00BF000000000000F87FE6
S315020842E880B541EC100B43EC112BFFF729FE51EC74
S315020842F8100B80BD10EE100A0246C0F3C7516FF3C1
S31502084308DF5239B1FF291ED14FEAD20C520740F2C1
S31502084318FF7324E0FAB1B2FA82F1C1F10B03B1F1E3
S315020843280B0C22FA03F358BF02FA0CF383F4801C27
S3150208433840F28933A3EB010301F1150102FA01F2EE
S3150208434858BF00220BE0C30D4FEAD20CDBB2520764
S3150208435803F5607303E000224FF0000C002300F017
S31502084368004040EA035040EA0C0040EC102B704724
S3150208437880B500EE100AFFF7BDFF51EC100B80BDA1
S31502084388C1F30A5240F2FF339A423CBF00207047F3
S31502084398A2F21F4313F1210F9EBF6FF0004080EA75
S315020843A8E170704780B540F233434FF0010C9B1A0F
S315020843B88E466CF31F5ED840C3F120030EFA03F348
S315020843C8184340F213439A1A58BF2EFA02F0B1F16B
S315020843D8FF3FD8BF404280BD002822D0014648BFC9
S315020843E84142B1FA81F2C2F10B03B2F10B0C21FA7E
S315020843F803F358BF01FA0CF383F4801C40F21E43F8
S31502084408A3EB020302F1150201FA02F10CEB0353BC
S3150208441858BF0021002848BF43F0004343EC101B4D
S3150208442801E09FED030B51EC100B704700BF00BF6C
S315020844380000000000000000E8B1B0FA80F181F03F
S315020844481F02D2F1140CC2F13402C2F1200320FA77
S3150208445803F358BF00FA0CF383F4801C40F21E4398
S31502084468A3EB010100FA02F00CEB015158BF002038
S3150208447841EC100B01E09FED020B51EC100B704753
S3150208448800000000000000002DE9F04F81B055EC4D
S31502084498101B4FF6020356EC110BCFF6FF7386EA8A
S315020844A805022C4602F0004C3246C5F30A596FF348
S315020844B81F52A9F2FF776FF31F54C6F30A5E9F428B
S315020844C821BFAEF2FF734FF60107CFF6FF77BB425D
S315020844D80CD840F2000825F00047C7F6F0784B1EBC
S315020844E877EB080335D345F4002057E04FF0000A66
S315020844F844F48014C302D20242EA5050A3FB04577A
S3150208450840F0004000264FF00048E0FB0476A3FB83
S315020845180123A0FB01103F1846F100065B1948F172
S315020845280045581809EB0E03534457EB050146F1A3
S315020845380005A3F2FF33EF0216D4470047EAD274FE
S315020845486F0047EAD1754900520041EAD071204600
S315020845580BE026F00045431E75EB080315D346F40F
S31502084568002141EC100B1BE0013340F2FF77BB42F6
S3150208457804DB4CF0E04040F07F600EE0002B1CDDC7
S315020845886FF31F5545EA035368E087EA08030B43A6
S3150208459809D128430ED04CEA0800002140EC101B2A
S315020845A801B0BDE8F08F85EA080303436AD151EAE8
S315020845B80700F0D19FED5A0BF2E7C3F101063F2E29
S315020845C866D803F13F046FF01E07A7EB030922FA20
S315020845D806FB05FA04FE21FA09F747EA0E0A13F159
S315020845E81F0EC6F1200358BF01FA0EFA009300FA05
S315020845F803F722FA09F347EA0B0700FA04FB43EA28
S315020846080B0358BF02FA0EF302FA04F258BF002245
S3150208461842EA030201FA04F358BF0023002A18BF24
S315020846280122B6F1200458BF20FA04F743EA070321
S3150208463842EA0302009B21FA06F120FA06F005FA75
S3150208464803F341EA030158BF25FA04F158BF0020CB
S3150208465825FA06F340EA0A0058BF002343EA0C0380
S31502084668574278EB000701D2013106E080EA0800D2
S31502084678104304D101F00100091843F1000343EC81
S31502084688101B8DE751EA070318BF50EA050303D141
S3150208469800204CEC100B83E74FF000084FF0000A95
S315020846A8B8EB175F1AD1B1FA81F3002C03F120038C
S315020846B818BFB4FA84F3A3F10B06C3F12B07C3F1A7
S315020846C80C0AB44021FA07F73C43B3F12B0758BF43
S315020846D801FA07F401FA06F158BF0021B8EB155F8B
S315020846E87FF406AFB0FA80F3002A03F1200318BF55
S315020846F8B2FA82F3C3F12B07A3F10B0520FA07F7DF
S31502084708AA403A43B3F12B07AAEB030358BF00FAA8
S3150208471807F203F10C0A00FA05F058BF0020E7E68B
S31502084728000000000000F87F80B541EC100B43EC4E
S31502084738112BFFF7A9FE51EC100B80BD80B582B08C
S3150208474843EC102B8DED000B41EC100B9DF807205E
S3150208475882F080008DF807009DED001BFFF718FA16
S3150208476851EC100B02B080BD10B541EC100B43ECAE
S31502084778112B00F03EF8002801D0002010BD0120B8
S3150208478810BD00BF10B541EC100B43EC112B00F01D
S3150208479830F8002801DB002010BD012010BD00BF3B
S315020847A810B541EC100B43EC112B00F022F8002847
S315020847B801DD002010BD012010BD00BF10B541EC77
S315020847C8100B43EC112B00F045F8002801DA0020FB
S315020847D810BD012010BD00BF10B541EC100B43EC0B
S315020847E8112B00F037F8002801DC002010BD012043
S315020847F810BD70B55EEC102B00250120C7F6F075C2
S315020848082EF00041534275EB010322D35CEC113BAF
S315020848182CF000445E42A5411BD343EA0200214319
S31502084828084309D01CEA0E0008D4D01A7EEB0C00FD
S3150208483808DA4FF0FF3070BD002070BD981A7CEB7D
S315020848480E00F6DB82EA03008EEA0C01084318BF5B
S31502084858012070BD70B55EEC102B00254FF0FF30B5
S31502084868C7F6F0752EF00041534275EB010322D3C1
S315020848785CEC113B2CF000445E42A5411BD343EA8B
S3150208488802002143084309D01CEA0E0008D4D01AAC
S315020848987EEB0C0008DA4FF0FF3070BD002070BDC1
S315020848A8981A7CEB0E00F6DB82EA03008EEA0C0104
S315020848B8084318BF012070BD0A46002100F009B84E
S315020848C810B500239A4203D0CC5CC4540133F9E7E5
S315020848D810BD00239A4208BF7047C1540133F9E74D
S315020848E810B505490446054AFFF7EAFF044805498B
S315020848F82044FFF7E1FF10BDB800080200000000D7
S3150208490800000000000000000249401A0249086037
S31502084918704700BF080000001C2F0F222DE9F84334
S315020849282DED028B55EC104B5F4BB0EE408AE843EF
S31502084938F0EE608A18420ED1B5F1FF3F04DC00F0AA
S31502084948B7F800F079FDC8B12046294622462B4613
S31502084958FFF7D6FA9EE0002D08DD281538BB002099
S31502084968ADB96105E50A15380C46F9E725F00040A0
S31502084978204300F09180B5F1FF3FEEDC00F098F88D
S31502084988BDEC028B01B0BDE8F04300F065BD00211D
S31502084998EA0202D401316D00FAE7C1F120020029C0
S315020849A824FA02F218BF1543401A8C400130012135
S315020849B8A0F2FF3C61F31F5599465FEACC701EBF09
S315020849C8680040EAD4756400680040EAD4754FF472
S315020849D8001000264FF00008640060B18119A94248
S315020849E8DCBF80440E18691AB8BF29464008490030
S315020849F841EAD475F0E74FF000474FF0000E002061
S31502084A08FFB13918B54212DDAD1B00238C4238BFF7
S31502084A18013D002948BF0123C8190022B0F1FF3F0A
S31502084A28C8BF01221A40BE441644641A03E002D1DA
S31502084A388C42E9D22E46690041EAD4757F08640099
S31502084A48DEE754EA050019D0F1EE100A010215D478
S31502084A581EF101010AD000F44000B0F5800F0AD110
S31502084A681EF1020E08BF08F1010807E008F101085D
S31502084A784FF0000E02E00EF00100864409F10041EB
S31502084A880A4A01EACC414FEAC87001EB680140EAD2
S31502084A985E00114441EC180B00F00AF8BDEC028BD3
S31502084AA801B0BDE8F08300BF0000F07F0000E03FD8
S31502084AB8B0EE480AF0EE680A7047D4D470B554ECDA
S31502084AC8105B40F21241C4F30A50A0F2FF3688423C
S31502084AD80AD8214940F2FE32904217D804F000401B
S31502084AE8721C08BF08441EE040F2334188421CD3B0
S31502084AF8284621462A462346FFF702FAB6F5806F64
S31502084B081CBF2146284641EC100B70BD1348F040DD
S31502084B18204028431ED001F140404FF40021F140BD
S31502084B28304121440840002112E0A0F213414FF017
S31502084B38FF3222FA01F129420CD040F23242101A07
S31502084B48012202FA00F0401920EA010144F10000A4
S31502084B5840EC101B70BD00BF0000F03FFFFF0F00BE
S31502084B682DE9F84F2DED047B54EC105BE84924F047
S31502084B78004088420BD3E9490844284300F0988044
S31502084B88BDEC047B01B0BDE8F04F00F065BCE14915
S31502084B98884206D8E049884280F091809FEDD40B76
S31502084BA8EFE09FEDB70BB4F1FF3F40F3EF8051EC0E
S31502084BB8100B2A462346CDE90001FFF7BFFD9FEDF4
S31502084BC8B20B00F0C8F941EC100B06460F46FFF780
S31502084BD8A5FE59EC108B0020002249464B46FFF7E2
S31502084BE8A3FD00F0ADF9FFF7A9FD05460C464046B8
S31502084BF8494600224B46FFF783F902460B462846E2
S31502084C082146FFF76DFB9FEDA20B04460D4600F001
S31502084C189CF99FEDA10B00F08FF900F081F99FED41
S31502084C28A00B00F089F900F07BF99FED9F0B00F0C5
S31502084C3883F900F075F99FED9E0B00F07DF900F0F7
S31502084C486FF99FED9D0B00F077F900F069F99FED72
S31502084C589C0B82468B4600F078F99FED9B0B00F079
S31502084C686BF900F05DF99FED9A0B00F065F900F013
S31502084C7857F99FED990B00F05FF900F051F9DDE954
S31502084C880023FFF73DF902460B4650465946FFF7F9
S31502084C9827FB42464B46FFF747FD22462B46FFF7B8
S31502084CA82FF900224B46FFF72BF902460B4664E01A
S31502084CB893A0002CC8BF083090ED000B61E0284687
S31502084CC821462A462346FFF72FFD9FED710B064616
S31502084CD80F4600F040F99FED700B00F02DF900F031
S31502084CE81FF99FED6F0B00F027F900F019F99FEDF0
S31502084CF86E0B00F021F900F013F99FED6D0B00F029
S31502084D081BF900F00DF99FED6C0B00F015F900F090
S31502084D1807F99FED6B0B8046894600F016F99FED59
S31502084D286A0B00F009F900F0FBF89FED690B00F031
S31502084D3803F900F0F5F89FED680B00F0FDF800F0AE
S31502084D48EFF89FED4F0B00F0F7F802460B46404680
S31502084D584946FFF7C5FA02460B4628462146FFF793
S31502084D68E3FC9FED650B00F0FAF82A462346FFF79F
S31502084D78E5FC9FED5F0B53EC102BFFF7C1F841ECEE
S31502084D88100BBDEC047B01B0BDE8F08F58EC109B04
S31502084D98284621464A464346FFF7B2F89FED3A0B9C
S31502084DA800F0D9F89FED3A0B04460D4641EC180B6C
S31502084DB800F0D1F89FED380B00F0BEF800F0B6F80F
S31502084DC89FED370B00F0B8F800F0B0F89FED360BF8
S31502084DD800F0B2F800F0AAF89FED350B00F0ACF82F
S31502084DE800F0A4F89FED340B00F0A6F800F09EF840
S31502084DF89FED330B06460F46204653EC102B2946E1
S31502084E08FFF792FC9FED300B00F096F800F08EF84B
S31502084E189FED2F0B00F090F800F088F89FED2E0B07
S31502084E2800F08AF800F082F84A464346FFF768F81F
S31502084E3800F086F8FFF754FAB0EE480A0446F0EE90
S31502084E48680A0D46FFF76AFD57EC106B2046294695
S31502084E5832463B46FFF768FC9FED210B00F06CF8DB
S31502084E6800F06EF8FFF74CF802460B46FFF748F8CB
S31502084E789FED1D0B00F073F841EC100B81E700BF9C
S31502084E88000000000000F03F000000000000E03FBC
S31502084E9809F7FD0DE13D023F88B20175E0EF493F8A
S31502084EA83B8F68B52882A4BF5544880E55C1C93FA9
S31502084EB87D6FEB0312D6D4BF555555555555C53F83
S31502084EC882922EB1C5B8B33F59018D1B6C06E6BF4F
S31502084ED8C88A599CE52A00404B2D8A1C273A03C0E2
S31502084EE8075C143326A691BC182D4454FB210940A5
S31502084EF8182D4454FB21F93F075C143326A6913C26
S31502084F08182D4454FB210940000000000000000047
S31502084F180000F03FFFFFDF3F0100603C000010C0C1
S31502084F2802460B4630463946FFF7FEBB02460B4693
S31502084F3820462946FFF7F8BB53EC102BFEF7E0BFCD
S31502084F4802460B46304639467047304653EC102B14
S31502084F583946FFF7E9BB53EC102BFFF7E5BB0246C8
S31502084F680B4651EC100BFFF7E9BBD4D4D4D4D4D4EE
S31502084F782DE9F04153EC112B574F51EC100B23F046
S31502084F880045002A2C4618BF44F00104BC4208D83A
S31502084F9821F000460028344618BF44F00104BC42F2
S31502084FA805D9FEF7ADFF41EC100BBDE8F0814B4C75
S31502084FB81C44144316D0022404EA937444EAD178AA
S31502084FC856EA000412D055EA020416D0BD4212D196
S31502084FD8BE4214BF4248434800EBC80090ED000B96
S31502084FE8BDE8F081BDE8F04100F07EB8B8F1020FDD
S31502084FF80ED2BDE8F081BE4213D19FED2D0BC90F23
S3150208500852EC100B61F3DF7242EC100BBDE8F0812B
S31502085018B8F1030F14BF9FED2E0B9FED2B0BBDE8BE
S31502085028F081741B25153C2D02DD9FED210B15E039
S31502085038B3F1FF3FD8BF15F13C0F0DDBFFF750F967
S315020850489FED1D0B53EC102BDA0F62F3DF7141EC5F
S31502085058100B00F049F801E09FED170BDFE808F09E
S3150208506802030819C5E751EC100B81F000419AE7CB
S3150208507851EC100B9FED120B53EC102BFEF740FF69
S315020850889FED130B02460B4651EC100BFFF756FB26
S3150208509889E751EC100B9FED0A0B53EC102BFEF720
S315020850A82FFF9FED090B53EC102B7AE700BF00BFC1
S315020850B8182D4454FB21F93F0000000000000000A7
S315020850C8075C143326A6A1BC182D4454FB2109C033
S315020850D8182D4454FB2109400000F07F000010C037
S315020850E8D0610802106208022DE9F84F2DED066B09
S315020850F85AEC104BBE482AF0004B83450CD3C148DC
S31502085108834502D8D4B3834538D120465146224628
S315020851185346FEF7F5FEDEE0B64800F1DE718B452A
S3150208512806D28345C0F0118101914FF0FF3064E041
S315020851389FED890B5546019152EC101BD10F61F36D
S31502085148DF75AD498B4521D200F1E370834537D225
S315020851582046294622462B46FEF7D2FE9FED800BAD
S3150208516800F058F99FED860B00F05EF9FEF7C8FEC7
S3150208517800F054F941EC100B00203EE098A0BAF171
S31502085188000FC8BF083090ED000BDEE001F5841069
S31502085198834527D29FED740B2046294600F03AF933
S315020851A89FED730B00F040F9FFF7BEFA9FED720BFD
S315020851B800F030F900F032F941EC100B02201CE03D
S315020851C89FED670B2046294600F024F99FED6A0BE6
S315020851D800F02AF9FEF794FE00F020F941EC100BCC
S315020851E801200AE09FED5E0B22462B4651EC100B76
S315020851F8FFF776F841EC100B032058EC109B009049
S31502085208484641464A464346FFF78EFA02460B4641
S3150208521806460C46FFF788FA9FED5B0B07460D46CE
S3150208522853EC102BFFF780FA9FED590B00F0F2F8B2
S3150208523800F0EAF89FED580B00F0ECF800F0E4F8F5
S315020852489FED570B00F0E6F800F0DEF89FED560BD7
S3150208525800F0E0F800F0D8F89FED550B00F0DAF800
S3150208526802460B4630462146FFF75EFA9FED520B79
S3150208527806460C46384653EC102B2946FFF754FACD
S315020852889FED4F0B00F0C6F800F0BEF89FED4E0BE7
S3150208529800F0C0F800F0B8F89FED4D0B00F0BAF828
S315020852A800F0B2F89FED4C0B00F0B4F800F0ACF839
S315020852B8019A934512D232462346FEF721FE024642
S315020852C80B4648464146FFF72FFA02460B4648461A
S315020852D84146FFF733FA41EC100B36E032462346CD
S315020852E8FEF70EFE009C024644480B46414600EB72
S315020852F8C40090ED008B4846FFF716FA53EC182BB4
S31502085308FFF71CFA4A464346FFF718FA02463C488C
S315020853180B4600EBC40090ED000B51EC100BFFF79F
S315020853280DFA41EC100BBAF1000F8DED020B9DF840
S315020853380F2082F080028DF80F20029AA8BF024633
S315020853480398A8BF084640EC102BBDEC066B01B0C3
S31502085358BDE8F08F00BF00BF000000000000000093
S31502085368000000000000F0BF000000000000F8BFBF
S31502085378000000000000F83F000000000000F03FAF
S31502085388000000000000004011DA22E33AAD903F1F
S31502085398EB0D76244B7BA93F513DD0A0660DB13F54
S315020853A86E204CC5CD45B73FFF8300922449C23FBC
S315020853B80D5555555555D53F2F6C6A2C44B4A2BF81
S315020853C89AFDDE522DDEADBF6D9A74AFF2B0B3BF49
S315020853D8711623FEC671BCBFC4EB98999999C9BFC1
S315020853E8182D4454FB21F9BF182D4454FB21F93FC3
S315020853F8000010440000203E0000F33F3062080215
S31502085408F06108020000F07F02460B463846294634
S31502085418FFF78AB953EC102BFEF772BD02460B4604
S3150208542830463946FEF75CBF06460F46204653EC19
S31502085438102B29467047D4D451EC100B054A21F093
S315020854480041002818BF41F001010020914288BF97
S31502085458012070470000F07F80B5FFF7EDFF9FED4A
S31502085468020B80BD00BF00BF000000000000F87FE5
S315020854787578437269746963616C4E657374696E8B
S315020854886700765175657565416464546F52656738
S315020854986973747279002E2E2F72612F6673702FB4
S315020854A87372632F726D5F6672656572746F735F66
S315020854B8706F72742F706F72742E630076506F72E3
S315020854C874456E746572437269746963616C0028FF
S315020854D820282028202820707844656C617965641C
S315020854E85461736B4C69737420292D3E75784E7511
S315020854F86D6265724F664974656D73203D3D202855
