S0130000766973696F6E5F435055312E7372656301
S315020E000000E00E22ED100E02B10F0E02F7100E02D6
S315020E0010F7100E02F7100E02F7100E02F7100E026E
S315020E00200000000000000000000000005D030E024A
S315020E0030F7100E020000000075030E02DD030E021B
S315020E0040ED090E022D0C0E02350D0E02ED090E02F3
S30D020E00502D0B0E02F9060E023B
S315020E005870B5002800F0A6808168B1F5803F40F0A1
S315020E0068A180406845F24241C4F24541884211D107
S315020E00784EF23000C2F20E20002101604EF234001A
S315020E0088C2F20E2001604EF22C00C2F20E2001219F
S315020E0098017070BD4EF22C04C2F20E242278052A85
S315020E00A800F27480DFE802F07E032E3D134D4EF207
S315020E00B830014EF23403C2F20E21C2F20E23002290
S315020E00C8112808601A606ED322700A6070BD4EF24D
S315020E00D83401C2F20E210A684EF2380602EB4203C8
S315020E00E8C2F20E2606EB83039860501C4EF23002BD
S315020E00F8C2F20E221268086090424FF0050038BF0F
S315020E0108022055E04EF23401C2F20E2109684EF271
S315020E0118380201EB4101C2F20E2242F821000320F7
S315020E012846E04EF23401C2F20E2109684EF2380248
S315020E013801EB4101C2F20E2202EB81014860042054
S315020E014836E003314EF230058842C2F20E2519D137
S315020E01582E6866B106EB460082004EF200104EF28B
S315020E01683801C2F20E20C2F20E2102F06CFD4EF2D8
S315020E0178FC00C2F20E2006604EF2F800C2F20E2003
S315020E01880121017000202070286006E04EF230012F
S315020E01980020C2F20E21207008604EF23401C2F21D
S315020E01A80E21086070BD00284FF0020008BF052018
S315020E01B8207070BD43F28451C0F20E2107C912682F
S315020E01C8904718B1002001F016FE00BF0A2001F072
S315020E01D8D3FFFBE7022818BF70474EF2242043F2DC
S315020E01E8A051C2F20E20C0F20E2100F0D2BA80B58C
S315020E01F884B04EF25020C2F20E2001684EF2C01C96
S315020E02080131016046F65820C2F20F200421CDE9CB
S315020E0218001040F2612043F2284142F6AC43C2F284
S315020E02280E2CC0F20E20C0F20E21C0F20E234FF48F
S315020E02388062CDF808C001F0E3FC4EF22021C2F22C
S315020E02480E21086008B104B080BD0020002104B05A
S315020E0258BDE8804000F00CB810B5044600F00AF866
S315020E02682046BDE81040FFF7A5BF7047FFF7FDBF52
S315020E027800BE7047B0B54EF24824C2F20E2420686C
S315020E02884FF0FF3101F0A0FB012803D020680021B0
S315020E0298FFF7EEFF4EF24C20C2F20E20017801B1A4
S315020E02A8B0BD01210170FFF7E1FF4EF25025C2F2F1
S315020E02B80E2500BF286801382860F1D02068002173
S315020E02C80022002301F056F90128F3D020680021F6
S315020E02D8FFF7CEFFEEE780B54EF25020C2F20E20A1
S315020E02E8002101604EF24C20C2F20E204EF254222A
S315020E02F80170C2F20E224FF48070012101F01AF932
S315020E03084EF24821C2F20E21086018B900200021C9
S315020E0318FFF7AEFFFFF76BFF01F0ADFF002080BDC2
S315020E03284EF29C23C2F20E2303604EF2FC20C2F258
S315020E03380E2008608020106070474EF2FC43C2F20F
S315020E03480E2303604EF25C50C2F20E200860802025
S315020E0358106070471EF0040F0CBFEFF30880EFF320
S315020E0368098001490847000003040E020F4B19685B
S315020E0378EFF309821EF0100F08BF22ED108A22E94A
S315020E0388F04FEFF30B8342F8043D0A604FF010006C
S315020E039880F31188BFF34F8FBFF36F8F01F01CFFE7
S315020E03A84FF0000080F3118800F002B850680F2251
S315020E03B8074801680A6802CA81F30B88B2E8F04F49
S315020E03C81EF0100F08BFB2EC108A82F30988704726
S315020E03D850680F2210B5EFF31184102080F311889E
S315020E03E801F0CCFF30B14EF60450CEF200004FF0BB
S315020E03F88051016084F3118810BD806910F8020CD1
S315020E0408022808BFFFF7D4BF042838BF704780B545
S315020E041842F6D64043F23A1242F6E153C0F20E20A3
S315020E0428C0F20E22C0F20E234FF47E7100F072FD58
S315020E0438283140F8481D40F26141C0F20E214FF0B4
S315020E0448807C22F00102C1636FF002010264C0F8D9
S315020E045844C0C0E90913704700BE00BFFEE7D4D4F4
S315020E04684EF62250CEF20000F021017000F016F878
S315020E04784EF63470CEF20000016841F0404101603A
S315020E048862B6BFF36F8FEFF3148C2CF0040C8CF359
S315020E04981488BFF36F8F02DF00BEFDE74EF2E870D7
S315020E04A8C2F20E20006844F6D351C1F26201A0FBD5
S315020E04B801014FF0FF3000EB91110020B0EB116FE6
S315020E04C818BF70474EF21002CEF2000251604EF677
S315020E04D82351CEF20001F0230B70906007201060B4
S315020E04E870471021EFF3118081F311884EF25C7179
S315020E04F8C2F20E210A68531C0B605AB94EF260718B
S315020E0508C2F20E2108604EF60450CEF200000068C2
S315020E0518C00500D1704780B542F6D64042F6FC4277
S315020E052843F2AB03C0F20E20C0F20E22C0F20E2325
S315020E053840F2A44100F0EEFC4EF25C70C2F20E20BE
S315020E0548016859B10139016018BF70474EF26070E1
S315020E0558C2F20E20006880F31188704780B542F603
S315020E0568D64043F2694242F6B043C0F20E20C0F2BA
S315020E05780E22C0F20E2340F2AD4100F0CBFC80B53E
S315020E058898B34EF6902EC4F2010E9EF800100A0784
S315020E059822D04EF2FA32C4F2010213884AF2025CF1
S315020E05A8CFF6FF7C0020A2F800C08EF8000043F4B6
S315020E05B825401080BFF34F8F30BFBFF36F8F62B6E1
S315020E05C8BFF36F8F72B61088A2F800C040F42540AA
S315020E05D88EF80010108080BDBFF34F8F30BFBFF369
S315020E05E86F8F62B6BFF36F8F72B680BD80B572B665
S315020E05F801F09FFC0120FFF7C2FF62B6BDE88040FC
S315020E060801F0F2BC416002468868C0231061C868D0
S315020E0618C4F20203906100205061086803EB401091
S315020E06289060086803EB40104030D06091F90400E0
S315020E0638002829D449794EF2001CCEF2000C090183
S315020E064800EB0C0383F800134EF2C471C2F20E21AC
S315020E065841F820204CF20031C4F2000151F8203044
S315020E066823F4803341F8203051F8201000F01F0190
S315020E06780123400903FA01F10CEB8003BFF35F8FE6
S315020E0688C3F880114CF8201045F24301C5F24921F0
S315020E06980020116070478068026892034EBF0C20D4
S315020E06A88160002070478268002051607047844638
S315020E06B8C0E904130020CCF818207047014640689A
S315020E06C890F9040000280FD400F01F02012303FA42
S315020E06D802F24EF280134009CEF2000343F82020AE
S315020E06E8BFF34F8FBFF36F8F002200200A60704749
S315020E06F8B0B5EFF303804FF0704101EB00604CF298
S315020E070800318015C4F20001425822F4803242505A
S315020E071841584EF2C471C2F20E210C58E0680568B1
S315020E0728E80304D520464FF4803100F00BF835F471
S315020E0738403508BFB0BD2046294600F003F8E068EA
S315020E07480561B0BD2DE9F04184B004464069E8461C
S315020E075830B1034693E8E400C4468CE8E40000E0B0
S315020E076840466268B1F5803F126881600260A269EE
S315020E0778C26002D1E168C96800E0002141602169C0
S315020E07888847606910B198E88E008EC004B0BDE83D
S315020E0798F08180B545F25422C5F24F020260084630
S315020E07A800F002F8002080BD70B5044600F05CF831
S315020E07B84EF2C07CEFF31080012181F31088C2F24B
S315020E07C80E2CDCF8001039B940F61451C4F2400169
S315020E07D800220A7040220A70DCF800100131CCF8A9
S315020E07E8001080F31088208810B340F6000E002100
S315020E07F8C4F2400E606800EBC102928850F831309E
S315020E0808100ADD03D2B20BD50EEB801555F822600F
S315020E081826F4803645F8226023F4803645F822609F
S315020E08280EEB801040F82230208801318142E1D346
S315020E0838EFF31081012080F31088DCF8000020B156
S315020E0848DCF800000138CCF80000DCF8000038B9F4
S315020E085840F61450C4F24000002202708022027042
S315020E086881F3108870BDD4D42DE9F04F81B00446B9
S315020E0878008800285CD042F240084EF64C4A43F2F3
S315020E0888CC5BC4F220080026C4F2010AC0F20E2B73
S315020E08984FF00109002700BF60683BF8172000EBEE
S315020E08A8C600818891423CD100689AF8001000F081
S315020E08B8B85009FA07F5B0F1807F05EA010015D19D
S315020E08C850B9012000F0E6FB9AF8000028438AF890
S315020E08D80000012000F0B5FB18F91700002820D4F5
S315020E08E818F8170040F0800015E000BF50B101203D
S315020E08F800F0D0FB9AF80000A8438AF800000120FF
S315020E090800F09FFB18F91700B0F1FF3F09DC18F843
S315020E0918170000F07F0008F81700C820012100F022
S315020E0928FCFA0137032FB7D1208801368642B1D396
S315020E093801B0BDE8F08FD4D480B51F290FD84FEA7F
S315020E0948C11C40F2FF332CEA030300EB030C01F041
S315020E0958070E4C231EFB03C303F5126C08E04C2349
S315020E096801FB0303282934BFA3F58C6CA3F5C56CCA
S315020E0978DCF800E0CEF380735371DCF8083003F02E
S315020E0988070393602EF0604313604FEADE7313710A
S315020E0998DCF804305FEA137E43F2D253C0F20E231A
S315020E09A813F80EE082F806E009D00CF10C030C32AD
S315020E09B813F801CBBEF1010E02F801CBF8D11F29AD
S315020E09C805D8012202FA01F1C943416380BD00EB43
S315020E09D8810028294FF0FF012CBF40F8441C40F82D
S315020E09E8341C80BD2DE9F04FB1B0EFF303801038F9
S315020E09F8C1B2032955D101A84EF2647A051D002407
S315020E0A080126C2F20E2A4FF070480DF16409002033
S315020E0A185AF820B0BBF1000F3CD028465C2102F0F2
S315020E0A280EF94FF48050ADF80800DBF80000016AA3
S315020E0A3808EA013202EB01428907039204620DD5D6
S315020E0A48DBF80000816E91FAA1F1B1FA81F10491F7
S315020E0A5800EB8100416C21F004014164DBE905706B
S315020E0A680194059057B148463946602202F0EBF8D2
S315020E0A78384601A9602202F0E6F800E001AFDBF87B
S315020E0A88101038468847DBF8140018B1494660221A
S315020E0A9802F0D9F80120F1074FF00006B8D1032566
S315020E0AA830E045B24EF2C470C2F20E2001AF50F8D3
S315020E0AB82560381D5C2102F0C2F84FF48070ADF83D
S315020E0AC808003068C16889B203910021C160D6E96F
S315020E0AD8054001910590049154B119A82146602248
S315020E0AE802F0B1F801A92046602202F0ACF800E045
S315020E0AF83C46316920468847706918B119A96022A1
S315020E0B0802F0A1F84CF20030C4F2000050F825109B
S315020E0B1821F4803140F8251050F8250031B0BDE891
S315020E0B28F08FD4D42DE9F04FB1B001A800226C2370
S315020E0B3800F114054FF00008C4F23802C4F2380365
S315020E0B484FF0010A4EF26470C2F20E2050F82800D7
S315020E0B5800285DD04FEA4830185842EA483790FACC
S315020E0B68A0F0B0FA80F6012E47D84FF4806046F010
S315020E0B782004ADF808000494386E012101FA06F92C
S315020E0B88009600BF10EA090F2AD1384621462A4690
S315020E0B98CDF80480FFF7D0FE01984EF26471C2F2C8
S315020E0BA80E2151F820B0DBE90560059056B119A859
S315020E0BB83146602202F047F8304601A9602202F059
S315020E0BC842F800E001AEDBF8101030468847DBF833
S315020E0BD8140018B119A9602202F035F8386ED1E759
S315020E0BE80098002207EB8000416C6C2321F0080165
S315020E0BF8C4F23802C4F238034164F86E40B94CF2B4
S315020E0C081031C4F20001086820F4803008600868C2
S315020E0C184FF001085FEACA704FF0000A92D131B05E
S315020E0C28BDE8F08F2DE9F047B0B0EFF303804FF031
S315020E0C38704101EB00604EF2C4728115C2F20E22A9
S315020E0C4857584FEA206979680A68D1F81080B96947
S315020E0C58009204913C6894F8A410002956D0EA46EC
S315020E0C6818AD00BF94F8A400C10705D100071FD41A
S315020E0C784FF40070842102E04FF4006080213A6836
S315020E0C88ADF80400505890FAA0F0B0FA80F0082891
S315020E0C9806D35018406890FAA0F0B0FA80F02030C9
S315020E0CA8111891F8742002F0F90281F8742010E0F6
S315020E0CB8D8F81C008069C0044FF4006058BF4FF480
S315020E0CC80050ADF804003868816D21F01001816577
S315020E0CD828207E6903905EB128463146602201F0CD
S315020E0CE8B2FF30465146602201F0ADFF01E000BF69
S315020E0CF85646396930468847786918B129466022B8
S315020E0D0801F0A1FF94F8A4000028ABD14CF20030F2
S315020E0D18C4F2000050F8291021F4803140F8291047
S315020E0D2850F8290030B0BDE8F087D4D42DE9F04F3B
S315020E0D38B1B04FF07041EFF3038001EB00684EF24B
S315020E0D48C4714FEAA850C2F20E210C584FF48061B4
S315020E0D5860680068ADF80810019028200490206893
S315020E0D68016EC9052ED40DF104094EF2647A09F103
S315020E0D781405C2F20E2A0DF1640B00BF28212A466B
S315020E0D88FFF7DAFD01985AF82060D6E90570059044
S315020E0D9857B158463946602201F055FF384649463C
S315020E0DA8602201F050FF00E04F4631693846884707
S315020E0DB8706918B15946602201F045FF2068016E26
S315020E0DC8C905DBD5816D21F0080181652068806D24
S315020E0DD800070DD44CF200314FEA2860C4F2000126
S315020E0DE851F8202022F4803241F8202051F82000B2
S315020E0DF831B0BDE8F08FD4D44EF22401C4F201010B
S315020E0E0888780988C1F30312A2F1080103293BD88F
S315020E0E18DFE801F0022C101E4EF20001C2F20E217C
S315020E0E2851F820004AF6AB21CAF6AA21A0FB010107
S315020E0E38480830E04EF20001C2F20E2151F82000A7
S315020E0E484AF6AB21CAF6AA21A0FB0101C80822E07E
S315020E0E584EF20001C2F20E2151F820004AF6AB21DB
S315020E0E68CAF6AA21A0FB0101080914E04EF20001F6
S315020E0E78C2F20E2151F820004AF6AB21CAF6AA2171
S315020E0E88A0FB0101880806E04EF20001C2F20E210D
S315020E0E9851F82000D0404EF2E871C2F20E210860D7
S315020E0EA8704770B54EF2000046F6004141F2002236
S315020E0EB8C2F20E20C0F2DC21C0F27A0243F2006CB4
S315020E0EC84FF40043C0F26E1C4CF6002E44F2553413
S315020E0ED848F2004544F2006680E80E1040F600011C
S315020E0EE843F60002C3F69A3EC1F2DE34C1F2D77554
S315020E0EF8C2F2C336C2F6AF71C1F69C42C0E9043ECF
S315020E0F08C0E90664C0E908518262BDE87040FFF77F
S315020E0F1873BFD4D400BE00BFFEE74EF2E872C2F229
S315020E0F280E22126841F20023C0F27A039A4201FB9C
S315020E0F3800F00FD340F6FF01C0F23D0111444DF603
S315020E0F488362C4F21B32A1FB0212110DA0FB010130
S315020E0F58E9B11FE04CF6002348F63811C3F69A3368
S315020E0F68C0F24101B3FBF2F2884207D24FF47A710C
S315020E0F7800FB01F0B0FBF2F0800808E09200B0FB2D
S315020E0F88F2F0884206D24FF47A7100FB01F028B1CC
S315020E0F9800F005B84FF0FF3000F001B8704701387F
S315020E0FA80028FCD17047D4D4F0B581B04CF20015A6
S315020E0FB8C4F200052868296A4EF26C7701EA000621
S315020E0FC80024C2F20E2700BF26FA04F0C00704D088
S315020E0FD857F8241009B1204688470134152CF3D147
S315020E0FE82E6100BF286A3042FCD101B0F0BDD4D4BE
S315020E0FF870B543F2AC514CF2003246F240034FF052
S315020E1008000EC0F20E21C4F20002C4F200034FF023
S315020E1018010C002031F8104074B1BEEB942F42F841
S315020E1028204009D1650953F8256004F01F040CFA0D
S315020E103804F4344343F825400130062808BF70BD30
S315020E1048E8E70122EFF3108182F310884EF2DC7282
S315020E1058C2F20E2232F8103023B132F81030013BAA
S315020E106822F8103032F810208AB94EF2FA3CC4F23F
S315020E1078010C43F63002BCF80030C0F20E2232F8EA
S315020E1088100043F4254222EA0000ACF8000081F370
S315020E10981088704780B50122EFF3108182F310880B
S315020E10A84EF2DC72C2F20E2232F810308BB94EF2C2
S315020E10B8FA3C43F63003C4F2010CC0F20E23BCF816
S315020E10C800E033F8103043EA0E0343F42543ACF836
S315020E10D8003032F81030013322F8103081F31088BE
S315020E10E880BDD4D400F006F8FFF7F5F8FEE700BE89
S315020E10F87047D4D4B0B54EF60850CEF200004FF46F
S315020E11087001C0F8801040F20001C0F20E214CF2B6
S315020E1118040401600020C4F20104FFF75BF8FFF72E
S315020E1128C0FE206840F00100206000BF206800283B
S315020E1138FCD1012044F8040CFFF74CF84AF20000E1
S315020E1148C2F20E2080F30A88002000F02FF8FFF76D
S315020E115853FE012000F02AF846F65424C2F20F2452
S315020E1168204601F081FD204601F092FD43F68E00DF
S315020E117843F68E01C0F20E20C0F20E21081A841012
S315020E1188012C08DB43F68E05C0F20E2555F8040B24
S315020E11988047013CFAD10220FFF71CF8FFF728FF19
S315020E11A80020BDE8B04000F02EB8D4D4F0B581B018
S315020E11B843F20465C0F20E252E68044676B16868B7
S315020E11C8071D00BF7879844204D157E90101091A2D
S315020E11D801F035FD013E07F10C07F3D1AE6886B173
S315020E11E8E86800F1080500BF6879844205D155E919
S315020E11F802022968121A01F026FD013E05F11005B2
S315020E1208F2D101B0F0BD704770B5002841D04EF24A
S315020E1218FC76A0F10805C2F20E260446B54254D350
S315020E122847F6FF70304485424FD854F8040C00280E
S315020E12385BD52968002968D120F0004044F8040CD1
S315020E124800F077FE4EF2F070C2F20E2054F8041C2D
S315020E125802684EF2F4730A44C2F20E2302601A466A
S315020E126810461268AA42FBD3984206D0B0425CD305
S315020E127847F6FF733344984257D84368C618AE42A8
S315020E128802D11944054641606B18934202D01346A1
S315020E12980CE070BD4EF2EC73C2F20E231B689A4234
S315020E12A804D052681144696001680B68A8422B6023
S315020E12B818BF056046F2FC70C2F20F2001680131B2
S315020E12C80160BDE8704000F08FBE43F24C1043F247
S315020E12D8A52242F65C63C0F20E20C0F20E22C0F2BE
S315020E12E80E234FF4B571FFF715FE43F24C1043F277
S315020E12F8A52243F2C213C0F20E20C0F20E22C0F28B
S315020E13080E2340F26B11FFF705FE43F24C1043F221
S315020E1318A52243F27B43C0F20E20C0F20E22C0F281
S315020E13280E234FF4B671FFF7F5FD43F24C1042F653
S315020E1338CB6242F6E663C0F20E20C0F20E22C0F26D
S315020E13480E234FF4FD71FFF7E5FD4FF0FF3102460E
S315020E135842F8081F0021C0E90322C0E900127047AD
S315020E136800210161704742684A6093688B60596032
S315020E137891600861016801310160704780B5D1F844
S315020E138800C01CF1010207D000F108029646526807
S315020E139813686345FAD903E0D0F810E0DEF80420A4
S315020E13A84A609160C1F808E0CEF804100861016837
S315020E13B80131016080BDD0E901230169936042685B
S315020E13C85A604A68824201D182684A6000220261E4
S315020E13D8086801380860704770B500284BD0044675
S315020E13E8C06BC0B30E46216CA0FB010199BBFFF779
S315020E13F878F82068D4E90F12002502FB0103013999
S315020E140801FB0201A563C4E90103FF20E16084F82A
S315020E1418440084F8450004F110004EB1FFF795FF1B
S315020E142804F12400FFF791FFFFF786F8012070BD3D
S315020E143801680029F8D001F0DBF80028F4D04EF640
S315020E14480450CEF200004FF080510160BFF34F8F69
S315020E1458BFF36F8FE8E743F27A2043F24E4243F226
S315020E1468B833C0F20E20C0F20E22C0F20E234FF48B
S315020E1478B671FFF74FFD43F27A2043F24E4243F21C
S315020E1488A533C0F20E20C0F20E22C0F20E2340F28F
S315020E14983711FFF73FFD10B582B05BB3D0B11C46CC
S315020E14A801B9BAB901B1AAB148230193019B482BD6
S315020E14B830D1019B012384F84630002908BF224603
S315020E14C8C4E90F01204601212260FFF785FF204657
S315020E14D802B010BD43F27A2043F2201243F22C33A5
S315020E14E8C0F20E20C0F20E22C0F20E234FF4D871AD
S315020E14F8FFF710FD43F27A2043F2201242F6927358
S315020E1508C0F20E20C0F20E22C0F20E234FF4C271A2
S315020E1518FFF700FD43F27A2043F2201243F2F1035B
S315020E1528C0F20E20C0F20E22C0F20E234FF4CB7179
S315020E1538FFF7F0FCB0B582B060B10D46814209D80C
S315020E15481446002100222346FFF7A5FF2046A5636F
S315020E155802B0B0BD43F27A2043F2352242F6A073A8
S315020E1568C0F20E20C0F20E22C0F20E234FF45E71A6
S315020E1578FFF7D0FC2DE9F04F85B00028049200F053
S315020E15889D8099461546044619B9206C002840F0E6
S315020E1598C580B9F1020F03D1E06B012840F0AE8087
S315020E15A8019101F00FF910B9002D40F09780FEF760
S315020E15B898FFA06BB9F1020F59D0E16B884256D348
S315020E15C804F11007012002AE4FF0000B04AD00BF66
S315020E15D80499002966D0C00702D0304601F08EF86B
S315020E15E8FEF7AAFF00F0A5FCFEF77BFF94F844006F
S315020E15F8FF2808BF84F844B094F84500FF2808BFB0
S315020E160884F845B0FEF798FF3046294601F083F86E
S315020E161800284AD1FEF765FFD4F838A0D4F83C80E4
S315020E1628FEF78AFFC24515D10499384600F082FFA5
S315020E1638204600F0B5F800F0D7FC80B94EF60450F5
S315020E1648CEF200004FF080510160BFF34F8FBFF309
S315020E16586F8F04E0204600F0A3F800F0C5FCFEF7F3
S315020E166840FFA06BE16B88424FF00000B0D20199A1
S315020E167820464A4600F062F854F8240F70B1204606
S315020E168800F0B6FF50B14EF60450CEF200004FF0FF
S315020E169880510160BFF34F8FBFF36F8FFEF74CFF7A
S315020E16A8012008E0FEF748FF04E0204600F078F82D
S315020E16B800F09AFC002005B0BDE8F08F43F27A20BE
S315020E16C842F6F75243F2A533C0F20E20C0F20E22AC
S315020E16D8C0F20E2340F2B631FFF71CFC43F27A2013
S315020E16E842F6F75242F60963C0F20E20C0F20E22F5
S315020E16F8C0F20E2340F2BB31FFF70CFC43F27A20FE
S315020E170842F6F75242F6A873C0F20E20C0F20E2225
S315020E1718C0F20E234FF46E71FFF7FCFB43F27A20EA
S315020E172842F6F75243F2DE43C0F20E20C0F20E2202
S315020E1738C0F20E2340F2B731FFF7ECFB70B5866B9B
S315020E1748036C044643B31546CAB1E0681A4601F05D
S315020E17587AFAE168206C2268091A9142E16003D28C
S315020E1768A16840420844E060A81EB0FA80F040091B
S315020E17783146002E18BF01210840361A0CE0606861
S315020E17881A4601F060FAD4E90101226C1044884225
S315020E1798606001D320686060701CA06370BDD4D4EB
S315020E17A8F0B581B00446FEF79CFE94F94560012E0B
S315020E17B80EDB04F1240500BF286848B1284600F05E
S315020E17C817FF08B100F0F7FF70B2013E0128F3DCED
S315020E17D8FF2684F84560FEF7AFFEFEF782FE94F901
S315020E17E84470012F0EDB04F1100500BF286848B1BC
S315020E17F8284600F0FDFE08B100F0DDFF78B2013F83
S315020E18080128F3DC84F8446001B0BDE8F040FEF727
S315020E181893BED4D42DE9F04F83B00028029200F07D
S315020E1828A28016468946044619B9206C002840F04D
S315020E1838BA8000F0C7FF10B9002E40F0A480FEF75A
S315020E184850FED4F838A0BAF1000F28D0226C52B145
S315020E1858D4E902011144E160814224BF2168E160A4
S315020E1868484601F0F0F954F8100FAAF10101A162E7
S315020E187870B1204600F0BCFE50B14EF60450CEF2C0
S315020E188800004FF080510160BFF34F8FBFF36F8F89
S315020E18980124FEF751FE204603B0BDE8F08F04F18F
S315020E18A8240801206F464FF0000B02AE029900295A
S315020E18B855D0C00702D0384600F020FFFEF73CFE90
S315020E18C800F037FBFEF70DFE94F84400FF2808BF1A
S315020E18D884F844B094F84500FF2808BF84F845B04A
S315020E18E8FEF72AFE3846314600F015FF60B120464D
S315020E18F8FFF756FF00F078FBFEF7F3FDA56BFEF732
S315020E19081BFE75B322E000BFFEF7EBFDA56BFEF7D5
S315020E191813FE2DB12046FFF743FF00F065FB15E0D7
S315020E19280299404600F006FE2046FFF739FF00F000
S315020E19385BFB58B94EF60450CEF200004FF08051BA
S315020E19480160BFF34F8FBFF36F8F00BFFEF7C9FD5E
S315020E1958D4F838A00020BAF1000FA7D076E70024F3
S315020E196897E7002497E743F27A2043F2592242F682
S315020E19787773C0F20E20C0F20E22C0F20E2340F288
S315020E1988E951FFF7C7FA43F27A2043F2592242F691
S315020E19980963C0F20E20C0F20E22C0F20E2340F2E6
S315020E19A8F251FFF7B7FA43F27A2043F2592243F27B
S315020E19B83733C0F20E20C0F20E22C0F20E2340F2C8
S315020E19C8ED51FFF7A7FAD4D42DE9F04F83B00028CC
S315020E19D8029100F08E800446006C002840F0998031
S315020E19E80D4600F0EFFE10B9002D40F0A280FEF76C
S315020E19F878FDA16BD1B154F8100F0139A16270B1FD
S315020E1A08204600F0F5FD50B14EF60450CEF2000017
S315020E1A184FF080510160BFF34F8FBFF36F8F0124D2
S315020E1A28FEF78AFD204603B0BDE8F08F4EF604593E
S315020E1A3804F1240801206E464FF0000B02AFCEF2D7
S315020E1A4800094FF0805A00BF029900294DD0C007EF
S315020E1A5802D0304600F052FEFEF76EFD00F069FA2D
S315020E1A68FEF73FFD94F84400FF2808BF84F844B0F9
S315020E1A7894F84500FF2808BF84F845B0FEF75CFDCA
S315020E1A883046394600F047FE60B12046FFF788FE1B
S315020E1A9800F0AAFAFEF725FDA56BFEF74DFD35B346
S315020E1AA81CE000BFFEF71DFDA56BFEF745FD2DB129
S315020E1AB82046FFF775FE00F097FA0FE002994046A8
S315020E1AC800F038FD2046FFF76BFE00F08DFA28B9B6
S315020E1AD8C9F800A0BFF34F8FBFF36F8FFEF701FD54
S315020E1AE8A16B00200029AFD085E7002498E70024D1
S315020E1AF898E743F27A2043F20C1242F67773C0F253
S315020E1B080E20C0F20E22C0F20E2340F28261FFF7B9
S315020E1B1801FA43F27A2043F20C1243F2A143C0F2BF
S315020E1B280E20C0F20E22C0F20E2340F28661FFF795
S315020E1B38F1F943F27A2043F20C1242F60963C0F225
S315020E1B480E20C0F20E22C0F20E2340F28B61FFF770
S315020E1B58E1F9D4D4B0B500B3D1B146F6000E4FF0C2
S315020E1B68000CC2F20F2E0022002300BF0EEB020457
S315020E1B786568A8420DD023B92368002B18BF6446A0
S315020E1B8823460832502AF1D1002B18BFC3E900109A
S315020E1B98B0BD2346C3E90010B0BD43F27A2042F621
S315020E1BA8C24243F2F233C0F20E20C0F20E22C0F245
S315020E1BB80E2340F6C931FFF7ADF970B515460E4636
S315020E1BC80446FEF78EFC94F84400FF2804BF002054
S315020E1BD884F8440094F84500FF2804BF002084F8D0
S315020E1BE84500FEF7A9FCA06B28B904F1240031467C
S315020E1BF82A4600F0C0FC2046BDE87040FFF7D0BD6D
S315020E1C082DE9F04786B0DDF83C9007460020B9F17B
S315020E1C18000F049026D0109CA4B360200590059858
S315020E1C2860283FD105980E46DDF838A02046602179
S315020E1C389846154601F003F8022084F85D0004A8BA
S315020E1C48C4F83090CDE900A0384631462A464346B6
S315020E1C58029400F0CBFD204600F034F8049806B044
S315020E1C68BDE8F08743F2F52043F2AF2242F69853C7
S315020E1C78C0F20E20C0F20E22C0F20E2340F2F1413D
S315020E1C88FFF748F943F2F52043F2AF2243F2650312
S315020E1C98C0F20E20C0F20E22C0F20E2340F2F2411C
S315020E1CA8FFF738F943F2F52043F2AF2243F23453E3
S315020E1CB8C0F20E20C0F20E22C0F20E2340F2FA41F4
S315020E1CC8FFF728F92DE9F0470446FEF70AFC46F611
S315020E1CD87400C2F20F20016846F650070131016000
S315020E1CE8C2F20F27396846F6580A46F68006C2F237
S315020E1CF80F2AC2F20F2651B1DAF8000000283DD19A
S315020E1D083868E16AC06A884298BF3C6036E03C6031
S315020E1D180068012832D100257019FFF716FB143513
S315020E1D28642DF9D146F62C18C2F20F284046FFF753
S315020E1D380CFB46F64019C2F20F294846FFF705FB79
S315020E1D4846F60010C2F20F20FFF7FFFA46F65C00BF
S315020E1D58C2F20F20FFF7F9FA46F6E800C2F20F2092
S315020E1D68FFF7F3FA46F62010C2F20F20C0F80080EB
S315020E1D7846F62410C2F20F20C0F8009046F654001A
S315020E1D88C2F20F2001680131016046F6E401C2F281
S315020E1D980F21E06A0A68904288BF086000EB80004D
S315020E1DA806EB80004068221DA0608168E1604A60E9
S315020E1DB88260E06A00EB800006EB8001616156F8EC
S315020E1DC82010013146F82010FEF7B6FBDAF80000AD
S315020E1DD878B13868E16AC06A88420AD24EF6045069
S315020E1DE8CEF200004FF080510160BFF34F8FBFF362
S315020E1DF86F8FBDE8F087F0B581B00446FEF771FB2A
S315020E1E0846F65006C2F20F2604B93468251D284630
S315020E1E18FFF7D1FAA06A18B104F11800FFF7CBFA48
S315020E1E2846F65400C2F20F20016846F658070131EB
S315020E1E380160C2F20F273068396891B1844210D117
S315020E1E4846F65C00C2F20F202946FFF78CFA46F6D2
S315020E1E587000C2F20F20016801310160FEF76CFBB9
S315020E1E681DE046F67400C2F20F20016801390160C0
S315020E1E7846F62010C2F20F200168096819B10068E9
S315020E1E88C068006801E04FF0FF3046F61411C2F240
S315020E1E980F210860FEF750FB204600F028F8386836
S315020E1EA898B13068844210D146F67800C2F20F20F5
S315020E1EB8006860B94EF60450CEF200004FF080511B
S315020E1EC80160BFF34F8FBFF36F8F01B0F0BD43F2C0
S315020E1ED8F52043F2203242F65D73C0F20E20C0F2AE
S315020E1EE80E22C0F20E2340F61411FFF713F810B5A0
S315020E1EF8044690F85D00022808BF10BD012803D0DB
S315020E1F0838B9206BFFF780F92046BDE81040FFF777
S315020E1F187BB943F2F52043F2100243F2C323C0F211
S315020E1F280E20C0F20E22C0F20E2341F62E11FEF735
S315020E1F38F1FF46F67800C2F20F2001680131016000
S315020E1F4870472DE9F04381B00E4646F67C01C2F281
S315020E1F580F210D6846F62011C2F20F21D1F8008024
S315020E1F6846F6241146F65004C2F20F21C2F20F2487
S315020E1F78D1F8009021680746081DFFF71CFA781C4F
S315020E1F8816D1AEB146F6E800C2F20F20D0E900121B
S315020E1F98236801319A6093682768FB6027680437BD
S315020E1FA85F6023680433936022680160506117E00C
S315020E1FB82068ED194560206800F1040105D34846EC
S315020E1FC801B0BDE8F043FFF7D9B94046FFF7D6F997
S315020E1FD846F61410C2F20F2001688D4238BF05600C
S315020E1FE801B0BDE8F083D4D42DE9F047FEF779FAAD
S315020E1FF846F67800C2F20F200168002900F0AC807E
S315020E2008016801390160006828B10024FEF794FAC6
S315020E20182046BDE8F08746F67400C2F20F20006825
S315020E20280028F2D046F60010C2F20F20016846F6D4
S315020E2038FC0A46F650090029C2F20F2AC2F20F29E5
S315020E204864D046F6E40246F680030021C2F20F2257
S315020E2058C2F20F234FF0010CC768FC68D4E9077564
S315020E2068A66ABD60E7696F60776804F11805AF4224
S315020E207801D1276A7760A1623768013F3760D4E9D2
S315020E208802656769B560A6686E607D68261DB542EB
S315020E209801D1E5687D6061613D68013D3D60E76A93
S315020E20A81568AF4288BF176007EB870703EB8707EA
S315020E20B87F68A760BD68E5606E60BE60E76A07EB7B
S315020E20C8870703EB8706666153F82760013643F8DE
S315020E20D82760E76AD9F80060F66AB74288BFCAF877
S315020E20E800C00768002FB7D146F62010C2F20F209D
S315020E20F80168096819B10068C068006801E04FF006
S315020E2108FF3046F61411C2F20F21086046F61C1865
S315020E2118C2F20F28D8F8006056B1012400F02EF943
S315020E212808B1CAF80040013EF8D10020C8F80000EE
S315020E2138DAF8000000283FF468AFD9F800004EF628
S315020E21480450CEF200004FF080510160BFF34F8F5C
S315020E21580124BFF36F8F59E743F2F52043F21D02AE
S315020E216843F20D43C0F20E20C0F20E22C0F20E2327
S315020E217840F68B71FEF7CEFE80B580B146F6780133
S315020E2188C2F20F210A6801320A600968012912D1C0
S315020E21980021FFF7D6FEFFF727FF00B180BD4EF6E8
S315020E21A80450CEF200004FF080510160BFF34F8FFC
S315020E21B8BFF36F8F80BD43F2F52043F2AD3243F281
S315020E21C88913C0F20E20C0F20E22C0F20E2340F67A
S315020E21D88E11FEF79FFED4D480B546F67800C2F26B
S315020E21E80F20006830B146F6FC00C2F20F2001211C
S315020E21F8016080BD46F6FC00C2F20F20002146F6AB
S315020E2208E40C0160C2F20F2CDCF8001046F68003CD
S315020E221801EB8102C2F20F2353F8220003EB82026C
S315020E222830B900BFB9B152F8140D01390028F9D0E8
S315020E22385068436802F108008342536001D1D3689D
S315020E22485360D86846F65002C2F20F221060CCF8D6
S315020E22580010106880BD43F2F52042F6855243F20D
S315020E2268D043C0F20E20C0F20E22C0F20E2341F265
S315020E2278FA31FEF74FFE10B58AB044F24940C4F25F
S315020E22884C500024069005A804A903AA8DF81C40F2
S315020E2298CDE90444FEF744F8DDE90320DDF814C05F
S315020E22A8CDE9004042F68900C0F20E2006A90023A7
S315020E22B8CDF808C0FFF7A4FC46F61811C2F20F2194
S315020E22C8086060B300F0F3FA012811D0013026D166
S315020E22D843F2F52043F2F93243F2B013C0F20E205E
S315020E22E8C0F20E22C0F20E2340F6A961FEF712FEC6
S315020E22F846F61411C2F20F214FF0FF32012080F377
S315020E230810880A6046F65801C2F20F21086046F690
S315020E23187C00C2F20F2000210160FEF7A1F843F6F7
S315020E23283C00C0F20E2000680AB010BDF0B581B0AE
S315020E233846F67005C2F20F252868E0B146F65C0627
S315020E234846F67407C2F20F26C2F20F27FEF7C9F82F
S315020E2358F068C468201DFFF72EF838680138386011
S315020E2368286801382860FEF7E7F82046FFF7BFFD12
S315020E237828680028EAD101B0F0BDD4D42DE9F04779
S315020E238846F67800C2F20F20006848B146F61C10CF
S315020E2398C2F20F200168013101600020BDE8F08704
S315020E23A846F67C00C2F20F20016846F6141C4A1C39
S315020E23B8C2F20F2C026022D346F62010C2F20F206A
S315020E23C801680968002940F09F8046F62413C2F276
S315020E23D80F2301681F680760196046F62811C2F2B4
S315020E23E80F210B6801330B600168096819B1006881
S315020E23F8C068006801E04FF0FF30CCF80000DCF848
S315020E24080000824201D2002074E046F6201AC2F279
S315020E24180F2ADAF800004FF000090068002864D087
S315020E242846F6E40E46F6800446F65008C2F20F2E1B
S315020E2438C2F20F24C2F20F28002000BFDAF80050AB
S315020E2448ED68EE68374657F8045FAA4250D3D6E9C6
S315020E2458021375698B60B16859606968B94201D110
S315020E2468F1686960C6F81490296801392960B56A57
S315020E247885B1D6E907138B60F1695960696806F169
S315020E24881803994201D1316A6960C6F828902968FB
S315020E249801392960F56ADEF800108D4205EB8501D1
S315020E24A888BFCEF8005004EB81014968B1608B688B
S315020E24B8F3605F608F60F16A01EB810104EB8103C1
S315020E24C8736154F82130013344F82130F16AD8F891
S315020E24D80030DB6ADAF80050994288BF0120296873
S315020E24E80029ABD14FF0FF3502E04FF0FF35002041
S315020E24F8CCF8005046F6FC01C2F20F2109680029F3
S315020E250818BF0120BDE8F08743F2F52043F2672291
S315020E251842F60F53C0F20E20C0F20E22C0F20E235E
S315020E252841F25F21FEF7F6FC46F67C00C2F20F2058
S315020E25380068704710B570B10C4646F65001C2F2E5
S315020E25480F2109681831FEF719FF20460121BDE849
S315020E25581040FFF7F6BC43F2F52043F2DC3243F2A3
S315020E2568A413C0F20E20C0F20E22C0F20E234FF4AE
S315020E2578A451FEF7CFFC10B550B346F6500CC2F274
S315020E25880F2C0346D0F804E0DCF80000002AC0F847
S315020E25981CE0DEF80800DCF800402062DCF8004099
S315020E25A804F118044460DCF8000000F11800CEF8B5
S315020E25B80800DCF800008362186818BF4FF0FF3176
S315020E25C8441C084611461C60BDE81040FFF7B9BC0C
S315020E25D843F2F52043F22C0243F2A413C0F20E2064
S315020E25E8C0F20E22C0F20E2341F2BE41FEF792FC53
S315020E25F880B5C068C068002870D0D0E90713826A11
S315020E26088B60C1695960536800F118018B4201D17A
S315020E2618036A5360002383621368013B136046F60E
S315020E26287802C2F20F2212688AB146F6001CC2F26C
S315020E26380F2CDCE900E2C26193680362596091606D
S315020E26480EF10101C0F828C0CCF8001034E0D0E92A
S315020E2658021342698B60816859605368011D8B4269
S315020E266801D1C368536000234361136846F6E40C2E
S315020E2678013B1360C2F20F2CC26ADCF800309A4292
S315020E268888BFCCF8002046F6800C02EB8202C2F214
S315020E26980F2C0CEB8202526882609368C3605960F3
S315020E26A89160C16A01EB81010CEB810242615CF811
S315020E26B8212001324CF8212046F65001C2F20F2192
S315020E26C8C06A0968C96A884291BF002046F6FC01AB
S315020E26D8C2F20F21012088BF086080BD43F2F520A1
S315020E26E843F24C0242F68373C0F20E20C0F20E2259
S315020E26F8C0F20E2341F2F541FEF70CFC46F62811FE
S315020E2708C2F20F210968016046F67C01C2F20F2158
S315020E271809684160704770B568B30D46D9B3044669
S315020E2728FDF7DFFE46F67C0EC2F20F2EDEF80030FD
S315020E273829684A1C16D046F6281CC2F20F2CD4E972
S315020E27480002DCF80060864201D093420CD29A1A35
S315020E2758914209D9881A2860DCF800002060DEF852
S315020E276800006060002402E0002001242860FDF7C4
S315020E2778E3FE204670BD43F2F52043F2903242F64E
S315020E2788F573C0F20E20C0F20E22C0F20E2341F2EB
S315020E2798A551FEF7BFFB43F2F52043F2903243F200
S315020E27A89503C0F20E20C0F20E22C0F20E2341F29B
S315020E27B8A651FEF7AFFB46F6FC00C2F20F20012128
S315020E27C80160704746F65800C2F20F20006850B1F3
S315020E27D846F67800C2F20F20006800284FF0000075
S315020E27E808BF0220704701207047D4D42DE9F0475E
S315020E27F80A9F8246089C386B984669B107F13403DC
S315020E2808002600BF8D5D9D551DB10F2E06F10106E0
S315020E2818F8D1002187F84310052C21D200EB82004D
S315020E2828043820F00706DDF82490381DFC62FEF700
S315020E283897FD07F11800FEF793FDC4F10500396BF3
S315020E2848B8613046524643463F617F62FDF7F0FD58
S315020E2858B9F1000F386018BFC9F80070BDE8F087E5
S315020E286843F2F52043F2800242F6FF73C0F20E20BF
S315020E2878C0F20E22C0F20E2340F26471FEF74AFB34
S315020E288846F680044EF60455C2F20F24CEF2000521
S315020E28984FF08056FFF74AFD2068022822BF2E60A7
S315020E28A8BFF34F8FBFF36F8FFDF7A0FEF2E780B52A
S315020E28B886B000F03BF846F65410C2F20F200068B6
S315020E28C820B30020CDE9040005A804A903AAFDF742
S315020E28D834FDDDE903200321DDF814C0CDE900102D
S315020E28E842F6B11043F26141C0F20E20C0F20E2139
S315020E28F80023CDF808C0FFF783F946F65811C2F23F
S315020E29080F21086010B1012006B080BD42F6B550FF
S315020E291843F2BA4243F2A303C0F20E20C0F20E22CB
S315020E2928C0F20E234FF4A371FEF7F4FA70B582B015
S315020E2938FDF7D7FD46F65416C2F20F26306868BB67
S315020E294846F66814C2F20F242046FEF7FEFC46F639
S315020E29587C15C2F20F252846FEF7F7FC46F65C10E2
S315020E2968C2F20F20046046F66010C2F20F2046F637
S315020E2978D81246F6901305600025C2F20F22C2F24D
S315020E29880F230A200C210095FEF785FD306028B12B
S315020E299842F6F251C0F20E21FFF7DCF802B0BDE89C
S315020E29A87040FDF7C9BDD4D484B046F65C1846F617
S315020E29B85415C2F20F2801ACC2F20F254FF0000BC6
S315020E29C8EA4600BFD8F80000D0F80090B9F1000F19
S315020E29D802D0C068066800E00026FFF7AAFA20466B
S315020E29E800F0AAF8019919B1FFF7FEFA2EE000BF18
S315020E29F80746B9F1000F08D0BE4206D8FFF7F4FA19
S315020E2A083046394600F0C3F820E0B9F1000F01D07E
S315020E2A18002208E046F66010C2F20F20006800682F
S315020E2A28B0FA80F042092868F11BFFF7C6F8FFF7DD
S315020E2A38DBFA58B94EF60450CEF200004FF080512A
S315020E2A480160BFF34F8FBFF36F8F00BF2868CDE9C2
S315020E2A5802BBCDF804B000BF21460022FEF7DAFE0D
S315020E2A680028AFD0019800284CD4039E706910B185
S315020E2A78301DFEF7A0FC504600F05EF801990139AA
S315020E2A8808293FD80746DFE801F005052C1C3F0545
S315020E2A98052C1C0096F82400029BB16940F0010031
S315020E2AA886F82400194430463A4600F0A8F848B388
S315020E2AB896F8240041071BD400F0FA0086F8240083
S315020E2AC81DE096F8240040F00101029886F82410BB
S315020E2AD8B06108B3C11930463A463B4600F08FF844
S315020E2AE810E096F8240000F0FE0086F8240009E0AD
S315020E2AF80298B1693A460144304600F069F8316ADD
S315020E2B08304688472868A7E796F824008107EAD44C
S315020E2B183046FEF779FBF5E742F6B55043F23342F5
S315020E2B2843F24D53C0F20E20C0F20E22C0F20E230D
S315020E2B384FF48261FEF7EEF9F0B581B00446FFF75F
S315020E2B48F3FC46F66416C2F20F263168054688422B
S315020E2B580ED246F65C17C2F20F2700BF3868016816
S315020E2B6841B1C0684FF0FF31006800F010F8F5E782
S315020E2B78002007E046F66011C2F20F210A680860C5
S315020E2B8801203A6020602846356001B0F0BD70B566
S315020E2B9846F65C12C2F20F2212680646D2680D4635
S315020E2BA8D468201DFEF707FC94F82400410704D4C6
S315020E2BB800F0FA0084F8240004E0204631462A463C
S315020E2BC800F006F8216A2046BDE870400847D4D4BC
S315020E2BD870B50546806914460E460144284600BF5E
S315020E2BE8334600F00CF848B1A869296A0644284605
S315020E2BF88847A869224681192846F1E770BD8C4690
S315020E2C08014641F804CF9445006108D946F65C1090
S315020E2C189A42C2F20F200AD29C4508D30DE0806969
S315020E2C28D21A824209D246F66010C2F20F2080B537
S315020E2C380068FEF7A3FB002080BD012070470A46F6
S315020E2C48002100F009B810B500239A4203D0CC5CD5
S315020E2C58C4540133F9E710BD00239A4208BF7047E0
S315020E2C68C1540133F9E7D4D410B505490446054AC9
S315020E2C78FFF7E9FF044805492044FFF7E0FF10BDB8
S315020E2C8858000E02000000000000000000000000BE
S315020E2C980249401A02490860704700BF0800000040
S315020E2CA8506A0F22000000007578437269746963D0
S315020E2CB8616C4E657374696E6700765175657565D6
S315020E2CC8416464546F5265676973747279002E2E65
S315020E2CD82F72612F6673702F7372632F726D5F6612
S315020E2CE872656572746F735F706F72742F706F721E
S315020E2CF8742E630076506F7274456E7465724372E3
S315020E2D0869746963616C002820282028202820709F
S315020E2D187844656C617965645461736B4C69737436
S315020E2D2820292D3E75784E756D6265724F66497409
S315020E2D38656D73203D3D2028205542617365547991
S315020E2D4870655F74202920302029203F20282028EC
S315020E2D582042617365547970655F7420292031208B
S315020E2D6829203A20282028204261736554797065F5
S315020E2D785F742029203020292029202900765461C3
S315020E2D88736B537769746368436F6E7465787400F0
S315020E2D98707578537461636B427566666572202127
S315020E2DA83D202828766F69642A293029002E2E2F6F
S315020E2DB872612F6177732F4672656552544F532F80
S315020E2DC84672656552544F532F536F757263652F4C
S315020E2DD874696D6572732E630075635356434E7529
S315020E2DE86D626572203C3D203300546D7251007837
S315020E2DF8517565756547656E6572696353656E6469
S315020E2E08002128202820785461736B476574536312
S315020E2E18686564756C657253746174652829203DFC
S315020E2E283D202820282042617365547970655F74A7
S315020E2E3820292030202920292026262028207854A9
S315020E2E4869636B73546F5761697420213D20302074
S315020E2E58292029002820282075696E74385F742067
S315020E2E682A202920282070784C696E6B2029203E4C
S315020E2E783D202628207563486561705B2030205DEB
S315020E2E8820292029202626202820282075696E74B6
S315020E2E98385F74202A202920282070784C696E6B98
S315020E2EA82029203C3D202628207563486561705BE3
S315020E2EB82028333237363829202D2031205D202915
S315020E2EC8202900707276496E73657274426C6F634E
S315020E2ED86B496E746F467265654C69737400282069
S315020E2EE8282075696E74385F74202A2029202820B6
S315020E2EF870784974657261746F722029203E3D207E
S315020E2F082628207563486561705B2030205D20296E
S315020E2F182029202626202820282075696E74385FD7
S315020E2F2874202A20292028207078497465726174C3
S315020E2F386F722029203C3D2026282075634865613C
S315020E2F48705B2028333237363829202D2031205D02
S315020E2F58202920290075785363686564756C657235
S315020E2F6853757370656E646564203D3D2030002886
S315020E2F7820707851756575652029007078556E62D0
S315020E2F886C6F636B65645443420070785374617454
S315020E2F9869635175657565007848616E646C65007E
S315020E2FA8212820282078436F7079506F73697469C7
S315020E2FB86F6E203D3D202820282042617365547984
S315020E2FC870655F7420292032202920292026262082
S315020E2FD82820707851756575652D3E75784C656E27
S315020E2FE867746820213D20312029202900707854E3
S315020E2FF8696D654F75740075785072696F7269746A
S315020E300879203C202835290070727644656C6574E1
S315020E30186554434200785461736B526573756D65D8
S315020E3028416C6C00765461736B506C6163654F6EBE
S315020E30384576656E744C69737452657374726963F8
S315020E304874656400785461736B52656D6F76654666
S315020E3058726F6D4576656E744C697374007078542A
S315020E306861736B42756666657220213D2028287645
S315020E30786F69642A29302900707276496E697469F5
S315020E3088616C6973654E65775461736B007078541B
S315020E309869636B73546F57616974007852657475F8
S315020E30A8726E002828285343425F54797065202A87
S315020E30B82920282830784530303045303030554C66
S315020E30C829202B20307830443030554C2920292D92
S315020E30D83E49435352202620283078314646554CCF
S315020E30E8202929203D3D2030007853697A65203DF6
S315020E30F83D2073697A656F66282051756575655F19
S315020E31087420290078517565756553656D61706809
S315020E31186F726554616B650078517565756547659D
S315020E31286E65726963437265617465537461746917
S315020E3138630076506F727453564348616E646C65BB
S315020E3148725F43002E2E2F72612F6177732F46728E
S315020E3158656552544F532F4672656552544F532F17
S315020E3168536F757263652F706F727461626C652F19
S315020E31784D656D4D616E672F686561705F342E639E
S315020E31880075785363686564756C657253757370EA
S315020E3198656E646564203D3D20315500707845762E
S315020E31A8656E744C697374007852657475726E2006
S315020E31B8213D2028202D31202900282028202820AC
S315020E31C870784C696E6B2D3E78426C6F636B5369E1
S315020E31D87A65202920262028202820282073697A15
S315020E31E8655F74202920312029203C3C202820287E
S315020E31F82073697A656F66282073697A655F74200B
S315020E320829202A202820282073697A655F742029A6
S315020E3218203820292029202D20312029202920292D
S315020E322820213D2030202920213D2030007851755D
S315020E3238657565437265617465436F756E74696EFD
S315020E32486753656D6170686F7265537461746963ED
S315020E32580078517565756552656365697665007898
S315020E32685461736B496E6372656D656E74546963E8
S315020E32786B002E2E2F72612F6177732F467265653C
S315020E328852544F532F4672656552544F532F536FEE
S315020E3298757263652F71756575652E630076506F47
S315020E32A872744672656500707276437265617465EC
S315020E32B85374617469635461736B00707854434234
S315020E32C82D3E7563537461746963616C6C79416CD6
S315020E32D86C6F6361746564203D3D20282028207535
S315020E32E8696E74385F74202920322029002E2E2FFB
S315020E32F872612F6177732F4672656552544F532F3B
S315020E33084672656552544F532F536F757263652F06
S315020E33187461736B732E6300765461736B44656CBA
S315020E33286574650070784E65775175657565002109
S315020E3338282028202820707642756666657220290E
S315020E3348203D3D202828766F69642A2930292029AE
S315020E33582026262028202820707851756575652026
S315020E3368292D3E75784974656D53697A6520213D16
S315020E33782028205542617365547970655F74202939
S315020E33882030552029202900785461736B436865CD
S315020E3398636B466F7254696D654F7574007078511A
S315020E33A87565756500765461736B44656C61790053
S315020E33B87852657475726E20213D202820282028A1
S315020E33C82042617365547970655F74202920302016
S315020E33D829202900765461736B506C6163654F6EB2
S315020E33E84576656E744C69737400785175657565A4
S315020E33F800765461736B53746172745363686564B1
S315020E3408756C65720075785363686564756C65725A
S315020E341853757370656E64656420213D20305500C0
S315020E342843616E5F5468726561640070727650729B
S315020E34386F636573735265636569766564436F6D0B
S315020E34486D616E64730078517565756547656E654F
S315020E3458726963526573657400546D72205376638E
S315020E34680076506F7274457869744372697469632B
S315020E3478616C0070784C696E6B2D3E70784E65786D
S315020E34887446726565426C6F636B203D3D20282833
S315020E3498766F69642A2930290070785175657565C3
S315020E34A82D3E75784974656D53697A65203D3D20C2
S315020E34B830007854696D6572437265617465546934
S315020E34C86D65725461736B007578546F70507269BC
S315020E34D86F726974790021282028207076497465DE
S315020E34E86D546F5175657565203D3D202828766F9A
S315020E34F869642A2930292029202626202820707830
S315020E350851756575652D3E75784974656D53697A7B
S315020E35186520213D202820554261736554797065D0
S315020E35285F74202920305520292029007853697A7C
S315020E353865203D3D2073697A656F6628205443429D
S315020E35485F742029002820707854696D65722D3EA5
S315020E35587854696D6572506572696F64496E5469FD
S315020E3568636B73203E2030202900D4D4000000005D
S315020E3578050A000059000E02000000002CE20E2277
S315020E358874350E02B8350E02000001100204000050
S315020E359800000110040700000200000090350E021A
S315020E35A8000000002D032C032E03230322035B00C7
S315020E35B80D060E029F060E02AF060E02B7060E0283
S315020E35C8C5060E02020403040404000102030405DE
S315020E35D80607080C101418203040D4D40000006CCC
S315020E35E80000006C000000880000008800000074CD
S315020E35F80000007400A00E2200A00E220B0000008E
S315020E36081C360E0219000000A0360E020400000037
S315020E3618E4350E020000006C0000006C0001000D7D
S315020E36280000006C0000006C0001000D000000880E
S315020E363800000088000100080000008800000088CB
S315020E36480001000800000074000000740001000A60
S315020E365800000074000000740001000A0000000059
S315020E366800000000000000060000002000000020F6
S315020E36780000000700A00E2200A00E220000000382
S315020E36882CE00E22546A0F2200000003546A0F22FF
S315020E3698546A0F22000000030000006C0000006C42
S315020E36A8000000980001090D0000006C0000006C75
S315020E36B80000007C00010B0D0000006C0000006C7F
S315020E36C8000000270001020D0000006C0000006CCD
S315020E36D858000E020001010D000000880000008845
S315020E36E80000009800010908000000880000008802
S315020E36F80000007C00010B0800000088000000880C
S315020E37080000002700010208000000880000008859
S315020E371858000E0200010108000000740000007431
S315020E3728000000980001090A0000007400000074E7
S315020E37380000007C00010B0A0000007400000074F1
S315020E3748000000270001020A00000074000000743F
S315020E375858000E020001010A0000000000000000D7
S315020E37680000009800010906000000000000000093
S315020E37780000007C00010B0600000000000000009D
S315020E378800000027000002060000000000000000EC
S315020E379858000E020000010600000020000000205C
S315020E37A80000009800010907000000200000002012
S315020E37B80000007C00010B0700000020000000201C
S315020E37C8000000270000020700000020000000206B
S315020E37D858000E020000010700A00E2200A00E22BB
S315020E37E8000000980001090300A00E2200A00E2276
S315020E37F80000007C00010B0300A00E2200A00E2280
S315020E3808000000270000020300A00E2200A00E22CE
S315020E381858000E0200000103546A0F22546A0F2240
S315020E382858000E02000001030100020008001000F3
S315020E38382000D4D40400000000000506362E352ECC
S315020E384830004275696C7420776974682052656E09
S315020E38586573617320416476616E63656420466C96
S315020E3868657869626C6520536F6674776172652036
S315020E38785061636B6167652076657273696F6E2038
S30B020E3888362E352E30002D
S705020E10EDED
