S0130000766973696F6E5F435055312E7372656301
S3150208000080A40E22B92708027D260802C327080201
S31502080010C3270802C3270802C3270802C327080200
S31502080020000000000000000000000000210F080286
S31502080030C327080200000000390F0802A10F0802B0
S31502080040AD200802ED220802F5230802AD200802B7
S31502080050ED21080217180802391708029F18080224
S30902080060F118080279
S31502080068554152543920616C6976650D0A000000BB
S315020800781040000001000000770000002800000078
S3150208008804000000010000001D0000000A0000002C
S3150208009804000000030300000300000003730000C5
S315020800A802730000010000000A0A000000606000EE
S315020800B8CC780802000000000100000000000000D9
S315020800C8003E000024A00E220100000034A00E22E1
S315020800D880B54AF2D87047F61421C2F20E20C0F249
S315020800E8082101F015FD00B980BD47F2663047F2CE
S315020800F85C4247F26843C0F20820C0F20822C0F2FE
S3150208010808230C2102F06CFA8188FF290CDDB1F567
S31502080118006F22DBB1F5005F49DAB1F5006F4FD0FF
S31502080128B1F5805F0CD017E08A1E1E2A45D801232E
S3150208013803FA02F244F24503C4F200031A423CD017
S315020801484AF2AF41C2F20E2101220A7080684AF2C7
S31502080158B041C2F20E2108807047B1F5807FEFD010
S31502080168B1F5007FECD0B1F5806FF5D110B54AF23A
S31502080178AD41C2F20E2101224AF2AC440A70C2F219
S315020801880E242178042988BF10BD21784AF2B44280
S31502080198C2F20E224C2311FB032200F11401104667
S315020801A84C2204F04DFF20780130207010BDC7D0CC
S315020801B8B1F5804F18BF7047C2E78029C0D0CBE790
S315020801C84AF2AE40C2F20E20012101707047D4D419
S315020801D8B0B54AF230640546C00FC2F20E244FF48F
S315020801E8807121600121607345F60200A180082109
S315020801F8C5F60200A1710021C4F80E0041F22700D3
S31502080208A160FD2160824AF2D8702173C2F20E20DB
S315020802180021224601F004FE002854D1002D00D5FB
S315020802286D42284604F0C8FC9FED370B53EC102B99
S3150208023804F016FC9FED360B53EC102B04F034FE33
S3150208024841EC100B06F0A0F951EC100B04F058FC1F
S3150208025840F2011121600821A171FD212173010DC6
S315020802686173010BA1730109000120744FF48170AF
S31502080278A4F811006B20E173E07405204FF47A7133
S3150208028802F0B1F94AF2D870C2F20E2000212246CB
S3150208029801F0C6FD30BB02214AF2AE40CFF6FF7125
S315020802A8C2F20E2002781AB9002901F10101F9D120
S315020802B80021017032B105204FF47A71BDE8B040C9
S315020802C802F091B9B0BD47F2663047F2AD7247F20D
S315020802D87F33C0F20820C0F20822C0F20823882118
S315020802E802F07EF947F2663047F2AD7247F27F337B
S315020802F8C0F20820C0F20822C0F208239B2102F0A5
S315020803086FF900BF00BF00BFCDCCCCCCCCCCFC3F2C
S315020803180000000000C06240B0B50546C0434AF274
S315020803283064C00FC2F20E244FF400712160012115
S31502080338607345F60200A1800821C5F60200A1717C
S315020803480021C4F80E0041F22700A160FD2160824F
S315020803584AF2D8702173C2F20E200021224601F011
S315020803685FFD002855D1002D00D56D42284604F0B8
S3150208037823FC9FED370B53EC102B04F071FB9FED12
S31502080388360B53EC102B04F08FFD41EC100B06F0DC
S31502080398FBF851EC100B04F0B3FB40F20121216083
S315020803A80821A171FD212173010D6173010BA17346
S315020803B80109000120744FF48170A4F811006B201A
S315020803C8E173E07405204FF47A7102F00CF94AF2E7
S315020803D8D870C2F20E200021224601F021FD38BB50
S315020803E802214AF2AE40CFF6FF71C2F20E2000BFD2
S315020803F802781AB9002901F10101F9D1002101701F
S3150208040832B105204FF47A71BDE8B04002F0EBB874
S31502080418B0BD47F2663047F2903247F27F33C0F2F0
S315020804280820C0F20822C0F20823BF2102F0D8F831
S3150208043847F2663047F2903247F27F33C0F2082015
S31502080448C0F20822C0F20823D22102F0C9F800BF76
S31502080458CDCCCCCCCCCCFC3F00000000008061405F
S31502080468B0B50546C0434AF23064C00FC2F20E243C
S315020804784FF4407121600121607345F60200A1809C
S315020804880821C5F60200A1710021C4F80E0041F23E
S315020804982700A160FD2160824AF2D8702173C2F250
S315020804A80E200021224601F0BBFC002855D1002D5A
S315020804B800D56D42284604F07FFB9FED370B53ECB7
S315020804C8102B04F0CDFA9FED360B53EC102B04F0E3
S315020804D8EBFC41EC100B06F057F851EC100B04F044
S315020804E80FFB40F2013121600821A171FD21217318
S315020804F8010D6173010BA1730109000120744FF400
S315020805088170A4F811006B20E173E07405204FF49A
S315020805187A7102F068F84AF2D870C2F20E200021FF
S31502080528224601F07DFC38BB02214AF2AE40CFF6DC
S31502080538FF71C2F20E2000BF02781AB9002901F12A
S315020805480101F9D10021017032B105204FF47A71FF
S31502080558BDE8B04002F047B8B0BD47F2663047F288
S31502080568011247F27F33C0F20820C0F20822C0F20D
S315020805780823F62102F034F847F2663047F20112E8
S3150208058847F27F33C0F20820C0F20822C0F20823D5
S3150208059840F2091102F024F8CDCCCCCCCCCCFC3FE5
S315020805A80000000000C05240B0B54AF23064054661
S315020805B8C00FC2F20E244FF4A061216001216073B4
S315020805C845F60200A1800821C5F60200A17100219C
S315020805D8C4F80E0041F22700A160FD2160824AF2A2
S315020805E8D8702173C2F20E200021224601F018FCA7
S315020805F8002854D1002D00D56D42284604F0DCFAAD
S315020806089FED370B53EC102B04F02AFA9FED360BA5
S3150208061853EC102B04F048FC41EC100B05F0B4FF20
S3150208062851EC100B04F06CFA40F2015121600821D2
S31502080638A171FD212173010D6173010BA1730109D2
S31502080648000120744FF48170A4F811006B20E1733D
S31502080658E07405204FF47A7101F0C5FF4AF2D870A2
S31502080668C2F20E200021224601F0DAFB38BB02212B
S315020806784AF2AE40CFF6FF71C2F20E2002781AB9D4
S31502080688002901F10101F9D10021017032B10520D1
S315020806984FF47A71BDE8B04001F0A5BFB0BD47F284
S315020806A8663047F2CE2247F27F33C0F20820C0F2FC
S315020806B80822C0F208234FF4B37101F091FF47F2FA
S315020806C8663047F2CE2247F27F33C0F20820C0F2DC
S315020806D80822C0F2082340F2791101F081FF00BF0F
S315020806E8CDCCCCCCCCCCFC3F9A99999999992240F5
S315020806F810B54AF23064C2F20E24002020600121A5
S31502080708A06046F2FF60A1800321A0816B20A17137
S31502080718A07305204FF47A7101F065FF4AF2D87082
S31502080728C2F20E200021224601F07AFB30B90520D2
S315020807384FF47A71BDE8104001F055BF47F26630AA
S3150208074847F2F04247F27F33C0F20820C0F2082285
S31502080758C0F208234FF4C97101F042FFB0B547F653
S315020807680820C0F208208568D0E900412A68204690
S31502080778904700B100BEAD6940F29771C0F20821F0
S31502080788204600220023A84700B100BEB0BD017961
S31502080798012942D0042907D0022918BF70474AF20C
S315020807A88860C2F20E203CE08068C1B20D2901D0E9
S315020807B80A2939D1B0B582B04AF2D064C2F20E24F7
S315020807C820884AF29061C2F20E2100250D5408B318
S315020807D84AF2906047F24A21C2F20E20C0F2082174
S315020807E801AA6B46CDE9005504F058FC022811D136
S315020807F801984AF27C61C2F20E21086000984AF210
S315020808088061C2F20E2108604AF28460C2F20E20A2
S3150208081801210170258002B0B0BD4AF28C60C2F28D
S315020808280E200121016070474AF2D061C2F20E21F8
S315020808380A883E2A82BF002008807047531C0B800C
S315020808484AF29061C2F20E218854704780B50A4668
S3150208085847F60821C0F208218B680968D3F808C048
S31502080868034608461946E04700B180BD4AF2886140
S31502080878C2F20E210A68002AFCD000220A6080BD4C
S315020808882DE9F04F81B02DED088B8AB0B0EE40BA4B
S31502080898B0EE419AF0EE60BAB0EE410AB0EE4B1AE3
S315020808A8B0EE42AAF0EE619AF0EE610AF0EE6B1A21
S315020808B8984691468A460990F0EE62AA06F0C0F86A
S315020808C851EC190BB0EE408A02460B46F0EE608AE6
S315020808D804F0EAFA04460D4651EC1B0B02460B468F
S315020808E804F0E2FA22462B4603F0CAFE41EC100B44
S315020808F805F07AFD51EC100B9FEDA70B53EC102B64
S3150208090803F0BEFE9FEDA60B53EC102B03F0B8FEC0
S315020809189FEDA50B04460D4641EC190B51EC1A0B33
S3150208092853EC102B03F0ACFE02460B4641EC1A0BAD
S3150208093804F0BAFA06460F462046294622462B46A8
S3150208094804F0B2FA32463B4603F09AFE41EC100B23
S3150208095805468B4605F048FD54EC106B9FED940B43
S31502080968304653EC102B2146002704F0F5FA0028E6
S3150208097840F009819FED900B304653EC102B214627
S3150208098804F0C0FA002840F0FE809FED8D0B284639
S3150208099853EC102B5946CDF810B003F071FE9FEDB3
S315020809A88A0B53EC102BCDE9022303F069FE9FED5F
S315020809B8880B53EC102B04F053F89FED870BCDE9FF
S315020809C805A95AEC109B4A46534600940446CDF8A4
S315020809D81C80884604F0C0FA9FED810B002857EC64
S315020809E810BB1CBFD0464C46204641465A463B4693
S315020809F804F088FA00281CBFB8465C46099848ECF1
S31502080A081B4B04F0A9F8B0EE4B0AF0EE6B0A8046C7
S31502080A180C46019105F00CFE51EC100B4246234692
S31502080A2804F042FA9FED700B53EC102B03F028FEE4
S31502080A38B0EE490AB0EE4A1AF0EE690AF0EE6A1AF8
S31502080A48CDE9081005F0FCFFB0EE409AF0EE609A80
S31502080A589FED670B049953EC102B284603F010FEFA
S31502080A68DDE9022303F00CFE9FED630B0D460099A0
S31502080A78044653EC102B304604F016FA02460B4687
S31502080A882046294603F0ECFF4A46534604460D46D5
S31502080A9804F062FA002804BFAA46A1464846514607
S31502080AA85A463B4604F02EFA002804BF5746CB4658
S31502080AB847EC10BB05F0BCFD019953EC102B4046D8
S31502080AC804F0F2F902460B4651EC190B04F0F6F952
S31502080AD880468946DDE9081042464B4603F0D0FDB2
S31502080AE89FED470BCDE903105AEC10BB51EC180BD6
S31502080AF85A46534604F0D8F99FED430B56EC107B39
S31502080B083A46334603F0ACFF41EC100B05F03CFDC0
S31502080B180598494680ED000B9FED3D0B404654EC7F
S31502080B28105B2A46234604F0BFF93A46334603F0D1
S31502080B3897FF41EC100B05F027FD06985A4680EDFB
S31502080B48000BDDE90810534604F0AEF93A46334677
S31502080B5803F086FF41EC100B05F016FD07982A46A6
S31502080B6880ED000BDDE90310234604F09DF93A46A9
S31502080B78334603F075FF41EC100B05F005FD1C988A
S31502080B88012780ED000B38460AB0BDEC088B01B088
S31502080B98BDE8F08F00BF00BF00000000000054C087
S31502080BA80000000000C042C000000000004065C006
S31502080BB84A0D55156AF17240602BAFAA5EE93040B4
S31502080BC8000000000000D9C0F7285C8F92FED3C047
S31502080BD839A15435895BE640000000000000F03F61
S31502080BE8000000000000F0BFE11A6D75CE73F7BF6A
S31502080BF8000000000000D940000000000000744010
S31502080C0800000000008066C06E861BF0F9210940C4
S31502080C1800000000008066408AB0FFF759FA4AF2D7
S31502080C2884659FED318BC2F20E254FF0000A0DF14D
S31502080C38080B0DF120080DF1180904AE28780128C9
S31502080C484CD100F030FA4AF27C60C2F20E200768EC
S31502080C584AF28060C2F20E20046885F800A000F005
S31502080C684DFA384603F044FF41EC190B204603F0C7
S31502080C783FFF41EC110BB0EE490AB0EE482AF0EEF6
S31502080C88690AF0EE682A012041464A463346CDF8F3
S31502080C9800B0FFF7F5FD08B39DED080B51EC100BF4
S31502080CA803F02EFFFFF794FA9DED060B51EC100B95
S31502080CB803F026FFFFF730FB9DED040B51EC100BF2
S31502080CC803F01EFFFFF7CCFB9DED020B51EC100B50
S31502080CD803F016FFFFF768FCFFF70AFD012002F08A
S31502080CE8B1FDABE700BF00BF00000000000074407A
S31502080CF8FFF734FD10B1002002F0E3FB4AF20004C4
S31502080D08C2F20E2420460D21FFF7A0FD4FF47A7091
S31502080D1802F098FDF6E7022818BF70474AF29C7057
S31502080D2847F64C21C2F20E20C0F2082100F01DBE79
S31502080D3880B584B04AF2FC70C2F20E2001684AF203
S31502080D48D46C0131016043F21000C2F20F2004216B
S31502080D58CDE9001040F6A35047F26C7147F6CC135A
S31502080D68C2F20E2CC0F20820C0F20821C0F20823EB
S31502080D784FF48062CDF808C002F0A8FA4AF2347134
S31502080D88C2F20E21086008B104B080BD0020002115
S31502080D9804B0BDE8804000F04AB810B5044600F031
S31502080DA849F82046BDE81040FFF736BF80B584B03B
S31502080DB84AF2FC70C2F20E2001684AF2387C013106
S31502080DC8016044F21000C2F20F200321CDE9001097
S31502080DD840F61F6047F2300147F6D013C2F20E2CCE
S31502080DE8C0F20820C0F20821C0F208234FF4806234
S31502080DF8CDF808C002F06AFA4AF29871C2F20E21D0
S31502080E08086008B104B080BD0020002104B0BDE81E
S31502080E18804000F00CB810B5044600F00BF82046DE
S31502080E28BDE81040FFF764BF7047FFF7FDBF00BE75
S31502080E387047D4D4B0B54AF2F474C2F20E242068C4
S31502080E484FF0FF3102F026F9012803D02068002165
S31502080E58FFF7EDFF4AF2F870C2F20E20017801B1E7
S31502080E68B0BD01210170FFF7E0FF4AF2FC75C2F234
S31502080E780E2500BF286801382860F1D020680021AD
S31502080E880022002301F0DCFE0128F3D020680021A5
S31502080E98FFF7CDFFEEE780B54AF2FC70C2F20E20E4
S31502080EA8002101604AF2F870C2F20E204AF60002E0
S31502080EB80170C2F20E224FF48070012101F0A0FEE1
S31502080EC84AF2F471C2F20E21086018B9002000210C
S31502080ED8FFF7ADFFFFF72CFFFFF768FF02F031FDBA
S31502080EE8002080BD4AF64803C2F20E2303604AF67A
S31502080EF8A800C2F20E2008608020106070474AF6E1
S31502080F08A823C2F20E2303604AF60830C2F20E205C
S31502080F1808608020106070471EF0040F0CBFEFF3BC
S31502080F280880EFF30980014908470000C70F08023D
S31502080F380F4B1968EFF309821EF0100F08BF22ED4E
S31502080F48108A22E9F04FEFF30B8342F8043D0A6050
S31502080F584FF0100080F31188BFF34F8FBFF36F8FDE
S31502080F6802F0A0FC4FF0000080F3118800F002B8E6
S31502080F78082E0F22074801680A6802CA81F30B88F5
S31502080F88B2E8F04F1EF0100F08BFB2EC108A82F3CF
S31502080F9809887047082E0F2210B5EFF3118410201E
S31502080FA880F3118802F050FD30B14EF60450CEF2A5
S31502080FB800004FF08051016084F3118810BD8069E2
S31502080FC810F8020C022808BFFFF7D4BF042838BF56
S31502080FD8704780B546F66E7047F27A4247F286033C
S31502080FE8C0F20820C0F20822C0F208234FF47E7124
S31502080FF801F0F6FA283140F8481D41F22501C0F2F7
S3150208100808214FF0807C22F00102C1636FF00201C9
S315020810180264C0F844C0C0E90913704700BE00BF9D
S31502081028FEE7D4D44EF62250CEF20000F021017023
S3150208103800F016F84EF63470CEF20000016841F058
S315020810484041016062B6BFF36F8FEFF3148C2CF040
S31502081058040C8CF31488BFF36F8F02DF00BEFDE71A
S315020810684AF6A050C2F20E20006844F6D351C1F2DD
S315020810786201A0FB01014FF0FF3000EB911100203D
S31502081088B0EB116F18BF70474EF21002CEF200028B
S3150208109851604EF62351CEF20001F0230B70906090
S315020810A80720106070471021EFF3118081F3118829
S315020810B84AF60851C2F20E210A68531C0B605AB93D
S315020810C84AF60C51C2F20E2108604EF60450CEF2C8
S315020810D800000068C00500D1704780B546F66E70F4
S315020810E846F6947247F2B933C0F20820C0F20822CB
S315020810F8C0F2082340F2A44101F072FA4AF60850EF
S31502081108C2F20E20016859B10139016018BF704749
S315020811184AF60C50C2F20E20006880F3118870470E
S3150208112880B546F66E7047F2C07246F64873C0F244
S315020811380820C0F20822C0F2082340F2AD4101F0A5
S315020811484FFA80B598B34EF6902EC4F2010E9EF861
S3150208115800100A0722D04EF2FA32C4F201021388A4
S315020811684AF2025CCFF6FF7C0020A2F800C08EF88D
S31502081178000043F425401080BFF34F8F30BFBFF3FA
S315020811886F8F62B6BFF36F8F72B61088A2F800C067
S3150208119840F425408EF80010108080BDBFF34F8FAB
S315020811A830BFBFF36F8F62B6BFF36F8F72B680BD5B
S315020811B880B572B602F023FA0120FFF7C2FF62B6BB
S315020811C8BDE8804002F076BA2DE9F0470D46044696
S315020811D8087848F20001C4F2350101EB0020606282
S315020811E80020207025626969A162A969C4E90B0110
S315020811F8A078D5F81C8020F00300411CA1706978F4
S3150208120811B940F00200A07095F90B604EF2001968
S31502081218CEF2000906F01F014FF0010C0CFA01F391
S3150208122809F180017009AA7A41F820304CF2003A8D
S31502081238BFF34F8FC4F2000ABFF36F8F5AF826001E
S315020812484AF6705E20F480304AF826005AF82600D4
S31502081258100109F54072C2F20E2E90554EF8264034
S3150208126895F905002E7900F01F030CFA03F34709CE
S3150208127841F82730BFF34F8FBFF36F8F5AF82030E4
S3150208128823F480334AF820305AF8203033011354AD
S315020812984EF8204095F90700AB7900F01F060CFABC
S315020812A806F6470941F82760BFF34F8FBFF36F8FDA
S315020812B85AF820601B0126F480364AF820605AF844
S315020812C8206013544EF8204095F909002B7A00F04D
S315020812D81F060CFA06F6470941F82760BFF34F8F2F
S315020812E8BFF36F8F5AF8201021F480314AF820107C
S315020812F85AF82010190111544EF82040EFF31086B7
S315020813088CF3108843F204022878C4F220024FF0BC
S315020813180041136821FA00F023EA000010601068F9
S315020813281E20012101F05FF986F31088606A4FF4DE
S3150208133880618160E869EB786A784FF48047467875
S3150208134807EA8333417B077806F0010662F3092325
S3150208135801F0010143EAC63207F0030742EA41519E
S3150208136841EA0761626A01F58051D0F804C0516101
S31502081378027802F0FE01022907D14FF60471CFF668
S315020813880071022A08BF203101E0DCF80010626AFF
S315020813980C231161027BAF78817863F39F024FF4BD
S315020813A84073022F08BF4FF48073002F18BF1A43E1
S315020813B801F00101636A42EA0171D960626A002191
S315020813C891612A78092A04D8626A0023C1F61F732A
S315020813D85362827BB0F80F00636A42EA002041F63C
S315020813E80172C0F21F02104018632046C4E90411AC
S315020813F8C4E9061100F065F9B8F80A001021A081B7
S31502081408606AC9F607518166206A90F905205AF872
S31502081418220002F01F0120F480304AF822005AF806
S315020814282200012000FA01F309F5C0715209BFF337
S315020814385F8F41F8223049F82230226A92F90B2046
S315020814485AF8223023F480334AF822305AF82230DE
S3150208145802F01F0300FA03F35209BFF35F8F41F83C
S31502081468223049F82230226A92F907205AF822309D
S3150208147823F480334AF822305AF8223002F01F033E
S3150208148800FA03F35209BFF35F8F41F8223049F88D
S315020814982230226A92F909205AF8223023F4803334
S315020814A84AF822305AF8223002F01F0398405209A5
S315020814B8BFF35F8F41F8220049F82200606A40F2BA
S315020814C81141C0F201018160606A00BF017FC90744
S315020814D8FCD044F64211C5F2433100206160BDE8EA
S315020814E8F08703460020C3E90612704780B5D0F88C
S315020814F824E0DEF808C02CF44013CEF80830D0F8F9
S3150208150824C000BFDCF848305B00FBD5DCF808309D
S3150208151823F01003CCF80830D0F824C09CF81C3005
S31502081528DB06FBD4C0E90412DCF8080040F0101107
S315020815380020CCF8081080BD70B50446406A0D46EE
S3150208154882684FF6EE71CFF6CE711140816000209F
S315020815582061204622F4401600F0B3F82868616A2A
S315020815680861616A00208E6070BD4FF0FF32002064
S315020815780A604A607047D4D48A0701D4062212E060
S31502081588426A936823F440139360426A936C5B0039
S31502081598FCD5936823F010039360426A137FDB062F
S315020815A8FCD400224261C9071CBF0022C261104648
S315020815B870478446C0E90A130020CCF830207047E1
S315020815C8B0B50446406844F64211C5F2433188422A
S315020815D81CBF0720B0BD606A816821F4401181608A
S315020815E8606A816821F010018160606A017FC90614
S315020815F8FCD4206A90F90710012001F01F024B0952
S315020816084EF2801100FA02F2CEF2000141F82320C6
S31502081618BFF34F8FBFF36F8F226A92F9092002F040
S315020816281F0300FA03F3520941F82230BFF34F8F1A
S31502081638BFF36F8F626A936823F480339360226AD2
S3150208164892F9052002F01F0300FA03F3520941F83A
S315020816582230BFF34F8FBFF36F8F226A92F90B209E
S3150208166802F01F0300FA03F3520941F82230BFF3C6
S315020816784F8FBFF36F8FEFF3108580F31088206AB8
S3150208168843F204020078C4F220024FF000411368BC
S3150208169821FA00F01843106010681E20012100F094
S315020816A8A2FF85F3108800206060B0BD0246C069B3
S315020816B8086000210020D16170470620704706207D
S315020816C8704770B50446006AC5690020A060687C40
S315020816D868B34EF25400C4F20100017801F00F0112
S315020816E8022901D801220BE0CA1E052A06D247F6A4
S315020816F89821C0F2082151F8226003E0083910221D
S3150208170802FA01F6407800F00F0000F062FF4AF686
S31502081718A052C2F20E22697C1268B0FBF6F002FBEE
S3150208172801F1B1FBF0F0012101EB9000A06070BD58
S31502081738B0B5EFF303804FF0704101EB00604CF24D
S3150208174800318015C4F20001425822F48032425010
S3150208175841584AF67051C2F20E210C58206A01699C
S315020817686069C1B9C0B1A07800F0030120690229ED
S3150208177805D10088616A20F4DC40486002E00078F6
S31502081788616A0871A078616900F00302881A2169FA
S31502081798606111442161A0B9616A02228D68A06854
S315020817A862F3155510B100F060FF616A8D60A06A90
S315020817B80021216128B120468022BDE8B04000F008
S315020817C801B8B0BD2DE9F04385B08146C06A0DF16E
S315020817D8040830B1054695E8D800C4468CE8D8000E
S315020817E800E04046D9F820301B7881600360027110
S315020817F8D9F83010C160D9F828108847D9F82C00CA
S3150208180810B198E88E008EC005B0BDE8F08310B511
S3150208181882B0EFF303804FF0704101EB00604CF29F
S3150208182800318015C4F20001425822F4803242502F
S3150208183841584AF67051C2F20E210C58A07800F0A7
S315020818480302606A022A03D101686FF35F2100E086
S315020818580178E069019198B1A06901A903F0F0FB42
S31502081868A078A169E26900F003000144101AA1618F
S31502081878E0610ED1A06A60B120460021012203E088
S31502081888A06A30B12046042202B0BDE81040FFF72C
S3150208189899BF02B010BD10B54FF07041EFF303803F
S315020818A801EB00614AF670528815C2F20E221058E8
S315020818B84FF6EF74426ACFF6CF7493682340936063
S315020818C8826A0C161AB100210222FFF77BFF4CF234
S315020818D80030C4F2000050F8241021F4803140F890
S315020818E8241050F8240010BD4FF07041EFF303801E
S315020818F801EB006C4AF670514FEAAC50C2F20E215F
S3150208190808588178436A01F00301022903D1196844
S315020819186FF35F2100E01978B0B59A6C202404EABF
S31502081928D24E1024082514EA126405EA1262724491
S31502081938224403D09D6C2D0458BF40329D6E4FEA4F
S315020819482C6445F0C8559D66836A0BB1FFF73AFFC2
S315020819584CF20030C4F2000050F8241021F4803109
S3150208196840F8241050F82400B0BD80B545F2542238
S31502081978C5F24F020260084600F002F8002080BD50
S3150208198870B5044600F05CF84AF66C5CEFF3108012
S31502081998012181F31088C2F20E2CDCF8001039B93D
S315020819A840F61451C4F2400100220A7040220A7015
S315020819B8DCF800100131CCF8001080F31088208872
S315020819C810B340F6000E0021C4F2400E606800EB20
S315020819D8C102928850F83130100ADD03D2B20BD50B
S315020819E80EEB801555F8226026F4803645F82260F3
S315020819F823F4803645F822600EEB801040F8223030
S31502081A08208801318142E1D3EFF31081012080F366
S31502081A181088DCF8000020B1DCF800000138CCF8A0
S31502081A280000DCF8000038B940F61450C4F2400049
S31502081A38002202708022027081F3108870BDD4D405
S31502081A482DE9F04F81B00446008800285CD042F29E
S31502081A5840084EF64C4A47F6AC2BC4F22008002634
S31502081A68C4F2010AC0F2082B4FF00109002700BF89
S31502081A7860683BF8172000EBC600818891423CD182
S31502081A8800689AF8001000F0B85009FA07F5B0F19C
S31502081A98807F05EA010015D150B9012000F060FEE1
S31502081AA89AF8000028438AF80000012000F02FFE61
S31502081AB818F91700002820D418F8170040F08000F3
S31502081AC815E000BF50B1012000F04AFE9AF800005E
S31502081AD8A8438AF80000012000F019FE18F9170031
S31502081AE8B0F1FF3F09DC18F8170000F07F0008F884
S31502081AF81700C820012100F076FD0137032FB7D158
S31502081B08208801368642B1D301B0BDE8F08FD4D415
S31502081B182DE9F04F81B082460E680020C4F23800DB
S31502081B28894600EB463B0F69CAE900B9886843F259
S31502081B380802CAF81000C868C4F22002CAF81800CF
S31502081B480020CAF81400D7F81C80EFF31085012084
S31502081B5880F31088C6F11B011368884023EA00003F
S31502081B68106010681E20012100F03DFD85F31088DB
S31502081B78DBF81C000007FBD44EF200144CF20035C1
S31502081B8850468121CEF20004C4F2000500F0BEF9DF
S31502081B98D8F804004EF20342CBF814004FF480102A
S31502081BA8CBF82C000020CBF8B000D8F81010CEF2EB
S31502081BB80002CBF83010D8F80810CBF83C10D8F841
S31502081BC80C10CBF8401098F815104FEA011151700D
S31502081BD84AF67051C2F20E210861286920F480304B
S31502081BE8286128694FF01000BFF35F8FC4F8800197
S31502081BF82060D8F80000CBF81800D8F8180020F0AA
S31502081C080100CBF8540086B998F814000001107040
S31502081C18C1F80CA0E86820F48030E860E868082073
S31502081C28BFF35F8FC4F8800120604AF61050C2F2EB
S31502081C380E204FF4807C40F826A0CBF828C0D7F8A7
S31502081C4800E0F2015FFA82F8002300970EEB03061A
S31502081C58CBF828C00BEB030596E8870005F59074C0
S31502081C6887C4D5F82801103320F0800040EA080016
S31502081C78B3F5807FC5F82801E8D10020CBF82800FB
S31502081C8850460121012600F041F9D9F804004AF61E
S31502081C98705590E80E00C06801396FF39F2141EA32
S31502081CA84241A1F500315A1E41EA42614FF6004205
S31502081CB8CFF6FF7202EB80200843CBF80000009F9C
S31502081CC8C2F20E25786990E80E00C0680139C9B2D1
S31502081CD841EA02210022CFF6FF72A1F5807102EBD2
S31502081CE803421143013841EA0060CBF800017869DA
S31502081CF84EF200134068CEF20003FF2828BFFF20E1
S31502081D08397E000440EA412040F201410843CBF8F3
S31502081D180401B868CBF8880038694CF2003740F0F5
S31502081D280300CBF8040099F91500C4F20007002845
S31502081D381CD499F814101A18090182F8001345F8E0
S31502081D4820A057F8201021F4803147F8201057F8B8
S31502081D58201000F01F01400906FA01F103EB800280
S31502081D68BFF35F8FC2F8801143F8201099F917005C
S31502081D7800281DD499F814101A18090182F80013B4
S31502081D8845F820A057F82010012221F4803147F897
S31502081D98201057F8201000F01F01400902FA01F135
S31502081DA803EB8002BFF35F8FC2F8801143F8201055
S31502081DB899F9160000281DD499F814101A18090159
S31502081DC882F8001345F820A057F82010012221F4BA
S31502081DD8803147F8201057F8201000F01F014009F3
S31502081DE802FA01F103EB8002BFF35F8FC2F8801192
S31502081DF843F820105046802100F088F85046002102
S31502081E08002400F083F844F24461C5F24321AAF893
S31502081E180C400020CAF8081001B0BDE8F08FD4D4E7
S31502081E28F0B513685679272943EA8673167943EA79
S31502081E38C67315D906684C2501FB05664FF6D815EB
S31502081E48CFF6FF7573519379A1F1280C092B23D381
S31502081E58182B1ED803F57E73082606EB93031BE098
S31502081E680668751895F874502D0744BF4EF6632010
S31502081E78F0BD4C2501FB0566C6F804369379092B8D
S31502081E8814D3182B0FD803F57E73082606EB93038B
S31502081E980CE00B2606EB131340F2C45E4FF4B86443
S31502081EA840F2BC5509E00B2606EB13134FF4C26E33
S31502081EB840F20C644FF4C1658C4607684C261B072A
S31502081EC80CFB06F63D44AB519368056803F0070315
S31502081ED82C44A35193795BB104680C3204EB0E07C0
S31502081EE8BD1900BF12F8017B013B05F8017BF9D140
S31502081EF80068272904D900EB8C00FF21C16503E095
S31502081F086044012180F870100020F0BD10B54AB26D
S31502081F180368B2F1FF3F01F00F0233DDD3F804C0BC
S31502081F285FEAC17E02D11CF0040104D1052A08BF62
S31502081F381CF001010AD15968012464F302015960A7
S31502081F48996801F007010129FAD10368596821F04D
S31502081F5807011143596000BF996801F007019142C8
S31502081F68FAD1BEF1000F41D11CF003013ED0D0E9E7
S31502081F7800121269D26992694B6D02F001021A437C
S31502081F884A6533E0D3F818E05FEAC17C0EF0010E21
S31502081F9812D0BEF1000F0FD10368D96B21F00101E7
S31502081FA8D96301680B6C23F001030B6401684B6D56
S31502081FB823F001034B650368996921F00701114368
S31502081FC8996100BFD96901F007019142FAD1BCF1BA
S31502081FD8000F0BD1BEF1000F08D0D0E90012126922
S31502081FE8D2699368CB63D168026811640168496843
S31502081FF801F00701017310BD80B51F290FD84FEAF2
S31502082008C11C40F2FF332CEA030300EB030C01F070
S31502082018070E4C231EFB03C303F5126C08E04C2378
S3150208202801FB0303282934BFA3F58C6CA3F5C56CF9
S31502082038DCF800E0CEF380735371DCF8083003F05D
S31502082048070393602EF0604313604FEADE73137139
S31502082058DCF804305FEA137E47F6C423C0F2082385
S3150208206813F80EE082F806E009D00CF10C030C32DC
S3150208207813F801CBBEF1010E02F801CBF8D11F29DC
S3150208208805D8012202FA01F1C943416380BD00EB72
S31502082098810028294FF0FF012CBF40F8441C40F85C
S315020820A8341C80BD2DE9F04FB1B0EFF30380103828
S315020820B8C1B2032955D101A84AF6105A051D0024AA
S315020820C80126C2F20E2A4FF070480DF16409002063
S315020820D85AF820B0BBF1000F3CD028465C2102F022
S315020820E8ABFF4FF48050ADF80800DBF80000016A30
S315020820F808EA013202EB01428907039204620DD506
S31502082108DBF80000816E91FAA1F1B1FA81F1049126
S3150208211800EB8100416C21F004014164DBE905709A
S315020821280194059057B148463946602202F088FF5D
S31502082138384601A9602202F083FF00E001AFDBF806
S31502082148101038468847DBF8140018B14946602249
S3150208215802F076FF0120F1074FF00006B8D10325F1
S3150208216830E045B24AF67050C2F20E2001AF50F876
S315020821782560381D5C2102F05FFF4FF48070ADF8C8
S3150208218808003068C16889B203910021C160D6E99E
S31502082198054001910590049154B119A82146602277
S315020821A802F04EFF01A92046602202F049FF00E02C
S315020821B83C46316920468847706918B119A96022D0
S315020821C802F03EFF4CF20030C4F2000050F8251027
S315020821D821F4803140F8251050F8250031B0BDE8C1
S315020821E8F08FD4D42DE9F04FB1B001A800226C23A0
S315020821F800F114054FF00008C4F23802C4F2380395
S315020822084FF0010A4AF61050C2F20E2050F828007A
S3150208221800285DD04FEA4830185842EA483790FAFB
S31502082228A0F0B0FA80F6012E47D84FF4806046F03F
S315020822382004ADF808000494386E012101FA06F95B
S31502082248009600BF10EA090F2AD1384621462A46BF
S31502082258CDF80480FFF7D0FE01984AF61051C2F26B
S315020822680E2151F820B0DBE90560059056B119A888
S315020822783146602202F0E4FE304601A9602202F0E5
S31502082288DFFE00E001AEDBF8101030468847DBF8BF
S31502082298140018B119A9602202F0D2FE386ED1E7E5
S315020822A80098002207EB8000416C6C2321F0080194
S315020822B8C4F23802C4F238034164F86E40B94CF2E3
S315020822C81031C4F20001086820F4803008600868F2
S315020822D84FF001085FEACA704FF0000A92D131B08E
S315020822E8BDE8F08F2DE9F047B0B0EFF303804FF061
S315020822F8704101EB00604AF670528115C2F20E224D
S3150208230857584FEA206979680A68D1F81080B96976
S31502082318009204913C6894F8A410002956D0EA461B
S3150208232818AD00BF94F8A400C10705D100071FD449
S315020823384FF40070842102E04FF4006080213A6865
S31502082348ADF80400505890FAA0F0B0FA80F00828C0
S3150208235806D35018406890FAA0F0B0FA80F02030F8
S31502082368111891F8742002F0F90281F8742010E025
S31502082378D8F81C008069C0044FF4006058BF4FF4AF
S315020823880050ADF804003868816D21F010018165A6
S3150208239828207E6903905EB128463146602202F0FB
S315020823A84FFE30465146602202F04AFE01E000BF5F
S315020823B85646396930468847786918B129466022E7
S315020823C802F03EFE94F8A4000028ABD14CF2003085
S315020823D8C4F2000050F8291021F4803140F8291077
S315020823E850F8290030B0BDE8F087D4D42DE9F04F6B
S315020823F8B1B04FF07041EFF3038001EB00684AF67B
S3150208240870514FEAA850C2F20E210C584FF4806157
S3150208241860680068ADF808100190282004902068C2
S31502082428016EC9052ED40DF104094AF6105A09F1A6
S315020824381405C2F20E2A0DF1640B00BF28212A469A
S31502082448FFF7DAFD01985AF82060D6E90570059073
S3150208245857B158463946602202F0F2FD38464946CF
S31502082468602202F0EDFD00E04F463169384688479A
S31502082478706918B15946602202F0E2FD2068016EB9
S31502082488C905DBD5816D21F0080181652068806D53
S3150208249800070DD44CF200314FEA2860C4F2000155
S315020824A851F8202022F4803241F8202051F82000E1
S315020824B831B0BDE8F08FD4D44EF22401C4F201013A
S315020824C888780988C1F30312A2F1080103293BD8BF
S315020824D8DFE801F0022C101E4AF28041C2F20E21F0
S315020824E851F820004AF6AB21CAF6AA21A0FB010137
S315020824F8480830E04AF28041C2F20E2151F820001B
S315020825084AF6AB21CAF6AA21A0FB0101C80822E0AD
S315020825184AF28041C2F20E2151F820004AF6AB214E
S31502082528CAF6AA21A0FB0101080914E04AF2804169
S31502082538C2F20E2151F820004AF6AB21CAF6AA21A0
S31502082548A0FB0101880806E04AF28041C2F20E2180
S3150208255851F82000D0404AF6A051C2F20E2108606E
S31502082568704770B54AF2804046F6004141F20022A9
S31502082578C2F20E20C0F2DC21C0F27A0243F2006CE3
S315020825884FF40043C0F26E1C4CF6002E44F2553442
S3150208259848F2004544F2006680E80E1040F600014B
S315020825A843F60002C3F69A3EC1F2DE34C1F2D77583
S315020825B8C2F2C336C2F6AF71C1F69C42C0E9043EFE
S315020825C8C0E90664C0E908518262BDE87040FFF7AF
S315020825D873BF4AF28041C2F20E2151F820007047B1
S315020825E800BE00BFFEE74AF6A052C2F20E221268E1
S315020825F841F20023C0F27A039A4201FB00F00FD394
S3150208260840F6FF01C0F23D0111444DF68362C4F259
S315020826181B32A1FB0212110DA0FB0101E9B11FE051
S315020826284CF6002348F63811C3F69A33C0F241012C
S31502082638B3FBF2F2884207D24FF47A7100FB01F033
S31502082648B0FBF2F0800808E09200B0FBF2F088428C
S3150208265806D24FF47A7100FB01F028B100F005B8EA
S315020826684FF0FF3000F001B8704701380028FCD156
S315020826787047D4D4F0B581B04CF20015C4F20005FF
S315020826882868296A4AF6185701EA00060024C2F297
S315020826980E2700BF26FA04F0C00704D057F82410FC
S315020826A809B1204688470134152CF3D12E6100BF9B
S315020826B8286A3042FCD101B0F0BDD4D470B547F6C9
S315020826C858214CF2003246F240034FF0000EC0F28F
S315020826D80821C4F20002C4F200034FF0010C0020DC
S315020826E831F8104074B1BEEB942F42F8204009D154
S315020826F8650953F8256004F01F040CFA04F43443F8
S3150208270843F825400130092808BF70BDE8E70122C9
S31502082718EFF3108182F310884AF69452C2F20E2217
S3150208272832F8103023B132F81030013B22F8103053
S3150208273832F810208AB94EF2FA3CC4F2010C47F66E
S315020827482052BCF80030C0F2082232F8100043F4CE
S31502082758254222EA0000ACF8000081F31088704787
S3150208276880B50122EFF3108182F310884AF6945253
S31502082778C2F20E2232F810308BB94EF2FA3C47F6FC
S315020827882053C4F2010CC0F20823BCF800E033F85F
S31502082798103043EA0E0343F42543ACF8003032F806
S315020827A81030013322F8103081F3108880BDD4D452
S315020827B800F006F8FEF76FFBFEE700BE7047D4D4B2
S315020827C8B0B54EF60850CEF200004FF47001C0F8C4
S315020827D8801040F20001C0F208214CF2040401609C
S315020827E80020C4F20104FEF796FAFFF7BAFE20683B
S315020827F840F00100206000BF20680028FCD10120B3
S3150208280844F8040CFEF787FA4AF28000C2F20E2050
S3150208281880F30A88002000F02FF8FFF74DFE012002
S3150208282800F02AF843F20C04C2F20F24204602F0FA
S3150208283817FC204602F028FC48F2CE2048F2CE21A0
S31502082848C0F20820C0F20821081A8410012C08DBF5
S3150208285848F2CE25C0F2082555F8040B8047013CF4
S31502082868FAD10220FEF757FAFFF728FF0020BDE83B
S31502082878B04000F02EB8D4D4F0B581B047F6F425A6
S31502082888C0F208252E68044676B16868071D00BF97
S315020828987879844204D157E90101091A02F0CCFB76
S315020828A8013E07F10C07F3D1AE6886B1E86800F174
S315020828B8080500BF6879844205D155E902022968E4
S315020828C8121A02F0BDFB013E05F11005F2D101B05C
S315020828D8F0BD704770B5002841D04AF6B456A0F143
S315020828E80805C2F20E260446B54254D347F6FF70C7
S315020828F8304485424FD854F8040C00285BD5296819
S31502082908002968D120F0004044F8040C00F077FE4C
S315020829184AF6A850C2F20E2054F8041C02684AF66F
S31502082928AC530A44C2F20E2302601A4610461268CB
S31502082938AA42FBD3984206D0B0425CD347F6FF7345
S315020829483344984257D84368C618AE4202D1194446
S31502082958054641606B18934202D013460CE070BDD7
S315020829684AF6A453C2F20E231B689A4204D0526846
S315020829781144696001680B68A8422B6018BF056094
S3150208298842F6B450C2F20F20016801310160BDE86F
S31502082998704000F08FBE47F28C4047F2E95247F280
S315020829A81413C0F20820C0F20822C0F208234FF412
S315020829B8B571FFF715FE47F28C4047F2E95247F21E
S315020829C80653C0F20820C0F20822C0F2082340F2D1
S315020829D86B11FFF705FE47F28C4047F2E95247F2B8
S315020829E8D273C0F20820C0F20822C0F208234FF4B4
S315020829F8B671FFF7F5FD47F28C4047F2831247F2A4
S31502082A089E13C0F20820C0F20822C0F208234FF427
S31502082A18FD71FFF7E5FD4FF0FF31024642F8081F40
S31502082A280021C0E90322C0E90012704700210161AA
S31502082A38704742684A6093688B605960916008617A
S31502082A48016801310160704780B5D1F800C01CF1F0
S31502082A58010207D000F108029646526813686345D0
S31502082A68FAD903E0D0F810E0DEF804204A6091604B
S31502082A78C1F808E0CEF8041008610168013101605E
S31502082A8880BDD0E901230169936042685A604A68A1
S31502082A98824201D182684A600022026108680138C6
S31502082AA80860704770B500284BD00446C06BC0B39F
S31502082AB80E46216CA0FB010199BBFEF7F4FA2068C1
S31502082AC8D4E90F12002502FB0103013901FB0201B1
S31502082AD8A563C4E90103FF20E16084F8440084F889
S31502082AE8450004F110004EB1FFF795FF04F12400E2
S31502082AF8FFF791FFFEF702FB012070BD0168002966
S31502082B08F8D001F0DBF80028F4D04EF60450CEF2DD
S31502082B1800004FF080510160BFF34F8FBFF36F8FEC
S31502082B28E8E747F2BE5047F2927247F2FC63C0F2F0
S31502082B380820C0F20822C0F208234FF4B671FFF73C
S31502082B484FFD47F2BE5047F2927247F2E963C0F266
S31502082B580820C0F20822C0F2082340F23711FFF70C
S31502082B683FFD10B582B05BB3D0B11C4601B9BAB9FC
S31502082B7801B1AAB148230193019B482B30D1019B85
S31502082B88012384F84630002908BF2246C4E90F0102
S31502082B98204601212260FFF785FF204602B010BDB4
S31502082BA847F2BE5047F2424247F27063C0F2082023
S31502082BB8C0F20822C0F208234FF4D871FFF710FDB5
S31502082BC847F2BE5047F2424247F25023C0F2082063
S31502082BD8C0F20822C0F208234FF4C271FFF700FDBB
S31502082BE847F2BE5047F2424247F2FF33C0F2082084
S31502082BF8C0F20822C0F208234FF4CB71FFF7F0FCA3
S31502082C08B0B582B060B10D46814209D81446002192
S31502082C1800222346FFF7A5FF2046A56302B0B0BDEA
S31502082C2847F2BE5047F2795247F25E23C0F20820AD
S31502082C38C0F20822C0F208234FF45E71FFF7D0FCEF
S31502082C482DE9F04F85B00028049200F09D80994638
S31502082C581546044619B9206C002840F0C580B9F112
S31502082C68020F03D1E06B012840F0AE80019101F012
S31502082C780FF910B9002D40F09780FEF714FAA06BE9
S31502082C88B9F1020F59D0E16B884256D304F11007FD
S31502082C98012002AE4FF0000B04AD00BF04990029CB
S31502082CA866D0C00702D0304601F08EF8FEF726FA3B
S31502082CB800F0A5FCFEF7F7F994F84400FF2808BFC8
S31502082CC884F844B094F84500FF2808BF84F845B04C
S31502082CD8FEF714FA3046294601F083F800284AD145
S31502082CE8FEF7E1F9D4F838A0D4F83C80FEF706FADC
S31502082CF8C24515D10499384600F082FF204600F0ED
S31502082D08B5F800F0D7FC80B94EF60450CEF20000AA
S31502082D184FF080510160BFF34F8FBFF36F8F04E006
S31502082D28204600F0A3F800F0C5FCFEF7BCF9A06B34
S31502082D38E16B88424FF00000B0D2019920464A4614
S31502082D4800F062F854F8240F70B1204600F0B6FF76
S31502082D5850B14EF60450CEF200004FF08051016091
S31502082D68BFF34F8FBFF36F8FFEF7C8F9012008E04C
S31502082D78FEF7C4F904E0204600F078F800F09AFC59
S31502082D88002005B0BDE8F08F47F2BE5047F29C0214
S31502082D9847F2E963C0F20820C0F20822C0F2082303
S31502082DA840F2B631FFF71CFC47F2BE5047F29C02C6
S31502082DB847F2AE03C0F20820C0F20822C0F208237E
S31502082DC840F2BB31FFF70CFC47F2BE5047F29C02B1
S31502082DD847F26623C0F20820C0F20822C0F2082386
S31502082DE84FF46E71FFF7FCFB47F2BE5047F29C029E
S31502082DF847F63503C0F20820C0F20822C0F20823B3
S31502082E0840F2B731FFF7ECFB70B5866B036C0446E4
S31502082E1843B31546CAB1E0681A4602F011F9E168E1
S31502082E28206C2268091A9142E16003D2A1684042DD
S31502082E380844E060A81EB0FA80F040093146002E20
S31502082E4818BF01210840361A0CE060681A4602F0D3
S31502082E58F7F8D4E90101226C10448842606001D36C
S31502082E6820686060701CA06370BDD4D4F0B581B0C8
S31502082E780446FEF718F994F94560012E0EDB04F1AB
S31502082E88240500BF286848B1284600F017FF08B18C
S31502082E9800F0F7FF70B2013E0128F3DCFF2684F83A
S31502082EA84560FEF72BF9FEF7FEF894F94470012FF0
S31502082EB80EDB04F1100500BF286848B1284600F061
S31502082EC8FDFE08B100F0DDFF78B2013F0128F3DC08
S31502082ED884F8446001B0BDE8F040FEF70FB9D4D4CF
S31502082EE82DE9F04F83B00028029200F0A280164618
S31502082EF88946044619B9206C002840F0BA8000F0C1
S31502082F08C7FF10B9002E40F0A480FEF7CCF8D4F813
S31502082F1838A0BAF1000F28D0226C52B1D4E90201BE
S31502082F281144E160814224BF2168E160484602F003
S31502082F3887F854F8100FAAF10101A16270B1204668
S31502082F4800F0BCFE50B14EF60450CEF200004FF027
S31502082F5880510160BFF34F8FBFF36F8F0124FEF7CD
S31502082F68CDF8204603B0BDE8F08F04F12408012005
S31502082F786F464FF0000B02AE0299002955D0C007DA
S31502082F8802D0384600F020FFFEF7B8F800F037FB03
S31502082F98FEF789F894F84400FF2808BF84F844B075
S31502082FA894F84500FF2808BF84F845B0FEF7A6F846
S31502082FB83846314600F015FF60B12046FFF756FF3E
S31502082FC800F078FBFEF76FF8A56BFEF797F875B36E
S31502082FD822E000BFFEF767F8A56BFEF78FF82DB15A
S31502082FE82046FFF743FF00F065FB15E002994046C5
S31502082FF800F006FE2046FFF739FF00F05BFB58B9DA
S315020830084EF60450CEF200004FF080510160BFF32D
S315020830184F8FBFF36F8F00BFFEF745F8D4F838A075
S315020830280020BAF1000FA7D076E7002497E7002414
S3150208303897E747F2BE5047F29D5247F22F23C0F24E
S315020830480820C0F20822C0F2082340F2E951FFF725
S31502083058C7FA47F2BE5047F29D5247F2AE03C0F28C
S315020830680820C0F20822C0F2082340F2F251FFF7FC
S31502083078B7FA47F2BE5047F29D5247F27B63C0F24F
S315020830880820C0F20822C0F2082340F2ED51FFF7E1
S31502083098A7FAD4D42DE9F04F83B00028029100F09C
S315020830A88E800446006C002840F099800D4600F090
S315020830B8EFFE10B9002D40F0A280FDF7F4FFA16BD0
S315020830C8D1B154F8100F0139A16270B1204600F047
S315020830D8F5FD50B14EF60450CEF200004FF080517D
S315020830E80160BFF34F8FBFF36F8F0124FEF706F80F
S315020830F8204603B0BDE8F08F4EF6045904F12408B9
S3150208310801206E464FF0000B02AFCEF200094FF0CF
S31502083118805A00BF029900294DD0C00702D030460E
S3150208312800F052FEFDF7EAFF00F069FAFDF7BBFF69
S3150208313894F84400FF2808BF84F844B094F8450078
S31502083148FF2808BF84F845B0FDF7D8FF3046394648
S3150208315800F047FE60B12046FFF788FE00F0AAFA9B
S31502083168FDF7A1FFA56BFDF7C9FF35B31CE000BF44
S31502083178FDF799FFA56BFDF7C1FF2DB12046FFF7AD
S3150208318875FE00F097FA0FE00299404600F038FDFE
S315020831982046FFF76BFE00F08DFA28B9C9F800A099
S315020831A8BFF34F8FBFF36F8FFDF77DFFA16B00202B
S315020831B80029AFD085E7002498E7002498E747F264
S315020831C8BE5047F21A4247F22F23C0F20820C0F22D
S315020831D80822C0F2082340F28261FFF701FA47F291
S315020831E8BE5047F21A4247F2F873C0F20820C0F2F4
S315020831F80822C0F2082340F28661FFF7F1F947F27E
S31502083208BE5047F21A4247F2AE03C0F20820C0F28D
S315020832180822C0F2082340F28B61FFF7E1F9D4D4F9
S31502083228B0B500B3D1B142F6B85E4FF0000CC2F29F
S315020832380F2E0022002300BF0EEB02046568A8427F
S315020832480DD023B92368002B18BF644623460832D3
S31502083258502AF1D1002B18BFC3E90010B0BD234686
S31502083268C3E90010B0BD47F2BE5046F65A7247F295
S315020832783673C0F20820C0F20822C0F2082340F6C4
S31502083288C931FFF7ADF970B515460E460446FDF77E
S315020832980AFF94F84400FF2804BF002084F8440073
S315020832A894F84500FF2804BF002084F84500FDF776
S315020832B825FFA06B28B904F1240031462A4600F0F6
S315020832C8C0FC2046BDE87040FFF7D0BD2DE9F0479F
S315020832D886B0DDF83C9007460020B9F1000F049045
S315020832E826D0109CA4B360200590059860283FD183
S315020832F805980E46DDF838A02046602198461546F8
S3150208330801F09AFE022084F85D0004A8C4F83090F9
S31502083318CDE900A0384631462A464346029400F0CB
S31502083328CBFD204600F034F8049806B0BDE8F087CD
S3150208333847F2396047F2F35247F23D03C0F20820D2
S31502083348C0F20822C0F2082340F2F141FFF748F911
S3150208335847F2396047F2F35247F23633C0F2082089
S31502083368C0F20822C0F2082340F2F241FFF738F900
S3150208337847F2396047F2F35247F68B03C0F2082040
S31502083388C0F20822C0F2082340F2FA41FFF728F9E8
S315020833982DE9F0470446FDF786FE42F62C60C2F28E
S315020833A80F20016842F6086701310160C2F20F2749
S315020833B8396842F6106A42F63866C2F20F2AC2F22B
S315020833C80F2651B1DAF8000000283DD13868E16ABB
S315020833D8C06A884298BF3C6036E03C6000680128AB
S315020833E832D100257019FFF716FB1435642DF9D169
S315020833F842F6E468C2F20F284046FFF70CFB42F68B
S31502083408F869C2F20F294846FFF705FB42F6B86083
S31502083418C2F20F20FFF7FFFA42F61460C2F20F2033
S31502083428FFF7F9FA42F6A060C2F20F20FFF7F3FA9D
S3150208343842F6D860C2F20F20C0F8008042F6DC6075
S31502083448C2F20F20C0F8009042F60C60C2F20F20B2
S3150208345801680131016042F69C61C2F20F21E06AF5
S315020834680A68904288BF086000EB800006EB800075
S315020834784068221DA0608168E1604A608260E06A4D
S3150208348800EB800006EB8001616156F820100131D5
S3150208349846F82010FDF732FEDAF8000078B13868E7
S315020834A8E16AC06A88420AD24EF60450CEF2000091
S315020834B84FF080510160BFF34F8FBFF36F8FBDE89E
S315020834C8F087F0B581B00446FDF7EDFD42F60866C9
S315020834D8C2F20F2604B93468251D2846FFF7D1FA21
S315020834E8A06A18B104F11800FFF7CBFA42F60C6085
S315020834F8C2F20F20016842F6106701310160C2F272
S315020835080F273068396891B1844210D142F614609F
S31502083518C2F20F202946FFF78CFA42F62860C2F251
S315020835280F20016801310160FDF7E8FD1DE042F64A
S315020835382C60C2F20F2001680139016042F6D86090
S31502083548C2F20F200168096819B10068C0680068E4
S3150208355801E04FF0FF3042F6CC61C2F20F21086053
S31502083568FDF7CCFD204600F028F8386898B130688F
S31502083578844210D142F63060C2F20F20006860B960
S315020835884EF60450CEF200004FF080510160BFF3A8
S315020835984F8FBFF36F8F01B0F0BD47F2396047F21C
S315020835A8646247F21523C0F20820C0F20822C0F264
S315020835B8082340F61411FFF713F810B5044690F8D5
S315020835C85D00022808BF10BD012803D038B9206B50
S315020835D8FFF780F92046BDE81040FFF77BB947F2A6
S315020835E8396047F2E12247F20763C0F20820C0F2BF
S315020835F80822C0F2082341F62E11FEF7F1FF42F619
S315020836083060C2F20F2001680131016070472DE966
S31502083618F04381B00E4642F63461C2F20F210D68B4
S3150208362842F6D861C2F20F21D1F8008042F6DC616F
S3150208363842F60864C2F20F21C2F20F24D1F80090AA
S3150208364821680746081DFFF71CFA781C16D1AEB181
S3150208365842F6A060C2F20F20D0E9001223680131AF
S315020836689A6093682768FB60276804375F6023684F
S315020836780433936022680160506117E02068ED19E7
S315020836884560206800F1040105D3484601B0BDE843
S31502083698F043FFF7D9B94046FFF7D6F942F6CC60A8
S315020836A8C2F20F2001688D4238BF056001B0BDE835
S315020836B8F083D4D42DE9F047FDF7F5FC42F63060DD
S315020836C8C2F20F200168002900F0AC8001680139AE
S315020836D80160006828B10024FDF710FD2046BDE800
S315020836E8F08742F62C60C2F20F2000680028F2D052
S315020836F842F6B860C2F20F20016842F6B46A42F688
S3150208370808690029C2F20F2AC2F20F2964D042F6C2
S315020837189C6242F638630021C2F20F22C2F20F23D4
S315020837284FF0010CC768FC68D4E90775A66ABD603C
S31502083738E7696F60776804F11805AF4201D1276A0D
S315020837487760A1623768013F3760D4E9026567691D
S31502083758B560A6686E607D68261DB54201D1E56822
S315020837687D6061613D68013D3D60E76A1568AF4263
S3150208377888BF176007EB870703EB87077F68A76089
S31502083788BD68E5606E60BE60E76A07EB870703EB0C
S315020837988706666153F82760013643F82760E76AA1
S315020837A8D9F80060F66AB74288BFCAF800C007683F
S315020837B8002FB7D142F6D860C2F20F20016809680D
S315020837C819B10068C068006801E04FF0FF3042F698
S315020837D8CC61C2F20F21086042F6D468C2F20F28F9
S315020837E8D8F8006056B1012400F02EF908B1CAF8D3
S315020837F80040013EF8D10020C8F80000DAF80000B7
S3150208380800283FF468AFD9F800004EF60450CEF205
S3150208381800004FF080510160BFF34F8F0124BFF3B8
S315020838286F8F59E747F2396047F2EE2247F251732A
S31502083838C0F20820C0F20822C0F2082340F68B71AB
S31502083848FEF7CEFE80B580B142F63061C2F20F218C
S315020838580A6801320A600968012912D10021FFF7AC
S31502083868D6FEFFF727FF00B180BD4EF60450CEF20A
S3150208387800004FF080510160BFF34F8FBFF36F8F7F
S3150208388880BD47F2396047F2F16247F2C943C0F28E
S315020838980820C0F20822C0F2082340F68E11FEF765
S315020838A89FFED4D480B542F63060C2F20F20006873
S315020838B830B142F6B460C2F20F200121016080BD20
S315020838C842F6B460C2F20F20002142F69C6C0160EF
S315020838D8C2F20F2CDCF8001042F6386301EB8102BB
S315020838E8C2F20F2353F8220003EB820230B900BF53
S315020838F8B9B152F8140D01390028F9D0506843684D
S3150208390802F108008342536001D1D3685360D8682C
S3150208391842F60862C2F20F221060CCF8001010684C
S3150208392880BD47F2396047F21D0247F62703C0F2FF
S315020839380820C0F20822C0F2082341F2FA31FEF73B
S315020839484FFE10B58AB044F24940C4F24C500024DE
S31502083958069005A804A903AA8DF81C40CDE90444D3
S31502083968FDF7C0FADDE90320DDF814C0CDE9004009
S3150208397843F65570C0F2082006A90023CDF808C0F8
S31502083988FFF7A4FC42F6D061C2F20F21086060B3C1
S3150208399800F0F3FA012811D0013026D147F239602E
S315020839A847F23D7247F2F443C0F20820C0F20822F1
S315020839B8C0F2082340F6A961FEF712FE42F6CC6168
S315020839C8C2F20F214FF0FF32012080F310880A60F5
S315020839D842F61061C2F20F21086042F63460C2F25A
S315020839E80F2000210160FDF71DFB47F62C50C0F297
S315020839F8082000680AB010BDF0B581B042F62865FD
S31502083A08C2F20F252868E0B142F6146642F62C6718
S31502083A18C2F20F26C2F20F27FDF745FBF068C46803
S31502083A28201DFFF72EF838680138386028680138EB
S31502083A382860FDF763FB2046FFF7BFFD28680028C4
S31502083A48EAD101B0F0BDD4D42DE9F04742F6306088
S31502083A58C2F20F20006848B142F6D460C2F20F20BB
S31502083A680168013101600020BDE8F08742F634603A
S31502083A78C2F20F20016842F6CC6C4A1CC2F20F2C1D
S31502083A88026022D342F6D860C2F20F20016809689A
S31502083A98002940F09F8042F6DC63C2F20F230168D0
S31502083AA81F680760196042F6E061C2F20F210B68C7
S31502083AB801330B600168096819B10068C0680068B3
S31502083AC801E04FF0FF30CCF80000DCF80000824233
S31502083AD801D2002074E042F6D86AC2F20F2ADAF84E
S31502083AE800004FF000090068002864D042F69C6E70
S31502083AF842F6386442F60868C2F20F2EC2F20F245A
S31502083B08C2F20F28002000BFDAF80050ED68EE6806
S31502083B18374657F8045FAA4250D3D6E9021375699D
S31502083B288B60B16859606968B94201D1F168696000
S31502083B38C6F81490296801392960B56A85B1D6E9A3
S31502083B4807138B60F1695960696806F11803994287
S31502083B5801D1316A6960C6F828902968013929604D
S31502083B68F56ADEF800108D4205EB850188BFCEF8A6
S31502083B78005004EB81014968B1608B68F3605F60A5
S31502083B888F60F16A01EB810104EB8103736154F8D2
S31502083B982130013344F82130F16AD8F80030DB6A5B
S31502083BA8DAF80050994288BF012029680029ABD162
S31502083BB84FF0FF3502E04FF0FF350020CCF80050F1
S31502083BC842F6B461C2F20F210968002918BF01201A
S31502083BD8BDE8F08747F2396047F2AB5246F6A77353
S31502083BE8C0F20820C0F20822C0F2082341F25F2177
S31502083BF8FEF7F6FC42F63460C2F20F2000687047F8
S31502083C0810B570B10C4642F60861C2F20F2109686E
S31502083C181831FEF719FF20460121BDE81040FFF7C3
S31502083C28F6BC47F2396047F2207247F2E443C0F21B
S31502083C380820C0F20822C0F208234FF4A451FEF75E
S31502083C48CFFC10B550B342F6086CC2F20F2C0346E5
S31502083C58D0F804E0DCF80000002AC0F81CE0DEF818
S31502083C680800DCF800402062DCF8004004F1180479
S31502083C784460DCF8000000F11800CEF80800DCF809
S31502083C8800008362186818BF4FF0FF31441C0846C3
S31502083C9811461C60BDE81040FFF7B9BC47F2396007
S31502083CA847F2FD2247F2E443C0F20820C0F208228E
S31502083CB8C0F2082341F2BE41FEF792FC80B5C068FD
S31502083CC8C068002870D0D0E90713826A8B60C16978
S31502083CD85960536800F118018B4201D1036A53608F
S31502083CE8002383621368013B136042F63062C2F20C
S31502083CF80F2212688AB142F6B86CC2F20F2CDCE9B6
S31502083D0800E2C26193680362596091600EF101018B
S31502083D18C0F828C0CCF8001034E0D0E9021342698A
S31502083D288B60816859605368011D8B4201D1C3684B
S31502083D38536000234361136842F69C6C013B136087
S31502083D48C2F20F2CC26ADCF800309A4288BFCCF855
S31502083D58002042F6386C02EB8202C2F20F2C0CEBF8
S31502083D688202526882609368C36059609160C16A28
S31502083D7801EB81010CEB810242615CF821200132D8
S31502083D884CF8212042F60861C2F20F21C06A096876
S31502083D98C96A884291BF002042F6B461C2F20F216D
S31502083DA8012088BF086080BD47F2396047F21D3294
S31502083DB847F23B23C0F20820C0F20822C0F20823C1
S31502083DC841F2F541FEF70CFC42F6E061C2F20F2118
S31502083DD80968016042F63461C2F20F210968416036
S31502083DE8704770B568B30D46D9B30446FDF75BF953
S31502083DF842F6346EC2F20F2EDEF8003029684A1CE3
S31502083E0816D042F6E06CC2F20F2CD4E90002DCF8AE
S31502083E180060864201D093420CD29A1A914209D975
S31502083E28881A2860DCF800002060DEF80000606066
S31502083E38002402E0002001242860FDF75FF92046E5
S31502083E4870BD47F2396047F2D46247F2B323C0F22B
S31502083E580820C0F20822C0F2082341F2A551FEF74B
S31502083E68BFFB47F2396047F2D46247F2A333C0F27E
S31502083E780820C0F20822C0F2082341F2A651FEF72A
S31502083E88AFFB42F6B460C2F20F2001210160704707
S31502083E9842F61060C2F20F20006850B142F630604E
S31502083EA8C2F20F20006800284FF0000008BF02205F
S31502083EB8704701207047D4D42DE9F0470A9F8246F5
S31502083EC8089C386B984669B107F13403002600BF87
S31502083ED88D5D9D551DB10F2E06F10106F8D10021FB
S31502083EE887F84310052C21D200EB8200043820F00B
S31502083EF80706DDF82490381DFC62FEF797FD07F1E0
S31502083F081800FEF793FDC4F10500396BB86130460F
S31502083F18524643463F617F62FDF76CF8B9F1000FD6
S31502083F28386018BFC9F80070BDE8F08747F23960EB
S31502083F3847F2513247F2BD23C0F20820C0F20822DE
S31502083F48C0F2082340F26471FEF74AFB42F6386467
S31502083F584EF60455C2F20F24CEF200054FF08056EB
S31502083F68FFF74AFD2068022822BF2E60BFF34F8F4B
S31502083F78BFF36F8FFDF71CF9F2E780B586B000F03C
S31502083F883BF842F60C70C2F20F20006820B30020F4
S31502083F98CDE9040005A804A903AAFCF7B0FFDDE9E0
S31502083FA803200321DDF814C0CDE9001044F27D0090
S31502083FB847F2A571C0F20820C0F208210023CDF8FD
S31502083FC808C0FFF783F942F61071C2F20F2108609A
S31502083FD810B1012006B080BD47F25A0047F6110211
S31502083FE847F2B133C0F20820C0F20822C0F2082309
S31502083FF84FF4A371FEF7F4FA70B582B0FDF753F8D9
S3150208400842F60C76C2F20F26306868BB42F620746E
S31502084018C2F20F242046FEF7FEFC42F63475C2F2B7
S315020840280F252846FEF7F7FC42F61470C2F20F204F
S31502084038046042F61870C2F20F2042F6907242F6EF
S31502084048487305600025C2F20F22C2F20F230A201E
S315020840580C210095FEF785FD306028B147F29701D5
S31502084068C0F20821FFF7DCF802B0BDE87040FDF798
S3150208407845B8D4D484B042F6147842F60C75C2F21E
S315020840880F2801ACC2F20F254FF0000BEA4600BF13
S31502084098D8F80000D0F80090B9F1000F02D0C0682D
S315020840A8066800E00026FFF7AAFA204600F0AAF8F2
S315020840B8019919B1FFF7FEFA2EE000BF0746B9F1D2
S315020840C8000F08D0BE4206D8FFF7F4FA304639463A
S315020840D800F0C3F820E0B9F1000F01D0002208E089
S315020840E842F61870C2F20F2000680068B0FA80F02B
S315020840F842092868F11BFFF7C6F8FFF7DBFA58B931
S315020841084EF60450CEF200004FF080510160BFF31C
S315020841184F8FBFF36F8F00BF2868CDE902BBCDF872
S3150208412804B000BF21460022FEF7DAFE0028AFD007
S31502084138019800284CD4039E706910B1301DFEF709
S31502084148A0FC504600F05EF80199013908293FD8C3
S315020841580746DFE801F005052C1C3F05052C1C005F
S3150208416896F82400029BB16940F0010086F82400FB
S31502084178194430463A4600F0A8F848B396F8240097
S3150208418841071BD400F0FA0086F824001DE096F8C9
S31502084198240040F00101029886F82410B06108B399
S315020841A8C11930463A463B4600F08FF810E096F8B1
S315020841B8240000F0FE0086F8240009E00298B16996
S315020841C83A460144304600F069F8316A304688476B
S315020841D82868A7E796F824008107EAD43046FEF746
S315020841E879FBF5E747F25A0047F2777247F6A403CE
S315020841F8C0F20820C0F20822C0F208234FF48261EE
S31502084208FEF7EEF9F0B581B00446FFF7F3FC42F67D
S315020842181C76C2F20F263168054688420ED242F645
S315020842281477C2F20F2700BF3868016841B1C0681F
S315020842384FF0FF31006800F010F8F5E7002007E0B4
S3150208424842F61871C2F20F210A68086001203A601C
S3150208425820602846356001B0F0BD70B542F6147282
S31502084268C2F20F2212680646D2680D46D468201D85
S31502084278FEF707FC94F82400410704D400F0FA0074
S3150208428884F8240004E0204631462A4600F006F857
S31502084298216A2046BDE870400847D4D470B5054659
S315020842A8806914460E460144284600BF334600F084
S315020842B80CF848B1A869296A064428468847A869AD
S315020842C8224681192846F1E770BD8C46014641F80F
S315020842D804CF9445006108D942F614709A42C2F28C
S315020842E80F200AD29C4508D30DE08069D21A824269
S315020842F809D242F61870C2F20F2080B50068FEF796
S31502084308A3FB002080BD01207047D4D4D4D4D4D4CA
S315020843182DE9F04381B052EC101B002558EC113BED
S31502084328C8F210054FF0010C22F000474E1E28F07D
S31502084338004007EB050474EB0506C0F08F804619A2
S31502084348B3EB0C04AE41C0F08980CE1A964677EBD9
S31502084358000018463CBF0846194643463CBF134662
S31502084368C6467446CEF30A5C6FF31F54C3F30A555E
S31502084378BCF1000F1CD1B1FA81F7002C07F120070E
S3150208438818BFB4FA84F7A7F10B09B7F12B0604FA92
S3150208439809FCC7F12B0421FA04F444EA0C04C7F110
S315020843A80C0C58BF01FA06F401FA09F158BF0021A4
S315020843B86FF31F53D5B9B0FA80F5002B05F120051E
S315020843C818BFB3FA83F5C5F12B07A5F10B0620FA30
S315020843D807F7B3403B43B5F12B07C5F10C0558BFA0
S315020843E800FA07F300FA06F058BF002088EA020620
S315020843F8DA0042EA5072E30042F4000243EA5173D1
S31502084408C000AC453FD0ACEB05043F2C39D8C4F103
S315020844184005C5F1200702FA05F800FA05F520FA5B
S3150208442807F747EA0807D4F1200858BF00FA08F739
S3150208443858BF0025E0403D4302FA08F740EA07005C
S3150208444818BF0125B4F1200758BF22FA07F022FA45
S3150208445804F240EA050058BF002214E000244E1E62
S31502084468C7F6F07477EB040602D342F400206EE02E
S315020844785E1E70EB040628D348F4002040EC113B74
S31502084488E3E00022012043F400030EF00044C900C9
S31502084498B6F1FF3F0DDD09185A41D3014ED55FEA39
S315020844A852024FEA310100F001000CF1010C0143F6
S315020844B844E081EA000783EA0206091A63EB020264
S315020844C83743DFB99FED6A1BBFE087EA04060E4346
S315020844D840F0918083EA0100BCF101039FED660B67
S315020844E880EA030065F5801388EA02077B4056ECE2
S315020844F8105B18431CBF16460D46A4E00020B0EB15
S31502084508D25F1BD1B1FA81F0002A00F1200018BF48
S31502084518B2FA82F0A0F10803C0F12807ACEB030C43
S315020845289A40283821FA07F742EA070258BF01FAD9
S3150208453800F201FA03F158BF00210BE040F2FF70BE
S31502084548844507DB44F0E040002140F07F6040ECF8
S31502084558111B7AE0BCF1000F2BDC6FF01E070CF179
S315020845683F00A7EB0C0702FA00F301FA00F021FA5A
S3150208457807F633431CF11F0658BF01FA06F358BF5C
S3150208458800201843CCF10103C3F1200618BF012005
S31502084598D940002F02FA06F641EA060158BF22FA5E
S315020845A807F122FA03F241EA00014FF0000C58BF5C
S315020845B80022C80840EA4275C2F3D30001F0070789
S315020845C840EA0C5040EA040600F064F802282BD0A8
S315020845D8012820D098BB681C46F10001042F9CBF0D
S315020845E82846314638D105F001002D1846F100064D
S315020845F800F05CF827E080EA04061E4325D051EA53
S3150208460807062CD0B0EE401A53EA0006F0EE601AF6
S315020846187FF49BAE19E03846002F18BF0120002CFC
S3150208462818BF0124204007E0B4FA84F13846002F5F
S3150208463818BF0120490908402D1846F10006002F1F
S3150208464818BF00F033F846EC115BB0EE410AF0EEFB
S31502084658610A01B0BDE8F08305460E46EFE718433E
S31502084668F3D103EA010008EA020141EC110BECE76F
S315020846780000000000000000000000000000F87FAB
S3150208468880B541EC100B43EC112BFFF741FE51ECB8
S31502084698100B80BD0448F1EE101AC1F38151784413
S315020846A850F82100704700BF0A340000F1EE100ADC
S315020846B840F01000E1EE100A00207047D4D4D4D492
S315020846C82DE9F04F85B051EC11AB4FF6020754ECC1
S315020846D810BBCFF6FF7781EA04000E46A64600F01D
S315020846E8004CC4F30A506FF31F56A0F2FF726FF319
S315020846F81F5EC1F30A53BA4221BFA3F2FF724FF6ED
S315020847080107CFF6FF77BA420FD8002524F00047EB
S31502084718C7F6F075BBF1010277EB0502C0F0938084
S3150208472844F4002040EC10BB81E102A981E8091093
S315020847380020019046F4801C4FEA5A514FF2333250
S31502084748002341EACC21C7F20452521ACDF800A036
S31502084758A1FB02567542A5FB0225D20F42EA45027B
S31502084768A2FB01567542A2FB0525D20F42EA45026B
S31502084778A2FB015675420026A2FB0525D20F42EA7C
S3150208478845024FEACA25013AA5FB02570025E1FB6D
S315020847980275D7F1010166EB0505A2FB0557A1FBD0
S315020847A802127F0047EAD577C90F41EA420111EB9F
S315020847B8450147EBD2724EF48017E13962F10002DD
S315020847C84FEA4B0E780040EADB79A2FB0E04E2FBBD
S315020847D80943A1FB09256419A1FB0E1543F1000338
S315020847E8A91846F100024018DDE90210624143F1B0
S315020847F80008081A0199B6EB585F01EB000404F29F
S31502084808FF312CD1B8F5801F38BF012602FA06F007
S315020848184FEA5202A0FB0A5300FB0C3786F01F0325
S31502084828039538BF04F2FE3108FA06F5DA4045EA76
S315020848380203039C013903FB0A724FEA4B57664285
S3150208484867EB02081CE021F00044BAF1010274EB96
S3150208485805022ED341F4002040EC10ABE7E05FEAEC
S3150208486858034FEA3200A0FB0A264FEA0B54DE46E3
S31502084878B94600FB0C6603FB0A65564264EB050853
S3150208488840F2FF72914205DB049840F0E04040F09E
S315020848987F607FE0012922DB4FEA48026FF31F5344
S315020848A842EAD67443EA01527100049DDDF800A073
S315020848B8AAE087EA050151EA0B0107D184EA05004D
S315020848C850EA0A0064D19FED640BB0E084EA050158
S315020848D851EA0A010BD100204CEC100BA7E011F1A2
S315020848E8350F5BDC0499002041EC100B9FE05BEA6C
S315020848F8070100F09F805AEA040149D04FF00009DF
S315020849080025B9EB175F1ED1BBFA8BF2BEF1000F71
S3150208491802F1200218BFBEFA8EF2C2F12B05A2F1E5
S315020849280B072BFA05F50EFA07F145EA010EB2F15D
S315020849382B0558BF0BFA05FEC2F10C050BFA07FB45
S3150208494858BF4FF0000B02A9B9EB145F81E80910AA
S315020849587ED1BAFA8AF1002E01F1200118BFB6FAF9
S3150208496886F1A1F10B0206FA02F7C1F12B062AFA19
S3150208497806F63E43B1F12B07294458BF0AFA07F649
S31502084988A1F10C000AFA02FA58BF4FF0000AD0E65B
S315020849984CEA0500002140EC101B48E0C1F101026F
S315020849A86FF01304C2F12007641AD04023FA02F200
S315020849B803FA07F738436FF01E072EFA04F47F1A2C
S315020849C858BF23FA07F0DDF800A058BF0022AAFB51
S315020849D800760AFB026301F13406143109FA06F570
S315020849E80CFB003345EA040558BF0EFA01F50EFA20
S315020849F806F158BF0021B1EB47014FEA430343EAE0
S31502084A08D77365EB0304049D431C00F0010642F1C3
S31502084A180007891944F10006BAEB01017CEB060185
S31502084A2824BF0346174647EA050040EC103B05B083
S31502084A38BDE8F08F9FED080B5AEA04014FF0000013
S31502084A4851EC102B1CBF6146024641EC102BEEE7CF
S31502084A5801956FE600BF00BF000000000000F87F5E
S31502084A6880B541EC100B43EC112BFFF729FE51ECEC
S31502084A78100B80BD10EE100A0246C0F3C7516FF339
S31502084A88DF5239B1FF291ED14FEAD20C520740F23A
S31502084A98FF7324E0FAB1B2FA82F1C1F10B03B1F15C
S31502084AA80B0C22FA03F358BF02FA0CF383F4801CA0
S31502084AB840F28933A3EB010301F1150102FA01F267
S31502084AC858BF00220BE0C30D4FEAD20CDBB25207DD
S31502084AD803F5607303E000224FF0000C002300F090
S31502084AE8004040EA035040EA0C0040EC102B70479D
S31502084AF880B500EE100AFFF7BDFF51EC100B80BD1A
S31502084B08C1F30A5240F2FF339A423CBF002070476B
S31502084B18A2F21F4313F1210F9EBF6FF0004080EAED
S31502084B28E170704780B540F233434FF0010C9B1A87
S31502084B388E466CF31F5ED840C3F120030EFA03F3C0
S31502084B48184340F213439A1A58BF2EFA02F0B1F1E3
S31502084B58FF3FD8BF404280BD002822D0014648BF41
S31502084B684142B1FA81F2C2F10B03B2F10B0C21FAF6
S31502084B7803F358BF01FA0CF383F4801C40F21E4370
S31502084B88A3EB020302F1150201FA02F10CEB035335
S31502084B9858BF0021002848BF43F0004343EC101BC6
S31502084BA801E09FED030B51EC100B704700BF00BFE5
S31502084BB80000000000000000E8B1B0FA80F181F0B8
S31502084BC81F02D2F1140CC2F13402C2F1200320FAF0
S31502084BD803F358BF00FA0CF383F4801C40F21E4311
S31502084BE8A3EB010100FA02F00CEB015158BF0020B1
S31502084BF841EC100B01E09FED020B51EC100B7047CC
S31502084C0800000000000000002DE9F04F81B055ECC5
S31502084C18101B4FF6020356EC110BCFF6FF7386EA02
S31502084C2805022C4602F0004C3246C5F30A596FF3C0
S31502084C381F52A9F2FF776FF31F54C6F30A5E9F4203
S31502084C4821BFAEF2FF734FF60107CFF6FF77BB42D5
S31502084C580CD840F2000825F00047C7F6F0784B1E34
S31502084C6877EB080335D345F4002057E04FF0000ADE
S31502084C7844F48014C302D20242EA5050A3FB0457F2
S31502084C8840F0004000264FF00048E0FB0476A3FBFC
S31502084C980123A0FB01103F1846F100065B1948F1EB
S31502084CA80045581809EB0E03534457EB050146F11C
S31502084CB80005A3F2FF33EF0216D4470047EAD27477
S31502084CC86F0047EAD1754900520041EAD071204679
S31502084CD80BE026F00045431E75EB080315D346F488
S31502084CE8002141EC100B1BE0013340F2FF77BB426F
S31502084CF804DB4CF0E04040F07F600EE0002B1CDD40
S31502084D086FF31F5545EA035368E087EA08030B431E
S31502084D1809D128430ED04CEA0800002140EC101BA2
S31502084D2801B0BDE8F08F85EA080303436AD151EA60
S31502084D380700F0D19FED5A0BF2E7C3F101063F2EA1
S31502084D4866D803F13F046FF01E07A7EB030922FA98
S31502084D5806FB05FA04FE21FA09F747EA0E0A13F1D1
S31502084D681F0EC6F1200358BF01FA0EFA009300FA7D
S31502084D7803F722FA09F347EA0B0700FA04FB43EAA0
S31502084D880B0358BF02FA0EF302FA04F258BF0022BE
S31502084D9842EA030201FA04F358BF0023002A18BF9D
S31502084DA80122B6F1200458BF20FA04F743EA07039A
S31502084DB842EA0302009B21FA06F120FA06F005FAEE
S31502084DC803F341EA030158BF25FA04F158BF002044
S31502084DD825FA06F340EA0A0058BF002343EA0C03F9
S31502084DE8574278EB000701D2013106E080EA08004B
S31502084DF8104304D101F00100091843F1000343ECFA
S31502084E08101B8DE751EA070318BF50EA050303D1B9
S31502084E1800204CEC100B83E74FF000084FF0000A0D
S31502084E28B8EB175F1AD1B1FA81F3002C03F1200304
S31502084E3818BFB4FA84F3A3F10B06C3F12B07C3F11F
S31502084E480C0AB44021FA07F73C43B3F12B0758BFBB
S31502084E5801FA07F401FA06F158BF0021B8EB155F03
S31502084E687FF406AFB0FA80F3002A03F1200318BFCD
S31502084E78B2FA82F3C3F12B07A3F10B0520FA07F757
S31502084E88AA403A43B3F12B07AAEB030358BF00FA21
S31502084E9807F203F10C0A00FA05F058BF0020E7E604
S31502084EA8000000000000F87F80B541EC100B43ECC7
S31502084EB8112BFFF7A9FE51EC100B80BD80B582B005
S31502084EC843EC102B8DED000B41EC100B9DF80720D7
S31502084ED882F080008DF807009DED001BFFF718FA8F
S31502084EE851EC100B02B080BD10B541EC100B43EC27
S31502084EF8112B00F03EF8002801D0002010BD012031
S31502084F0810BD00BF10B541EC100B43EC112B00F095
S31502084F1830F8002801DB002010BD012010BD00BFB3
S31502084F2810B541EC100B43EC112B00F022F80028BF
S31502084F3801DD002010BD012010BD00BF10B541ECEF
S31502084F48100B43EC112B00F045F8002801DA002073
S31502084F5810BD012010BD00BF10B541EC100B43EC83
S31502084F68112B00F037F8002801DC002010BD0120BB
S31502084F7810BD70B55EEC102B00250120C7F6F0753A
S31502084F882EF00041534275EB010322D35CEC113B28
S31502084F982CF000445E42A5411BD343EA0200214392
S31502084FA8084309D01CEA0E0008D4D01A7EEB0C0076
S31502084FB808DA4FF0FF3070BD002070BD981A7CEBF6
S31502084FC80E00F6DB82EA03008EEA0C01084318BFD4
S31502084FD8012070BD70B55EEC102B00254FF0FF302E
S31502084FE8C7F6F0752EF00041534275EB010322D33A
S31502084FF85CEC113B2CF000445E42A5411BD343EA04
S3150208500802002143084309D01CEA0E0008D4D01A24
S315020850187EEB0C0008DA4FF0FF3070BD002070BD39
S31502085028981A7CEB0E00F6DB82EA03008EEA0C017C
S31502085038084318BF012070BD0A46002100F009B8C6
S3150208504810B500239A4203D0CC5CC4540133F9E75D
S3150208505810BD00239A4208BF7047C1540133F9E7C5
S3150208506810B505490446054AFFF7EAFF0448054903
S315020850782044FFF7E1FF10BDD8000802000000002F
S3150208508800000000000000000249401A02490860B0
S31502085098704700BF0800000008300F2282B080B5AA
S315020850A88AB0CDE90C230022CDE9042009480692E4
S315020850B8CDE90722CDE902204FF4803001900CAAE7
S315020850C8099201A800F014F80AB0BDE8804002B0B7
S315020850D8704700BFE150080202690146107810B10C
S315020850E801320A6170476FF001007047D4D4D4D4EC
S315020850F82DE9F84F2DED088B92B09FEDBD9B8146A1
S315020851089FEDBDAB00209FEDBEBB0F4647F6FD7867
S315020851180025CDE910220F900A903C4614F8016B37
S31502085128002E00F0DC84DFF8C809304490F88000C5
S31502085138000700F1A880252E40F03A8178782A28B7
S3150208514805D00237252800F03281002102E0B87816
S3150208515803370121013741F002024FF0000AA0F194
S315020851683003DBB2092B09D80AEB8A00791C03EB50
S31502085178400A17F8010C0F461146F0E78A0711D5B7
S31502085188C2B2242A10D1119801221090043052452D
S3150208519803DA109001320430F9E701EA080117F830
S315020851A8010CD7E74FF0FF3A7A1EC3B241F00C0B4F
S315020851B84C2B22D0682B16D06A2B08D06C2B0AD017
S315020851C8742B18BF7A2B1AD110788B4619E01078E7
S315020851D841F0080B15E010786C280CBF17F8010B7C
S315020851E841F0040B0DE01078682812BF41F0200B35
S315020851F817F8010B41F0300B03E0107801E08B46F3
S315020852081746010600F06B84C4B2DFF8E8081422D0
S31502085218214600F0C1FC002800F061841BF0010653
S3150208522804D11098011D1091006800E000201FFAA9
S315020852388BF16E2C05D12A460023009100F08FFCCB
S315020852486BE75B2C0B9023D0632C78D1880758BF61
S315020852584FF0010A0FA900F098FC002800F13484DF
S315020852680B9A4AB15FEA4B7159BF10700120106058
S31502085278042002440B9201E000200B90BAF1010ABD
S31502085288E8D10A9950E10FA9484600F03DFC99E091
S31502085298CDF82490B94619F8010B07965E280690A8
S315020852A818BFB9460020089009980FA900F046FCCD
S315020852B800224C460021A51C0026274617F8013B62
S315020852C8002B00F0FC834C450AD02D2B06D1F40797
S315020852D84FF001063C46F1D02C4605E05D2B0DD071
S315020852E8F50708BF1A460134D2B290421A46E2DBDB
S315020852F81A469842DFD801211A46DCE7002800F147
S315020853081482069A5E3AB2FA82F252095140C907DB
S3150208531800F007820B9A4AB15FEA4B7159BF1070BF
S3150208532801201060042002440B9201E000200B9031
S31502085338BAF1010A4FF001000890B5D1F9E10FA9AF
S31502085348484600F0E1FB002800F1BE83A4F16F008D
S31502085358092839D8DFE800F00545EEEE0BEE58EED7
S31502085368EE45CDF824904FF00809082451E00FA914
S3150208537800F00BFC002800F1CA81DFF874170B9AB3
S31502085388014491F88010090700F1BD814AB15FEA24
S315020853984B7159BF107001201060042002440B9209
S315020853A801E000200B90BAF1010AE0D1AFE13C46D0
S315020853B80FA900F0EAFB002800F18683C1B28E42E3
S315020853C840F089832746B3E0582C0AD0642C1BD0B0
S315020853D8692C40F0AF80CDF8249000244FF00A09D2
S315020853E817E0CDF824904FF01009102411E000BFF9
S315020853F8000000000000F87F000000000000F07FAF
S315020854080000000000000000CDF824904FF00A09B9
S315020854180A2409980FA900F091FB2B2803D02D28F6
S315020854280CD14BF0400BBAF1010A00F048830998EF
S315020854380FA900F083FB002800F14183302807965C
S3150208544828D1BAF101054CD0A146099C0FAE2046CF
S31502085458314600F073FB002843D4DB494BF0800B36
S315020854680140582940F02481B9F1100F06D0B9F144
S31502085478080F00F02181B9F1000F0CD1BAF1020523
S315020854882FD02046314600F059FB002829D44FF080
S31502085498100900E055464FF0000A00264BF0800135
S315020854A80891411E024641F02001392888BFA1F118
S315020854B82602A2F130044C4517D206FB09F6013D2D
S315020854C8EAFB094619D009980FA900F037FBDDF857
S315020854D820B0A246B0F1FF3FE3DCDDF820B0A246D1
S315020854E807E04FF0000A00260AE009990FAA00F019
S315020854F82FFB5FEA0B6003D4E1E2DDF820B0A2468F
