S0130000766973696F6E5F435055312E7372656301
S3150208000020E10E2255CD0A0219CC0A025FCD0A0258
S315020800105FCD0A025FCD0A025FCD0A025FCD0A02F0
S31502080020000000000000000000000000DDB90A021E
S315020800305FCD0A0200000000F5B90A025DBA0A029B
S3150208004055C60A0295C80A029DC90A0255C60A0277
S30D0208005095C70A0279BD0A02EE
S3150208005800000000F4280B020E250B028C8177009B
S315020800680000000000000000000000000100000077
S31502080078CA1E0B02A1280B023037DE00BA0000009E
S31502080088D60000004800000002000000C1290B0241
S315020800987E2C0B02A0377000F1000000A8000000B1
S315020800A840000000030000005E2A0B02D11E0B0264
S315020800B84BA54E008E000000EE0000004500000029
S315020800C80100000077000000280000000400000074
S315020800D8010000001D0000000A00000004000000DC
S315020800E80303000003000000037300000273000004
S315020800F8010000000A0A0000006060000000000013
S31502080108742D0B0200000000010000000000000028
S31502080118003E000080A00E220100000090A00E22D8
S3150208012814340B02C4340B0274350B0224360B0240
S3150208013814340B0214340B0214340B0214340B0253
S31502080148000000000000000078360B02C8360B02D1
S3150208015818370B0268370B0278360B0278360B0209
S3150208016878360B0278360B02000000000000000001
S3150208017880B542F6847042F6B861C2F20F20C0F220
S315020801880B212BF099FF00B980BD42F2D00042F24A
S31502080198E34242F2EF43C0F20B20C0F20B22C0F24E
S315020801A80B230C212CF0EAFC8188FF290CDDB1F51A
S315020801B8006F22DBB1F5005F49DAB1F5006F4FD05F
S315020801C8B1F5805F0CD017E08A1E1E2A45D801238E
S315020801D803FA02F244F24503C4F200031A423CD077
S315020801E84EF24F11C2F20E2101220A7080684EF2AF
S315020801F85011C2F20E2108807047B1F5807FEFD000
S31502080208B1F5007FECD0B1F5806FF5D110B54EF295
S315020802184D11C2F20E2101224EF24C140A70C2F294
S315020802280E242178042988BF10BD21784EF254126B
S31502080238C2F20E224C2311FB032200F114011046C6
S315020802484C222FF060FB20780130207010BDC7D0F1
S31502080258B1F5804F18BF7047C2E78029C0D0CBE7EF
S315020802684EF24E10C2F20E20012101707047D4D404
S31502080278B0B54EF2D0240546C00FC2F20E244FF48A
S31502080288807121600121607345F60200A180082168
S31502080298C5F60200A1710021C4F80E0041F2270032
S315020802A8A160FD21608242F684702173C2F20F2092
S315020802B8002122462CF088F8002854D1002D00D5B2
S315020802C86D4228462EF0B0FF9FED370B53EC102BE4
S315020802D82EF0FEFE9FED360B53EC102B2FF01CF971
S315020802E841EC100B30F0F8FE51EC100B2EF040FFE3
S315020802F840F2011121600821A171FD212173010D26
S315020803086173010BA1730109000120744FF481700E
S31502080318A4F811006B20E173E07405204FF47A7192
S315020803282CF02FFC42F68470C2F20F2000212246D6
S315020803382CF04AF830BB02214EF24E10CFF6FF7166
S31502080348C2F20E2002781AB9002901F10101F9D17F
S315020803580021017032B105204FF47A71BDE8B04028
S315020803682CF00FBCB0BD42F2D00042F6933242F2EC
S31502080378E903C0F20B20C0F20B22C0F20B23882134
S315020803882CF0FCFB42F2D00042F6933242F2E90321
S31502080398C0F20B20C0F20B22C0F20B239B212CF0D1
S315020803A8EDFB00BF00BF00BFCDCCCCCCCCCCFC3F0C
S315020803B80000000000C06240B0B50546C0434EF2D0
S315020803C8D024C00FC2F20E244FF400712160012115
S315020803D8607345F60200A1800821C5F60200A171DC
S315020803E80021C4F80E0041F22700A160FD216082AF
S315020803F842F684702173C2F20F20002122462BF09E
S31502080408E3FF002855D1002D00D56D4228462EF067
S315020804180BFF9FED370B53EC102B2EF059FE9FED71
S31502080428360B53EC102B2FF077F841EC100B30F003
S3150208043853FE51EC100B2EF09BFE40F2012121606F
S315020804480821A171FD212173010D6173010BA173A5
S315020804580109000120744FF48170A4F811006B2079
S31502080468E173E07405204FF47A712CF08AFB42F6A0
S315020804788470C2F20F20002122462BF0A5FF38BB52
S3150208048802214EF24E10CFF6FF71C2F20E2000BFBD
S3150208049802781AB9002901F10101F9D1002101707E
S315020804A832B105204FF47A71BDE8B0402CF069BB29
S315020804B8B0BD42F2D00042F2FA0242F2E903C0F2B1
S315020804C80B20C0F20B22C0F20B23BF212CF056FBDD
S315020804D842F2D00042F2FA0242F2E903C0F20B20D3
S315020804E8C0F20B22C0F20B23D2212CF047FB00BF25
S315020804F8CDCCCCCCCCCCFC3F0000000000806140BF
S31502080508B0B50546C0434EF2D024C00FC2F20E2437
S315020805184FF4407121600121607345F60200A180FB
S315020805280821C5F60200A1710021C4F80E0041F29D
S315020805382700A160FD21608242F684702173C2F207
S315020805480F20002122462BF03FFF002855D1002D07
S3150208055800D56D4228462EF067FE9FED370B53EC01
S31502080568102B2EF0B5FD9FED360B53EC102B2EF003
S31502080578D3FF41EC100B30F0AFFD51EC100B2EF007
S31502080588F7FD40F2013121600821A171FD2121738D
S31502080598010D6173010BA1730109000120744FF45F
S315020805A88170A4F811006B20E173E07405204FF4FA
S315020805B87A712CF0E6FA42F68470C2F20F2000210C
S315020805C822462BF001FF38BB02214EF24E10CFF617
S315020805D8FF71C2F20E2000BF02781AB9002901F18A
S315020805E80101F9D10021017032B105204FF47A715F
S315020805F8BDE8B0402CF0C5BAB0BD42F2D00041F60B
S31502080608075242F2E903C0F20B20C0F20B22C0F2EB
S315020806180B23F6212CF0B2FA42F2D00041F6075221
S3150208062842F2E903C0F20B20C0F20B22C0F20B23F6
S3150208063840F209112CF0A2FACDCCCCCCCCCCFC3F9A
S315020806480000000000C05240B0B54EF2D02405465C
S31502080658C00FC2F20E244FF4A06121600121607313
S3150208066845F60200A1800821C5F60200A1710021FB
S31502080678C4F80E0041F22700A160FD21608242F605
S3150208068884702173C2F20F20002122462BF09CFEA9
S31502080698002854D1002D00D56D4228462EF0C4FDF7
S315020806A89FED370B53EC102B2EF012FD9FED360BF0
S315020806B853EC102B2EF030FF41EC100B30F00CFDEA
S315020806C851EC100B2EF054FD40F20151216008211D
S315020806D8A171FD212173010D6173010BA173010932
S315020806E8000120744FF48170A4F811006B20E1739D
S315020806F8E07405204FF47A712CF043FA42F68470B6
S31502080708C2F20F20002122462BF05EFE38BB0221D8
S315020807184EF24E10CFF6FF71C2F20E2002781AB9BF
S31502080728002901F10101F9D10021017032B1052030
S315020807384FF47A71BDE8B0402CF023BAB0BD42F244
S31502080748D00041F6B07242F2E903C0F20B20C0F2B9
S315020807580B22C0F20B234FF4B3712CF00FFA42F2B4
S31502080768D00041F6B07242F2E903C0F20B20C0F299
S315020807780B22C0F20B2340F279112CF0FFF900BFC5
S31502080788CDCCCCCCCCCCFC3F9A9999999999224054
S3150208079810B54EF2D024C2F20E24002020600121A0
S315020807A8A06046F2FF60A1800321A0816B20A17197
S315020807B8A07305204FF47A712CF0E3F942F6847097
S315020807C8C2F20F20002122462BF0FEFD30B9052081
S315020807D84FF47A71BDE810402CF0D3B942F2D00032
S315020807E842F2C75242F2E903C0F20B20C0F20B22C8
S315020807F8C0F20B234FF4C9712CF0C0F980B500F08A
S3150208080804F8BDE8804000F0F9B870B54EF21C3518
S31502080818C2F20E252878002840F0EF804EF22034DE
S31502080828C2F20E24204615F050F84FF2F750C0F2DD
S31502080838F20013F053FF20F07F41204615F0E7F93E
S315020808482046FF2115F0E8F92046002115F0CFF9D0
S315020808582046002115F0CFF92046002115F0BFF9E8
S315020808682046002115F0BFF94EF22C34C2F20E24A6
S31502080878204615F02AF813F01AFF20F07F41204681
S3150208088815F0C5F92046FF2115F0C6F920460821B4
S3150208089815F031FA20460121012615F0D3F94DF64D
S315020808A8E860C0F2D80013F019FF20F07F4120460D
S315020808B815F0BFF920460A2115F099F920460A21AA
S315020808C815F099F920460A2115F089F920460A21D0
S315020808D815F089F92046082115F0D1F9204619217B
S315020808E815F0DEF92046032115F0CDF94EF2383413
S315020808F8C2F20E24204614F0E8FF47F65A20C0F240
S315020809081F0013F0EBFE20F07F41204615F07FF911
S315020809182046FF2115F080F92046072115F0EBF944
S315020809282046002115F08EF913F0C1FE20F07F410A
S31502080938204615F0CFF94CF2D041C0F20B212046D9
S3150208094815F0CDF94EF24434C2F20E24204614F0BC
S31502080958BCFF44F25A40C0F2310013F0BFFE20F041
S315020809687F41204615F053F92046FF2115F054F920
S315020809782046072115F0BFF92046002115F062F92D
S3150208098813F095FE20F07F41204615F0A3F948F6A4
S315020809988471C0F20B21204615F0A1F94EF25034A3
S315020809A8C2F20E24204614F090FF4EF6F260C0F208
S315020809B8E80013F093FE20F07F41204615F027F948
S315020809C82046FF2115F028F92046082115F093F943
S315020809D82046002115F036F92046082115F007F9B0
S315020809E82046082115F007F92046042115F0F7F8DC
S315020809F82046042115F0F7F82E7070BD2DE9F04F40
S31502080A0885B04EF25C30C2F20E2001784AF2000432
S31502080A180020C2F20E2400BF225C8A4203D01C3090
S31502080A28702801D0F8E7044400F002F923F00DFD16
S31502080A38054647F65A20C0F21F0013F04FFE20F06B
S31502080A487F420E2041F689414CF2D04314264FF0D4
S31502080A5801090290C0F20B21C0F20B232846CDF8F1
S31502080A680090019600F0FBF823F0EFFC43F23F0BE7
S31502080A78C0F2200B0546584613F030FE20F07F4296
S31502080A882A2042F64A5144F644530290C0F20B21F0
S31502080A98C0F20C232846CDF80090019600F0DFF83C
S31502080AA823F0D3FC074647F28560C0F2680013F0C4
S31502080AB815FE46F2A82A20F07F424A2042F6341149
S31502080AC8C0F20B2ACDE90160C0F20B21384653461B
S31502080AD8CDF8009000F0C3F823F0B7FC4FF096085B
S31502080AE8142168224FF48773CDF8008000F0D9F8EC
S31502080AF80746584613F0F2FD41F6AF6140F2F02375
S31502080B0820F07F420025C0F20B21C0F20C2338469A
S31502080B18CDE90095029500F0A2F845F26640C0F2C2
S31502080B28430013F0DBFD42F66C1148F6847320F095
S31502080B387F424FF0240BC0F20B21C0F20B23384632
S31502080B48CDE90095CDF808B000F089F8384624F0C2
S31502080B589FFA064628F0DDFB4EF25031C2F20E2104
S31502080B683046002228F0B8F930467C211C2226F0A5
S31502080B7801F8304604210022002326F0B3F844F28D
S31502080B885A40C0F2310013F0A9FD42F2015120F091
S31502080B987F420927C0F20B2130465346CDE9007534
S31502080BA8029500F05CF823F050FC4FF49B7168221A
S31502080BB89623CDF8008000F074F8064648F28C10A1
S31502080BC8C0F2770013F08AFD41F67C7120F07F4265
S31502080BD8C0F20B2130465346CDE90095029500F03E
S31502080BE83EF8A07BA289616842EA004208204CF2D4
S31502080BF8D04302903046C0F20B230097019500F0C5
S31502080C082EF823F022FC40F65D51C0F20821CC22C8
S31502080C18029142F61A31CDE9002BC0F20B218A223B
S31502080C284FF48973039500F061F805B0BDE8F08FB3
S31502080C3810B523F00AFC0446FFF7E7FD204629F01B
S31502080C48ABFB4EF22031C2F20E212046002228F0D2
S31502080C5843F920461021BDE8104024F086BA2DE94A
S31502080C68F0470DF1200A9AE800071F4614460D4672
S31502080C7807F094FB2946064607F09EFB24F07F41B7
S31502080C883046002229F023FA30463946002229F04E
S31502080C9824FA304641464A465346BDE8F04726F006
S31502080CA821B82DE9F041DDF818801C4616460F468C
S31502080CB824F0EEF9054628F02CFB4EF22C31C2F246
S31502080CC80E212846002228F007F9284639463246D0
S31502080CD825F007FA28462146424625F04BFF2846BC
S31502080CE8102124F042FA2846BDE8F0812DE9F04F92
S31502080CF881B0DDE90CA9DDE90A649B4615468846F2
S31502080D080CF0AFFF074628F004FB4EF23831C2F260
S31502080D180E213846002228F0DFF8384629465A4670
S31502080D2825F0DFF938463146224625F023FF3846AC
S31502080D3851460A224B4625F080F9384607F02EFB1B
S31502080D484146044607F038FB204601B0BDE8F04F95
S31502080D5826F01DBF80B513F0B9FE0A2818BF80BD54
S31502080D68BDE8804000F000B870B584B0FFF760FFB0
S31502080D7823F06BFB42F6BC1140F6AB62C0F20B21BC
S31502080D88C0F2082200F061F823F05FFB044643F23A
S31502080D983F00C0F2200013F0A1FC20F07F42102089
S31502080DA842F64A4140F2F023002502260290C0F292
S31502080DB80B21C0F20C23204600960195FFF74FFF38
S31502080DC823F043FB044647F28560C0F2680013F035
S31502080DD885FC20F07F422E2041F6C37146F2A823ED
S31502080DE80290C0F20B21C0F20B2320460096019509
S31502080DF8FFF735FF01200E2100F05EF80220AB212D
S31502080E0800F05AF803204FF4A47100F055F823F0BD
S31502080E181CFB044648F28C10C0F2770013F05EFCFD
S31502080E2820F07F42052042F6690143F614636FF003
S31502080E380B06CDE90005C0F20B21C0F20B232046AA
S31502080E480296FFF70CFF04B070BD70B515460C463E
S31502080E580CF007FF064628F05CFA4EF24431C2F255
S31502080E680E213046002228F037F830460C210C228B
S31502080E7825F037F9304644211E2225F07BFE3046F6
S31502080E8829460A22002325F0D8F8304607F086FABA
S31502080E982146054607F090FA2846BDE8704026F02E
S31502080EA876BE80B513F012FE0A2818BF80BDBDE8C3
S31502080EB88040FFF7A3BDD4D42DE9F04184B00D468E
S31502080EC8044623F0C2FAC62729464E228A230097E1
S31502080ED8FFF7E7FE4AF2000705460020C2F20E2788
S31502080EE8395CA14203D01C30702801D0F8E70744C0
S31502080EF82846002100224FF0000829F0C9F828469A
S31502080F080021002229F0C9F828460021002229F0E2
S31502080F18B5F828460021002229F0B5F843F23F0021
S31502080F287E68C0F2200013F0D9FB20F07F42022027
S31502080F3846F2A8234FF00E0CCDE90008C0F20B239F
S31502080F4828463146CDF808C0FFF789FE012C39D163
S31502080F5843F63530C0F2D80013F0C0FB20F07F46BE
S31502080F68284635215A223423009600F0AEF945F26E
S31502080F784800C0F2E80013F0B1FB20F07F46284685
S31502080F8855215C223223009600F09FF948F63E2046
S31502080F98C0F23F0013F0A2FB20F07F46284639210B
S31502080FA838220D23009600F090F94AF24D20C0F235
S31502080FB85A0013F093FB20F07F4628464A21362228
S31502080FC80B2340E0B87BB9893E2241EA0046284607
S31502080FD839211623009600F078F9284651213E222F
S31502080FE81623009600F071F928462D215222162357
S31502080FF8009600F06AF928464521522216230096D9
S3150208100800F063F928465D2152221623009600F05D
S315020810185CF92846392167221623009600F055F905
S315020810282846512167221623009600F04EF948F6FB
S315020810383D40C0F24D0013F051FB20F07F4628468A
S31502081048452128220A23009600F03FF947F28560CF
S31502081058BE68C0F2680013F041FB20F07F42002008
S31502081068022143F614638427CDE90010C0F20B2344
S31502081078284631460297FFF7F2FD41F2B1002021D0
S315020810885E22C0F20820CDE9002142F65E5102909E
S31502081098C0F20B21284616229A230394FFF726FE46
S315020810A804B0BDE8F081D4D42DE9F04F9DB00446CA
S315020810B813F00CFD0A2840F00581204613F00CFDB2
S315020810C84EF25C32C2F20E224AF20006C1B2107021
S315020810D80020C2F20E2600BF325C8A4203D01C30B8
S315020810E8702801D0F8E70644FFF7A2FD23F0ADF908
S315020810F842F2651141F23332C0F20B21C0F20822DC
S31502081108FFF7A3FE23F0A1F9044643F23F00C0F213
S31502081118200013F0E3FA022140F2F02720F07F427A
S315020811281020009141F6DB31C0F20C274FF0000A75
S315020811380290C0F20B2120463B46CDF804A0FFF7E1
S315020811488EFD23F082F94FF0520814213E22962387
S31502081158CDF80080FFF7A5FD48F28C15C0F2770591
S315020811680446284613F0BAFA46F2A82B41F6BF6196
S31502081178C0F20B2B20F07F424FF00109C0F20B2177
S3150208118820465B46CDE9009ACDF808A0FFF767FD29
S31502081198B07BB289716842EA00420C20092300939F
S315020811A8029020463B46CDF804A0FFF758FD23F0E7
S315020811B84CF9BC213E224FF48873CDF80080FFF71C
S315020811C870FD07462846A84613F088FA42F22D010A
S315020811D820F07F42C0F20B2138465B46CDE9009AD9
S315020811E8CDF808A0FFF73BFD103668CE41F69822DF
S315020811F805ACC0F20B2220466021CDE900562EF036
S31502081208B9FB43F23F00C0F2200013F067FA20F058
S315020812187F420E2009214CF2D04300910290C0F277
S315020812280B2338462146CDF804A0FFF718FD23F00C
S315020812380CF956271421A4224FF4DC730097FFF7FA
S3150208124830FD0446404613F049FA42F6734120F047
S315020812587F42C0F20B2120465B46CDE9009ACDF8BB
S3150208126808A0FFF7FCFC45F26640C0F2430013F0FB
S3150208127835FA20F07F421E2042F6203148F684735A
S315020812880290C0F20B21C0F20B232046CDF800903B
S31502081298CDF804A0FFF7E3FC23F0D7F840F6AB61D4
S315020812A8C0F208212422CC23029142F6E701CDE9AD
S315020812B80032C0F20B218A224FF48773CDF80CA0AC
S315020812C8FFF714FD1DB0BDE8F08F2DE9F0411E4663
S315020812D8069BA1EB5607A2EB560523F07F4823F097
S315020812E8D7FE044628F015F8204639462A4624F039
S315020812F8F8FE20463146324625F03CFC204647F69B
S31502081308FF71002228F0F3FE20464146002228F003
S31502081318C9FE2046FF21002228F0CAFE20460021DF
S315020813280022BDE8F04128F0CDBE80B513F0CEFB09
S315020813380A2818BF80BDBDE88040FFF715BDD4D47A
S315020813480121EFF3108081F3108843F21471C2F277
S3150208135810210A683AB940F61452C4F24002002328
S31502081368137040231370B0B50A6842F660740132E6
S315020813780A60C2F20F2480F31088204640F602015A
S3150208138804222AF051FD20464FF4006104222AF06D
S315020813984BFD204640F6010104222AF045FD204667
S315020813A840F6020101222AF0AAFD20464FF40061FE
S315020813B801222AF0A4FD204640F601010022002552
S315020813C82AF09DFD14204FF47A712BF0DAFB204699
S315020813D840F6010101222AF092FD4FF496704FF465
S315020813E87A712BF0CEFB00F02DF9702000F058F92F
S315020813F800F092F968B9802000F052F900F08CF9E9
S3150208140838B9202000F04CF900F086F908B900F03E
S315020814180EFA4EF25D30C2F20E2005704EF25E30BA
S31502081428C2F20E2005704EF25F30C2F20E2000217B
S31502081438455401311029FBD14EF26F31C2F20E2101
S31502081448A320012200F072F84EF27031C2F20E2180
S31502081458A820012200F06AF84EF27131C2F20E2172
S31502081468AC200122BDE8B04000F060B82DE9F04191
S3150208147882B04FF00005A0B34EF25F3604460580E7
S3150208148885704560C2F20E26002000BF3554013029
S315020814981028FBD14EF25D37C2F20E2700250DF150
S315020814A80301022001223D704FF0010800F03EF8C0
S315020814B8B8B99DF80300B07087F8008000F00F07E6
S315020814C84EF25E30F91EC2F20E2011F1020F0770B3
S315020814D806D301AD03202946042200F027F820B1D5
S315020814E80025284602B0BDE8F0810020295C32189A
S315020814F801300428D170F9D19DF804009DF8051029
S3150208150827709DF80620870900F00F0041EA002097
S315020815189DF80730A0801009A07002F00F0043EA70
S31502081528002001256770E080DBE7D4D42DE9F04F67
S3150208153881B091468846064600F084F8702000F085
S31502081548AFF800F0E9F868B9304600F0A9F800F0F3
S31502081558E3F838B900F076F8712000F0A1F800F03F
S31502081568DBF818B1012001B0BDE8F08F42F66076C3
S315020815784FF0000AC2F20F260DF10307304640F66D
S315020815880201002200242AF04FFC1E2001212BF01A
S31502081598F8FA082530464FF4006100222AF0AFFC13
S315020815A8052001212BF0EDFA30464FF4006101229D
S315020815B82AF0A5FC052001212BF0E3FA304640F66D
S315020815C802013A462AF08AFC9DF80300002818BF49
S315020815D80120013D40EA4404DCD10AF1010B002549
S315020815E830464FF400610022CB4528BF01252AF070
S315020815F886FC304640F6020104222AF015FC3046DB
S3150208160840F602012A462AF07AFC052001212BF027
S31502081618B8FA30464FF4006101222AF070FC052018
S3150208162801212BF0AEFA30464FF4006100222AF067
S3150208163866FCCB4508F80A40DA469FD100F0F7F867
S31502081648002090E710B542F66074C2F20F242046CD
S3150208165840F6020104222AF0E7FB204640F6020178
S3150208166801222AF04CFC20464FF4006101222AF096
S3150208167846FC1E2001212BF084FA204640F6020178
S3150208168800222AF03CFC052001212BF07AFA204692
S315020816984FF400610022BDE810402AF030BCD4D4C9
S315020816A870B542F66075C2F20F250446284640F61A
S315020816B8020104222AF0B8FB082600BF28464FF47E
S315020816C8006100222AF01BFC052001212BF059FA99
S315020816D8E0B2C209284640F602012AF010FC0520A3
S315020816E801212BF04EFA28464FF4006101222AF00E
S315020816F806FC052001212BF044FA013E4FEA440470
S31502081708DCD142F66070C2F20F204FF40061002263
S31502081718BDE870402AF0F3BB70B582B042F6607431
S31502081728C2F20F24204640F6020100222AF07CFB68
S31502081738204640F6020101222AF0E1FB20464FF430
S31502081748006100222AF0DBFB052001212BF019FA99
S3150208175820464FF4006101222AF0D1FB0520012117
S315020817682BF00FFA0DF10702204640F602012AF07D
S31502081778B5FB9DF80700C0B142F660740026C2F2AE
S315020817880F240DF1070500BFFA2E19D205200121EB
S3150208179801362BF0F6F9204640F602012A462AF0C7
S315020817A89DFB9DF807000028EED142F66070C2F24A
S315020817B80F204FF40061002200242AF0A0FB33E030
S315020817C842F66074C2F20F24204640F60201042249
S315020817D82AF02AFB204640F6020101222AF08FFB4C
S315020817E8092500BF20464FF4006100222AF087FB2C
S315020817F8052001212BF0C5F920464FF40061012284
S315020818082AF07DFB052001212BF0BBF9013DE9D120
S3150208181842F66070C2F20F204FF4006100222AF0E5
S315020818286EFB00F004F80124204602B070BD10B51C
S3150208183842F66074C2F20F24204640F602010422D8
S315020818482AF0F2FA20464FF4006101222AF057FBE1
S315020818581E2001212BF095F9204640F602010022A6
S315020818682AF04DFB052001212BF08BF9204640F67C
S31502081878020101222AF043FB05200121BDE8104096
S315020818882BF07FB9D4D4D4D42DE9F04F81B02DEDFD
S31502081898088B8AB0B0EE40BAB0EE419AF0EE60BA5A
S315020818A8B0EE410AB0EE4B1AB0EE42AAF0EE619AD1
S315020818B8F0EE610AF0EE6B1A984691468A46099046
S315020818C8F0EE62AA2FF064FE51EC190BB0EE408ACC
S315020818D802460B46F0EE608A2DF01EFE04460D46B9
S315020818E851EC1B0B02460B462DF016FE22462B46DA
S315020818F82DF0FEF941EC100B2FF01EFB51EC100BE4
S315020819089FEDA70B53EC102B2DF0F2F99FEDA60BC2
S3150208191853EC102B2DF0ECF99FEDA50B04460D465A
S3150208192841EC190B51EC1A0B53EC102B2DF0E0F97C
S3150208193802460B4641EC1A0B2DF0EEFD06460F46FB
S315020819482046294622462B462DF0E6FD32463B46D8
S315020819582DF0CEF941EC100B05468B462FF0ECFA22
S3150208196854EC106B9FED940B304653EC102B214622
S3150208197800272DF029FE002840F009819FED900BDB
S31502081988304653EC102B21462DF0F4FD002840F082
S31502081998FE809FED8D0B284653EC102B5946CDF841
S315020819A810B02DF0A5F99FED8A0B53EC102BCDE953
S315020819B802232DF09DF99FED880B53EC102B2DF081
S315020819C887FB9FED870BCDE905A95AEC109B4A467A
S315020819D8534600940446CDF81C8088462DF0F4FD3B
S315020819E89FED810B002857EC10BB1CBFD0464C460E
S315020819F8204641465A463B462DF0BCFD00281CBFE8
S31502081A08B8465C46099848EC1B4B2DF0DDFBB0EE50
S31502081A184B0AF0EE6B0A80460C4601912FF0B0FB92
S31502081A2851EC100B424623462DF076FD9FED700BBE
S31502081A3853EC102B2DF05CF9B0EE490AB0EE4A1AAF
S31502081A48F0EE690AF0EE6A1ACDE908102FF0A0FD41
S31502081A58B0EE409AF0EE609A9FED670B049953EC44
S31502081A68102B28462DF044F9DDE902232DF040F91A
S31502081A789FED630B0D460099044653EC102B30462E
S31502081A882DF04AFD02460B46204629462DF020FB34
S31502081A984A46534604460D462DF096FD002804BFCD
S31502081AA8AA46A146484651465A463B462DF062FD85
S31502081AB8002804BF5746CB4647EC10BB2FF060FBFD
S31502081AC8019953EC102B40462DF026FD02460B468B
S31502081AD851EC190B2DF02AFD80468946DDE90810D6
S31502081AE842464B462DF004F99FED470BCDE9031004
S31502081AF85AEC10BB51EC180B5A4653462DF00CFDFE
S31502081B089FED430B56EC107B3A4633462DF0E0FA26
S31502081B1841EC100B2FF0E0FA0598494680ED000BC8
S31502081B289FED3D0B404654EC105B2A4623462DF0A2
S31502081B38F3FC3A4633462DF0CBFA41EC100B2FF05C
S31502081B48CBFA06985A4680ED000BDDE9081053468B
S31502081B582DF0E2FC3A4633462DF0BAFA41EC100B60
S31502081B682FF0BAFA07982A4680ED000BDDE903102A
S31502081B7823462DF0D1FC3A4633462DF0A9FA41EC14
S31502081B88100B2FF0A9FA1C98012780ED000B38468E
S31502081B980AB0BDEC088B01B0BDE8F08F00BF00BFE4
S31502081BA800000000000054C00000000000C042C047
S31502081BB800000000004065C04A0D55156AF17240DA
S31502081BC8602BAFAA5EE93040000000000000D9C0C9
S31502081BD8F7285C8F92FED3C039A15435895BE64053
S31502081BE8000000000000F03F000000000000F0BFFF
S31502081BF8E11A6D75CE73F7BF000000000000D940E0
S31502081C08000000000000744000000000008066C062
S31502081C186E861BF0F9210940000000000080664024
S31502081C2870B542F6607504460826C2F20F2500BF4B
S31502081C38284640F20E5100222AF061F9E0B2C2099A
S31502081C48284640F20E712AF05AF9284640F20E51F1
S31502081C58012264002AF053F9013EE9D170BDB0B5F4
S31502081C6842F66075C2F20F250446284640F20F511D
S31502081C7800222AF044F928464FF4817100222AF0F4
S31502081C883EF92046FFF7CCFF284640F20F510122BB
S31502081C98BDE8B0402AF033B9B0B542F66075C2F26B
S31502081CA80F250446284640F20F5100222AF027F942
S31502081CB828464FF4817101222AF021F92046FFF7B6
S31502081CC8AFFF284640F20F510122BDE8B0402AF07C
S31502081CD816B9F0B581B007462A201C4616460D469F
S31502081CE8FFF7BDFF380AFFF7D7FFF8B2FFF7D4FFA9
S31502081CF8300AFFF7D1FFF0B2FFF7CEFF2B20FFF726
S31502081D08AEFF280AFFF7C8FFE8B2FFF7C5FF200AA1
S31502081D18FFF7C2FFE0B2FFF7BFFF2C2001B0BDE80C
S31502081D28F040FFF79CBFD4D40121EFF3108081F36A
S31502081D38108843F21471C2F210210A683AB940F6B9
S31502081D481452C4F240020023137040231370B0B52C
S31502081D580A6842F6607401320A60C2F20F2480F3F6
S31502081D681088204640F20E5140F604422AF05CF8E2
S31502081D78204640F20E7140F604422AF055F82046EB
S31502081D8840F20F5140F605422AF04EF820464FF423
S31502081D98C06140F605422AF047F820464FF4817199
S31502081DA840F604422AF040F820464FF4837140F67A
S31502081DB804422AF039F8204640F20F5101222AF045
S31502081DC89EF8204640F20E51002200252AF097F87E
S31502081DD820464FF4C06101222AF091F801204FF4F7
S31502081DE87A712AF0CEFE20464FF4C06100222AF004
S31502081DF886F80A204FF47A712AF0C3FE20464FF471
S31502081E08C06101222AF07BF896204FF47A712AF0EB
S31502081E18B8FE20464FF4837101222AF070F8F7209B
S31502081E28FFF71DFFA920FFF737FF5120FFF734FFF9
S31502081E382C20FFF731FF8220FFF72EFFEC20FFF751
S31502081E480EFF0020FFF728FF0220FFF725FF0320D1
S31502081E58FFF722FF7A20FFF71FFFC020FFF7FFFED2
S31502081E681320FFF719FF1320FFF716FFC120FFF704
S31502081E78F6FE4120FFF710FFC520FFF7F0FE002007
S31502081E88FFF70AFF2820FFF707FF8020FFF704FF5E
S31502081E98B020FFF7E4FE0020FFF7FEFEB120FFF7A9
S31502081EA8DEFEB020FFF7F8FE1120FFF7F5FEB42094
S31502081EB8FFF7D5FE0220FFF7EFFEB620FFF7CFFEA3
S31502081EC80220FFF7E9FE2220FFF7E6FEB720FFF712
S31502081ED8C6FEC620FFF7E0FEBE20FFF7C0FE0020BA
S31502081EE8FFF7DAFE0420FFF7D7FEE920FFF7B7FE69
S31502081EF80020FFF7D1FEF420FFF7B1FE0020FFF716
S31502081F08CBFE0020FFF7C8FE0F20FFF7C5FEE0202C
S31502081F18FFF7A5FE20464FF48171012229F0EFFF4B
S31502081F28204640F20F51002229F0E9FF42F674646E
S31502081F38C0F20B24605DFFF773FE01350F2DF9D148
S31502081F4842F66074C2F20F24204640F20F5101226B
S31502081F5829F0D5FFE120FFF782FE20464FF481716A
S31502081F68012229F0CCFF204640F20F510022002414
S31502081F7829F0C5FF42F68365C0F20B25285DFFF7EF
S31502081F884FFE01340F2CF9D142F66070C2F20F20C7
S31502081F9840F20F51012229F0B2FFF420FFF75FFE43
S31502081FA80020FFF779FE0020FFF776FE0F20FFF7DD
S31502081FB873FE3620FFF753FEA820FFF76DFE3A2078
S31502081FC8FFF74DFE6620FFF767FE2120FFF747FE5B
S31502081FD81120FFF744FE78204FF47A712AF0D1FDD2
S31502081FE82920FFF73CFE32204FF47A71BDE8B0404B
S31502081FF82AF0C7BD10B582B04FF4F0704FF4A0713D
S3150208200821F0AEFF1221044622F085F942F2450173
S31502082018C0F20821204622F075F94EF272314FF0C5
S31502082028000CC2F20E21204600224FF49643CDF840
S3150208203800C022F002F902B010BDD4D42DE9F04F3F
S3150208204887B0D1E90084D1E90257069201901FFAAE
S3150208205888F0A1B2AAB2BBB2FFF73BFE42F6607697
S31502082068C2F20F2630464FF48171012229F047FF42
S31502082078304640F20F51002229F041FFA74237DBCA
S31502082088A5EB08000590411C381B0130049048004E
S315020820980026F8244FF0FC080291039005980028B8
S315020820A81ED4069DDDF808A035F802BB04EA1B20F3
S315020820B840EA5B300BF01C070BF01F09FFF7B0FD6F
S315020820C808EADB00CBF341210844FFF7A9FD4FEAEA
S315020820D8C90040EA9700FFF7A3FDBAF1010AE3D15E
S315020820E80498013686420698039908440690D5D17B
S315020820F842F66070C2F20F2040F20F51012229F00F
S31502082108FEFE019807B0BDE8F04F22F01EB910B5D9
S31502082118FFF716F942F67460C2F20F200021016031
S3150208212842F67860C2F20F20016042F67C60C2F27B
S315020821380F20017042F67D60C2F20F20017016F078
S315020821489DFB42F68064C2F20F240121206017F033
S3150208215852F8206842F26D11C0F20821BDE8104013
S3150208216817F050B8B0B582B0002568460C46CDE9D6
S315020821780055FFF77BF9002842F6746142F6786043
S31502082188C2F20F21C2F20F201AD042F67D62C2F2BB
S315020821980F22BDF80630157040F2DF15BDF8042087
S315020821A8EB1A23EAE3730B60B2F59F7F88BF40F206
S315020821B83F1242F67C630260C2F20F23012212E042
S315020821C842F67C63C2F20F231A78012A0AD142F62A
S315020821D87D62C2F20F221578012D03D86B1C137083
S315020821E8012201E000221A700968A27421600068B7
S315020821F8606002B0B0BD8168B1F5803F31D142F660
S315020822088461C2F20F210A78012A0AD08AB940687B
S3150208221844F65272C4F24F32904218BF70470120F0
S315020822281EE0406842F68862C2F20F221060022057
S3150208223816E042F68862C2F20F22126842F68C63E8
S31502082248C2F20F2340681A6042F69062C2F20F225F
S31502082258106042F69460C2F20F2001220270002032
S3150208226808707047D4D4D4D48AB042F6AC61C0F2A6
S315020822780B2107C91268904710B100202BF0EFFB13
S31502082288FDF776FF42F694659FED318BC2F20F256C
S315020822984FF0000A0DF1080B0DF120080DF1180987
S315020822A804AE00BF287801284CD129F05AFC42F618
S315020822B88C60C2F20F20076842F69060C2F20F20BD
S315020822C8046885F800A029F077FC38462CF048FF00
S315020822D841EC190B20462CF043FF41EC110BB0EEEA
S315020822E8490AB0EE482AF0EE690AF0EE682A012091
S315020822F841464A463346CDF800B0FFF7C5FA08B351
S315020823089DED080B51EC100B2CF032FFFDF7B0FFD0
S315020823189DED060B51EC100B2CF02AFFFEF74CF834
S315020823289DED040B51EC100B2CF022FFFEF7E8F892
S315020823389DED020B51EC100B2CF01AFFFEF784F9EF
S31502082348FEF726FA01202BF0B5FDABE700BF00BF62
S31502082358000000000000744082B0FFF7E5FC29F08F
S31502082368EAFAFFF747FEFFF7D2FEFEF747FA2BF01F
S3150208237879FF01AC019000BF05200CF020FF14F08C
S3150208238871F9204605212BF008FCF5E7022818BF43
S31502082398704742F6607042F6E061C2F20F20C0F258
S315020823A80B2129F036BD80B584B042F6A870C2F270
S315020823B80F20016842F6986C013101604BF6A810A5
S315020823C8C2F210200421CDE9001042F2194042F661
S315020823D8A52142F69463C2F20F2CC0F20820C0F275
S315020823E80B21C0F20B234FF48062CDF808C02BF0FC
S315020823F83BFA42F6F861C2F20F21086008B104B046
S3150208240880BD0020002104B0BDE8804000F04AB82B
S3150208241810B5044600F048F82046BDE81040FFF714
S3150208242823BF80B584B042F6A870C2F20F200168AD
S3150208243842F6FC6C013101604CF6A810C2F2102073
S315020824480321CDE9001042F2954042F68B4142F645
S315020824589863C2F20F2CC0F20820C0F20B21C0F210
S315020824680B234FF40062CDF808C02BF0FDF942F6AB
S315020824785C71C2F20F21086008B104B080BD002061
S31502082488002104B0BDE8804000F00CB810B5044637
S3150208249800F00AF82046BDE81040FFF75DBF70470E
S315020824A8FFF7FDBF00BE7047B0B542F6A074C2F288
S315020824B80F2420684FF0FF312BF0BAF8012803D011
S315020824C820680021FFF7EEFF42F6A470C2F20F2039
S315020824D8017801B1B0BD01210170FFF7E1FF42F6AB
S315020824E8A875C2F20F2500BF286801382860F1D0FE
S315020824F820680021002200232AF070FE0128F3D062
S3150208250820680021FFF7CEFFEEE780B542F6A870ED
S31502082518C2F20F200021016042F6A470C2F20F200F
S3150208252842F6AC720170C2F20F224FF48070012192
S315020825382AF034FE42F6A071C2F20F21086018B9D1
S3150208254800200021FFF7AEFFFFF72DFFFFF769FF0F
S315020825582BF02FFD002080BD42F6F473C2F20F233A
S31502082568036043F25400C2F20F200860802010600C
S31502082578704743F25423C2F20F23036043F2B4208E
S31502082588C2F20F20086080201060704770B50846AE
S315020825980C4627F004FE054624F00CF9064628469A
S315020825A824F0B3F902462046314624F0E3FA2046D7
S315020825B8012115F0D9FC204622F06AFD0646204676
S315020825C827F0F2FD21F02EFE642500EBD070C2F248
S315020825D8000542103046294624F0CCFA3046002136
S315020825E815F0C2FC304600210222022315F0C8FC67
S315020825F8204622F04DFD0121044615F0D9FC204655
S315020826082946BDE8704024F0C0BA10B50C466421C4
S31502082618C2F2000120460A4624F0ACFA42F2716177
S31502082628C0F2082120460E22002323F006FD204682
S31502082638802122F03CFD2046032125F0D5FA2046C2
S315020826480321BDE8104025F0DEBA10B50C46642110
S31502082658C2F2000120460A4624F08CFA2046BDE852
S31502082668104024F0F3BAD4D42DE9F04383B00446D3
S3150208267812F02CFA0546204612F024FA0E2D4CD1F1
S31502082688044616F0B2FD10B1007A012845D0204654
S3150208269824F093F80546204624F03AF9064601A995
S315020826A8204625F088FCDDE90178204627F0B8FEA1
S315020826B828B305EBD57006EBD67107EB600008EB75
S315020826C8610190FBF5F091FBF6F100FB05F801FBB9
S315020826D806F900252046294627F074FF064624F0FF
S315020826E86DFD0746304624F094FD474508BF484520
S315020826F807D02046013527F093FE8542EAD30F25EF
S3150208270807E0E66296F82C5020462321002223F099
S315020827180BFC2046294625F053FA03B0BDE8F08398
S31502082728B0B591F864000C4691F8701040F00300B1
S3150208273884F8640001F0F100002240F2DC53012516
S3150208274884F870002046E564C4E90B22C4E90D2220
S31502082758C4E90F22C4E9113205F020FE0546E062F3
S31502082768642011F0ADFE0146284624F00EFAE06A06
S3150208277841F6DD61C0F20B2105F01EFE43F27565CE
S31502082788E06AC0F2082529463222002323F055FCBE
S31502082798E06A29463122002323F04FFC20464FF4EB
S315020827A8806122F084FC20464FF4006122F0DDFCA9
S315020827B82046002100F094FB2046BDE8B04000F010
S315020827C84DBD10B5486B0C4618B110F0CAFA002070
S315020827D86063A06B18B110F0C4FA0020A063206BDE
S315020827E818B110F0BEFA0020206310BD2DE9F04F8B
S315020827F8BFB042F66470C0F20B200D4623F008FCFF
S31502082808012840F07D81284612F060F906462846D6
S3150208281812F058F9102E57DC701E032802D30B2E15
S3150208282840F06E8116F0E1FC002800F06981064640
S31502082838284612F047F9044690F86400800740F1E2
S315020828485F81304616F0E1FC022800F059813046CD
S3150208285816F0DBFC042800F05381E06A23A924F069
S3150208286816F901A9304616F04AFD1FA9304616F090
S315020828786EFD0198002800F143810299002900F1AA
S315020828883F81DDE92323861AC81A1D9028461C9615
S3150208289812F01CF9E16A0546084623F08BFFD4F8BC
S315020828A82C80002E00F16481864280F26C811CAE6F
S315020828B840463146012206F04BFAE16A07460846BF
S315020828C8314606F03FFB61E11C2E0CDC0446112E4C
S315020828D800F09F80132E40F0138120463FB0BDE8D2
S315020828E8F04F00F0BBBC1D2E00F0AA80202E40F047
S315020828F80781284612F0E6F80646284623F0BFFB63
S31502082908F16A8146084606F005F996F86410C90779
S3150208291800F0F68023AF8046384620F042FE30465D
S315020829284FF4C0213A46CDF89C9022F05CFEF06A34
S3150208293806F150030ECBD0E90505F46D0144184497
S315020829481F91A91821902819209122901FAA484652
S31502082958394620F095FE30464FF4C021302226F03B
S31502082968A5FD074630464FF4C021122226F09EFDE1
S31502082978C51930464FF4C021102226F097FDC4190E
S315020829880020CDE91C00306E43F6B451C0F20B2183
S31502082998096808EB0007384688470DF170080246A9
S315020829A8404639460FF0E8FDDDE91F01582228445A
S315020829B81F902144F06A2091002126F077FD01AD87
S315020829C80746284620F078F830464FF4C0212A46AA
S315020829D8CDF8149023F058F89DF8AC0002280CD8C4
S315020829E89DF83200BDF8302027F07F4142EA0040C0
S315020829F811F06DFE002840F08380BDF85F00CDF81F
S31502082A08208040F48070ADF85F0001A91FAA4846E5
S31502082A1874E0284612F05EF80168881E122800F249
S31502082A287280DFE800F00A879999999981999599A8
S31502082A3899999999998F9F7D7800204600217CE07B
S31502082A48284612F03FF80446284623F018FBE16A9E
S31502082A580546084606F05EF80078002850D1206B2D
S31502082A6800284DD0007800284AD023AE304620F0F8
S31502082A7823F820464FF400213246279523F004F816
S31502082A8894F87000000705D5BDF8E70040F008007D
S31502082A98ADF8E70020460021122226F007FD8046F7
S31502082AA820460021132226F001FD814620460021F0
S31502082AB8102226F0FBFC824620460021112226F027
S31502082AC8F5FC834620460021302226F0EFFC04F165
S31502082AD814064ECE00EB08073944019100EB0901AA
S31502082AE8591A039100EB0A01114402915844216BC1
S31502082AF8301A04902A9123A901AA284620F016F822
S31502082B083FB0BDE8F08F7F2926D120463FB0BDE801
S31502082B18F04F00F026BBE06C0028F1D0411E01E018
S31502082B28E06C411C204608E020463FB0BDE8F04F5D
S31502082B3800F0CEBA204647F6FF713FB0BDE8F04F1F
S31502082B4800F0CEB920463FB0BDE8F04F00F064BDAC
S31502082B5894F8700000070ED420463FB0BDE8F04F3F
S31502082B6800F086B820463FB0BDE8F04F00F026BD13
S31502082B78002700200AE02046262100223FB0BDE8A9
S31502082B88F04F23F0D1B9002047F6FF7794F8701072
S31502082B988A0726D501228A431040012808BF012D33
S31502082BA805D0C80711D0022D0FD1E76619E04FF6EE
S31502082BB8FF70C4E91A7041F0010084F870002046D3
S31502082BC84FF4407122F0D1FA10E050B125F008000E
S31502082BD8032806D120464FF4407122F068FA94F881
S31502082BE87010C80702D1012D7FF48AAF20463946EC
S31502082BF800F076F994F87000C0073FF481AFD4E97B
S31502082C081A0188420BD9D8F844208A4203D1D8F83F
S31502082C18482082421FD0C8F84410A06E16E0D8F899
S31502082C28442009D2824203D1D8F848208A4212D0CF
S31502082C38C8F84400E06E09E04FF6FF70824203D1F5
S31502082C48D8F84810814206D0C8F84400C8F848009F
S31502082C58204623F005FF25F0080003287FF450AF25
S31502082C6894F8700000F0FE0084F8700048E7D4D49F
S31502082C78F0B585B0044690F87000000703D50A290E
S31502082C8875D00D2973D0002002910390019102A9EB
S31502082C98204600F06EF8002869D043F6BC50C0F208
S31502082CA80B20076801A80021B847216C054689B197
S31502082CB843F6CC50C0F20B2094F870100668480701
S31502082CC803D4E06A05F026FF00E0606BB047216C82
S31502082CD888424CD2E06B70B1007860B1002004AE2D
S31502082CE8049000BFE06B0499415C00293FD0314645
S31502082CF8B847A842F6D194F87000400702D520468C
S31502082D0800F056F8206B38B1E06A05F003FF007840
S31502082D1810B9204623F0A4FEE06AE16C02AA06F07E
S31502082D2808FA204600F08BF894F87000400714D584
S31502082D38606B0FF054FD054602A80FF050FD2918DE
S31502082D48606B013110F018F8606380B1E16C02AA71
S31502082D5813F00AFC204600F08DF8E06C411C204668
S31502082D6800F0BEF820462321002223F0DDF805B03C
S31502082D78F0BD70B543F2B4460D460446C2F20F26B4
S31502082D8800203060204624212A4623F0CDF83068F0
S31502082D9858B1017839B129460FF054FD28B131687E
S31502082DA8204600F015F9002070BD012070BDD4D464
S31502082DB82DE9F047814690F87000400701D4BDE82E
S31502082DC8F087D9F82C0005F0A5FE43F6CC51C0F2D7
S31502082DD80B2109688847002808BFBDE8F087054619
S31502082DE8484600F0BAFB06460FF0F9FC00FB05FA5E
S31502082DF807460AF101000FF095FF8046044600BF10
S31502082E08204631463A460FF0B7FB013D3C44F7D116
S31502082E18002008F80A00D9F82C00414605F0CCFA31
S31502082E2840460FF09EFF43F2AF61C0F208214846BA
S31502082E3810F096FD4846BDE8F04700F054BAB0B51A
S31502082E480446C06A06F06CF94FF6FF75A84205D122
S31502082E58E06A06F067F9A84208BFB0BDE06A4FF60D
S31502082E68FF7105F051FEE06A4FF6FF71BDE8B04002
S31502082E7805F04DBEB0B598B00546406C50B36C46E1
S31502082E88204610F021FC2046294610F04DFE43F252
S31502082E98AF61C0F20821204610F048FE696C204648
S31502082EA810F046FE20460021012210F046FE43F69F
S31502082EB8FF21C0F20921204610F045FE43F20371AC
S31502082EC8C0F20821204610F042FE204610F02DFCDA
S31502082ED818B0B0BD284618B0BDE8B040FFF768BFBD
S31502082EE8F0B583B00446C06C88426DD043F6CC5020
S31502082EF8C0F20B200668E06A0D4605F00BFEB047DD
S31502082F08002D064648BF05448542B8BF2E4647F6F1
S31502082F18FF718D4208BF06462046E66423F096FEF0
S31502082F28204600215A2226F0C1FAE16A054601AA74
S31502082F380846314605F0F0FD284617F083FE029E3C
S31502082F480546204624F09EFE864204DA0299204661
S31502082F58012225F0D5F9204623F0DAFC029906461D
S31502082F6820464F1924F08EFE381AB04206DD02981A
S31502082F78A91B01442046012225F0C2F9019E2046D2
S31502082F8824F006FF864204DA01992046012225F032
S31502082F989FF9204623F011FC0199064620464F1947
S31502082FA824F0F6FE381AB04206DD0198A91B014438
S31502082FB82046012225F08CF90198A064204600F0E3
S31502082FC84DF9204600F08FF903B0F0BDC06C704782
S31502082FD82DE9F04182B0804690F870000D46400708
S31502082FE802D54046FFF7E4FED8F83C0010B9D8F8EF
S31502082FF84000F0B1287800210191B8B143F6BC50D7
S31502083008C0F20B20076843F6B850C0F20B200468D2
S3150208301801AE00BF28463146B847A0470146404692
S31502083028FFF726FE0198285C0028F3D102B0BDE80E
S31502083038F08140462946FFF79CFE0028F6D0D8F8C4
S31502083048300040B1D8F82C0005F064FD007810B9B4
S31502083058404623F005FDD8F82C00D8F84C102A4625
S3150208306806F067F84046FFF7EAFE98F87000400748
S3150208307819D5D8F834000FF0B2FB064628460FF0E1
S31502083088AEFB3118D8F8340001310FF075FE002866
S31502083098C8F83400CAD0D8F84C102A4613F064FA8D
S315020830A84046FFF7E7FE43F6CC50C0F20B2001680C
S315020830B8D8F84C402846884701194046FFF710FFBA
S315020830C840462321002202B0BDE8F04122F02CBF77
S315020830D8B0B582B00446C06C002840D07F20ADF84F
S315020830E806000DF106012046FFF743FEB8B3E06A6B
S315020830F805F010FDE16C01220139054613F060FA64
S31502083108E06A294605F058F92046FFF798FE206B2B
S3150208311838B1E06A05F0FEFC007810B9204623F0BB
S315020831289FFC94F8700040070FD5E16C606B013973
S31502083138012213F045FA656B28460FF050FB411C2D
S3150208314828460FF019FE606348B1E06C411E204616
S31502083158FFF7C6FE20462321002222F0E5FE02B02A
S31502083168B0BDB0B5C56C0446691CFFF7B9FEE06C7C
S31502083178854208BFB0BD2046BDE8B040FFF7A8BFE4
S315020831882DE9F04182B00D468046FFF758FED8F879
S315020831983C0010B9D8F8400088B3D8F82C0041F694
S315020831A8DD61C0F20B2105F007F9404647F6FF71C3
S315020831B8FFF796FE98F87000400703D5D8F834004A
S315020831C80021017028780021019110B343F6BC50FA
S315020831D8C0F20B20076843F6B850C0F20B20046801
S315020831E801AE00BF28463146B847A04701464046C1
S315020831F8FFF73EFD0198285C0028F3D109E0D8F8C4
S315020832082C00294605F0D8F8404647F6FF71FFF71D
S3150208321867FED8F8300040B1D8F82C0005F07AFCD9
S31502083228007810B9404623F01BFC98F8700040074E
S315020832380CD5D8F834000FF094FD28460FF012FB87
S31502083248C8F8340038B14046FFF7B2FD4046232194
S31502083258002222F069FE02B0BDE8F08170B598B086
S315020832684FF4C0216722054626F020F960B36C465A
S315020832780646204610F028FA2046294610F054FC3D
S3150208328843F2B161C0F20821204610F04FFC2046ED
S31502083298314610F04DFC2046314610F05CFC2046BB
S315020832A80121002210F049FC43F6FF21C0F2092148
S315020832B8204610F048FC20464FF0FF3110F04FFC2C
S315020832C8204610F032FA0CE043F2B161C0F2082146
S315020832D8284610F045FB95F8640040F0010085F889
S315020832E8640018B070BD2DE9F04F8BB000215A2240
S315020832F8044626F0DBF80546204600215C2226F01D
S31502083308D5F8E16AD4F84CA00290084605F002FC02
S3150208331843F6C451C0F20B210A685146064690473D
S31502083328814643F6BC50C0F20B20026806EB090B2D
S3150208333858460021019290478046284617F082FC93
S3150208334841460490B8F10D0F08BF2021B8F10A0FBB
S3150208335808BF202128460022B8F1000F08BF2021FD
S31502083368039517F02FFCE16A054609AA084651464D
S3150208337805F0D2FBE76A384605F0CCFB0246384622
S31502083388002126F021FDE26A099953692944D2697E
S31502083398194491422CDD94F87010090728D4032899
S315020833A826D0049A029B0A991A4400201144B8F1B5
S315020833B8000F09900A910CD043F6B450C0F20B20BC
S315020833C80168584688478144019A06EB0900002194
S315020833D8904701460A2808BF2021002808BF20214D
S315020833E80D2808BF20210398002217F0EBFB054693
S315020833F820464FF4C0213022C4F8609026F056F8C9
S31502083408064620464FF4C021102226F04FF8804679
S3150208341820464FF4C021112226F048F88146204654
S315020834284FF4C021122226F041F8074620464FF4E7
S31502083438C021132226F03AF8DDE90923B919A2EBC5
S31502083448010B08EB0601A3EB010A711E4E1930445B
S3150208345800EB02080498E66D08444844C518E06A71
S3150208346804F150030ECBD0E9050701441844059127
S31502083478B9180790B81905AE06910890204631463C
S3150208348824F064FAE06AC4E914BAC4F85880E5650F
S31502083498D0E9050100EB0B0240440790481905924A
S315020834A801EB0A02089020463146069224F04EFAA3
S315020834B80BB0BDE8F08F90F8642002F0FD0261F3C4
S315020834C8410280F864207047B0B5044690F8700047
S315020834D80D4600F00801012282EAD10195EA010F98
S315020834E818BFB0BD00F0F70065F3C30084F8700092
S315020834F8642010F0E5FFE16A002D054608460ED05D
S315020835086FF0404123F041FBE06A2946002226F083
S315020835189CFD20466FF0404123F04DFB0CE02946FE
S3150208352823F033FBE06A0021002226F08EFD2046AE
S315020835380221002226F0B4F82046002100220023A0
S31502083548BDE8B04024F0B6BE90F87010490744BFEB
S31502083558406B7047C06A05F0DDBA0146806B00B158
S31502083568704780B588B0084600215A2225F09EFF82
S31502083578694642F22202002317F0EAFA014642F69F
S31502083588F90042F27212C0F20B20C0F20B2200298D
S3150208359818BF104608B0BDE88040704790F870001A
S315020835A8C0F3C0007047C16C0131FFF799BCC16C02
S315020835B8002914BF01397047FFF792BCB0B582B02B
S315020835C80446C06AE16C6A4605F0A6FA2046002156
S315020835D85C2225F06BFF0546204600215A2225F073
S315020835E865FF17F02FFB019928440844451CA16C6E
S315020835F8E06A0195009123F088F985420ADAE06AB9
S315020836086946012205F0A4FBA56C01462046FFF788
S3150208361867FCA56402B0B0BD70B582B00446C06A3C
S31502083628E16C6D462A4605F077FA204600215C22A7
S3150208363825F03CFF0646204600215A2225F036FF89
S3150208364817F000FB01993044081A0130A16C019061
S31502083658E06A00912946012205F07AFBA56C014623
S315020836682046FFF73DFCA56402B070BDB0B5044616
S3150208367811F02CFA0546204611F024FA044626F0DB
S315020836888EFDA5F13101012988BFB0BD0546204640
S31502083698002104F091FE2846FFF725FE2846BDE8D4
S315020836A8B040FFF7DBBD704790F8642002F00103CB
S315020836B8994208BF704710B584B0002918BF01217E
S315020836C802F0FE02114480F86410C16AD0E9142E89
S315020836D8D0F858C0D1E90513C46D0A446144029169
S315020836E81919009203EB0E0203916946019224F016
S315020836F82DF904B0BDE8104070470068FFF758BBBB
S3150208370870B500200C4681F830006421C2F2000127
S3150208371820460A4623F02EFA204621F0B9FC20460E
S3150208372821F0B6FC0021054614F01EFC43F6BD1628
S31502083738C0F20826284631463322002322F07DFCA9
S31502083748284631460E22002322F077FC2846002115
S3150208375824F022FA2046042100F09AF82846802105
S3150208376821F0A5FC28464FF48061BDE8704021F097
S31502083778FCBCB0B542F68870C0F20B200C4622F0A3
S3150208378847FC012818BFB0BD204611F09FF9054627
S31502083798204611F097F9312D05D1C16A0022BDE8F4
S315020837A8B04000F001B8B0BD2DE9F0470C46C16239
S315020837B801219046064626F005FF074630460021AF
S315020837C826F000FF05463046002126F0FBFE43F6A2
S315020837D83811C0F20B2126F035FF844255D2002F44
S315020837E853D0304623F032FA96F8300010F00C0F10
S315020837F81BD038460021152225F058FE8146384640
S3150208380822F0DBFF824630460021272225F04EFEAB
S31502083818C0B20AEB0901012804FB01F138464246FF
S3150208382808BF494224F054FD0FE038460021142205
S3150208383825F03CFE0646384623F06AF8304400FB73
S3150208384804F13846424624F05BFD43F63812C0F2C4
S315020838580B222846002126F0C5FE002808BFBDE827
S31502083868F08743F638170026C0F20B27A11BB1FAD0
S3150208387881F14A09012121F0B4FD0136284631466B
S315020838883A4626F0AFFE0028F0D1BDE8F087D4D430
S31502083898F0B581B04B1E0C46072B054600F2778019
S315020838A800210122DFE803F00504732B7373732AD8
S315020838B80821284614F058FB2846002126F082FEDD
S315020838C806462846012126F07DFE6421C2F2000139
S315020838D8074623F070F93846012114F069FB304689
S315020838E8012114F041FB3846012114F03DFB384604
S315020838F8002124F079F93846032125E009222846C9
S31502083908114614F031FB2846002126F05BFE0646CE
S315020839182846012126F056FE6421C2F2000107460E
S3150208392823F033F93846012114F042FB30460021C8
S3150208393814F01AFB3846002114F016FB3846032100
S3150208394824F052F93846002124F05DF995F830003A
S3150208395814F00C0100F00C00B0FA80F04FEA50108F
S3150208396818BF0121414021D1284626F01DFC20F026
S3150208397859FC0746642010F0A3FD14F00C0F034601
S315020839880FD007EBD7704210304619460CE0284686
S31502083998002126F017FE06462846012126F012FEC1
S315020839A8D4E7304639461A4623F0E4F885F8304013
S315020839B801B0F0BD70B582B0044611F083F8054629
S315020839C8204611F083F80646284626F0E8FB0E2E0E
S315020839D8044609D0332E49D1E16A2046002202B0AC
S315020839E8BDE87040FFF7E0BE15F0FFFB10B1007A9C
S315020839F801283BD06946284624F0DDFA94F83000B7
S31502083A0810F00C0F14D0284622F0D7FE0546204699
S31502083A180021272225F04AFDC0B2009905EBD57286
S31502083A28012808BF494201EB620090FBF5F009E05C
S31502083A38284622F06DFF019900EBD07201EB62016C
S31502083A4891FBF0F0E66A20EAE07515F0CEFB02462D
S31502083A5800282046294618BF0122FFF7A5FEB542C7
S31502083A6804D020462321002222F05EFA02B070BD55
S31502083A7810B50120C1E90B0004200C460FF052F9D3
S31502083A88216BE06388000FF04DF9A063E06B822191
S31502083A980160A06B0160D4E90B12606B02FB01F1AD
S31502083AA889000FF069F90021606301604FF6FF701B
S31502083AB8C4E9100010BDD4D470B50C46D1E90B126E
S31502083AC802FB01F0F0B10025002600BF606B50F832
S31502083AD8260090B1416849B108460FF042F9606B71
S31502083AE850F826004560606B50F826000FF039F941
S31502083AF8606B40F82650D4E90B12013602FB01F036
S31502083B088642E3D3606B08B10FF02BF9A06B08B1B4
S31502083B180FF027F9E06B18B1BDE870400FF021B92C
S31502083B2870BDD4D42DE9F04782B042F6AC70C0F223
S31502083B380B200D4622F06CFA012840F082802846AE
S31502083B4810F0C4FF0646284610F0BCFF342E8246FB
S31502083B5807D0322E17D1504602B0BDE8F04700F01A
S31502083B6841B9284610F0B6FFDAF82C10002954D0C5
S31502083B78DAF83C30002200BF53F8047B01393A448C
S31502083B88FAD1511E4BE0701E01281ED815F02DFBDE
S31502083B9815F03BFB00F0FD00012852D115F025FB74
S31502083BA8694615F0ACFB009D504624F05DF80544BD
S31502083BB850460021272225F079FCC0B2012843D1B4
S31502083BC82F46DAF81C50132241E0A6F10B004FEAF9
S31502083BD87000092835D8DFE800F005343457BD34B3
S31502083BE83434347B504622F03BFF15F0FEFA15F0C2
S31502083BF8A4FBDAF840204FF6FF718A4240F0B080FB
S31502083C0815F0F3FA15F001FB00F0FD00012804BFD0
S31502083C184FF6FF70CAE9100013E04FF0FF31DAF8E1
S31502083C28302052B1DAF83870002300BF57F8046B0F
S31502083C38013A3344FAD15A1E01E04FF0FF32C0E97D
S31502083C48001202B0BDE8F087DAF81470122250465C
S31502083C580021002625F02AFCDAF82C1000293DD086
S31502083C683844DAF83C20281A002300BF52F826708E
S31502083C783B4498424FF00007A8BF01272FDB0136BD
S31502083C88B142F3D10E462AE0284610F023FFDAF8A5
S31502083C9840104FF6FF73994256D0DAF844209A42F2
S31502083CA852D0DAE90B730568B9424FF000064FF0AD
S31502083CB80000B8BF0E469A42A5F11105B8BF1046CC
S31502083CC8032DBED8DFE805F002615D5F01385DE0C5
S31502083CD8284602B0BDE8F04700F028B90127DDF802
S31502083CE80480504623F0C7FFDAF81890054650466E
S31502083CF80021102225F0DAFBDAF830100029A0D0C4
S31502083D0805EB08024844DAF83830121A002000256A
S31502083D1853F820402544AA4204DB013081423FF485
S31502083D2890AFF5E7002F7FF48CAFDAF84010B1426E
S31502083D3804D1DAF8441081423FF483AFCAE9106025
S31502083D48504622F08DFE7CE70020CAE9100050464C
S31502083D5800F0B4F8504602B0BDE8F04722F080BE3B
S31502083D68DAF844208A423FF44BAF00287FF448AF7A
S31502083D7850462321002222F0D7F801283FF440AF03
S31502083D885FE7013602E0013E00E00130BE4209DA89
S31502083D98B6F1FF3F0CDC002819BF7E1E0138002643
S31502083DA8002005E05E1EB042AEBF7E1E0130002628
S31502083DB85F1E9842B8BF20EAE077B14208BFBA4206
S31502083DC83FF43FAF5046CAE9106722F049FE50460B
S31502083DD800F074F850462321002202B0BDE8F047E5
S31502083DE822F0A2B82DE9F04F89B04FF4A021122289
S31502083DF8044625F05BFB089020464FF4A0211322BF
S31502083E0825F054FB079020464FF4A021102225F0EE
S31502083E184DFB069020464FF4A021112225F046FBB9
S31502083E28834620464FF4A0215B2225F03FFB06462F
S31502083E3820464FF4A0215C2225F038FB0746204687
S31502083E484FF4A0215A2225F031FB054620464FF4A5
S31502083E58A021062225F02AFB804620464FF4A021F7
S31502083E68072225F023FB216BF9B181464FF0000A98
S31502083E78009708985146019007982A46029006988C
S31502083E88334603902046CDF810B000F0B3FA4845F9
S31502083E98A8BF4846A16B8045C8BF404641F82A00D4
S31502083EA8206B0AF1010A8245E2D3204623F009FA71
S31502083EB8204609B0BDE8F04F22F0D2BDB0B584B0AD
S31502083EC8D0E910216B46044600F022FB0098B0F1AF
S31502083ED8FF3F0ADD029D204622F06CFC85420ADD78
S31502083EE8204622F067FC411B00E041422046002298
S31502083EF8012324F099F80198B0F1FF3F0CDD039DE0
S31502083F08204622F002FD8542DCBF04B0B0BD204639
S31502083F1822F0FBFC421B00E0424220460021012314
S31502083F2804B0BDE8B04024F07FB8D4D42DE9F04FE8
S31502083F38ADF51B7D054610F0C5FD8346284622F0D9
S31502083F489EF800F118040DF5177805460BF11401C9
S31502083F58404622460D910FF07FFE002800F0458262
S31502083F6893A92046039190E8CC005846CCC10794F9
S31502083F7898E8CC000021CCC43022002625F096FA0F
S31502083F8882465846002110222C4625F08FFA054605
S31502083F9858460021112225F089FA1290584600211E
S31502083FA8122225F083FA0C9058460021132225F08E
S31502083FB87DFA8146BBF82A0071AF40F00800BBF8C3
S31502083FC82880ABF82A003846ABF828601FF0E9FAC9
S31502083FD858464FF4A0213A46759421F004FB3AAFA5
S31502083FE838461EF069FD58464FF4A0213A46119400
S31502083FF83E9421F049FDBBF82A00DBF8184020F068
S315020840080800ABF82A005846CDF81880ABF828807D
S3150208401823F031FE05EB0A01C04321440844CDE9E1
S315020840288F6058460B958D9623F01EFE074658460E
S315020840380021272225F03AFADBF83010002900F089
S31502084048CF810C9AC3B2F8435244104405906FEADA
S3150208405809020AEB0700101A049012989946C043F7
S315020840684FF0000A4FF000080A920990CDE90E3B74
S31502084078DBF83800909A50F82A009A9F531CBA42DD
S3150208408802448E93909280F2AB81B9F1010F05D161
S31502084098DBF81C20049B1A448D9204E00D9A059BB2
S315020840A812681A448F92DBF82CC0BCF1000F00F094
S315020840B8928100EBD070401000240890CDF840A0F9
S315020840C8DBF8343053F8280030B10078012100F0C3
S315020840D8020081EA500000E00120B9F1010F1290AE
S315020840E80CD18D99DBF83C00A1F1010ECDF83CE222
S315020840F850F824208A1A8D920BE000BF8F99DBF8B4
S315020841083C004A1C8D9250F8247007EB010ECDF834
S315020841183CE2ACF10105AC421CD200EB840003EB8D
S3150208412888030430002600BF53F82610371999B1B8
S315020841380978C90710D050F826700136B9F1010F67
S3150208414819BFBE44CDF83CE2D21B8D923719AF424D
S31502084158EAD301E000262746909B98988342C0F244
S3150208416830819DF80D02DDF838C24107CDE91B2CCE
S31502084178CDF874E01E930BD50D990C9D0968294450
S315020841888A4205DD829901EBD171A2EB61011B9185
S3150208419881070BD5DBF818100B9A11448C4505DDF7
S315020841A8829901EBD171ACEB61011C9101070ED51D
S315020841B8DBF81C100A9A11448E4508DA829901EB33
S315020841C8D17201F00101714401EB62011D91C00728
S315020841D80ED0DBF8200009990844834208DA829847
S315020841E800EBD07100F00100184400EB61001E9044
S315020841F8DBF8440082450FD1DBF8400084420BD134
S31502084208BBF8281001F0600201F00600202A08BF50
S31502084218203009070CD460B955AD284671A9702211
S315020842280EF0AAF91FA83AA96C220EF0A5F92CE0F5
S315020842380830BBF82A10ABF8280041F0080055AD3B
S31502084248ABF82A0028461FF0ACF911980DF17C0A3A
S31502084258599050461EF030FC11984FF4A02123902D
S3150208426858462A4621F0BFF958464FF4A021524625
S31502084278DDF840A021F008FCBBF82A00069920F0D0
S315020842880800ABF82810ABF82A00119829461BAA89
S31502084298CDE957A4CDE921A41FF0F2F9DBF83400D9
S315020842A850F82800002800F08A8058464FF4A021C2
S315020842B8122225F0FBF8824658464FF4A02113220B
S315020842C825F0F4F85C46834620464FF4A0211022CE
S315020842D825F0ECF8814620464FF4A021112225F054
S315020842E8E5F88DAD2ECD281A51441791A3EB0B018B
S315020842F8199102EB0901189112991A9011B3606B78
S31502084308DDF8109150F82800DDE92B4A00F1080B70
S3150208431817A80FF06EFCCDE9004091A859464A46FF
S3150208432853460025029511F07DFE8E989299089AB1
S3150208433801EBD1711044A0EB610200EB61001892FF
S315020843481A901BE0BDF8D700DDF8109140F0080076
S31502084358ADF8D700606BDDE92B4A50F8280000F162
S31502084368080B17A80FF045FCCDE9004091A8594655
S315020843784A4653460125029511F054FE13A897A9F1
S315020843888DAA0FF069FCDDE90FBAB0B113A8DDF8FA
S315020843981C9090E83C0049463CC1DBF834001FA94A
S315020843A850F8280017AA0830269011981EF0BEFB66
S315020843B897A890E83C0049463CC1DDF83890DBF8F6
S315020843C82CC008EB06007C1C644500F10108FFF4C2
S315020843D877AEDBF830100AF1010A8A45FFF448AECF
S315020843E8039E079F96E80F000FC70DF51B7DBDE8CC
S315020843F8F08FD4D42DE9F04F8BB0DDE91745804606
S315020844081046059316460F4616F01CFCD8F82C20BB
S315020844182C4402FB072102FB07F78F422044089027
S3150208442871D2DDE915103D4608444FF0000904909B
S31502084438079700BFD8F8343053F8250000285AD011
S31502084448D8F83C70A2F1010B57F82910CB4523D9A5
S31502084458A44603EB8504ABEB0903069307EB89032A
S31502084468A9EB0202B646043301324FF0000A00BF2E
S3150208447854F82A600AEB090796B13678F6070FD078
S3150208448853F82A700AF1010A12EB0A063944EFD1DF
S31502084498DDF818A005E000BF4FF0000ACB4602E097
S315020844A8BB46764664460278920717D4049A059B51
S315020844B88A1A00F1080114980027CDE9000209A80A
S315020844C83246029711F0AEFD0A98089920445544D7
S315020844D8D9468842C8BF014608910BE0304616F00D
S315020844E8B1FB08992044884204DD304616F0AAFB37
S315020844F820440890079FD8F82C200135D019854200
S3150208450809F1010996D308980BB0BDE8F08FD4D4FF
S315020845182DE9F0471C4617468946064600201860C4
S3150208452842B10021F26B52F82120013110448F4220
S315020845382060F7D1F06A411E8F4215D2716B00FBD3
S3150208454809F201EB82017A1C002500BF51F8043BE7
S315020845585BB11B78DB0708D0F36B53F822300132BC
S3150208456890421D44F2D100E0002530460021272258
S3150208457824F09CFF5FFA80F8304623F075FB216821
S31502084588B8F1010F17D108442060304622F012F913
S31502084598D4F800A0804630460021132224F086FF6C
S315020845A85044A8EB0000A060F16B51F82710294483
S315020845B8401A206010E0081A2060304600211222AC
S315020845C824F074FF216808442060F16B284451F8E6
S315020845D8271008440138A0600020B9F1000F60606E
S315020845E808D00021B26B52F82120013110448945BE
S315020845F86060F7D130460021102224F057FF61681F
S3150208460808446060304623F036FB6168081A606021
S31502084618B16B51F8291008440138E060BDE8F08703
S3150208462810B50C4691F830104FF0FF30E06201F0F1
S31502084638F80084F830002046102120F096FD20461E
S31502084648082120F034FD20464FF48061BDE8104069
S3150208465820F02DBD084600210FF082B92DE9F04F4A
S31502084668C3B042F6D070C0F20B200E4621F0D0FC39
S31502084678012840F06981304610F028FA0546304686
S3150208468810F020FA232D044600F08C801D2D40D008
S315020846981B2D40F0598120464FF44031122224F04E
S315020846A805FF804620464FF44031132224F0FEFEC9
S315020846B8074620464FF44031102224F0F7FE0546F5
S315020846C820464FF44031112224F0F0FEB845C8BFFF
S315020846D84746A842C8BF054620464FF44031AF426E
S315020846E8C8BF3D4621F090FB2844871C304610F087
S315020846F8F1F9054600684FF40031B842C8BF0746C3
S3150208470820462F6021F080FB874240F3A88028685C
S31502084718AAE0304610F0D6F90546304621F0AFFC35
S315020847283FAE04462846314622F0BAF923AF384640
S315020847381EF037FF28464FF400313A46279420F0F0
S3150208474852FF2046394632461EF09AFF2F4657F838
S31502084758148FD5E906A9D5F820B038460FF049FAD4
S31502084768064638460FF04AFA95F83010029401F0D0
S31502084778070101295ED0022901D086425ADA28465B
S3150208478822F018F8064638460FF038FAE96AA0EB16
S31502084798060A4A1C6AD00AFB01F0C11700EB116027
S315020847A807126BE0204600216722002524F07EFEC8
S315020847B8E0B30746204620F01FFE10F0010008BFA6
S315020847C84FF48075E16A404200F48076481C18BFA7
S315020847D80D46A81B48BF404200FB07F04FEA1028BF
S315020847E8204600210FF0BCF823AF38460EF06CFFBE
S315020847F8384621460FF098F944F65711C0F20821AF
S3150208480838460FF093F93846294632460FF095F995
S3150208481844F65D11C0F2082138460FF098F9384671
S3150208482841460FF085F938460EF07FFF204622F0FA
S3150208483817F989E02846CDF804A022F066F8064654
S3150208484838460FF0D6F9E96A841B4A1CDA4629D093
S3150208485804FB01F0C11700EB116007122AE0204693
S315020848684FF4003121F0D0FA28606DE0284620F08E
S31502084878C3FD00F00100404200EA0A072846002163
S31502084888272224F013FEC0B2012808BFAAEB07079D
S31502084898ABEB070A012ED8BF0126AAEB060000F1E0
S315020848A8010B1AE0284620F0A7FD00F00100404255
S315020848B800EA040728460021272224F0F7FDC0B299
S315020848C8012808BFE71BB844012ED8BF012606EB04
S315020848D80800DDF804B0A0F1010928464FF4403172
S315020848E8122224F0E3FD064628464FF440311322E5
S315020848F824F0DCFD074628464FF44031102224F0FE
S31502084908D5FD044628464FF44031112224F0CEFD3F
S31502084918A8EB06011F9107EB09012191ABEB0401EC
S31502084928504403AC2290204620911EF03AFE029E7D
S3150208493828464FF440312246079620F054FE1FAA0D
S31502084948304621461EF09CFE43B0BDE8F08FC16290
S3150208495822F086B800684FF0FF31C16222F080B8AB
S3150208496810B50C460846022120F0FFFB20464FF4F4
S315020849787A71C822BDE8104000F000B8F0B599B0BF
S315020849880F460021164604460EF0EAFF01AD2846F0
S315020849980EF09AFE284621460FF0C6F844F6352147
S315020849A8C0F2082128460FF0C1F828464FF0FF3111
S315020849B80FF0D5F8284639460FF0BAF806F5B47254
S315020849C8284631460FF0B9F828460EF0AEFE43F6E9
S315020849D81131C0F2092128460FF0B5F84FF480675D
S315020849E828464FF4D77140F25122002300970FF058
S315020849F8C5F8284600214FF4B4720FF09EF844F61B
S31502084A083921C0F2082128460FF090F828460EF0F8
S31502084A188CFE204600214FF4B4720AF004FA2046A6
S31502084A284FF487710AF00BFA19B0F0BD0AF00EB9FD
S31502084A380AF076B810B50C46B1F8841048F29F63A6
S31502084A480020C0F20103C4E91D0301F4784047F6C1
S31502084A58611200F205404FF0010CCFF6FE72A4F877
S31502084A68840020460121C4E91F2CFEF72DFD2046A5
S31502084A780121FEF720FD2046BDE8104000F0DEB809
S31502084A8870B543F21800C0F20B200D4621F0C0FAA1
S31502084A98012838D1284610F019F80646284610F093
S31502084AA811F8112E04462FD00B2E2CD114F09DFB8B
S31502084AB814F0ABFB04283FD1204620F050FB1FF028
S31502084AC8EDFE002838D0B4F8841001F00F00022849
S31502084AD838BF70BD01F4C061D4F88050B1F5806F53
S31502084AE840F07980022DC0F294804CF6CD40CCF67F
S31502084AF8CC40A5FB00010122092D88BFCA08204619
S31502084B08C4F8802063E070BD14F06FFB14F07DFBD7
S31502084B18064628460FF0DEFF0168A1F111000328B0
S31502084B2826D8DFE800F00420021E042E5FD12046AC
S31502084B38BDE8704000F020B92046FEF705FD054697
S31502084B480DF04DFEE16C6A5C2E2A03D12046FEF76B
S31502084B582EFD17E0814210D1411E2046FEF7C0F904
S31502084B6810E0042E41D12046BDE8704000F028B96D
S31502084B782046BDE87040FEF77BB819B9E06FB0F178
S31502084B88FF3F58DDB4F88400E26CC0F303118A4289
S31502084B984FF00006E36F88BF0126002918BF0121D6
S31502084BA83140511A00F00F00CA43002B48BF4A4247
S31502084BB880184FF00101C4F8801007D001EB810173
S31502084BC801384FEA4101F9D1C4F880102046BDE8F8
S31502084BD8704000F033B8421E0A200021EE1710F082
S31502084BE8D3FB281A76EB010020DA20461AE0D4F815
S31502084BF8800046F26761C6F2666150FB01F101233D
S31502084C088A100928C8BF02EBD1732046C4F8803037
S31502084C18DDE7821E0A20002110F0B6FB014620466F
S31502084C28C4F88010BDE8704000F093B80121204608
S31502084C38C4F88010CBE7204601218FE72DE9F04713
S31502084C488AB005AD8146284612212AF058FED9F8B7
S31502084C587C00D9F87430B0F1FF3F02DD4FF0FF3817
S31502084C6809E02D2001354FF00008B3F1FF3FC8BF10
S31502084C782B208DF81400002B00D55B4242F6B602AB
S31502084C8801AEC0F20B2230460E210DF05DF8304611
S31502084C980DF0A5FDB9F884A00AF00F04844212D0D3
S31502084CA80028A4EB000108D4224600BF335C013869
S31502084CB8B354431CA2F10102F8D1012903DB01A866
S31502084CC830222AF017FECAF30317002F08BF274611
S31502084CD800204FB1315C31B1295401308742F9D1EC
S31502084CE80544384600E005441AF0F00F0DD02E2187
S31502084CF88442297009D9211A6A1C304410F8013BE2
S31502084D081BB1013902F8013BF8D105A94846FEF755
S31502084D1837FAD9F88010B9F884000A2900F00F0082
S31502084D280CDB4CF6CD42CCF6CC4200BFA1FB0236D0
S31502084D3863294FEAD601A0F10100F7D800EB08016A
S31502084D48B842484688BF0131FEF7CAF80AB0BDE834
S31502084D58F087D0E91E21D0F88030002900D54942CB
S31502084D688A42C8BF114603EB830252008A42D8BF59
S31502084D78C0F88020FFF762BF80B5D0E91D3CD0F89D
S31502084D8880E019460EEB0302002AC8BF5142002BDF
S31502084D9858BF1946714461450ADD634507D1B0F81B
S31502084DA8841011F48071614618BFC16F00E061462C
S31502084DB8994208BF80BD4167BDE88040FFF73EBFFC
S31502084DC8416FD0E91FC2531AD8BF0B460029D8BF6C
S31502084DD80B469A1A62450ADA614507D1B0F8842061
S31502084DE812F48072624618BF826F00E062468A42EF
S31502084DF814BF42677047FFF721BF80B540F20470B7
S31502084E080DF090FF43F2B841C2F21021C1F8E80149
S31502084E1880BD10B50C4691F8A0100020C4F89C0075
S31502084E2801F0FC0084F8A00020464FF4807120F0B7
S31502084E389CF92046102120F098F920464FF4806103
S31502084E4820F035F900201FF0EDF91E280FDB0020A7
S31502084E581FF0E8F9502101EBC00046F26761C6F275
S31502084E68666150FB01F0811101EBD07100E0012166
S31502084E782046BDE8104022F046BE2DE9F04F85B01F
S31502084E8843F23C00C0F20B200D4621F0C1F8012876
S31502084E9840F0858128460FF019FE074628460FF086
S31502084EA811FE044609F090FA012F45D0022F3CD08C
S31502084EB8162F50D1064628460FF00CFEA16804F1B3
S31502084EC884030029804614BF8F6A00270FCB0DF189
S31502084ED8040C01AD8CE80F00284639463A460EF00E
S31502084EE89CFED8F80010284600220EF0CCFF0028AF
S31502084EF888F8040040F05381022E40F0508104F1EC
S31502084F0874030FCB0DF1040C01AC8CE80F00204694
S31502084F1839463A460EF081FED8F800102046002295
S31502084F280EF0B1FF88F8040039E12046012105B0E0
S31502084F38BDE8F04F00F046B914F057F904F19405A4
S31502084F48294614F0DCF920462946032205B0BDE8AD
S31502084F58F04F22F0D3BB27F00800032830D12046A9
S31502084F680021002500F02EF994F8A000C4F89C50F8
S31502084F7800F0FE0084F8A000204621F071FD2046C4
S31502084F8820F0EDF805461FF089FC064614F02DF9BF
S31502084F9814F03BF9012850D0042840F00081002E6D
S31502084FA800F0FD80204609F00FFA022840F0BC807E
S31502084FB894F8A000810700F1F58040F0020016E097
S31502084FC81A2F17DC112F47D0122F00F09180132FB2
S31502084FD840F0E58014F009F914F017F9042802D00C
S31502084FE8022840F0DC8094F8A00000F0FD0084F85E
S31502084FF8A000D4E01B2F3FD01D2F00F08680312F4A
S3150208500840F0CD80204600F034FA00284FF480712B
S315020850184FF40075204618BF4FF4007118BF4FF4B5
S31502085028807520F044F82046294620F09EF8204646
S3150208503805B0BDE8F04F20F047BF204600F019FA40
S315020850480028204614BF4FF400714FF4807105B04A
S31502085058BDE8F04F20F02BB8284621F018F820F0C2
S315020850680201112963D194F8A000800753D4204677
S3150208507809F0AFF9411C66E020464FF44031122286
S3150208508824F014FA009020464FF44031132224F0F3
S315020850980DFA834620464FF44031102224F006FAC8
S315020850A8064620464FF44031112224F0FFF981467C
S315020850B820464FF440316A2224F0F8F982462046FF
S315020850C84FF440316B2224F0F1F90746204621F0C5
S315020850D871FB00EB4A08204621F017FC00EB470053
S315020850E880453CDA20464FEA4A0721F063FB3AE054
S315020850F8284620F0D9FF94F8A01089070BD405464C
S31502085108204609F066F941191DE0284605B0BDE8AA
S31502085118F04F00F0C8B9204609F063F9411C204649
S31502085128012209F02DF912E02846002140E0142848
S3150208513801D0122833D194F8A00080073DD420461E
S3150208514809F047F9411E2046012209F0A2F820462D
S315020851582321002205B0BDE8F04F20F0E5BE20461F
S315020851687F0021F0D2FB074400984FF44031584596
S31502085178C8BF8346B145C8BF4E462046B345C8BFD1
S315020851885E4620F041FE06EB67010844841C284661
S315020851980FF0A0FC0168A142C8BF0C46046005B01E
S315020851A8BDE8F08F00F0FD022846002184F8A02009
S315020851B805B0BDE8F04F1FF097BA204609F011F975
S315020851C8411EACE72DE9F04F85B00D46044614F0AA
S315020851D80CF8064614F019F8012840F015813046ED
S315020851E814F0ABF8002840F00F8101AF3046394673
S315020851F814F085F820463946032222F07FFA20461B
S3150208520800F037F980469DB194F8A000C0070FD17F
S315020852189820B8F1000F14BF94200437396820582B
S31502085228081A48BF404296F824108842C0F0EC8013
S31502085238D4F89C0000285DD1204609F0C5F894F8F0
S31502085248A010022841F0010184F8A0104ED113F0EB
S31502085258CCFF03AE314614F052F8204631460322F3
S3150208526822F04CFA20460021272224F01FF94FF093
S31502085278FF3151FA80F0B0FA80F04509204600F06D
S31502085288F8F894F84C1000EA050270B103989142AE
S315020852981BD1D4F88C20904228DC636F9842C0F25E
S315020852A8B980E76FD4F88410BBE00498914218D104
S315020852B8D4F88810884219DBD4F88070B84200F30B
S315020852C8A980A36FD4F89020ABE0D4F8841088425A
S315020852D80CDBE76FB84200F39D80636FD4F88C2025
S315020852E89FE0D4F89020904240F3918004F12C0074
S315020852F8C4F89C00D4E90CA920460021272224F0E8
S31502085308D5F84FF0FF3151FA80F0B0FA80F0450926
S31502085318204600F0AEF894F84CB0B8F1000F05EA4A
S31502085328000520464FF0000116D0122224F0BEF8D6
S31502085338064620460021132224F0B8F807462046D6
S3150208534821F038FABB19AB45A0EB03011BD16269F8
S31502085358019F3244BA1A1AE0102224F0A7F8064620
S3150208536820460021112224F0A1F80746204621F0FA
S31502085378CCFAB919029AAB45A0EB01010AD1206AFF
S31502085388BA1A024409E0019AE6693A44B21A9842F4
S3150208539803D10EE0A0693044121AA9EB0A0002FBEF
S315020853A800F001EBD17200EB620090FBF1F0216B81
S315020853B80A18D4F89C0004F1380188424FF03401DF
S315020853C808BF2C214FF0380308BF30236158E35829
S315020853D88A42B8BF114602688B42C8BF19468A4232
S315020853E812D001604FF480712046B8F1000F18BF39
S315020853F84FF400711FF0B9FE204621F031FB204612
S315020854082321002220F090FD05B0BDE8F08FA36F96
S31502085418984202DA04F138006AE7D4F88070D4F8B8
S315020854288810FF1A07EBD777521A7F101B1A02EB56
S31502085438D272DB194FEA6202A1EB000048BF5B424F
S31502085448801848BF4042984208D294F8A01004F13E
S315020854582C00C4F89C0001F0FD0007E094F8A0109F
S3150208546804F13800C4F89C0041F0020084F8A00050
S3150208547840E7B0B5044690F87000C0F3C2000128A8
S315020854880DD070B9204621F095F90546204621F037
S315020854983CFA85424FF00000A8BF0120B0BD0120A2
S315020854A8B0BD0020B0BD2DE9F04FBFB005460FF0DC
S315020854B809FB0446284620F0E2FD804620460021DC
S315020854C8272223F0F3FF4FF0FF3151FA80F0B0FAA2
S315020854D880F045092046FFF7CCFF064694F84CA00B
S315020854E805EA000B204608F08CFF0546204676B1E9
S315020854F821F00BFA81461DB1E06AB0F1FF3F74DD6F
