S0130000766973696F6E5F435055312E7372656301
S3150208000060A40E22ED150802B1140802F7150802BB
S31502080010F7150802F7150802F7150802F715080278
S3150208002000000000000000000000000001050802B0
S31502080030F7150802000000001905080281050802E2
S31502080040ED0E08022D11080235120802ED0E0802FD
S309020800502D10080255
S3150208005801000000770000002800000004000000E4
S31502080068010000001D0000000A000000040000004C
S315020800780303000003000000037300000273000074
S31502080088010000000A0A0000006060000000000083
S315020800988444080200000000010000000000000075
S315020800A8003E000010A00E220100000020A00E2229
S315020800B880B54AF2C86044F28851C2F20E20C0F2EC
S315020800C8082100F045FC00B980BD43F6777044F272
S315020800D8460244F25203C0F20820C0F20822C0F2CD
S315020800E808230C2101F096F98188FF290CDDB1F560
S315020800F8006F22DBB1F5005F49DAB1F5006F4FD020
S31502080108B1F5805F0CD017E08A1E1E2A45D801234E
S3150208011803FA02F244F24503C4F200031A423CD037
S315020801284AF28F41C2F20E2101220A7080684AF207
S315020801389041C2F20E2108807047B1F5807FEFD050
S31502080148B1F5007FECD0B1F5806FF5D110B54AF25A
S315020801588D41C2F20E2101224AF28C440A70C2F279
S315020801680E242178042988BF10BD21784AF29442C0
S31502080178C2F20E224C2311FB032200F11401104687
S315020801884C2203F08FFC20780130207010BDC7D0AE
S31502080198B1F5804F18BF7047C2E78029C0D0CBE7B0
S315020801A84AF28E40C2F20E20012101707047D4D459
S315020801B8B0B54AF210640546C00FC2F20E244FF4CF
S315020801C8806121600121607345F60200A180082139
S315020801D8C5F60200A1710021C4F80E0041F22700F3
S315020801E8A160FD2160824AF2C8602173C2F20E201C
S315020801F80021224600F034FD002854D1002D00D5EE
S315020802086D42284603F0C8FA9FED370B53EC102BBC
S3150208021803F08AFA9FED360B53EC102B03F034FCE5
S3150208022841EC100B03F06CFC51EC100B03F086FA48
S3150208023840F2014121600821A171FD212173010DB6
S315020802486173010BA1730109000120744FF48170CF
S31502080258A4F811006B20E173E07405204FF47A7153
S3150208026801F0DBF84AF2C860C2F20E2000212246E3
S3150208027800F0F6FC38BB02214AF28E40CFF6FF712F
S31502080288C2F20E2002781AB9002901F10101F9D140
S315020802980021017032B105204FF47A71BDE8B040E9
S315020802A801F0BBB8B0BD43F6777044F2243243F680
S315020802B89073C0F20820C0F20822C0F2082340F25E
S315020802C82D1101F0A7F843F6777044F2243243F663
S315020802D89073C0F20820C0F20822C0F208234FF42D
S315020802E8A07101F097F800BFCDCCCCCCCCCCFC3FA2
S315020802F8000000000000324010B54AF21064C2F24B
S315020803080E24002020600121A06046F2FF60A18029
S315020803180321A0816B20A171A07305204FF47A717D
S3150208032801F07BF84AF2C860C2F20E200021224682
S3150208033800F096FC30B905204FF47A71BDE81040F2
S3150208034801F06BB843F6777044F2BF0243F690732E
S31502080358C0F20820C0F20822C0F208234FF4C97175
S3150208036801F058F880B5FFF7A3FE0A20FFF720FF29
S31502080378BDE88040FFF7C0BF022818BF70474AF297
S31502080388C06044F2B051C2F20E20C0F2082100F051
S315020803980BBA80B584B04AF2EC60C2F20E20016844
S315020803A84AF25C6C0131016042F6F060C2F20F2033
S315020803B80121CDE9001040F2054044F2373144F2F2
S315020803C88453C2F20E2CC0F20820C0F20821C0F2E9
S315020803D808234FF48062CDF808C001F087FE4AF276
S315020803E8BC61C2F20E21086008B104B080BD0020C3
S315020803F8002104B0BDE8804000F00CB810B50446E8
S3150208040800F00AF82046BDE81040FFF7ABBF704770
S31502080418FFF7FDBF00BE7047B0B54AF2E464C2F200
S315020804280E2420684FF0FF3101F044FD012803D05D
S3150208043820680021FFF7EEFF4AF2E860C2F20E20B2
S31502080448017801B1B0BD01210170FFF7E1FF4AF257
S31502080458EC65C2F20E2500BF286801382860F1D07B
S31502080468206800210022002301F0FAFA0128F3D0B5
S3150208047820680021FFF7CEFFEEE780B54AF2EC6066
S31502080488C2F20E20002101604AF2E860C2F20E208A
S315020804984AF2F0620170C2F20E224FF4807001210C
S315020804A801F0BEFA4AF2E461C2F20E21086018B9EE
S315020804B800200021FFF7AEFFFFF76BFF02F0A5F851
S315020804C8002080BD4AF23873C2F20E2303604AF24C
S315020804D89870C2F20E2008608020106070474AF6AB
S315020804E89813C2F20E2303604AF6F810C2F20E20D7
S315020804F808608020106070471EF0040F0CBFEFF3E7
S315020805080880EFF30980014908470000A705080291
S315020805180F4B1968EFF309821EF0100F08BF22ED78
S31502080528108A22E9F04FEFF30B8342F8043D0A607A
S315020805384FF0100080F31188BFF34F8FBFF36F8F08
S3150208054802F014F84FF0000080F3118800F002B8A0
S31502080558E82C0F22074801680A6802CA81F30B8841
S31502080568B2E8F04F1EF0100F08BFB2EC108A82F3F9
S3150208057809887047E82C0F2210B5EFF3118410206A
S3150208058880F3118802F0C4F830B14EF60450CEF260
S3150208059800004FF08051016084F3118810BD80690C
S315020805A810F8020C022808BFFFF7D4BF042838BF80
S315020805B8704780B543F6D23044F2640243F6DD4307
S315020805C8C0F20820C0F20822C0F208234FF47E714E
S315020805D800F020FF283140F8481D40F20561C0F2B4
S315020805E808214FF0807C22F00102C1636FF00201F4
S315020805F80264C0F844C0C0E90913704700BE00BFC8
S31502080608FEE7D4D44EF62250CEF20000F02101704D
S3150208061800F016F84EF63470CEF20000016841F082
S315020806284041016062B6BFF36F8FEFF3148C2CF06A
S31502080638040C8CF31488BFF36F8F02DF00BEFDE744
S315020806484AF68040C2F20E20006844F6D351C1F237
S315020806586201A0FB01014FF0FF3000EB9111002067
S31502080668B0EB116F18BF70474EF21002CEF20002B5
S3150208067851604EF62351CEF20001F0230B709060BA
S315020806880720106070471021EFF3118081F3118853
S315020806984AF6F831C2F20E210A68531C0B605AB997
S315020806A84AF6FC31C2F20E2108604EF60450CEF222
S315020806B800000068C00500D1704780B543F6D230FD
S315020806C843F6F83243F6B773C0F20820C0F2082296
S315020806D8C0F2082340F2A44100F09CFE4AF6F8301C
S315020806E8C2F20E20016859B10139016018BF704774
S315020806F84AF6FC30C2F20E20006880F31188704769
S3150208070880B543F6D23044F2783243F6AC33C0F2B7
S315020807180820C0F20822C0F2082340F2AD4100F0D0
S3150208072879FE80B598B34EF6902EC4F2010E9EF85D
S3150208073800100A0722D04EF2FA32C4F201021388CE
S315020807484AF2025CCFF6FF7C0020A2F800C08EF8B7
S31502080758000043F425401080BFF34F8F30BFBFF324
S315020807686F8F62B6BFF36F8F72B61088A2F800C091
S3150208077840F425408EF80010108080BDBFF34F8FD5
S3150208078830BFBFF36F8F62B6BFF36F8F72B680BD85
S3150208079880B572B601F0C7FD0120FFF7C2FF62B63F
S315020807A8BDE8804001F01ABE80B545F25422C5F26A
S315020807B84F020260084600F003F8002080BDD4D430
S315020807C870B5044600F05CF84AF65C4CEFF3108004
S315020807D8012181F31088C2F20E2CDCF8001039B90F
S315020807E840F61451C4F2400100220A7040220A70E7
S315020807F8DCF800100131CCF8001080F31088208844
S3150208080810B340F6000E0021C4F2400E606800EBF1
S31502080818C102928850F83130100ADD03D2B20BD5DC
S315020808280EEB801555F8226026F4803645F82260C4
S3150208083823F4803645F822600EEB801040F8223001
S31502080848208801318142E1D3EFF31081012080F338
S315020808581088DCF8000020B1DCF800000138CCF872
S315020808680000DCF8000038B940F61450C4F240001B
S31502080878002202708022027081F3108870BDD4D4D7
S315020808882DE9F04F81B00446008800285CD042F270
S3150208089840084EF64C4A44F2C65BC4F220080026C3
S315020808A8C4F2010AC0F2082B4FF00109002700BF5B
S315020808B860683BF8172000EBC600818891423CD154
S315020808C800689AF8001000F0B85009FA07F5B0F16E
S315020808D8807F05EA010015D150B9012000F05AFEB9
S315020808E89AF8000028438AF80000012000F029FE39
S315020808F818F91700002820D418F8170040F08000C5
S3150208090815E000BF50B1012000F044FE9AF8000035
S31502080918A8438AF80000012000F013FE18F9170008
S31502080928B0F1FF3F09DC18F8170000F07F0008F855
S315020809381700C820012100F070FD0137032FB7D12F
S31502080948208801368642B1D301B0BDE8F08FD4D4E7
S315020809582DE9F04F81B082460E680020C4F23800AD
S31502080968894600EB463B0F69CAE900B9886843F22B
S315020809780802CAF81000C868C4F22002CAF81800A1
S315020809880020CAF81400D7F81C80EFF31085012056
S3150208099880F31088C6F11B011368884023EA000011
S315020809A8106010681E20012100F037FD85F31088B3
S315020809B8DBF81C000007FBD44EF200144CF2003593
S315020809C850468121CEF20004C4F2000500F0BEF9B1
S315020809D8D8F804004EF20342CBF814004FF48010FC
S315020809E8CBF82C000020CBF8B000D8F81010CEF2BD
S315020809F80002CBF83010D8F80810CBF83C10D8F813
S31502080A080C10CBF8401098F815104FEA01115170DE
S31502080A184AF66041C2F20E210861286920F480303C
S31502080A28286128694FF01000BFF35F8FC4F8800168
S31502080A382060D8F80000CBF81800D8F8180020F07B
S31502080A480100CBF8540086B998F814000001107012
S31502080A58C1F80CA0E86820F48030E860E868082045
S31502080A68BFF35F8FC4F8800120604AF60040C2F2DD
S31502080A780E204FF4807C40F826A0CBF828C0D7F879
S31502080A8800E0F2015FFA82F8002300970EEB0306EC
S31502080A98CBF828C00BEB030596E8870005F5907492
S31502080AA887C4D5F82801103320F0800040EA0800E8
S31502080AB8B3F5807FC5F82801E8D10020CBF82800CD
S31502080AC850460121012600F041F9D9F804004AF6F0
S31502080AD8604590E80E00C06801396FF39F2141EA24
S31502080AE84241A1F500315A1E41EA42614FF60042D7
S31502080AF8CFF6FF7202EB80200843CBF80000009F6E
S31502080B08C2F20E25786990E80E00C0680139C9B2A2
S31502080B1841EA02210022CFF6FF72A1F5807102EBA3
S31502080B2803421143013841EA0060CBF800017869AB
S31502080B384EF200134068CEF20003FF2828BFFF20B2
S31502080B48397E000440EA412040F201410843CBF8C5
S31502080B580401B868CBF8880038694CF2003740F0C7
S31502080B680300CBF8040099F91500C4F20007002817
S31502080B781CD499F814101A18090182F8001345F8B2
S31502080B8820A057F8201021F4803147F8201057F88A
S31502080B98201000F01F01400906FA01F103EB800252
S31502080BA8BFF35F8FC2F8801143F8201099F917002E
S31502080BB800281DD499F814101A18090182F8001386
S31502080BC845F820A057F82010012221F4803147F869
S31502080BD8201057F8201000F01F01400902FA01F107
S31502080BE803EB8002BFF35F8FC2F8801143F8201027
S31502080BF899F9160000281DD499F814101A1809012B
S31502080C0882F8001345F820A057F82010012221F48B
S31502080C18803147F8201057F8201000F01F014009C4
S31502080C2802FA01F103EB8002BFF35F8FC2F8801163
S31502080C3843F820105046802100F088F850460021D3
S31502080C48002400F083F844F24461C5F24321AAF865
S31502080C580C400020CAF8081001B0BDE8F08FD4D4B9
S31502080C68F0B513685679272943EA8673167943EA4B
S31502080C78C67315D906684C2501FB05664FF6D815BD
S31502080C88CFF6FF7573519379A1F1280C092B23D353
S31502080C98182B1ED803F57E73082606EB93031BE06A
S31502080CA80668751895F874502D0744BF4EF66320E2
S31502080CB8F0BD4C2501FB0566C6F804369379092B5F
S31502080CC814D3182B0FD803F57E73082606EB93035D
S31502080CD80CE00B2606EB131340F2C45E4FF4B86415
S31502080CE840F2BC5509E00B2606EB13134FF4C26E05
S31502080CF840F20C644FF4C1658C4607684C261B07FC
S31502080D080CFB06F63D44AB519368056803F00703E6
S31502080D182C44A35193795BB104680C3204EB0E0791
S31502080D28BD1900BF12F8017B013B05F8017BF9D111
S31502080D380068272904D900EB8C00FF21C16503E066
S31502080D486044012180F870100020F0BD10B54AB23F
S31502080D580368B2F1FF3F01F00F0233DDD3F804C08E
S31502080D685FEAC17E02D11CF0040104D1052A08BF34
S31502080D781CF001010AD15968012464F30201596079
S31502080D88996801F007010129FAD10368596821F01F
S31502080D9807011143596000BF996801F0070191429A
S31502080DA8FAD1BEF1000F41D11CF003013ED0D0E9B9
S31502080DB800121269D26992694B6D02F001021A434E
S31502080DC84A6533E0D3F818E05FEAC17C0EF0010EF3
S31502080DD812D0BEF1000F0FD10368D96B21F00101B9
S31502080DE8D96301680B6C23F001030B6401684B6D28
S31502080DF823F001034B650368996921F0070111433A
S31502080E08996100BFD96901F007019142FAD1BCF18B
S31502080E18000F0BD1BEF1000F08D0D0E900121269F3
S31502080E28D2699368CB63D168026811640168496814
S31502080E3801F00701017310BD80B51F290FD84FEAC3
S31502080E48C11C40F2FF332CEA030300EB030C01F042
S31502080E58070E4C231EFB03C303F5126C08E04C234A
S31502080E6801FB0303282934BFA3F58C6CA3F5C56CCB
S31502080E78DCF800E0CEF380735371DCF8083003F02F
S31502080E88070393602EF0604313604FEADE7313710B
S31502080E98DCF804305FEA137E44F2DC53C0F2082316
S31502080EA813F80EE082F806E009D00CF10C030C32AE
S31502080EB813F801CBBEF1010E02F801CBF8D11F29AE
S31502080EC805D8012202FA01F1C943416380BD00EB44
S31502080ED8810028294FF0FF012CBF40F8441C40F82E
S31502080EE8341C80BD2DE9F04FB1B0EFF303801038FA
S31502080EF8C1B2032955D101A84AF6004A051D00249C
S31502080F080126C2F20E2A4FF070480DF16409002034
S31502080F185AF820B0BBF1000F3CD028465C2102F0F3
S31502080F28BDFD4FF48050ADF80800DBF80000016AF1
S31502080F3808EA013202EB01428907039204620DD5D7
S31502080F48DBF80000816E91FAA1F1B1FA81F10491F8
S31502080F5800EB8100416C21F004014164DBE905706C
S31502080F680194059057B148463946602202F09AFD1F
S31502080F78384601A9602202F095FD00E001AFDBF8C8
S31502080F88101038468847DBF8140018B1494660221B
S31502080F9802F088FD0120F1074FF00006B8D10325B3
S31502080FA830E045B24AF66040C2F20E2001AF50F868
S31502080FB82560381D5C2102F071FD4FF48070ADF88A
S31502080FC808003068C16889B203910021C160D6E970
S31502080FD8054001910590049154B119A82146602249
S31502080FE802F060FD01A92046602202F05BFD00E0DE
S31502080FF83C46316920468847706918B119A96022A2
S3150208100802F050FD4CF20030C4F2000050F82510E8
S3150208101821F4803140F8251050F8250031B0BDE892
S31502081028F08FD4D42DE9F04FB1B001A800226C2371
S3150208103800F114054FF00008C4F23802C4F2380366
S315020810484FF0010A4AF60040C2F20E2050F828006C
S3150208105800285DD04FEA4830185842EA483790FACD
S31502081068A0F0B0FA80F6012E47D84FF4806046F011
S315020810782004ADF808000494386E012101FA06F92D
S31502081088009600BF10EA090F2AD1384621462A4691
S31502081098CDF80480FFF7D0FE01984AF60041C2F25D
S315020810A80E2151F820B0DBE90560059056B119A85A
S315020810B83146602202F0F6FC304601A9602202F0A7
S315020810C8F1FC00E001AEDBF8101030468847DBF881
S315020810D8140018B119A9602202F0E4FC386ED1E7A7
S315020810E80098002207EB8000416C6C2321F0080166
S315020810F8C4F23802C4F238034164F86E40B94CF2B5
S315020811081031C4F20001086820F4803008600868C3
S315020811184FF001085FEACA704FF0000A92D131B05F
S31502081128BDE8F08F2DE9F047B0B0EFF303804FF032
S31502081138704101EB00604AF660428115C2F20E223E
S3150208114857584FEA206979680A68D1F81080B96948
S31502081158009204913C6894F8A410002956D0EA46ED
S3150208116818AD00BF94F8A400C10705D100071FD41B
S315020811784FF40070842102E04FF4006080213A6837
S31502081188ADF80400505890FAA0F0B0FA80F0082892
S3150208119806D35018406890FAA0F0B0FA80F02030CA
S315020811A8111891F8742002F0F90281F8742010E0F7
S315020811B8D8F81C008069C0044FF4006058BF4FF481
S315020811C80050ADF804003868816D21F01001816578
S315020811D828207E6903905EB128463146602202F0CD
S315020811E861FC30465146602202F05CFC01E000BF11
S315020811F85646396930468847786918B129466022B9
S3150208120802F050FC94F8A4000028ABD14CF2003046
S31502081218C4F2000050F8291021F4803140F8291048
S3150208122850F8290030B0BDE8F087D4D42DE9F04F3C
S31502081238B1B04FF07041EFF3038001EB00684AF64C
S3150208124860414FEAA850C2F20E210C584FF4806149
S3150208125860680068ADF80810019028200490206894
S31502081268016EC9052ED40DF104094AF6004A09F198
S315020812781405C2F20E2A0DF1640B00BF28212A466C
S31502081288FFF7DAFD01985AF82060D6E90570059045
S3150208129857B158463946602202F004FC3846494690
S315020812A8602202F0FFFB00E04F463169384688475C
S315020812B8706918B15946602202F0F4FB2068016E7B
S315020812C8C905DBD5816D21F0080181652068806D25
S315020812D800070DD44CF200314FEA2860C4F2000127
S315020812E851F8202022F4803241F8202051F82000B3
S315020812F831B0BDE8F08FD4D44EF22401C4F201010C
S3150208130888780988C1F30312A2F1080103293BD890
S31502081318DFE801F0022C101E4AF26041C2F20E21E1
S3150208132851F820004AF6AB21CAF6AA21A0FB010108
S31502081338480830E04AF26041C2F20E2151F820000C
S315020813484AF6AB21CAF6AA21A0FB0101C80822E07F
S315020813584AF26041C2F20E2151F820004AF6AB2140
S31502081368CAF6AA21A0FB0101080914E04AF260415B
S31502081378C2F20E2151F820004AF6AB21CAF6AA2172
S31502081388A0FB0101880806E04AF26041C2F20E2172
S3150208139851F82000D0404AF68041C2F20E21086070
S315020813A8704770B54AF2604046F6004141F200229B
S315020813B8C2F20E20C0F2DC21C0F27A0243F2006CB5
S315020813C84FF40043C0F26E1C4CF6002E44F2553414
S315020813D848F2004544F2006680E80E1040F600011D
S315020813E843F60002C3F69A3EC1F2DE34C1F2D77555
S315020813F8C2F2C336C2F6AF71C1F69C42C0E9043ED0
S31502081408C0E90664C0E908518262BDE87040FFF780
S3150208141873BFD4D400BE00BFFEE74AF68042C2F2C2
S315020814280E22126841F20023C0F27A039A4201FB9D
S3150208143800F00FD340F6FF01C0F23D0111444DF604
S315020814488362C4F21B32A1FB0212110DA0FB010131
S31502081458E9B11FE04CF6002348F63811C3F69A3369
S31502081468C0F24101B3FBF2F2884207D24FF47A710D
S3150208147800FB01F0B0FBF2F0800808E09200B0FB2E
S31502081488F2F0884206D24FF47A7100FB01F028B1CD
S3150208149800F005B84FF0FF3000F001B87047013880
S315020814A80028FCD17047D4D4F0B581B04CF20015A7
S315020814B8C4F200052868296A4AF6084701EA0006B6
S315020814C80024C2F20E2700BF26FA04F0C00704D089
S315020814D857F8241009B1204688470134152CF3D148
S315020814E82E6100BF286A3042FCD101B0F0BDD4D4BF
S315020814F870B544F2BC514CF2003246F240034FF042
S31502081508000EC0F20821C4F20002C4F200034FF02A
S31502081518010C002031F8104074B1BEEB942F42F842
S31502081528204009D1650953F8256004F01F040CFA0E
S3150208153804F4344343F825400130052808BF70BD32
S31502081548E8E70122EFF3108182F310884AF674421B
S31502081558C2F20E2232F8103023B132F81030013BAB
S3150208156822F8103032F810208AB94EF2FA3CC4F240
S31502081578010C44F63802BCF80030C0F2082232F8E8
S31502081588100043F4254222EA0000ACF8000081F371
S315020815981088704780B50122EFF3108182F310880C
S315020815A84AF67442C2F20E2232F810308BB94EF25B
S315020815B8FA3C44F63803C4F2010CC0F20823BCF814
S315020815C800E033F8103043EA0E0343F42543ACF837
S315020815D8003032F81030013322F8103081F31088BF
S315020815E880BDD4D400F006F8FEF747FFFEE700BE32
S315020815F87047D4D4B0B54EF60850CEF200004FF470
S315020816087001C0F8801040F20001C0F208214CF2BD
S31502081618040401600020C4F20104FEF7ADFEFFF7D8
S31502081628C0FE206840F00100206000BF206800283C
S31502081638FCD1012044F8040CFEF79EFE4AF260002B
S31502081648C2F20E2080F30A88002000F02FF8FFF76E
S3150208165853FE012000F02AF842F6EC64C2F20F247F
S31502081668204602F02FFA204602F040FA44F696007F
S3150208167844F69601C0F20820C0F20821081A841016
S31502081688012C08DB44F69605C0F2082555F8040B22
S315020816988047013CFAD10220FEF76EFEFFF728FFC3
S315020816A80020BDE8B04000F02EB8D4D4F0B581B019
S315020816B844F20C65C0F208252E68044676B16868B5
S315020816C8071D00BF7879844204D157E90101091A2E
S315020816D802F0E4F9013E07F10C07F3D1AE6886B1C8
S315020816E8E86800F1080500BF6879844205D155E91A
S315020816F802022968121A02F0D5F9013E05F1100507
S31502081708F2D101B0F0BD704770B5002841D04AF64B
S315020817189446A0F10805C2F20E260446B54254D3E9
S3150208172847F6FF70304485424FD854F8040C00280F
S315020817385BD52968002968D120F0004044F8040CD2
S3150208174800F0F1FD4AF68840C2F20E2054F8041C4D
S3150208175802684AF68C430A44C2F20E2302601A4603
S3150208176810461268AA42FBD3984206D0B0425CD306
S3150208177847F6FF733344984257D84368C618AE42A9
S3150208178802D11944054641606B18934202D01346A2
S315020817980CE070BD4AF68443C2F20E231B689A42CD
S315020817A804D052681144696001680B68A8422B6024
S315020817B818BF056042F69440C2F20F20016801314B
S315020817C80160BDE8704000F009BE44F2760044F2B2
S315020817D8B81243F65853C0F20820C0F20822C0F2DB
S315020817E808234FF4B571FFF715FE44F2760044F262
S315020817F8B81244F2D503C0F20820C0F20822C0F291
S31502081808082340F26B11FFF705FE44F2760044F20C
S31502081818B81244F28A33C0F20820C0F20822C0F28B
S3150208182808234FF4B671FFF7F5FD44F2760043F63E
S31502081838C75243F6E253C0F20820C0F20822C0F2A1
S3150208184808234FF4FD71FFF7E5FD4FF0FF31024615
S3150208185842F8081F0021C0E90322C0E900127047AE
S31502081868002101617047D4D480B5D1F800C01CF1B3
S31502081878010207D000F108029646526813686345C2
S31502081888FAD903E0D0F810E0DEF804204A6091603D
S31502081898C1F808E0CEF80410086101680131016050
S315020818A880BDD0E901230169936042685A604A6893
S315020818B8824201D182684A600022026108680138B8
S315020818C80860704770B500284BD00446C06BC0B391
S315020818D80E46216CA0FB010199BBFEF7D4FE2068CF
S315020818E8D4E90F12002502FB0103013901FB0201A3
S315020818F8A563C4E90103FF20E16084F8440084F87B
S31502081908450004F110004EB1FFF79FFF04F12400C9
S31502081918FFF79BFFFEF7E2FE012070BD016800296A
S31502081928F8D001F02FF80028F4D04EF60450CEF27B
S3150208193800004FF080510160BFF34F8FBFF36F8FDE
S31502081948E8E744F28D1044F25D3244F2B423C0F259
S315020819580820C0F20822C0F208234FF4B671FFF72E
S3150208196859FD44F28D1044F25D3244F2AC23C0F2BA
S315020819780820C0F20822C0F2082340F23711FFF7FE
S3150208198849FD10B582B05BB3D0B11C4601B9BAB9E4
S3150208199801B1AAB148230193019B482B30D1019B77
S315020819A8012384F84630002908BF2246C4E90F01F4
S315020819B8204601212260FFF785FF204602B010BDA6
S315020819C844F28D1044F22C0244F23323C0F2082062
S315020819D8C0F20822C0F208234FF4D871FFF71AFD9D
S315020819E844F28D1044F22C0243F67463C0F20820BE
S315020819F8C0F20822C0F208234FF4C271FFF70AFDA3
S31502081A0844F28D1044F22C0243F6FD73C0F2082004
S31502081A18C0F20822C0F208234FF4CB71FFF7FAFC8A
S31502081A28B0B582B060B10D46814209D81446002184
S31502081A3800222346FFF7A5FF2046A56302B0B0BDDC
S31502081A4844F28D1044F2481243F68263C0F2082023
S31502081A58C0F20822C0F208234FF45E71FFF7DAFCD7
S31502081A682DE9F04F85B00028049200F09D8099462A
S31502081A781546044619B9206C002840F0C580B9F104
S31502081A88020F03D1E06B012840F0AE80019101F004
S31502081A9863F810B9002D40F09780FEF7F4FDA06BA5
S31502081AA8B9F1020F59D0E16B884256D304F11007EF
S31502081AB8012002AE4FF0000B04AD00BF04990029BD
S31502081AC866D0C00702D0304600F0E2FFFEF706FEEF
S31502081AD800F029FCFEF7D7FD94F84400FF2808BF52
S31502081AE884F844B094F84500FF2808BF84F845B03E
S31502081AF8FEF7F4FD3046294600F0D7FF00284AD1FA
S31502081B08FEF7C1FDD4F838A0D4F83C80FEF7E6FD06
S31502081B18C24515D10499384600F0D6FE204600F08B
S31502081B28B5F800F05BFC80B94EF60450CEF2000018
S31502081B384FF080510160BFF34F8FBFF36F8F04E0F8
S31502081B48204600F0A3F800F049FCFEF79CFDA06BBE
S31502081B58E16B88424FF00000B0D2019920464A4606
S31502081B6800F062F854F8240F70B1204600F00AFF14
S31502081B7850B14EF60450CEF200004FF08051016083
S31502081B88BFF34F8FBFF36F8FFEF7A8FD012008E05A
S31502081B98FEF7A4FD04E0204600F078F800F01EFCE3
S31502081BA8002005B0BDE8F08F44F28D1043F6F342E3
S31502081BB844F2AC23C0F20820C0F20822C0F2082375
S31502081BC840F2B631FFF726FC44F28D1043F6F3428B
S31502081BD843F60553C0F20820C0F20822C0F20823C9
S31502081BE840F2BB31FFF716FC44F28D1043F6F34276
S31502081BF843F68A63C0F20820C0F20822C0F2082314
S31502081C084FF46E71FFF706FC44F28D1043F6F34261
S31502081C1844F2ED33C0F20820C0F20822C0F20823C3
S31502081C2840F2B731FFF7F6FB70B5866B036C0446CC
S31502081C3843B31546CAB1E0681A4601F033FFE168AC
S31502081C48206C2268091A9142E16003D2A1684042CF
S31502081C580844E060A81EB0FA80F040093146002E12
S31502081C6818BF01210840361A0CE060681A4601F0C6
S31502081C7819FFD4E90101226C10448842606001D335
S31502081C8820686060701CA06370BDD4D4F0B581B0BA
S31502081C980446FEF7F8FC94F94560012E0EDB04F1BA
S31502081CA8240500BF286848B1284600F06BFE08B12B
S31502081CB800F04BFF70B2013E0128F3DCFF2684F8D8
S31502081CC84560FEF70BFDFEF7DEFC94F94470012F1A
S31502081CD80EDB04F1100500BF286848B1284600F053
S31502081CE851FE08B100F031FF78B2013F0128F3DC52
S31502081CF884F8446001B0BDE8F040FEF7EFBCD4D4DE
S31502081D082DE9F04F83B00028029200F0A280164609
S31502081D188946044619B9206C002840F0BA8000F0B2
S31502081D281BFF10B9002E40F0A480FEF7ACFCD4F8CD
S31502081D3838A0BAF1000F28D0226C52B1D4E90201B0
S31502081D481144E160814224BF2168E160484601F0F6
S31502081D58A9FE54F8100FAAF10101A16270B1204632
S31502081D6800F010FE50B14EF60450CEF200004FF0C5
S31502081D7880510160BFF34F8FBFF36F8F0124FEF7BF
S31502081D88ADFC204603B0BDE8F08F04F12408012013
S31502081D986F464FF0000B02AE0299002955D0C007CC
S31502081DA802D0384600F074FEFEF798FC00F0BBFA3B
S31502081DB8FEF769FC94F84400FF2808BF84F844B083
S31502081DC894F84500FF2808BF84F845B0FEF786FC54
S31502081DD83846314600F069FE60B12046FFF756FFDD
S31502081DE800F0FCFAFEF74FFCA56BFEF777FC75B315
S31502081DF822E000BFFEF747FCA56BFEF76FFC2DB184
S31502081E082046FFF743FF00F0E9FA15E00299404633
S31502081E1800F05AFD2046FFF739FF00F0DFFA58B9F5
S31502081E284EF60450CEF200004FF080510160BFF31F
S31502081E384F8FBFF36F8F00BFFEF725FCD4F838A083
S31502081E480020BAF1000FA7D076E7002497E7002406
S31502081E5897E744F28D1044F26C1243F65963C0F2BE
S31502081E680820C0F20822C0F2082340F2E951FFF717
S31502081E78D1FA44F28D1044F26C1243F60553C0F2B5
S31502081E880820C0F20822C0F2082340F2F251FFF7EE
S31502081E98C1FA44F28D1044F26C1244F23E23C0F29F
S31502081EA80820C0F20822C0F2082340F2ED51FFF7D3
S31502081EB8B1FAD4D42DE9F04F83B00028029100F084
S31502081EC88E800446006C002840F099800D4600F082
S31502081ED843FE10B9002D40F0A280FEF7D4FBA16B91
S31502081EE8D1B154F8100F0139A16270B1204600F039
S31502081EF849FD50B14EF60450CEF200004FF080511B
S31502081F080160BFF34F8FBFF36F8F0124FEF7E6FB1D
S31502081F18204603B0BDE8F08F4EF6045904F12408AA
S31502081F2801206E464FF0000B02AFCEF200094FF0C1
S31502081F38805A00BF029900294DD0C00702D0304600
S31502081F4800F0A6FDFEF7CAFB00F0EDF9FEF79BFBCB
S31502081F5894F84400FF2808BF84F844B094F845006A
S31502081F68FF2808BF84F845B0FEF7B8FB304639465D
S31502081F7800F09BFD60B12046FFF788FE00F02EFAB6
S31502081F88FEF781FBA56BFEF7A9FB35B31CE000BF7C
S31502081F98FEF779FBA56BFEF7A1FB2DB12046FFF7E5
S31502081FA875FE00F01BFA0FE00299404600F08CFC19
S31502081FB82046FFF76BFE00F011FA28B9C9F800A007
S31502081FC8BFF34F8FBFF36F8FFEF75DFBA16B002040
S31502081FD80029AFD085E7002498E7002498E744F259
S31502081FE88D1044F2180243F65963C0F20820C0F26B
S31502081FF80822C0F2082340F28261FFF70BFA44F27C
S315020820088D1044F2180244F2B033C0F20820C0F226
S315020820180822C0F2082340F28661FFF7FBF944F268
S315020820288D1044F2180243F60553C0F20820C0F28E
S315020820380822C0F2082340F28B61FFF7EBF9D4D4E1
S31502082048B0B500B3D1B142F6984E4FF0000CC2F2C1
S315020820580F2E0022002300BF0EEB02046568A84271
S315020820680DD023B92368002B18BF644623460832C5
S31502082078502AF1D1002B18BFC3E90010B0BD234678
S31502082088C3E90010B0BD44F28D1043F6BE3244F2DD
S31502082098EE23C0F20820C0F20822C0F2082340F64E
S315020820A8C931FFF7B7F970B515460E460446FEF765
S315020820B8EAFA94F84400FF2804BF002084F844008A
S315020820C894F84500FF2804BF002084F84500FEF767
S315020820D805FBA06B28B904F1240031462A4600F00C
S315020820E814FC2046BDE87040FFF7D0BD2DE9F0473D
S315020820F886B0DDF83C9007460020B9F1000F049037
S3150208210826D0109CA4B360200590059860283FD174
S3150208211805980E46DDF838A02046602198461546E9
S3150208212801F0BCFC022084F85D0004A8C4F83090CB
S31502082138CDE900A0384631462A464346029400F0BD
S315020821481FFD204600F034F8049806B0BDE8F0876B
S3150208215844F2082044F2C21243F69443C0F2082015
S31502082168C0F20822C0F2082340F2F141FFF752F9F9
S3150208217844F2082044F2C21243F64773C0F2082012
S31502082188C0F20822C0F2082340F2F241FFF742F9E8
S3150208219844F2082044F2C21244F24343C0F2082029
S315020821A8C0F20822C0F2082340F2FA41FFF732F9D0
S315020821B82DE9F0470446FEF766FA42F60C50C2F2D3
S315020821C80F20016842F6E84701310160C2F20F277B
S315020821D8396842F6F04A42F61856C2F20F2AC2F28D
S315020821E80F2651B1DAF8000000283DD13868E16AAD
S315020821F8C06A884298BF3C6036E03C60006801289D
S3150208220832D100257019FFF720FB1435642DF9D150
S3150208221842F6C458C2F20F284046FFF716FB42F6A2
S31502082228D859C2F20F294846FFF70FFB42F69850CB
S31502082238C2F20F20FFF709FB42F6F440C2F20F205A
S31502082248FFF703FB42F68050C2F20F20FFF7FDFAAA
S3150208225842F6B850C2F20F20C0F8008042F6BC50C7
S31502082268C2F20F20C0F8009042F6EC40C2F20F20E4
S3150208227801680131016042F67C51C2F20F21E06A17
S315020822880A68904288BF086000EB800006EB800067
S315020822984068221DA0608168E1604A608260E06A3F
S315020822A800EB800006EB8001616156F820100131C7
S315020822B846F82010FEF712FADAF8000078B13868FC
S315020822C8E16AC06A88420AD24EF60450CEF2000083
S315020822D84FF080510160BFF34F8FBFF36F8FBDE890
S315020822E8F08710B5044690F85D00022808BF10BDAD
S315020822F8012803D038B9206BFFF706FA2046BDE84D
S315020823081040FFF701BA44F2082043F6F26244F293
S31502082318D613C0F20820C0F20822C0F2082341F6F2
S315020823282E11FFF777F842F61050C2F20F2001680D
S315020823380131016070472DE9F04381B00E4642F635
S315020823481451C2F20F210D6842F6B851C2F20F2192
S31502082358D1F8008042F6BC5142F6E844C2F20F218F
S31502082368C2F20F24D1F8009021680746081DFFF724
S3150208237898FA781C16D1AEB142F68050C2F20F20EE
S31502082388D0E90012236801319A6093682768FB60CE
S31502082398276804375F6023680433936022680160FC
S315020823A8506117E02068ED194560206800F10401BC
S315020823B805D3484601B0BDE8F043FFF755BA40468B
S315020823C8FFF752FA42F6AC50C2F20F2001688D4264
S315020823D838BF056001B0BDE8F083D4D42DE9F047CB
S315020823E8FEF751F942F61050C2F20F200168002989
S315020823F800F0AC80016801390160006828B1002440
S31502082408FEF76CF92046BDE8F08742F60C50C2F290
S315020824180F2000680028F2D042F69850C2F20F2020
S31502082428016842F6945A42F6E8490029C2F20F2A86
S31502082438C2F20F2964D042F67C5242F6185300219A
S31502082448C2F20F22C2F20F234FF0010CC768FC68CA
S31502082458D4E90775A66ABD60E7696F60776804F10B
S315020824681805AF4201D1276A7760A1623768013F2A
S315020824783760D4E902656769B560A6686E607D68E3
S31502082488261DB54201D1E5687D6061613D68013D59
S315020824983D60E76A1568AF4288BF176007EB87078A
S315020824A803EB87077F68A760BD68E5606E60BE6054
S315020824B8E76A07EB870703EB8706666153F827601F
S315020824C8013643F82760E76AD9F80060F66AB74220
S315020824D888BFCAF800C00768002FB7D142F6B850B5
S315020824E8C2F20F200168096819B10068C068006855
S315020824F801E04FF0FF3042F6AC51C2F20F210860F4
S3150208250842F6B458C2F20F28D8F8006056B1012428
S3150208251800F0FEF808B1CAF80040013EF8D10020DA
S31502082528C8F80000DAF8000000283FF468AFD9F8BE
S3150208253800004EF60450CEF200004FF080510160BA
S31502082548BFF34F8F0124BFF36F8F59E744F2082070
S3150208255843F6FF6244F20933C0F20820C0F20822A1
S31502082568C0F2082340F68B71FEF754FF80B542F68F
S315020825781050C2F20F20006830B142F69450C2F2E7
S315020825880F200121016080BD42F69450C2F20F2045
S31502082598002142F67C5C0160C2F20F2CDCF80010BE
S315020825A842F6185301EB8102C2F20F2353F82200AE
S315020825B803EB820230B900BFB9B152F8140D0139DA
S315020825C80028F9D05068436802F10800834253602C
S315020825D801D1D3685360D86842F6E842C2F20F229C
S315020825E81060CCF80010106880BD44F2082043F643
S315020825F8814244F2DF33C0F20820C0F20822C0F250
S31502082608082341F2FA31FEF705FF10B58AB044F2FB
S315020826184940C4F24C500024069005A804A903AA06
S315020826288DF81C40CDE90444FDF74CFFDDE903208B
S31502082638DDF814C0CDE9004042F61D40C0F2082074
S3150208264806A90023CDF808C0FFF750FD42F6B05197
S31502082658C2F20F21086060B300F0F3FA012811D01C
S31502082668013026D144F2082044F2F52244F2C30383
S31502082678C0F20820C0F20822C0F2082340F6A9616F
S31502082688FEF7C8FE42F6AC51C2F20F214FF0FF32EE
S31502082698012080F310880A6042F6F041C2F20F213F
S315020826A8086042F61450C2F20F2000210160FDF7B5
S315020826B8A9FF44F64400C0F2082000680AB010BD13
S315020826C8F0B581B042F60855C2F20F252868E0B17E
S315020826D842F6F44642F60C57C2F20F26C2F20F2702
S315020826E8FDF7D1FFF068C468201DFFF7DAF83868E5
S315020826F801383860286801382860FDF7EFFF204658
S31502082708FFF7EFFD28680028EAD101B0F0BDD4D456
S315020827182DE9F04742F61050C2F20F20006848B178
S3150208272842F6B450C2F20F20016801310160002056
S31502082738BDE8F08742F61450C2F20F20016842F645
S31502082748AC5C4A1CC2F20F2C026022D342F6B8507D
S31502082758C2F20F2001680968002940F09F8042F6F4
S31502082768BC53C2F20F2301681F680760196042F654
S31502082778C051C2F20F210B6801330B600168096860
S3150208278819B10068C068006801E04FF0FF30CCF85C
S315020827980000DCF80000824201D2002074E042F60A
S315020827A8B85AC2F20F2ADAF800004FF00009006890
S315020827B8002864D042F67C5E42F6185442F6E84887
S315020827C8C2F20F2EC2F20F24C2F20F28002000BF4F
S315020827D8DAF80050ED68EE68374657F8045FAA42F9
S315020827E850D3D6E9021375698B60B168596069686E
S315020827F8B94201D1F1686960C6F8149029680139A5
S315020828082960B56A85B1D6E907138B60F1695960FB
S31502082818696806F11803994201D1316A6960C6F8EE
S315020828282890296801392960F56ADEF800108D4270
S3150208283805EB850188BFCEF8005004EB810149688B
S31502082848B1608B68F3605F608F60F16A01EB8101A2
S3150208285804EB8103736154F82130013344F82130BB
S31502082868F16AD8F80030DB6ADAF80050994288BF6C
S31502082878012029680029ABD14FF0FF3502E04FF055
S31502082888FF350020CCF8005042F69451C2F20F21C7
S315020828980968002918BF0120BDE8F08744F2082014
S315020828A844F27A1243F60B43C0F20820C0F2082211
S315020828B8C0F2082341F25F21FEF7ACFD42F6145036
S315020828C8C2F20F200068704710B570B10C4642F67E
S315020828D8E841C2F20F2109681831FEF7C5FF2046FA
S315020828E80121BDE81040FFF726BD44F2082044F24C
S315020828F8D82244F2B303C0F20820C0F20822C0F272
S3150208290808234FF4A451FEF785FD10B550B342F6D5
S31502082918E84CC2F20F2C0346D0F804E0DCF80000B3
S31502082928002AC0F81CE0DEF80800DCF8004020623D
S31502082938DCF8004004F118044460DCF8000000F1F1
S315020829481800CEF80800DCF800008362186818BF79
S315020829584FF0FF31441C084611461C60BDE810407A
S31502082968FFF7E9BC44F2082043F60E7244F2B303B1
S31502082978C0F20820C0F20822C0F2082341F2BE417A
S31502082988FEF748FD80B5C068C068002870D0D0E94F
S315020829980713826A8B60C1695960536800F1180186
S315020829A88B4201D1036A5360002383621368013B91
S315020829B8136042F61052C2F20F2212688AB142F620
S315020829C8985CC2F20F2CDCE900E2C26193680362E2
S315020829D8596091600EF10101C0F828C0CCF80010C0
S315020829E834E0D0E9021342698B60816859605368FA
S315020829F8011D8B4201D1C3685360002343611368E2
S31502082A0842F67C5C013B1360C2F20F2CC26ADCF800
S31502082A1800309A4288BFCCF8002042F6185C02EBCE
S31502082A288202C2F20F2C0CEB820252688260936809
S31502082A38C36059609160C16A01EB81010CEB81029E
S31502082A4842615CF8212001324CF8212042F6E8411D
S31502082A58C2F20F21C06A0968C96A884291BF002072
S31502082A6842F69451C2F20F21012088BF086080BD40
S31502082A7844F2082043F62E7243F66563C0F208202C
S31502082A88C0F20822C0F2082341F2F541FEF7C2FC59
S31502082A9842F6C051C2F20F210968016042F6145182
S31502082AA8C2F20F2109684160704770B568B30D46CE
S31502082AB8D9B30446FDF7E7FD42F6145EC2F20F2EB5
S31502082AC8DEF8003029684A1C16D042F6C05CC2F203
S31502082AD80F2CD4E90002DCF80060864201D0934242
S31502082AE80CD29A1A914209D9881A2860DCF8000089
S31502082AF82060DEF800006060002402E0002001245D
S31502082B082860FDF7EBFD204670BD44F2082044F222
S31502082B18972243F6D763C0F20820C0F20822C0F209
S31502082B28082341F2A551FEF775FC44F2082044F23F
S31502082B38972243F6A173C0F20820C0F20822C0F20F
S31502082B48082341F2A651FEF765FC42F69450C2F2F2
S31502082B580F2001210160704742F6F040C2F20F20A9
S31502082B68006850B142F61050C2F20F2000680028D9
S31502082B784FF0000008BF0220704701207047D4D4DE
S31502082B882DE9F0470A9F8246089C386B984669B130
S31502082B9807F13403002600BF8D5D9D551DB10F2E22
S31502082BA806F10106F8D1002187F84310052C21D22F
S31502082BB800EB8200043820F00706DDF82490381D59
S31502082BC8FC62FEF74DFE07F11800FEF749FEC4F14E
S31502082BD80500396BB8613046524643463F617F6203
S31502082BE8FDF7F8FCB9F1000F386018BFC9F800708C
S31502082BF8BDE8F08744F2082043F6627243F6E163B9
S31502082C08C0F20820C0F20822C0F2082340F2647112
S31502082C18FEF700FC42F618544EF60455C2F20F2483
S31502082C28CEF200054FF08056FFF74AFD20680228C3
S31502082C3822BF2E60BFF34F8FBFF36F8FFDF7A8FD34
S31502082C48F2E780B586B000F03BF842F6EC50C2F2DD
S31502082C580F20006820B30020CDE9040005A804A9BE
S31502082C6803AAFDF73CFCDDE903200321DDF814C0BD
S31502082C78CDE9001042F6455044F27031C0F20820F8
S31502082C88C0F208210023CDF808C0FFF72FFA42F64A
S31502082C98F051C2F20F21086010B1012006B080BDBA
S31502082CA843F6B14044F2C93243F6AF73C0F208207C
S31502082CB8C0F20822C0F208234FF4A371FEF7AAFB52
S31502082CC870B582B0FDF7DFFC42F6EC56C2F20F2663
S31502082CD8306868BB42F60064C2F20F242046FEF743
S31502082CE8B4FD42F61465C2F20F252846FEF7ADFD75
S31502082CF842F6F450C2F20F20046042F6F850C2F2C5
S31502082D080F2042F6706242F6286305600025C2F271
S31502082D180F22C2F20F230A200C210095FEF731FE74
S31502082D28306028B143F6EE41C0F20821FFF788F968
S31502082D3802B0BDE87040FDF7D1BCD4D484B042F6DF
S31502082D48F45842F6EC55C2F20F2801ACC2F20F2526
S31502082D584FF0000BEA4600BFD8F80000D0F80090FA
S31502082D68B9F1000F02D0C068066800E00026FFF72E
S31502082D78DAFA204600F0AAF8019919B1FFF72EFBEC
S31502082D882EE000BF0746B9F1000F08D0BE4206D8A2
S31502082D98FFF724FB3046394600F0C3F820E0B9F1BC
S31502082DA8000F01D0002208E042F6F850C2F20F20BE
S31502082DB800680068B0FA80F042092868F11BFFF734
S31502082DC872F9FFF70BFB58B94EF60450CEF200001B
S31502082DD84FF080510160BFF34F8FBFF36F8F00BF6B
S31502082DE82868CDE902BBCDF804B000BF2146002207
S31502082DF8FEF786FF0028AFD0019800284CD4039E18
S31502082E08706910B1301DFEF74CFD504600F05EF8A9
S31502082E180199013908293FD80746DFE801F005056F
S31502082E282C1C3F05052C1C0096F82400029BB16948
S31502082E3840F0010086F82400194430463A4600F064
S31502082E48A8F848B396F8240041071BD400F0FA00FC
S31502082E5886F824001DE096F8240040F0010102983D
S31502082E6886F82410B06108B3C11930463A463B467B
S31502082E7800F08FF810E096F8240000F0FE0086F8B5
S31502082E88240009E00298B1693A460144304600F03E
S31502082E9869F8316A304688472868A7E796F8240009
S31502082EA88107EAD43046FEF72FFCF5E743F6B14028
S31502082EB844F2423244F25C43C0F20820C0F20822C5
S31502082EC8C0F208234FF48261FEF7A4FAF0B581B07E
S31502082ED80446FFF7F3FC42F6FC56C2F20F2631689F
S31502082EE8054688420ED242F6F457C2F20F2700BFA9
S31502082EF83868016841B1C0684FF0FF31006800F0D0
S31502082F0810F8F5E7002007E042F6F851C2F20F2159
S31502082F180A68086001203A6020602846356001B0D0
S31502082F28F0BD70B542F6F452C2F20F22126806468E
S31502082F38D2680D46D468201DFEF7B3FC94F824001F
S31502082F48410704D400F0FA0084F8240004E0204675
S31502082F5831462A4600F006F8216A2046BDE870403E
S31502082F680847D4D470B50546806914460E46014406
S31502082F78284600BF334600F00CF848B1A869296A02
S31502082F88064428468847A869224681192846F1E749
S31502082F9870BD8C46014641F804CF9445006108D9AC
S31502082FA842F6F4509A42C2F20F200AD29C4508D336
S31502082FB80DE08069D21A824209D242F6F850C2F264
S31502082FC80F2080B50068FEF74FFC002080BD01205F
S31502082FD87047D4D4D4D4D4D42DE9F04381B052EC72
S31502082FE8101B002558EC113BC8F210054FF0010CCE
S31502082FF822F000474E1E28F0004007EB050474EB42
S315020830080506C0F08F804619B3EB0C04AE41C0F032
S315020830188980CE1A964677EB000018463CBF0846C2
S31502083028194643463CBF1346C6467446CEF30A5C5F
S315020830386FF31F54C3F30A55BCF1000F1CD1B1FA3A
S3150208304881F7002C07F1200718BFB4FA84F7A7F10D
S315020830580B09B7F12B0604FA09FCC7F12B0421FA66
S3150208306804F444EA0C04C7F10C0C58BF01FA06F436
S3150208307801FA09F158BF00216FF31F53D5B9B0FAFF
S3150208308880F5002B05F1200518BFB3FA83F5C5F1BB
S315020830982B07A5F10B0620FA07F7B3403B43B5F110
S315020830A82B07C5F10C0558BF00FA07F300FA06F014
S315020830B858BF002088EA0206DA0042EA5072E3009C
S315020830C842F4000243EA5173C000AC453FD0ACEB68
S315020830D805043F2C39D8C4F14005C5F1200702FA80
S315020830E805F800FA05F520FA07F747EA0807D4F1BA
S315020830F8200858BF00FA08F758BF0025E0403D43A4
S3150208310802FA08F740EA070018BF0125B4F12007B2
S3150208311858BF22FA07F022FA04F240EA050058BF15
S31502083128002214E000244E1EC7F6F07477EB040654
S3150208313802D342F400206EE05E1E70EB040628D322
S3150208314848F4002040EC113BE3E00022012043F456
S3150208315800030EF00044C900B6F1FF3F0DDD091859
S315020831685A41D3014ED55FEA52024FEA310100F0BD
S3150208317801000CF1010C014344E081EA000783EAE5
S315020831880206091A63EB02023743DFB99FED6A1B87
S31502083198BFE087EA04060E4340F0918083EA0100FD
S315020831A8BCF101039FED660B80EA030065F58013FF
S315020831B888EA02077B4056EC105B18431CBF164682
S315020831C80D46A4E00020B0EBD25F1BD1B1FA81F01C
S315020831D8002A00F1200018BFB2FA82F0A0F108030B
S315020831E8C0F12807ACEB030C9A40283821FA07F7EE
S315020831F842EA070258BF01FA00F201FA03F158BF78
S3150208320800210BE040F2FF70844507DB44F0E040FA
S31502083218002140F07F6040EC111B7AE0BCF1000FF8
S315020832282BDC6FF01E070CF13F00A7EB0C0702FA1E
S3150208323800F301FA00F021FA07F633431CF11F06D8
S3150208324858BF01FA06F358BF00201843CCF1010308
S31502083258C3F1200618BF0120D940002F02FA06F644
S3150208326841EA060158BF22FA07F122FA03F241EAAD
S3150208327800014FF0000C58BF0022C80840EA427500
S31502083288C2F3D30001F0070740EA0C5040EA0406E5
S3150208329800F064F802282BD0012820D098BB681CB5
S315020832A846F10001042F9CBF2846314638D105F05D
S315020832B801002D1846F1000600F05CF827E080EABE
S315020832C804061E4325D051EA07062CD0B0EE401A4A
S315020832D853EA0006F0EE601A7FF49BAE19E0384608
S315020832E8002F18BF0120002C18BF0124204007E030
S315020832F8B4FA84F13846002F18BF01204909084054
S315020833082D1846F10006002F18BF00F033F846ECD0
S31502083318115BB0EE410AF0EE610A01B0BDE8F0832E
S3150208332805460E46EFE71843F3D103EA010008EA11
S31502083338020141EC110BECE7000000000000000056
S31502083348000000000000F87F80B541EC100B43EC42
S31502083358112BFFF741FE51EC100B80BD0448F1EE24
S31502083368101AC1F38151784450F82100704700BFFA
S315020833785A120000F1EE100A40F01000E1EE100AA7
S3150208338800207047D4D4D4D42DE9F04F85B051EC37
S3150208339811AB4FF6020754EC10BBCFF6FF7781EA5A
S315020833A804000E46A64600F0004CC4F30A506FF312
S315020833B81F56A0F2FF726FF31F5EC1F30A53BA4291
S315020833C821BFA3F2FF724FF60107CFF6FF77BA427B
S315020833D80FD8002524F00047C7F6F075BBF101029D
S315020833E877EB0502C0F0938044F4002040EC10BB4A
S315020833F881E102A981E809100020019046F4801C9F
S315020834084FEA5A514FF23332002341EACC21C7F226
S315020834180452521ACDF800A0A1FB02567542A5FB22
S315020834280225D20F42EA4502A2FB01567542A2FBC1
S315020834380525D20F42EA4502A2FB01567542002625
S31502083448A2FB0525D20F42EA45024FEACA25013AE6
S31502083458A5FB02570025E1FB0275D7F1010166EBC8
S315020834680505A2FB0557A1FB02127F0047EAD57795
S31502083478C90F41EA420111EB450147EBD2724EF4F4
S315020834888017E13962F100024FEA4B0E780040EAEA
S31502083498DB79A2FB0E04E2FB0943A1FB09256419A1
S315020834A8A1FB0E1543F10003A91846F100024018BC
S315020834B8DDE90210624143F10008081A0199B6EBE0
S315020834C8585F01EB000404F2FF312CD1B8F5801FCE
S315020834D838BF012602FA06F04FEA5202A0FB0A533F
S315020834E800FB0C3786F01F03039538BF04F2FE313A
S315020834F808FA06F5DA4045EA0203039C013903FB92
S315020835080A724FEA4B57664267EB02081CE021F03B
S315020835180044BAF1010274EB05022ED341F40020E5
S3150208352840EC10ABE7E05FEA58034FEA3200A0FB2B
S315020835380A264FEA0B54DE46B94600FB0C6603FB1D
S315020835480A65564264EB050840F2FF72914205DBAA
S31502083558049840F0E04040F07F607FE0012922DBD2
S315020835684FEA48026FF31F5342EAD67443EA0152F6
S315020835787100049DDDF800A0AAE087EA050151EA70
S315020835880B0107D184EA050050EA0A0064D19FEDC7
S31502083598640BB0E084EA050151EA0A010BD100205E
S315020835A84CEC100BA7E011F1350F5BDC04990020EF
S315020835B841EC100B9FE05BEA070100F09F805AEA8C
S315020835C8040149D04FF000090025B9EB175F1ED14F
S315020835D8BBFA8BF2BEF1000F02F1200218BFBEFA3F
S315020835E88EF2C2F12B05A2F10B072BFA05F50EFA94
S315020835F807F145EA010EB2F12B0558BF0BFA05FE8B
S31502083608C2F10C050BFA07FB58BF4FF0000B02A9CB
S31502083618B9EB145F81E809107ED1BAFA8AF1002E4D
S3150208362801F1200118BFB6FA86F1A1F10B0206FAD2
S3150208363802F7C1F12B062AFA06F63E43B1F12B0721
S31502083648294458BF0AFA07F6A1F10C000AFA02FA3F
S3150208365858BF4FF0000AD0E64CEA0500002140ECB4
S31502083668101B48E0C1F101026FF01304C2F12007EA
S31502083678641AD04023FA02F203FA07F738436FF0BE
S315020836881E072EFA04F47F1A58BF23FA07F0DDF844
S3150208369800A058BF0022AAFB00760AFB026301F1C2
S315020836A83406143109FA06F50CFB003345EA040513
S315020836B858BF0EFA01F50EFA06F158BF0021B1EB0A
S315020836C847014FEA430343EAD77365EB0304049DAC
S315020836D8431C00F0010642F10007891944F1000665
S315020836E8BAEB01017CEB060124BF0346174647EAF3
S315020836F8050040EC103B05B0BDE8F08F9FED080BBE
S315020837085AEA04014FF0000051EC102B1CBF61461F
S31502083718024641EC102BEEE701956FE600BF00BFA3
S31502083728000000000000F87F80B541EC100B43EC5E
S31502083738112BFFF729FE51EC100B80BDC1F30A5273
S3150208374840F2FF339A423CBF00207047A2F21F4359
S3150208375813F1210F9EBF6FF0004080EAE1707047AF
S3150208376880B540F233434FF0010C9B1A8E466CF330
S315020837781F5ED840C3F120030EFA03F3184340F23A
S3150208378813439A1A58BF2EFA02F0B1F1FF3FD8BF6F
S31502083798404280BDD4D4D4D4E8B1B0FA80F181F0DD
S315020837A81F02D2F1140CC2F13402C2F1200320FA24
S315020837B803F358BF00FA0CF383F4801C40F21E4345
S315020837C8A3EB010100FA02F00CEB015158BF0020E5
S315020837D841EC100B01E09FED020B51EC100B704700
S315020837E800000000000000002DE9F04F81B055ECFA
S315020837F8101B4FF6020356EC110BCFF6FF7386EA37
S3150208380805022C4602F0004C3246C5F30A596FF3F4
S315020838181F52A9F2FF776FF31F54C6F30A5E9F4237
S3150208382821BFAEF2FF734FF60107CFF6FF77BB4209
S315020838380CD840F2000825F00047C7F6F0784B1E68
S3150208384877EB080335D345F4002057E04FF0000A12
S3150208385844F48014C302D20242EA5050A3FB045726
S3150208386840F0004000264FF00048E0FB0476A3FB30
S315020838780123A0FB01103F1846F100065B1948F11F
S315020838880045581809EB0E03534457EB050146F150
S315020838980005A3F2FF33EF0216D4470047EAD274AB
S315020838A86F0047EAD1754900520041EAD0712046AD
S315020838B80BE026F00045431E75EB080315D346F4BC
S315020838C8002141EC100B1BE0013340F2FF77BB42A3
S315020838D804DB4CF0E04040F07F600EE0002B1CDD74
S315020838E86FF31F5545EA035368E087EA08030B4353
S315020838F809D128430ED04CEA0800002140EC101BD7
S3150208390801B0BDE8F08F85EA080303436AD151EA94
S315020839180700F0D19FED5A0BF2E7C3F101063F2ED5
S3150208392866D803F13F046FF01E07A7EB030922FACC
S3150208393806FB05FA04FE21FA09F747EA0E0A13F105
S315020839481F0EC6F1200358BF01FA0EFA009300FAB1
S3150208395803F722FA09F347EA0B0700FA04FB43EAD4
S315020839680B0358BF02FA0EF302FA04F258BF0022F2
S3150208397842EA030201FA04F358BF0023002A18BFD1
S315020839880122B6F1200458BF20FA04F743EA0703CE
S3150208399842EA0302009B21FA06F120FA06F005FA22
S315020839A803F341EA030158BF25FA04F158BF002078
S315020839B825FA06F340EA0A0058BF002343EA0C032D
S315020839C8574278EB000701D2013106E080EA08007F
S315020839D8104304D101F00100091843F1000343EC2E
S315020839E8101B8DE751EA070318BF50EA050303D1EE
S315020839F800204CEC100B83E74FF000084FF0000A42
S31502083A08B8EB175F1AD1B1FA81F3002C03F1200338
S31502083A1818BFB4FA84F3A3F10B06C3F12B07C3F153
S31502083A280C0AB44021FA07F73C43B3F12B0758BFEF
S31502083A3801FA07F401FA06F158BF0021B8EB155F37
S31502083A487FF406AFB0FA80F3002A03F1200318BF01
S31502083A58B2FA82F3C3F12B07A3F10B0520FA07F78B
S31502083A68AA403A43B3F12B07AAEB030358BF00FA55
S31502083A7807F203F10C0A00FA05F058BF0020E7E638
S31502083A88000000000000F87F80B541EC100B43ECFB
S31502083A98112BFFF7A9FE51EC100B80BD0A4600212F
S31502083AA800F009B810B500239A4203D0CC5CC45476
S31502083AB80133F9E710BD00239A4208BF7047C1547B
S31502083AC80133F9E710B505490446054AFFF7EAFF3F
S31502083AD8044805492044FFF7E1FF10BDB80008026B
S31502083AE80000000000000000000000000249401A19
S31502083AF802490860704700BF08000000E82E0F2236
S31502083B0870B554EC105B40F21241C4F30A50A0F2A5
S31502083B18FF3688420AD8214940F2FE32904217D81F
S31502083B2804F00040721C08BF08441EE040F2334104
S31502083B3888421CD3284621462A462346FFF704FC10
S31502083B48B6F5806F1CBF2146284641EC100B70BD9E
S31502083B581348F040204028431ED001F140404FF454
S31502083B680021F140304121440840002112E0A0F228
S31502083B7813414FF0FF3222FA01F129420CD040F2E2
S31502083B883242101A012202FA00F0401920EA01010B
S31502083B9844F1000040EC101B70BD00BF0000F03F66
S31502083BA8FFFF0F007578437269746963616C4E6525
S31502083BB87374696E670076517565756541646454F0
S31502083BC86F5265676973747279002E2E2F72612F88
S31502083BD86673702F7372632F726D5F66726565728C
S31502083BE8746F735F706F72742F706F72742E6300BE
S31502083BF876506F7274456E74657243726974696336
S31502083C08616C002820282028202820707844656CB2
S31502083C18617965645461736B4C69737420292D3E06
S31502083C2875784E756D6265724F664974656D73204F
S31502083C383D3D2028205542617365547970655F7445
S31502083C48202920302029203F202820282042617355
S31502083C5865547970655F74202920312029203A2015
S31502083C682820282042617365547970655F74202973
S31502083C78203020292029202900765461736B53772E
S31502083C8869746368436F6E746578740070757853DF
S31502083C987461636B42756666657220213D20282821
S31502083CA8766F69642A293029002E2E2F72612F61B0
S31502083CB877732F4672656552544F532F4672656558
S31502083CC852544F532F536F757263652F74696D6516
S31502083CD872732E630075635356434E756D62657229
S31502083CE8203C3D203300546D725100785175657534
S31502083CF86547656E6572696353656E640021282097
S31502083D082820785461736B476574536368656475CC
S31502083D186C657253746174652829203D3D202820F4
S31502083D28282042617365547970655F7420292030AA
S31502083D3820292029202626202820785469636B738F
S31502083D48546F5761697420213D20302029202900A3
S31502083D582820282075696E74385F74202A2029203D
S31502083D68282070784C696E6B2029203E3D2026282B
S31502083D78207563486561705B2030205D20292029FB
S31502083D88202626202820282075696E74385F742014
S31502083D982A202920282070784C696E6B2029203C15
S31502083DA83D202628207563486561705B20283332D2
S31502083DB837363829202D2031205D20292029007000
S31502083DC87276496E73657274426C6F636B496E7468
S31502083DD86F467265654C69737400282028207569D0
S31502083DE86E74385F74202A2029202820707849742E
S31502083DF8657261746F722029203E3D202628207537
S31502083E0863486561705B2030205D202920292026B9
S31502083E1826202820282075696E74385F74202A207F
S31502083E282920282070784974657261746F7220296E
S31502083E38203C3D202628207563486561705B20284A
S31502083E48333237363829202D2031205D202920297A
S31502083E58002820707851756575652029007078558F
S31502083E686E626C6F636B6564544342007078537470
S31502083E78617469635175657565007848616E646C25
S31502083E886500212820282078436F7079506F736956
S31502083E9874696F6E203D3D2028202820426173658B
S31502083EA8547970655F742029203220292029202612
S31502083EB826202820707851756575652D3E75784CCB
S31502083EC8656E67746820213D2031202920290070F3
S31502083ED87854696D654F75740075785072696F7292
S31502083EE8697479203C202835290070727644656CF5
S31502083EF865746554434200785461736B52657375E9
S31502083F086D65416C6C00765461736B506C616365C0
S31502083F184F6E4576656E744C69737452657374721E
S31502083F28696374656400785461736B52656D6F765C
S31502083F386546726F6D4576656E744C697374007062
S31502083F48785461736B42756666657220213D20282E
S31502083F5828766F69642A29302900707276496E694B
S31502083F687469616C6973654E65775461736B002E63
S31502083F782E2F7372632F68617264776172652F6375
S31502083F88616E6664302E63006572723D3D46535013
S31502083F985F535543434553530070785469636B73AB
S31502083FA8546F57616974007852657475726E002881
S31502083FB828285343425F54797065202A29202828DD
S31502083FC830784530303045303030554C29202B2052
S31502083FD8307830443030554C2920292D3E494353F0
S31502083FE852202620283078314646554C2029292041
S31502083FF83D3D2030007853697A65203D3D20736936
S315020840087A656F66282051756575655F742029007B
S3150208401878517565756553656D6170686F72655413
S31502084028616B650078517565756547656E65726970
S3150208403863437265617465537461746963004341C5
S315020840484E4644305F496E6974006572723D3D207A
S315020840584653505F535543434553530076506F7240
S315020840687453564348616E646C65725F43002E2E1C
S315020840782F72612F6177732F4672656552544F53B3
S315020840882F4672656552544F532F536F757263657F
S315020840982F706F727461626C652F4D656D4D616E16
S315020840A8672F686561705F342E6300707845766598
S315020840B86E744C6973740072756E007852657475FD
S315020840C8726E20213D2028202D31202900282028FB
S315020840D820282070784C696E6B2D3E78426C6F6387
S315020840E86B53697A6520292026202820282028202B
S315020840F873697A655F74202920312029203C3C207F
S315020841082820282073697A656F66282073697A6574
S315020841185F742029202A202820282073697A655F57
S31502084128742029203820292029202D2031202920C9
S3150208413829202920213D2030202920213D20300010
S31502084148785175657565437265617465436F756EF1
S3150208415874696E6753656D6170686F7265537461C9
S31502084168746963007851756575655265636569761C
S315020841786500785461736B496E6372656D656E7412
S315020841885469636B002E2E2F72612F6177732F463F
S3150208419872656552544F532F4672656552544F538A
S315020841A82F536F757263652F71756575652E630072
S315020841B876506F72744672656500707276437265D8
S315020841C86174655374617469635461736B007078BA
S315020841D85443422D3E7563537461746963616C6C0A
S315020841E879416C6C6F6361746564203D3D202820B3
S315020841F8282075696E74385F7420292032202900B0
S315020842082E2E2F72612F6177732F46726565525467
S315020842184F532F4672656552544F532F536F757213
S3150208422863652F7461736B732E630070784E6577B6
S315020842385175657565002128202820282070764240
S3150208424875666665722029203D3D202828766F699D
S31502084258642A293029202920262620282028207061
S3150208426878517565756520292D3E75784974656D89
S3150208427853697A6520213D20282055426173655481
S315020842887970655F742029203055202920290078FD
S315020842985461736B436865636B466F7254696D65DF
S315020842A84F7574007078517565756500785265742E
S315020842B875726E20213D2028202820282042617305
S315020842C865547970655F74202920302029202900D1
S315020842D8765461736B506C6163654F6E4576656E8D
S315020842E8744C6973740078517565756500765461FE
S315020842F8736B53746172745363686564756C65721B
S315020843080075785363686564756C6572537573705E
S31502084318656E64656420213D2030550043414E464A
S3150208432844305F4F7065726174696F6E5F3400431B
S31502084338616E5F5468726561640070727650726F56
S31502084348636573735265636569766564436F6D6DF4
S31502084358616E64730078517565756547656E657231
S315020843686963526573657400546D722053766300E7
S3150208437876506F72744578697443726974696361B1
S315020843886C0070784C696E6B2D3E70784E65787441
S3150208439846726565426C6F636B203D3D2028287618
S315020843A86F69642A29302900707851756575652DF3
S315020843B83E75784974656D53697A65203D3D2030A6
S315020843C8007854696D657243726561746554696DDE
S315020843D865725461736B007578546F705072696FA1
S315020843E87269747900212820282070764974656DC7
S315020843F8546F5175657565203D3D202828766F6985
S31502084408642A29302920292026262028207078512E
S31502084418756575652D3E75784974656D53697A654E
S3150208442820213D2028205542617365547970655FBD
S3150208443874202920305520292029007853697A655D
S31502084448203D3D2073697A656F6628205443425F8A
S31502084458742029002820707854696D65722D3E7873
S3150208446854696D6572506572696F64496E546963F9
S315020844786B73203E2030202900D4D4D40000008053
S3150208448800F0FF5F04800000010000000000000041
S315020844980000000000000000000000000000000004
S315020844A800000000000000000000000000000000F4
S315020844B800000000000000000000000000000000E4
S315020844C800000000000000000000000000000000D4
S315020844D800000000000000000000000000000000C4
S315020844E800000000000000000000000000000000B4
S315020844F800000000000000000000000000000000A4
S315020845080000000000000000000000000000000093
S315020845180000000000000000000000000000000083
S315020845280000000000000000000000000000000073
S315020845380000000000000000000000000000000063
S315020845480000000000000000000000000000000053
S315020845580000000000000000000000000000000043
S315020845680000000000000000000000000000000033
S315020845780000000000000000000000000000000023
S315020845880000000000A00E22F10008020000000048
S3150208459840A00E220A0002010000011002040000CF
S315020845A8000001100407000002000000A0450802E6
S315020845B8000000002D032C032E0323032203020402
S315020845C803040404000000000200000001000000C1
S315020845D8030000000001020304050607080C10146C
S315020845E8182030400000006C0000006C00000088AB
S315020845F800000088000000740000007460A00E2203
S3150208460860A00E220B0000002446080219000000CA
S31502084618A846080204000000EC4508020000006CDF
S315020846280000006C0001000D0000006C0000006C20
S315020846380001000D0000008800000088000100083B
S3150208464800000088000000880001000800000074C5
S31502084658000000740001000A0000007400000074DB
S315020846680001000A00000000000000000000000621
S3150208467800000020000000200000000760A00E22AB
S3150208468860A00E22000000038CA40E22EC2E0F2234
S3150208469800000003EC2E0F22EC2E0F220000000366
S315020846A80000006C0000006C000000980001090D6B
S315020846B80000006C0000006C0000007C00010B0D75
S315020846C80000006C0000006C000000270001020DC3
S315020846D80000006C0000006C540008020001010D7D
S315020846E800000088000000880000009800010908F8
S315020846F800000088000000880000007C00010B0802
S31502084708000000880000008800000027000102084F
S315020847180000008800000088540008020001010809
S315020847280000007400000074000000980001090ADD
S3150208473800000074000000740000007C00010B0AE7
S315020847480000007400000074000000270001020A35
S315020847580000007400000074540008020001010AEF
S315020847680000000000000000000000980001090689
S3150208477800000000000000000000007C00010B0693
S3150208478800000000000000000000002700000206E2
S31502084798000000000000000054000802000001069C
S315020847A80000002000000020000000980001090708
S315020847B800000020000000200000007C00010B0712
S315020847C80000002000000020000000270000020761
S315020847D8000000200000002054000802000001071B
S315020847E800A00E2200A00E2200000098000109036C
S315020847F800A00E2200A00E220000007C00010B0376
S3150208480800A00E2200A00E220000002700000203C4
S3150208481800A00E2260A00E2258000802000001031A
S31502084828EC2E0F22EC2E0F22B80008020000010314
S3150208483801000200080010002000D4D40400000079
S3150208484800000506362E352E30004275696C74202E
S31502084858776974682052656E657361732041647658
S31502084868616E63656420466C657869626C65205377
S315020848786F667477617265205061636B616765203C
S3130208488876657273696F6E20362E352E3000F5
S705020815EDEE
