S0130000766973696F6E5F435055302E7372656302
S3150200000020400022E1480002E9460002EB480002D5
S31502000010EB480002EB480002EB480002EB48000204
S31502000020000000000000000000000000711F000236
S31502000030EB48000200000000891F0002F11F0002C7
S315020000404B350002D9360002F9370002E1380002C8
S31502000050773D00027929000293280002FF29000257
S30D02000060512A0002712300027D
S3150200006848440922000000000000000000000022A7
S315020000780000000000000000000000001040000020
S31502000090B0B5054614469FED090A4FF4D8324FF023
S315020000A0FF330846294600F0A7F84FF4D832204617
S315020000B02946BDE8B04006F0B5BB00BF8180003CD2
S315020000C02DE9F04F9BB048F2340E0DF1580CC0F2F8
S315020000D0002E67469EE8700387E8700348F24808D8
S315020000E00DF1440EC0F20028F2460DF1300998E8EF
S315020000F0F00848F25C08C0F200288AE8F0084D468B
S3150200010098E8D00C85E8D00C06469A4693464FF4FA
S315020001105872052308463146DDF89080CDF800C0B6
S31502000120CDE901E900F094F89FED120A4FF45872F6
S315020001300023304641464FF0000900F075F848F2B8
S31502000140800008AAC0F20020114604AB90E8F00035
S3150200015048F27000C0F20020F0C1194690E8F000A3
S31502000160F0C158465146CDE9009900F0A9F81BB0F6
S31502000170BDE8F08F6F0E003F2DE9F04792B048F2CE
S31502000180900E0DF1340CC0F2002E634648F2A4091B
S315020001909EE8F001C0F200290DF1200E83E8F0017D
S315020001A0F2460DF10C0899E8F80048F2B809C0F2D7
S315020001B000298AE8F800444699E8E80484E8E80455
S315020001C0054614464FF45862052308462946CDF8DB
S315020001D000C0CDE901E800F03BF89FED060A4FF4B6
S315020001E0586200232846214600F01EF812B0BDE8E8
S315020001F0F08700BF2EB8953E9AB100BF00BF00BF80
S31502000200B0EC011A81EE001AB8FE411ABDEEC11A0F
S31502000210013A11EE10CA9C440CF3070C01F801CB0B
S31502000220EED17047D4D4D4D480B542F00FC000BF0B
S3150200023010F9012BD21A01EE102AB8EEC11A20EEDD
S31502000240011AA1EC011A0FF00DC880BDD4D4D4D482
S31502000250012AB8BF70472DE9F04F9A46DDE90998A1
S315020002604FF0000B00BF00BFBAF1010F1CDB4AF0D2
S3150200027001E0002647464C460B9B00BF00BF00BF6D
S3150200028057F8045B9BFBF5FC0CFB15BC53F8045BAF
S315020002909CFBF5FC54F8045B0CFB05660FF011C0E1
S315020002A003E000BF00BF00BF0026835D01F80B30EC
S315020002B00BF1010B9345D7D1BDE8F04F7047D4D46B
S315020002C02DE9F04F8DB01E680296012E089053DB81
S315020002D09768D0680790784352680590504306970E
S315020002E00190D86804900C461799169E5D68D3F85B
S315020002F008A00023DDF81880049F09920A9500BF22
S31502000300012D03932FDB0020009109992A463346DB
S315020003100B90B34600F034F8BAF1010F1CDB059AD4
S31502000320089900FB02104FF000095546079E0C90F3
S31502000330179800904846414652465B4600F020F820
S315020003400C9900FB061120463A4606F06BFA013D6F
S315020003503C4409F10109EBD10B980A9D013017992A
S31502000360A8425E46D0D1039B02980133019A83428A
S31502000370089810440890C3D10DB0BDE8F08FD4D4CC
S3150200038080B5DDF808C06BB1022A0BDBA1F1010EC4
S3150200039000EE10EA013A01EE102AB8EEC00AB8EEF3
S315020003A0411A07E000EE101A01EE102AB8EEC00A52
S315020003B0B8EEC11ABCF1000F03EE100A80EE010A74
S315020003C09FED112AB6EE001AB8EEC33A02FE011AE2
S315020003D031EE031A21EE000A23B1B8FE400ABDEE41
S315020003E0C00A05E0B7EEC00ABBFE400BBDEEC00B6D
S315020003F010EE100A0139884250EAB180BCF1000FB2
S3150200040018BF20EAE07080BD0000000044F25000F0
S31502000410C2F20020704740F25000C2F20720704735
S3150200042043F25060C2F2072070472DE9F04782B0CE
S31502000430044649F2F050C0F2062040F20001C6F628
S31502000440000149F2FC530068C0F206230A1849F279
S31502000450F450C0F206204CF20006C6F60606006804
S3150200046001EB000A18680F1849F2F850C0F206208C
S3150200047044F68873C0F2072300680D1844F2D030A0
S3150200048044F250011B68C2F20720C2F2002106EBB9
S315020004900308FFF7FDFD204600F03AF84FF23C79DB
S315020004A043F250614FF2D530C2F20829C2F2072157
S315020004B0C2F20820009139462A464B46FFF700FE53
S315020004C044F684704FF45862C0F207205146006821
S315020004D0304406F0A7F944F680704FF45852C0F241
S315020004E0072049460068304406F09CF9204600F091
S315020004F08FF842F63C5040F25002C2F20920C2F294
S315020005000722414602B0BDE8F047FFF735BED4D414
S31502000510B0B598B04AF6840240F20004C0F2002256
S315020005204AF690010025C6F600040028C0F2002112
S315020005300B950A9111680391CDE90C454FF4D82128
S315020005404FF4D8300690CDE90E45CDE90411CDE938
S3150200055010450AD004F510504FF4586106F05EF9C2
S315020005604FF48751204606F059F904F51050CDE9AB
S3150200057012054FF458604FF4585ECDE91445CDE9A3
S31502000580070004F55860CDE916054FF45870099036
S3150200059048F2CC00BFF34F8FC0F200204EF65C75D6
S315020005A0CEF20005026800BFEC6020340FF005C0F1
S315020005B0BFF34F8FBFF36F8F072003A9CDE900105A
S315020005C044F2484048F2D001C2F20920C0F20021AA
S315020005D00AAB0024029401F0B4FCBFF34F8F4FF430
S315020005E0585E40F20001C6F6000100BF00BF00BF20
S315020005F0296020310FF005C0BFF34F8FBFF36F8F15
S3150200060001305FEA1FA018B0B0BDD4D4D4D4D4D47C
S31502000610B0B596B049F634224CF20004C0F2062276
S3150200062049F64021C6F60604C0F206210A9111686F
S31502000630049104F5AB4110912FA100250B950F955E
S31502000640CDE90C4591ED001F0E9411951395129468
S315020006508DED051F28B104F558604FF4586106F078
S31502000660DDF804F55860CDE914054FF45860099099
S3150200067049F2006040F25C4EBFF34F8FC0F2062093
S315020006804EF65C75CEF20005026800BF00BF00BFE1
S31502000690EC6020340FF005C0BFF34F8FBFF36F8FAE
S315020006A0062004A9CDE9001044F2484049F210613F
S315020006B0C2F20920C0F206210AAB0024029401F01C
S315020006C040FCBFF34F8F40F25C4E4CF20001C6F67F
S315020006D0060100BF00BF00BF296020310FF005C030
S315020006E0BFF34F8FBFF36F8F01305FEA1FA016B0C3
S315020006F0B0BD00BF00BF00BF808B0000808B000032
S3150200070000360000800D000080B545F6F851C0F2B3
S31502000710072107C91268904700285FEA1F910E2831
S315020007205FEA1F90084343F6C121C2F2092108700D
S3150200073080BDD4D4D4D4D4D42DE9F04F81B02DEDDC
S31502000740048B86B0814600284FF000001CBF0F467E
S31502000750002905D106B0BDEC048B01B0BDE8F08FCF
S315020007601D46002BF6D043F6C1241646C2F20924D2
S31502000770DDF85080207800284FF00000286013D161
S3150200078045F6F851C0F2072107C9126890470E28AC
S315020007905FEA1F9100285FEA1F9241EA0201217077
S315020007A018BF0E2840F09C81CDE9027600240495FC
S315020007B0FFF72CFE4AF6AB2B9FEDCE0A4FF0FC0A52
S315020007C0C4EB0413C0211B0141F001E09BB2A44615
S315020007D003FB0BF30025DB0D03EB83039E010346AC
S315020007E0C5EB051401352401A4B204FB0BF406EB98
S315020007F0D454283409EB440819F8144098F8012017
S3150200080002F0F80141EA521101EE101A44EA0227F7
S31502000810B8EE411A0AEAD701C2F34102114481EE47
S31502000820001A02EE101AC4F3820141EAC40103F56A
S31502000830902703F51032C9B2A3EC011A01EE101A81
S31502000840B8EE422AB8EE411A82EE002A82ED002A5A
S3150200085081EE001A87ED001A0FF03FC00CF1010479
S3150200086000F54070C02CABD10120FFF7DEFD4FF042
S315020008700009CDF81490FFF7CEFD45F6542205AFD8
S31502000880C0F20722B3EE000A0C213B4600F03CF907
S31502000890FFF7C6FD45F66C229FED970AC0F20722C6
S315020008A006213B4600F030F9DDF814A0BAF1000F3C
S315020008B000F0AC8043F6C42C43F6A448C2F2092CDD
S315020008C04FF0000BC2F209280CF10C0E9FED8B0AB9
S315020008D09FED8B1A4FF00009B9F1000F00F08180ED
S315020008E00BEB4B074E4608EBC70577466C6900BF14
S315020008F0BA68944271D117ED032A95ED003AB4EE27
S31502000900423A17ED024AF1EE10FA95ED015A17ED49
S31502000910017AB4EE445AD5ED020A33FE026AD7EDE5
S31502000920002AF1EE10FAB4EE607AD5ED033A30EE13
S31502000930C33A75FE041AF1EE10FAF4EE632A33EEA8
S31502000940C55A70FE874AF1EE10FA34EEC66A37EEE1
S31502000950422A73FEA24A74EEE11AB5EE406AF1EE3D
S3150200096010FAF5EE401A48BFB0EE406AF1EE10FA00
S31502000970B5EE403A48BFF0EE401AF1EE10FAB5EE87
S31502000980405A32EEC44A48BFB0EE403AF1EE10FA8F
S31502000990B5EE402A48BFB0EE405AF1EE10FAB5EE77
S315020009A0404A48BFB0EE402AF1EE10FA48BFB0EE18
S315020009B0404A22EE044A03EE054A26EE212A34EE86
S315020009C0423AB5EE403AF1EE10FA06DD82EE032A1D
S315020009D0B4EE412AF1EE10FA10DC013E07F11807D7
S315020009E086D10BEB4B0409EB490209F1010908EB2D
S315020009F0C4040CEBC20294E8EB00EBC20BF1010B50
S31502000A00D34538BFB9F1100FFFF466AF0398149DB2
S31502000A10814559EA3089B9F1000F5CD0029843F654
S31502000A20C42443F6444845F2D20A00F10807C2F24A
S31502000A300924B7EE048A9FED339AC2F20928C0F25E
S31502000A40072A4E4600BF00BF94ED000A94ED022A23
S31502000A50B0EE491A6369A0EE081A94ED010AB0EEE7
S31502000A60493AA2EE083A94ED032A20EE080A47F81C
S31502000A70083C22EE082ABDEEC11ABDEEC33ABDEE0F
S31502000A80C00ABDEEC22A11EE100A13EE101A12EEB9
S31502000A90102A084410EE101A114400EBD0704FEAE7
S31502000AA0600047F8040C01EBD1714FEA61023A602B
S31502000AB05DB16021CDE900024046524605F0CEFF07
S31502000AC001385E2801D84046A847013E04F11804C1
S31502000AD007F10C07B8D10498C0F80090012039E656
S31502000AE0B8F1000F04D045F21770C0F20720C047D4
S31502000AF000202FE600007F430000004200000000B5
S31502000B006666E63E000020422DE9F04F81B02DEDEB
S31502000B10088B8EB001FB01F61D46034600F1140751
S31502000B2000F118097001B3EE001A0026BBEE002A86
S31502000B309FED0C3AB7EE004A4FF0020CB0EE005AA7
S31502000B409FED097ABEEE006ADFED080AF6EE001A9C
S31502000B500292F6EE082A0190480105900B91CDE922
S31502000B60097305E00000803D0000000000004043DC
S31502000B7006FB01F003960690029800EBC6000026DB
S31502000B800C90CDF8109000BF069803EE906A3218CA
S31502000B90F8EE633A4A434FF000080896CDF81C90E7
S31502000BA00D9200BF00BF00BF08EB02064FF0000A1D
S31502000BB007EB461403EB4616D4ED004A4C46F4EE18
S31502000BC0414AF1EE10FA71FE244AB4EE642AF1EEBD
S31502000BD010FA72FE244AF5EE404AF1EE645AF1EE3C
S31502000BE010FA48BFF0EE654AF0EE445AD6ED017AA5
S31502000BF044EE835A96ED029A96ED038AD6ED046A7E
S31502000C0065EEA54A64EEA44A64EEA44A64EEA44ADA
S31502000C10C4EE244A74EE844AC4EE244A74EE645A3C
S31502000C2064FEA54AD6ED005A4CF001E0012600BF4B
S31502000C30B4EC01AAB4EE41AAF1EE10FA31FE0AAA08
S31502000C40B4EE4A2AF1EE10FA32FE0AAAB5EE40AA2C
S31502000C50B1EE4ABAF1EE10FA48BFB0EE4BAAB0EEC8
S31502000C6044BA0AEE03BA2BEE0BAA2AEE0AAA2AEE17
S31502000C700AAA2AEE0AAA84EE0AAA3AEE04AA84EE7E
S31502000C800AAA34EE4ABA2AFE0BAAB4EE64AAF1EE16
S31502000C9010FA56EACA8A06F101067AFE244A0FF0CB
S31502000CA039C8F4EE415AF1EE10FA71FE255AB4EE45
S31502000CB0652AF1EE10FA72FE255AF5EE405AB1EEA9
S31502000CC065AAF1EE10FA48BFF0EE4A5AB0EE44AA0F
S31502000CD005EE83AAF4EE417A6AEE0A5A65EEA55A41
S31502000CE065EEA55A65EEA55AC4EE255A75EE845AE6
S31502000CF0C4EE255A34EE65AA65FE8A5AF1EE10FA5A
S31502000D0071FE277AB4EE672AF1EE10FA72FE277A9E
S31502000D10F5EE407AB1EE67AAF1EE10FA48BFF0EEB0
S31502000D204A7AB0EE44AA07EE83AAB4EE419A6AEE74
S31502000D300A7A67EEA77A67EEA77A67EEA77AC4EE13
S31502000D40277A77EE847AC4EE277A34EE67AA67FEAC
S31502000D508A7AF1EE10FA31FE099AB4EE492AF1EED8
S31502000D6010FA32FE099AB5EE409AB1EE49AAF1EEB0
S31502000D7010FA48BFB0EE4A9AB0EE44AA09EE03AAA8
S31502000D80B4EE418A2AEE0A9A29EE099A29EE099ABE
S31502000D9029EE099A84EE099A39EE049A84EE099AA2
S31502000DA034EE49AA29FE0A9AF1EE10FA31FE088AB1
S31502000DB0B4EE482AF1EE10FA32FE088AB5EE408AFF
S31502000DC0B1EE48AAF1EE10FA48BFB0EE4A8AB0EE8A
S31502000DD044AA08EE03AAF4EE416A2AEE0A8A28EE2B
S31502000DE0088A28EE088A28EE088A84EE088A38EEEF
S31502000DF0048A84EE088A34EE48AA28FE0A8AF1EEAC
S31502000E0010FA71FE266AB4EE662AF1EE10FA72FE46
S31502000E10266AF5EE406AB1EE66AAF1EE10FA48BF0E
S31502000E20F0EE4A6AB0EE44AA06EE83AA6AEE0A6AAF
S31502000E3066EEA66A66EEA66A66EEA66AC4EE266A3C
S31502000E4076EE846AC4EE266A34EE66AA66FE8A6A7C
S31502000E5066EEA44AF4EE624AF1EE10FA00F18780D9
S31502000E600C98D5F800B02B46BBF1000F90ED00AA06
S31502000E70D0ED016A1DD00BEB4B0643F6A440C2F23D
S31502000E80092000EBC60600BF16ED02BAB4EE64BA3C
S31502000E90F1EE10FA73D5BBF13F0FA6F1180E04D886
S31502000EA0744694E8A71086E8A710BBF1010B7646B4
S31502000EB0EAD14FF0000BB0EE46BA0BEB4B00A5EEB3
S31502000EC085BA43F6A44105EE908AC2F20921F8EEEC
S31502000ED0655A01EBC00038EE088A7BEE255AC0ED52
S31502000EE0044AB0EE46BAC0F814A0A7EE85BA79EE67
S31502000EF0097A28EE088A67EEA77A3BEE239A60EE15
S31502000F00255A67EE8A7A20EE099A68EE266AB0EECC
S31502000F10658AE7EEA15AA7EE868AF0EE497AE6EEF0
S31502000F20867AA6EEA19AC5FE875AC8FE076AC7FE4A
S31502000F30877AC5FEE05AC0ED025AC9FE075AC6FEB6
S31502000F40E06AC0ED006AC7FEE07AC0ED017AC5FE2E
S31502000F50E05AC0ED035A1E681D463F2E0B99DDE985
S31502000F6009734FF0020C0D9A01D8701C286008F123
S31502000F70010809F1200988457FF416AE04E0BBF1A9
S31502000F803F0F98D9E7E700BF089E05980136DDF8BE
S31502000F901C908E4281447FF4F7AD039EDDF81090DB
S31502000FA001360198032E81447FF4E2AD0EB0BDEC0A
S31502000FB0088B01B0BDE8F08F90B1007944F2A4220B
S31502000FC0C2F209220128A0F101005FEA1F9102285C
S31502000FD0117005D844F2A5200121C2F20920017040
S31502000FE0704798B144F2A8210122C2F20921C0F247
S31502000FF0810200680B68104240EA0300086005D0CF
S3150200100044F2AC200121C2F209200170704710B5EA
S3150200101082B00DF1070143F20A0000248DF8074061
S315020010208DF8064000F013F870B10DF1060143F297
S315020010300B0000F00CF830B19DF807009DF8061081
S3150200104041EA002400E00024A0B202B010BD2DE95E
S31502001050F04782B040BAADF8060045F6E06044F2C9
S31502001060A529C0F2072044F2A42AC2F20929C2F233
S31502001070092A8768002489F800408AF80040066831
S315020010808846BD680DF10601022201233046A847B3
S3150200109088B9002400F020F968B189F800408AF87E
S315020010A000407F680122002330464146B84710B906
S315020010B000F012F90446204602B0BDE8F08709B1F5
S315020010C0FFF7C5BF00207047B0B545F6046040F291
S315020010D00A71C0F207200022856804682046EB697F
S315020010E09847EB6940F2097100222046984714207E
S315020010F004F028FDEB6940F2097101222046012520
S315020011009847142004F01EFD45F6E061C0F207215F
S3150200111007C9126890470E2818BF002839D143F232
S315020011200310032100F039F890B343F2080082213C
S3150200113000F033F860B30A2004F004FDFFF767FFFE
S3150200114045F24061884226D145F68420C0F2072046
S3150200115000F04EF8E0B145F6CC40C0F2072000F0B0
S3150200116047F8A8B145F68450C0F2072000F040F8CF
S3150200117070B145F6A461C0F2072107C9126890470B
S315020011800146002818BF03210E3851EA108500E0F7
S315020011900125E8B2B0BD0225FBE710B582B08DF895
S315020011A0071045F6E061020A8DF805208DF8060063
S315020011B044F2A520C0F2072144F2A422C2F2092079
S315020011C0C2F209228B680024047014700868D3F8EE
S315020011D008C00DF1050103220023E04710B900F013
S315020011E07BF80446204602B010BDD4D4D4D4D4D45D
S315020011F070B5841C4FF6FE754FF6FF7600BF00BF32
S3150200120034F8020CA84207D0B0420AD02178FFF780
S31502001210C4FF40B103E000BF207804F093FC04341D
S31502001220EEE7012070BD002070BDD4D4D4D4D4D44E
S31502001230F0B581B0054604F067FEBDB145F6A4617E
S3150200124044F2AC26C0F2072144F2A827C2F20926CC
S31502001250C2F209278A68044600203070386008689E
S3150200126092682946904720B100F01CF8032001B08D
S31502001270F0BD307880B900BF04F046FE001BB0F521
S315020012807A7FF1D8386810F4010FEDD1012004F00D
S3150200129059FC30780128EFD1386810F4010FE3D1F8
S315020012A00020E4E770B545F6A465C0F20725AE68EE
S315020012B02C68204671688847072818BF002808D17D
S315020012C0012004F03FFC326869682046BDE87040A0
S315020012D0104770BDD4D4D4D4B0B504F015FE44F290
S315020012E0A525C2F20925297869B9044600BF00BFBF
S315020012F004F00AFE001B65280DD2012004F022FC30
S3150200130028780128F4D144F2A420C2F209200078F8
S3150200131080F0010008E045F6E060C0F2072081682F
S315020013200068C9688847002000F00100B0BDD4D427
S3150200133082B045F66060C0F207208568D0E90041B8
S315020013402A68204690470E2818BF00280BD141F282
S315020013504B5144F2B023AF69C0F20021C2F2092315
S3150200136000222046B847FFF7AFFE30B100BF00BFEC
S315020013704FF47A7004F0E6FBFAE7FFF7C5F90028A6
S3150200138000F0BB8045F22A70C0F2072000F0E8F8B0
S3150200139043F20A0000F029F943F20B0000F025F9A6
S315020013A04FF4864000F021F945F21F0000F01DF9C6
S315020013B044F2407000F019F944F2417000F015F958
S315020013C045F23D0000F011F943F2350000F00DF947
S315020013D043F2360000F009F943F6200000F005F961
S315020013E043F6210000F001F943F6240000F0FDF86F
S315020013F044F6370000F0F9F843F2064000F0F5F83B
S3150200140045F2811000F0F1F845F2861000F0EDF891
S3150200141045F2871000F0E9F845F2881000F0E5F889
S3150200142045F2891000F0E1F845F28A1000F0DDF885
S3150200143045F28B1000F0D9F845F28C1000F0D5F881
S3150200144045F28D1000F0D1F845F28E1000F0CDF87D
S3150200145045F28F1000F0C9F845F2901000F0C5F879
S3150200146045F20410C0F2072000F07AF840F2DC5090
S3150200147004F068FB44F680340525C6F6070400BF6F
S315020014802046FFF7D5FE642004F05CFB013DF7D150
S3150200149044F6803441F2615744F2C02545F2DE2813
S315020014A045F62909C6F607044FF0000AC0F20027DE
S315020014B0C2F2092501AEC0F20728C0F2072900BF11
S315020014C02046FFF7B5FEA0B910222046294633462C
S315020014D0CDF804A00097FFF72FF938B1019941B171
S315020014E0284600F0B5F8A0B9404600E0484600F0AC
S315020014F037F80A2004F026FBE2E745F63B20C0F265
S31502001500072000F02DF800BF4FF47A7004F01AFBA2
S31502001510FAE744F2803045F2FD72019BC2F20920DD
S31502001520C0F20722602105F099FA01385E2807D831
S3150200153044F28030C2F2092000F012F800BF00BF68
S315020015404FF47A7004F0FEFAFAE740B10079022805
S3150200155005D144F2E0300021C2F209200170704741
S31502001560002841D0F0B581B0054605F06BF9064674
S3150200157004F0CAFC44F2E0370446C2F2092739787D
S3150200158001290ED100BF00BF04F0BEFC001BB0F55E
S315020015907A7F26D8012004F0D5FA387808B12FF0E0
S315020015A00DC845F660600122C0F207203A70324645
S315020015B0816800688B682946984710B10020387008
S315020015C00FE0387801280CD104F09EFC001BB0F520
S315020015D07A7FF3D8012004F0B5FA387808B12FF0F3
S315020015E00DC801B0BDE8F040704710B584B004469E
S315020015F000208DF80F000DF10F012046FFF75FFD69
S3150200160045F20C3145F25E52C0F20721C0F20722C2
S31502001610002851EA128C9DF80F3044F2803045F6CC
S315020016203702C2F20920C0F207226021CDE900C3C7
S31502001630234605F013FA01385E2805D844F28030B5
S31502001640C2F20920FFF78CFF04B010BDD4D4D4D463
S31502001650F0B581B0A0B30C46102931D845F2424507
S315020016600746C4F2454504F04FFC06462846314675
S3150200167000F02AF820B32046314600F025F8F8B1EA
S31502001680BCB1083700BF00BF57F8080C314600F05E
S315020016901BF8A8B157F8040C314600F015F878B1DA
S315020016A03868314600F010F850B1013C07F10C07DA
S315020016B0EAD1E81C314601B0BDE8F04000F004B8BA
S315020016C0002001B0F0BDD4D4F0B581B045F6206259
S315020016D00C46C0F2072205469768166800BF00BF8F
S315020016E07A683046294690470C2808D104F00CFC4B
S315020016F0001B632807D8012004F024FAF0E700282B
S315020017005FEA1F9000E0002001B0F0BD80B54FF205
S3150200171044004FF00271C4F200004AF20152016025
S315020017200021017445F62061C0F2072102848B680C
S31502001730D1E900011A68904710B1002004F03CF884
S31502001740BDE88040FFF7F4BD022818BF704780B598
S3150200175044F2904046F24C21C2F20920C0F207211F
S3150200176001F067FA0120BDE8804003F055B880B564
S3150200177084B044F2505045F6E453C2F2092044F2D2
S31502001780E43C4CF6805EC0F2072301684FF48062A7
S31502001790013101600320009041F2D77045F2161123
S315020017A0C0F20020C0F20721C2F2092CC2F2092EB1
S315020017B0CDE901EC03F0FBFE44F24441C2F20921F9
S315020017C0086008B104B080BD0020002104B0BDE865
S315020017D0804000F00CB810B5044600F00DF8204623
S315020017E0BDE81040FFF792BF7047FFF7FDBF00BE8E
S315020017F07047D4D4D4D4D4D4B0B544F248544FF0BC
S31502001800FF31C2F20924206803F0B2FD012803D099
S3150200181020680021FFF7EBFF44F24C50C2F2092088
S31502001820017801B1B0BD01210170FFF7DEFF44F27C
S315020018305055C2F2092500BF286801382860F1D048
S31502001840206800210022002303F05AFB0128F3D06E
S3150200185020680021FFF7CBFFEEE780B544F24C5239
S3150200186044F25050C2F20922C2F20920002111703C
S3150200187044F254520160C2F209224FF480700121EF
S3150200188003F01EFB44F24851C2F20921086018B95E
S3150200189000200021FFF7ABFFFFF769FF04F0D6F93E
S315020018A0002080BD44F29C5C44F2FC53C2F2092C37
S315020018B0C2F20923C0F800C00B6080201060704796
S315020018C044F2FC7C44F65C03C2F2092CC2F2092300
S315020018D0C0F800C00B60802010607047704780E837
S315020018E00E008A6A0021B1EB127F07D180B500F0A3
S315020018F007F800285FEA1F91BDE880400846704756
S3150200190090E80E00002B5FEA0F93002A48F29F62CE
S3150200191008BF0233CB60C0F20102016800BF00BFFC
S315020019204B681B0703D5002AA2F10102F8D14A68C7
S31502001930120726D44A6A4368002B5FEA1F9312F005
S31502001940020F5FEA1F9293421BD04A6A836802F033
S315020019500102002B5FEA1F93934212D00222CA6150
S31502001960016845F25352CA6300220168C0F61F722B
S315020019700A6401684A6401688A640068C2640020D5
S3150200198000E0FF2040B27047F0B581B0069F092FF4
S315020019903ADA1C460B461646054600214FF0FF3240
S315020019A01846FFF79BFF00293DD12968012F0861E0
S315020019B02868066211DB0026D4E900013246FFF7E9
S315020019C08DFF91B92968013F01EBC60106F10106B7
S315020019D004F10804C1F88000EED12868816801F09C
S315020019E00C010131816001B0F0BD45F2241045F6CB
S315020019F07B1245F27403C0F20720C0F20722C0F23E
S31502001A000723A42102F028FE45F2241045F67B1294
S31502001A1045F27553C0F20720C0F20722C0F207232F
S31502001A20942102F019FE45F2241045F67B1245F682
S31502001A30FE03C0F20720C0F20722C0F20723982154
S31502001A4002F00AFE704701688A6802F00C0202324E
S31502001A508A600068416849075CBF41685FEAC16104
S31502001A6001D500207047416809065CBF41685FEAFC
S31502001A70C151F6D44068C0F340107047D0F800C098
S31502001A80012ADCF8080000F0040308BF0833022A22
S31502001A9008BF00F00C0303F00800012908BF043058
S31502001AA0022953EA00810020CCF80810704780B55D
S31502001AB00368986AD3F800E0814201D101200FE061
S31502001AC0FF2380EA010CCFF200031CEA030F5FEA50
S31502001AD01F9311F0006F5FEA1F9141EAD060184030
S31502001AE08EEA02010023B3EB117F07D1C2F307513D
S31502001AF0CEF307528A4238BF002080BD002080BD47
S31502001B0044F65C20C2F2092070470020704700208C
S31502001B10704780B5012004F021FF08B10021017051
S31502001B2080BD04F097BED4D40278014600BF00BF40
S31502001B3012B920BF0A78FBE70020013A0A70704703
S31502001B4001780131017040BF00207047704770472D
S31502001B50B0B50446407C012808BFB0BD2046022528
S31502001B602574FFF770FF002818BF00256574E06A28
S31502001B70BDE8B040FFF7E4BF2DE9F04381B044F67B
S31502001B8060281E46C2F209280D460446D8F800709F
S31502001B90002F174604D1FFF7B3FFC8F80000C8B3F9
S31502001BA044F66429C2F20929D9F8000020B9FFF7E0
S31502001BB0B0FFC9F8000068B3DDE908230020C4E9D4
S31502001BC00C702946C4E90E6040F20220A4F84100D6
S31502001BD02046FFF784FEE8B1FFF79BFFE062C8B13B
S31502001BE004F110001C2104F019FED8F80000FFF7DA
S31502001BF08CFF44F66820C2F2092001680460D8F816
S31502001C000000E160FFF783FFD9F80000FFF798FFB5
S31502001C10002001E04FF0FF3001B0BDE8F083D4D4DC
S31502001C20B0B544F660250446C2F209252868FFF7D6
S31502001C306CFF44F66820C2F209200068E0B1A042B7
S31502001C4009D000BF00BF00BF0146C068A0B1A042D4
S31502001C50FAD10C3103E044F66821C2F2092144F6B6
S31502001C606422C068C2F2092208604FF0FF3310688E
S31502001C704FF0FF32FFF758FF2868FFF748FFE06A88
S31502001C80BDE8B040FFF74DBF10B50446FFF738FE7A
S31502001C9010B14FF0FF3010BDE06B00285FEA1F91D4
S31502001CA020460A46FFF7EAFE002010BD10B504469C
S31502001CB0C06B002800F10100E06301D0002010BDD6
S31502001CC02046FFF7E1FF0028F8D0E06B0138E06319
S31502001CD04FF0FF3010BDD4D4F0B581B004460546AE
S31502001CE014F8100F00284ED0022803D0012847D13D
S31502001CF0002953D0686A012813DB0026002700BF9B
S31502001D0095F84210F940C90707D0D5E9070180596D
S31502001D1051F8271000F05EFB686A013708368742E1
S31502001D20EEDBE86A4FF0FF324FF0FF33FFF7FCFEBF
S31502001D3000280CD501206874297C022907D1687411
S31502001D404FF0FF32E86A4FF0FF33FFF7EDFEA96A64
S31502001D502846FFF7FCFEE86B38B10138E86304D188
S31502001D60012101222846FFF789FE687C70B1687C52
S31502001D70022802D12846FFF765FE2846FFF784FFB0
S31502001D804FF0FF3503E06FF0010504E000251C214A
S31502001D90204604F043FD284601B0F0BD0125FAE7CE
S31502001DA02DE9F04F83B0002900F09B80002B00F054
S31502001DB0A88004460C98002800F0B380254615F842
S31502001DC0107F17BB0026267404F11406DDE90DEC1C
S31502001DD020620EC69607C4E909EC12D144F643778F
S31502001DE00E68C3F25017BE420BD1BEF1030F13DBCE
S31502001DF0D4E90C7C57EA0C060ED0A66B8068B0427A
S31502001E0008D91C21284604F009FD4FF0FF3003B023
S31502001E10BDE8F08FC3E9047C02EB01080F1D4745BC
S31502001E205DD23878052858D002280AD00128E8D190
S31502001E30D7E901122046FFF73AFE0028E1D00C3717
S31502001E40EDE707F1040B5FEA0B70DAD178787E884A
S31502001E500290606A012824DBE169024600BF00BFE6
S31502001E600B781B07CDD1013A01F10801F8D14FF0E9
S31502001E70000A4FF0000900BF94F8411021FA09F157
S31502001E80C90708D0D4E9070150F80A0051F8291009
S31502001E9000F09FFA606A09F101090AF1080A814510
S31502001EA0EADB2046FFF702FF0028AAD1029846EA9B
S31502001EB00046012020742046A16A4FEA8609FFF7F0
S31502001EC045FEE369606A0090204659464A46FFF796
S31502001ED05BFD07EB8600071DA1E704379FE700209D
S31502001EE095E745F23E7045F2E97245F29F43C0F22C
S31502001EF00720C0F20722C0F2072340F2822102F035
S31502001F00ABFB45F23E7045F2E97245F2CE63C0F292
S31502001F100720C0F20722C0F2072340F2832102F013
S31502001F209BFB45F23E7045F2E97245F2D143C0F29F
S31502001F300720C0F20722C0F207234FF4217102F0F4
S31502001F408BFB70B584B008AD064631CD8DE8310005
S31502001F503046FFF725FF002806D40121304604B09B
S31502001F60BDE87040FFF7B8BE4FF0FF3004B070BD59
S31502001F701EF0040F0CBFEFF30880EFF3098001494E
S31502001F8008470000172000020F4B1968EFF3098279
S31502001F901EF0100F08BF22ED108A22E9F04FEFF370
S31502001FA00B8342F8043D0A604FF0100080F311885B
S31502001FB0BFF34F8FBFF36F8F03F0F6FD4FF00000B4
S31502001FC080F3118800F002B868CB0922074801683D
S31502001FD00A6802CA81F30B88B2E8F04F1EF0100FAE
S31502001FE008BFB2EC108A82F30988704768CB0922CF
S31502001FF010B51020EFF3118480F3118803F0A8FEC8
S3150200200030B14EF604504FF08051CEF2000001601E
S3150200201084F3118810BD806910F8020C022801D1E0
S31502002020FFF7D4BF042838BF704780B544F6B270B4
S3150200203045F2E84245F2EE03C0F20720C0F207225B
S31502002040C0F207234FF47E7102F006FB283140F8F6
S31502002050481D42F279014FF0807CC0F2002122F045
S315020020600102C1630264C0F844C06FF00201C0E914
S3150200207009137047D4D4D4D400BE00BF00BF00BF3A
S31502002080FEE7D4D4D4D4D4D44EF62250F021CEF2E4
S315020020900000017000F016F84EF63470CEF2000021
S315020020A0016841F04041016062B6BFF36F8FEFF302
S315020020B0148C2CF0040C8CF31488BFF36F8F02DFA0
S315020020C000BEFDE744F6003044F6D351C2F20920C1
S315020020D0C1F262010068A0FB01014FF0FF3000EB84
S315020020E091110020B0EB116F18BF70474EF210022B
S315020020F0F023CEF2000251604EF62351CEF20001D9
S315020021000B709060072010607047EFF3118010216A
S3150200211081F3118844F66C21C2F209210A68002A69
S3150200212002F101020A6018BF704744F67021C2F23A
S31502002130092108604EF60450CEF200000068C00580
S3150200214000D1704780B544F6B27044F6D87245F2B3
S315020021502643C0F20720C0F20722C0F2072340F24C
S31502002160A44102F079FA44F66C20C2F20920016811
S3150200217059B10139016018BF704744F67020C2F2A6
S315020021800920006880F31188704780B544F6B27062
S3150200219045F6141244F68C73C0F20720C0F20722E9
S315020021A0C0F2072340F2AD4102F056FA80B598B369
S315020021B04EF6902EC4F2010E9EF800100A0722D0A7
S315020021C04EF2FA324AF2025CC4F20102CFF6FF7C08
S315020021D000201388A2F800C08EF8000043F42540C0
S315020021E01080BFF34F8F30BFBFF36F8F62B6BFF35E
S315020021F06F8F72B61088A2F800C08EF8001040F4F5
S315020022002540108080BDBFF34F8F30BFBFF36F8F65
S3150200221062B6BFF36F8F72B680BD80B572B603F039
S3150200222069FB0120FFF7C2FF62B6BDE8804003F0FA
S31502002230BBBBF0B583B0EFF31086012282F31088A0
S3150200224043F20002C4F220020D4607461E2013681E
S31502002250012123F480331360126802F002FA86F336
S3150200226010880021B8686E7BAC7BC4F2140100684A
S3150200227000220023CDE90064FFF77EFC08B10320AB
S3150200228041E095F90C102A7A4EF200100029CEF29E
S3150200229000004FEA021203D4431883F8002306E033
S315020022A04EF6145601F00F03CEF200069A5544F686
S315020022B0CC220126C2F2092242F821704CF20032E7
S315020022C0C4F2000252F8213023F4803342F821305E
S315020022D052F821204A0901F01F01BFF35F8F00EB7C
S315020022E0820306FA01F1C3F8801140F822107D60DC
S315020022F02868F86068687861002044F25451C5F293
S315020023004D213861396003B0F0BD8446C1600020BA
S31502002310CCE904327047B0B541684EF28013CEF272
S315020023200003012491F90C1001F01F02490904FA75
S3150200233002F243F82120BFF34F8FBFF36F8F8068FD
S315020023400068FFF76DFC43F20000EFF31085C4F25C
S31502002350200084F31088016841F48031016000682E
S315020023601E20012102F07DF985F310880020B0BD00
S31502002370B0B582B04FF07041EFF3038001EB00601D
S3150200238044F6CC228115C2F2092204165558A968D0
S315020023900868FFF7DDFBE86868B1286910B10168D3
S315020023A0019100E001A869690160E9688847286926
S315020023B008B1019901604CF20030C4F2000050F8F5
S315020023C0241021F4803140F8241050F8240002B081
S315020023D0B0BD70477047D4D42DE9F0410D46097857
S315020023E048F200020446C4F2350202EB01206062A2
S315020023F0002020702562A2786969A162A969C4E9F0
S315020024000B0122F00300D5F81C80411CA1706978EB
S3150200241011B940F00200A070A97A95F90B20204666
S3150200242000F059FB297995F90520204600F053FB67
S31502002430A97995F90720204600F04DFB297A95F9EE
S315020024400920204600F047FB0120EFF3108780F3B6
S3150200245010884FF00041287821FA00F043F2040177
S31502002460C4F220010A6822EA0000086008681E20F9
S31502002470012102F0F6F887F310884FF48061606A52
S315020024804FF480428160E869E9786F78437802EA1E
S315020024908131067867F30921DA03437B92B206F0AB
S315020024A0030703F00103114441EA4352636A42EA15
S315020024B00762416802F580525A61027802F0FE0311
S315020024C0022B07D14FF60471022ACFF6007108BF1C
S315020024D0203100E00968626A11610C22017BAB7847
S315020024E0877862F39F014FF44072022B08BF4FF4C4
S315020024F08072002B07F00103676A18BF114341EA95
S315020025000371F960626A002191612A78092A04D866
S31502002510626A0023C1F61F735362B0F80F20807BF4
S31502002520636A40EA022041F60172C0F21F021040BD
S3150200253018632046C4E90411C4E9061100F075F9CE
S31502002540606AB8F80A101022A181C9F6075282669B
S31502002550206A90F905304CF20030C4F200005F099F
S3150200256003F01F0650F8231021F4803140F823109F
S3150200257050F823104EF200110123CEF2000103FAA5
S3150200258006F601F5C072BFF35F8F42F8276041F885
S315020025902760276A97F90B7050F8276026F4803671
S315020025A040F8276050F827607E0907F01F07BFF33F
S315020025B05F8F03FA07F742F8267041F82670276AFA
S315020025C097F9077050F8276026F4803640F827609E
S315020025D050F827607E0907F01F07BFF35F8F03FAE3
S315020025E007F742F8267041F82670276A97F90970AC
S315020025F050F8276026F4803640F8276050F8270006
S31502002600780907F01F07BFF35F8FBB4042F82030FF
S3150200261041F8203040F21141606AC0F20101816046
S31502002620606A00BF00BF00BF017FC907FCD044F645
S3150200263042110020C5F243316160BDE8F0810346D4
S315020026400020C3E906127047D0F824C0DCF808302F
S3150200265023F44013CCF80830D0F824C000BF00BFE2
S31502002660DCF848305B00FBD5DCF8083023F01003B9
S31502002670CCF80830D0F824C09CF81C30DB06FBD41A
S31502002680C0E904120020DCF8081041F01011CCF861
S315020026900810704770B50446406A4FF6EE720D4652
S315020026A08168CFF6CE7221F4401611408160002077
S315020026B02061204600F0B9F8606A296801610020AD
S315020026C0616A8E6070BD00204FF0FF32C1E90022C0
S315020026D07047D4D4D4D4D4D48A0701D4062214E0C1
S315020026E0426A936823F440139360426A00BF00BFB4
S315020026F0936C5B00FCD5936823F010039360426AE7
S31502002700137FDB06FCD400224261C90701D00022F6
S31502002710C26110467047844681620020CCE90B32C2
S315020027207047D4D4D4D4D4D4B0B544F642110446B6
S31502002730C5F24331406888426AD1606A816821F4F1
S3150200274040118160606A816821F010018160606ACF
S31502002750017FC906FCD4206A4EF28011CEF2000136
S3150200276090F90700430900F01F02012000FA02F265
S3150200277041F82320BFF34F8FBFF36F8F226A92F97E
S315020027800920530902F01F0200FA02F241F823203F
S31502002790BFF34F8FBFF36F8F626A936823F4803360
S315020027A09360226A92F90520530902F01F0200FA89
S315020027B002F241F82320BFF34F8FBFF36F8F226AD5
S315020027C092F90B20530902F01F0200FA02F241F8B5
S315020027D0232043F20401BFF34F8FBFF36F8FEFF352
S315020027E0108580F31088206AC4F220014FF000425F
S315020027F000780B6822FA00F01843086008681E2069
S31502002800012101F02EFF85F3108800206060B0BD23
S315020028100720B0BD0246C069086000200021D161D0
S315020028207047062070470620704770B50446006A56
S31502002830C5690020A060687C50B34EF25400C4F211
S315020028400100017801F00F01022901D801220BE0F3
S31502002850CA1E052A06D246F2A421C0F2072151F861
S31502002860226003E00839102202FA01F6407800F0ED
S315020028700F0001F09FFE44F60032697CC2F2092283
S31502002880B0FBF6F012685143B1FBF0F00130A060E4
S3150200289070BDB0B54FF07041EFF3038001EB0060FD
S315020028A04CF200318015C4F20001425822F4803203
S315020028B0425044F6CC224158C2F209221458206AE8
S315020028C000690028606918D1C0B1A07800F0030041
S315020028D00228206905D10088616A20F4DC4048603C
S315020028E002E0616A00780871A078226900F00301AB
S315020028F06069401A606111442161B8B9616A0222B5
S315020029008D68A06862F3155510B101F0E9FE616A9F
S315020029108D60A06A00284FF00000206106D00021D9
S3150200292080222046BDE8B04000F001B8B0BD2DE9D6
S31502002930F04385B08146C06A0DF1040830B1054600
S31502002940C44695E8D8008CE8D80000E04046D9F89D
S3150200295020301B78816003600271D9F83010C160A3
S31502002960D9F828108847D9F82C0010B198E88E00BB
S315020029708EC005B0BDE8F08310B582B04FF070414D
S31502002980EFF3038001EB00604CF200318015C4F2D4
S315020029900001425822F48032425044F6CC22415879
S315020029A0C2F209221458A07800F00302606A022AD1
S315020029B003D101686FF35F2100E00178E0690191BC
S315020029C090B1A06901A903F02DFFA078D4E90612FF
S315020029D000F003000144101AC4E906100DD1A06AE2
S315020029E058B10021012202E0A06A30B10422204639
S315020029F002B0BDE81040FFF79ABF02B010BD10B595
S31502002A004FF07041EFF3038001EB006144F6CC22F4
S31502002A108815C2F209224FF6EF741058CFF6CF741A
S31502002A20426A936823409360826A0C161AB10021A7
S31502002A300222FFF77CFF4CF20030C4F2000050F88D
S31502002A40241021F4803140F8241050F8240010BDDF
S31502002A504FF07041EFF3038001EB006C44F6CC219A
S31502002A604FEAAC50C2F2092108588178436A01F054
S31502002A700301022903D119686FF35F2100E0197877
S31502002A8070B59A6C20244FF0080E04EAD244102640
S31502002A900EEA126516EA126204EB0506324403D008
S31502002AA09E6C360458BF40329E6E4FEA2C6446F046
S31502002AB0C8569E66836A0BB1FFF739FF4CF20030A7
S31502002AC0C4F2000050F8241021F4803140F824109A
S31502002AD050F8240070BD10B54EF2801C4FEA521E0B
S31502002AE0CEF2000C02F01F030124002A04FA03F3BB
S31502002AF04CF82E304CF200334FEA0111BFF34F8FE0
S31502002B00C4F20003BFF36F8F53F8224024F48034DB
S31502002B1043F8224053F8223004D40CEB020383F824
S31502002B20801206E04EF6145402F00F03CEF20004B1
S31502002B30195544F6CC21C2F2092141F8220010BDF2
S31502002B40024641608868C0231061C4F20203C86865
S31502002B50906100205061086803EB4010403090609D
S31502002B60086803EB4010D06091F9040000282CD4C9
S31502002B7080B54EF2001C4979CEF2000C00EB0C0334
S31502002B80090183F8001344F6CC21C2F2092141F867
S31502002B9020204CF20031C4F2000151F8203023F417
S31502002BA0803341F8203051F82010410900F01F000F
S31502002BB001230CEB810E03FA00F0BFF35F8FCEF810
S31502002BC080014CF82100BDE8804045F24301002017
S31502002BD0C5F249211160704780680268920302D4E7
S31502002BE08160002070470C20704782680020516087
S31502002BF07047844601610020CCE9053270470146E0
S31502002C00406890F9040000280FD44EF2801C00F0B0
S31502002C101F024009CEF2000C012303FA02F24CF81D
S31502002C202020BFF34F8FBFF36F8F002000220A6070
S31502002C30704780B545F25422C5F24F02026008463B
S31502002C4000F01EF9002080BD0146002000220A6025
S31502002C50704780B5084600F013F9002080BD70B5B4
S31502002C6086B001A8049003A814460D46ADF80810D4
S31502002C7001920126ADF80C6000F066F944F6C82010
S31502002C80EFF31081C2F2092086F3108802683AB97E
S31502002C9040F614520023C4F240021370402313700C
S31502002CA002680132026081F31088E10340F60001F6
S31502002CB04FEA1522C4F2400101D4EBB20CE001EB5B
S31502002CC08216EBB256F8235025F4803546F8235087
S31502002CD024F4803546F8235001EB8211012241F893
S31502002CE02340EFF3108182F31088026812B1026862
S31502002CF0013A0260006838B940F614500022C4F264
S31502002D00400002708022027081F31088002006B013
S31502002D1070BD04200023C4F24000CFF6FF7340EAE0
S31502002D20D100C9B220F01B00006843EA104020FA25
S31502002D3001F1002001F001011170704710B56FF02A
S31502002D400100CBB200EAD11001210C2401FA03FEE4
S31502002D500101C4F2400444EA001C4FF48030012A07
S31502002D60625800FA03F004D122EA000040EA0E0299
S31502002D7003E022EA0E0141EA00020020CCF800201C
S31502002D8010BD6FF03F00CBB200EA910040F60001A1
S31502002D9000EB8300C4F2400141580020C1F3400118
S31502002DA01170704710B5CBB2012098406FF0010E3A
S31502002DB084B20EEAD110002A40F208024FF4803C97
S31502002DC04FEA0011C4F240024FF0000008BF0CFAAD
S31502002DD003F4545010BD80B56FF0010040F2000CB0
S31502002DE000EAD110C4F2400C010103EA020E62EAC3
S31502002DF003025CF801004EEA000E002002EA0E020F
S31502002E004CF8012080BD6FF0010000EAD1100421C8
S31502002E100001C4F2400109580020090C11807047D4
S31502002E206FF0010003EA020C00EAD11023EA020164
S31502002E300C230201C4F2400300204CEA01419950DE
S31502002E4070476FF00100042300EAD110C4F2400378
S31502002E50010100205958118070476FF0010003EA02
S31502002E60020C00EAD11023EA020108230201C4F28D
S31502002E70400300204CEA014199507047D4D4D4D47F
S31502002E8070B5044600F060F844F6C82CEFF31081E2
S31502002E90C2F2092C012080F31088DCF8000038B950
S31502002EA040F614500022C4F2400002704022027022
S31502002EB0DCF800000130CCF8000081F3108820888D
S31502002EC028B340F6000E0021C4F2400E00BF00BF38
S31502002ED0606800EBC10250F831309288D8034FEA9D
S31502002EE01220D2B20BD50EEB801555F8226026F4CD
S31502002EF0803645F8226023F4803645F822600EEBD0
S31502002F008010013140F8223020888142E0D301202E
S31502002F10EFF3108180F31088DCF8000020B1DCF8B2
S31502002F2000000138CCF80000DCF8000038B940F6A1
S31502002F3014500022C4F2400002708022027081F313
S31502002F40108870BDD4D4D4D42DE9F04F81B0044694
S31502002F500088002865D04EF64C4B0025C4F2010BC2
S31502002F604FF0010A00BF00BF46F2003642F24008A7
S31502002F700027C0F20726C4F2200800BF00BF00BF28
S31502002F80606836F8021B00EBC50082888A423FD190
S31502002F9000689BF8001000F0B8500AFA07F9B0F181
S31502002FA0807F09EA010017D158B9012001F0FFFB21
S31502002FB09BF8000040EA09008BF80000012001F0AE
S31502002FC0CFFB98F90000002822D498F8000040F0C0
S31502002FD0800017E000BF00BF58B1012001F0E7FBF7
S31502002FE09BF8000020EA09008BF80000012001F09E
S31502002FF0B7FB98F90000B0F1FF3F09DC98F8000032
S3150200300000F07F0088F80000C820012101F029FBAA
S31502003010013708F10208032FB2D120880135854213
S31502003020A2D301B0BDE8F08F70B50D4609784EF215
S3150200303000020446C4F2250202EB0120206125604B
S31502003040A8686060287B2072E8696063286AE0638A
S315020030500020A063C4E90500C4E9070084F829003A
S3150200306084F82A0084F82B0084F82C000120EFF360
S31502003070108680F310882978C1F10901884043F24D
S315020030800401C4F220010A6822EA00000860086806
S315020030901E20012101F0E5FA86F310882046294612
S315020030A000F0B2F844F643110020C5F24921E1606E
S315020030B070BD9C46012380F82AC000F09DB99C464B
S315020030C0002380F82AC000F097B9B0B5044600691B
S315020030D00025C5712046216800F096F894F826006E
S315020030E0216984F82800A069C4E90750002084F801
S315020030F02C5084F82A50B322CA71B0BD0346002070
S3150200310059601A727047844641630020CCE90E3238
S31502003110704744F64312C068C5F2492290425FEAFC
S315020031201F9200200A707047B0B504460069002558
S31502003130C5712046216800F067F894F82600A16957
S3150200314084F828002069C4E90751B32184F82C5079
S3150200315084F82A50C1714EF280112069CEF2000124
S31502003160C571E560206890F91100430900F01F025D
S31502003170012000FA02F241F82320BFF34F8FBFF37A
S315020031806F8F226892F90E20530902F01F0200FA8D
S3150200319002F241F82320BFF34F8FBFF36F8F2268ED
S315020031A092F91020530902F01F0200FA02F241F8C6
S315020031B02320BFF34F8FBFF36F8F226892F90F2040
S315020031C0530902F01F0200FA02F241F8232043F2E9
S315020031D00402BFF34F8FBFF36F8FEFF3108580F3B7
S315020031E010882168C4F2200209781368C1F1090126
S315020031F0884001211843106010681E2001F031FA40
S3150200320085F310880020B0BDF0B502690023137063
S31502003210402302691370026913785B06FCD5C0234A
S3150200322013700268036908254EF6185C526ACEF2DC
S31502003230000C127942F0E0021A7402680369526ABB
S31502003240D27842F0E0025A7402680369526A9278AE
S3150200325062F306159D7002680569526A1378527800
S31502003260012B5FEA1F9343EA420242F00402EA702C
S31502003270026844F24025C0F20F0503695268AA4269
S315020032804FF0770208BF6FF008025A7100230269F5
S315020032909371B3230269D3714EF2001291F9114070
S315020032A04B7BCEF20002002C4FEA031303D415190E
S315020032B085F8003304E004F00F05654405F8043C84
S315020032C044F6CC2E4CF20033C2F2092EC4F20003AD
S315020032D001274EF8240053F8245025F4803543F88C
S315020032E0245053F82450650904F01F04BFF35F8F7E
S315020032F002EB850607FA04F4C6F8804142F8254037
S3150200330091F90F404D7B002C4FEA051503D416198F
S3150200331086F8005304E004F00F06664406F8045CDF
S315020033204EF8240053F8245025F4803543F82450EF
S3150200333053F82450650904F01F04BFF35F8F02EBB4
S31502003340850607FA04F4C6F8804142F8254091F949
S3150200335010404D7B002C4FEA051503D4161986F84A
S31502003360005304E004F00F06664406F8045C4EF8C7
S31502003370240053F8245025F4803543F8245053F89A
S315020033802450650904F01F04BFF35F8F02EB850624
S3150200339007FA04F4C6F8804142F8254091F90E4036
S315020033A0497B002C4FEA011103D4171987F8001341
S315020033B005E004F00F0505EB0C0707F8041C4EF8B0
S315020033C0240004F01F0753F82410012621F480314B
S315020033D043F8241053F82410610906FA07F7BFF3DD
S315020033E05F8F02EB8103C3F8807142F821709F213F
S315020033F000690170F0BDD4D490F808C0C0E9051286
S31502003400BCF1010F09D190F804C04FF48071A0F805
S31502003410251043EA4C0180F8241010B581B04EF213
S31502003420200180F82930C4F201010968009100994F
S3150200343001F00F210091DDF800E0DDF800C001691E
S315020034400B7C90F82C40B4B9CEF30322A2EB1C629B
S3150200345003FA02F2042A09D3920800BF00BF00BF92
S3150200346091F90130002B03D5013AF9D1082169E01F
S315020034700022CA7182690021C0E9072190F826203C
S3150200348080F8281080F8272080F82B1080F82D105D
S3150200349080F82E1080F82F1080F830100168496AE3
S315020034A00A784B7891F805C08C79012A5FEA1F9257
S315020034B042EA4302036942EA0C1242EAC41242F0A9
S315020034C00402DA700269137943F010031371026978
S315020034D0137903F0F70313710269137903F0EF030B
S315020034E013710269C979137903F07F0343EAC111A3
S315020034F0117101694A7942F001024A71016891F932
S315020035000F1000290BD401F01F02012303FA02F265
S315020035104EF200134909CEF2000343F82120016955
S315020035204A7A02F0F3024A720169BF22CA7190F81E
S315020035302C1019B1002180F82C1003E00069022139
S3150200354041700021084601B010BD10B582B04FF09F
S315020035507041EFF3038001EB00604CF200328015FC
S31502003560C4F20002835823F4803383508058EFF369
S31502003570038001EB006044F6CC218015C2F20921DA
S315020035800C5894F82D00B8B1E069002862D0216881
S31502003590496AC979012904D10521204600F03CFA7D
S315020035A0E069012858D0022833D0032840D1206987
S315020035B0017941F040013AE0A069022804D8206965
S315020035C0017941F040010171E06901280ED12069BB
S315020035D0017941F0100101712069017941F0080178
S315020035E001712069017901F0EF0101712068406AD9
S315020035F0C079012803D10521204600F00DFA206981
S31502003600C07C8DF807009DF80700012084F82D0084
S3150200361020E02069017941F01001017120690179E8
S3150200362041F0080101712069017901F0EF01017190
S31502003630D4E90401C07C226A8854D4E9070101381E
S3150200364001F10101C4E9070104D12069017901F000
S31502003650BF01017102B010BD94F82A00012831D1D0
S3150200366020684EF28013CEF2000390F90F00420951
S3150200367000F01F01012000FA01F143F82210BFF306
S315020036804F8FBFF36F8F2169CA7942F08002CA71E8
S3150200369021690A7942F010020A7121690A7902F057
S315020036A0F7020A7121690A7902F0EF020A712169A9
S315020036B004224A7021694A7902F0FE024A7184F8AC
S315020036C02C00B5E72069417A01F0F70141722069C1
S315020036D008214170ACE7D4D4B0B54FF07041EFF396
S315020036E0038001EB00604CF200358015C4F2000540
S315020036F0425922F4803242514059EFF3038001EBE2
S31502003700006044F6CC218015C2F209210C5894F8C7
S315020037102700C8B194F82600032806D194F8280099
S31502003720022802D194F8300070B3206994F824106C
S31502003730817494F8280094F82710013084F8280040
S31502003740481E84F82700B0BD94F82900E0B9206825
S31502003750406AC079012808D194F82B0028B9206A5A
S3150200376018B10521204600F057F9E06968B1D4E99D
S315020037700401226A895C8174D4E90701013801F1E6
S315020037800101C4E9070100D0B0BD2069C17901F089
S315020037907F01C17120696FF0BE0100BF00BF00BF8B
S315020037A090F90720B2F1FF3F03DC002901F1010184
S315020037B0F6D1206890F9100055F8201021F48031D6
S315020037C045F8201055F82000206890F910000028CE
S315020037D00BD44EF2802300F01F014009CEF2000303
S315020037E0012202FA01F143F820102069C17941F061
S315020037F04001C171B0BDD4D410B54FF07041EFF3A2
S31502003800038001EB006044F6CC218015C2F2092147
S315020038100C582068406AC079012803D10521204648
S3150200382000F0FAF894F82900012806D194F8270046
S31502003830012802D194F8300080B3E06970BB94F895
S315020038402A00012822D120684EF28013CEF200030C
S31502003850012290F90F0000F01F01400902FA01F15E
S3150200386043F82010BFF34F8FBFF36F8F2069C179E2
S3150200387041F08001C17120690421417020694179BA
S3150200388001F0FE01417184F82C2007E02069417A9B
S3150200389001F0F70141722069082141702069C1795E
S315020038A001F0BF01C17120696FF0BE0100BF00BF08
S315020038B0C279520603D5002901F10101F8D14FF070
S315020038C07041EFF3038001EB00604CF2003180158A
S315020038D0C4F20001425822F480324250405810BDD0
S315020038E0B0B54FF07041EFF3038001EB006044F690
S315020038F0CC218015C2F209210C5821694A7A4B7AE9
S3150200390002F01F0002F003020F2803F0E0034B72DD
S3150200391001D83AB923E021694B785B0658BF42F0D9
S315020039200102CAB1012084F82B0020690025C57165
S3150200393020462168FFF768FC94F82600A16984F8FE
S3150200394028002069C4E90751B32184F82C5084F871
S315020039502A50C17101214BE04A78520611D401075F
S3150200396006D494F82C20012A31D110F004022ED06C
S31502003970E06910B994F82B0090B3002919D40120FC
S3150200398035E0012084F82B0008204870206823695E
S31502003990406A41790278807942EA011141EAC0100F
S315020039A040F00200D8702069417941F0010141716D
S315020039B021E00020A169C4E9070194F8261084F8E1
S315020039C0281084F82C0084F82A0001200CE0400715
S315020039D011D52068406AC07901280CD1042107E07C
S315020039E094F8290080F003002169B322CA71C1B29A
S315020039F0204600F011F84FF07041EFF3038001EB1F
S31502003A0000604CF200318015C4F20001425822F4E3
S31502003A10803242504058B0BD10B582B00446806B29
S31502003A2020B1D0E90023CDE9002300E06846E26B2D
S31502003A3002600171616B8847A06B18B1DDE9001263
S31502003A40C0E90012002084F82B0002B010BDD4D4C5
S31502003A502DE9F04F85B00D4601604E6981464988D1
S31502003A60287AF27800FB01F73178531C002A5FEAC4
S31502003A701F92B7FBF3F8EB88029228FA02FA51B9C1
S31502003A8031690A0403D0B6F814A00AFB00F7B1F5AF
S31502003A90803F80F0E0801946E868C9F81400307863
S31502003AA0CDE903370191022801D1B06801E001FB9B
S31502003AB007F0C9F80C00EFF3108B012080F3108891
S31502003AC043F2080048F20004C4F22000C4F23404AF
S31502003AD0016821F48031016000681E20012100F096
S31502003AE0C0FD8BF3108800BFE06FC007FCD100BF9A
S31502003AF02068C003FCD4306920634FF0000CC4F880
S31502003B0018C0717B4FF440126FF35F3802EA01511D
S31502003B1061607179B2793378F07801F00101377911
S31502003B2062F34101727803F0030300F0010002F030
S31502003B3003026FF31F3A41EA031141EA022107F039
S31502003B40010241EA0030C7F3400140EA0260C7F3CE
S31502003B50800240EA8160002140EAC260A060E888F3
S31502003B60C0F6FF716A8801F1405101EA00406FF325
S31502003B709F321044E060288802998840A9886FF332
S31502003B805F3061F31B40039961F31B482061C4F85F
S31502003B9014800198C4F85CC060F31B4AC4F834A0D0
S31502003BA03078049900285FEA1F9021FA00F0A0639A
S31502003BB0C4F860C0307BB17800F0070061F30410EE
S31502003BC0606644F25550D9F80010C5F24320C9E99F
S31502003BD0010C48698169C9F8101090F91D10027F1D
S31502003BE04EF200100029CEF200004FEA021203D470
S31502003BF0431883F8002306E04EF6145701F00F032C
S31502003C00CEF20007DA5544F6CC220127C2F2092287
S31502003C1042F821904CF20032C4F2000252F82130EE
S31502003C2023F4803342F8213052F821204A0901F068
S31502003C301F01BFF35F8F00EB820307FA01F1C3F89E
S31502003C40801140F8221000206067D9F81010216711
S31502003C5005B0BDE8F08FF18A1EE7B0B548F2000C58
S31502003C604FF0000EC4F2340C4EF28015CEF200056F
S31502003C700124CCF870E003685B6993F91D1001F02A
S31502003C801F02490904FA02F245F8212044F6CC2221
S31502003C90BFF34F8FBFF36F8F93F91D10C2F2092244
S31502003CA042F821E04FF48031CCF80010C0F804E06D
S31502003CB043F20800EFF31085C4F2200084F3108863
S31502003CC0016841F48031016000681E20012100F084
S31502003CD0C8FC85F310880020B0BD48F20002C4F289
S31502003CE03402D36FDB0723D11368DB0320D41368B6
S31502003CF0DB071FD10368D3F814C081609CF800303B
S31502003D00022B07D1C36819440123013963F3040165
S31502003D10D1658168D1639CF8001021B9D0E902010E
S31502003D2000EB5100106400205067012111607047BA
S31502003D30082070471E207047844641610020CCE966
S31502003D400632704748F20002C4F234021368DB03FB
S31502003D5006D4D36FDB0705D1136803F0010302E033
S31502003D60022300E001230B70806848600020D2F82D
S31502003D7084208A607047F0B58BB048F27401C4F2B1
S31502003D8034010868C2430A604FF07042EFF30381C0
S31502003D9002EB01614CF200328915C4F200028B5823
S31502003DA023F480338B5044F6CC238A58C2F209237B
S31502003DB05C58616911B322690DF1040E104001903D
S31502003DC00020CDE90200A069E369A2680492059386
S31502003DD060B103460DF1180C93E8E6008CE8E600A4
S31502003DE001469EE8EC00ECC1616900E07046884736
S31502003DF0A06918B106A991E8EC00ECC00BB0F0BDC1
S31502003E004EF22401C4F201018878098801F00F02FA
S31502003E10A2F1080103293BD8DFE801F0022C101EAB
S31502003E2044F22001C2F2002151F820004AF6AB21E9
S31502003E30CAF6AA21A0FB0101480830E044F220019B
S31502003E40C2F2002151F820004AF6AB21CAF6AA2195
S31502003E50A0FB0101C80822E044F22001C2F20021BF
S31502003E6051F820004AF6AB21CAF6AA21A0FB0101AD
S31502003E70080914E044F22001C2F2002151F82000A0
S31502003E804AF6AB21CAF6AA21A0FB0101880806E080
S31502003E9044F22001C2F2002151F82000D04044F63B
S31502003EA00031C2F2092108607047D4D4D4D4D4D4E4
S31502003EB02DE9F04182B00FF278504EF2FA38C4F290
S31502003EC001084AF20151CFF6FF7190ED001F44F24C
S31502003ED020000231A8F80010C2F200200FF2605151
S31502003EE04EF6014680ED001F4EF600474EF21405CF
S31502003EF091ED001F48F2004140F6000280ED041FDA
S31502003F002030C1F2D77143F60003C4F20106C4F2AF
S31502003F100107C4F20105C2F6AF72C1F69C430EC098
S31502003F20FFF76EFF4FF650600A21CFF6FF70395445
S31502003F30092085F88E00387818B93078800700F0A5
S31502003F407282387858B901203870C820012100F0F1
S31502003F5088FB00BF00BF00BF38780128FCD10020D3
S31502003F60307038704AF20156002085F82200A87790
S31502003F7095F828000007FBD542F602314EF614509A
S31502003F80C0F20101C5F8B41040F22341698700224C
S31502003F9085F836204FF60211C5F8981040F25141C5
S31502003FA02987CEF200004EF20001BFF34F8FBFF316
S31502003FB06F8F0368CEF2010123F400330360C0F869
S31502003FC03C22BFF34F8FBFF36F8F0A6822F4405231
S31502003FD00A60BFF34F8FBFF36F8F2A7802F0F802A1
S31502003FE001322A7000BF00BF2A78D206FCD40A68C2
S31502003FF042F440520A60BFF34F8FBFF36F8F0168DE
S31502004000890312D4BFF34F8FBFF36F8F0021C0F81D
S315020040103C12BFF34F8FBFF36F8F016841F400313B
S315020040200160BFF34F8FBFF36F8F0020A87500BFEB
S3150200403095F828008006FBD54CF200070020C4F252
S31502004040130738703878387838787868FA2807D0BD
S31502004050FA20C1F6006000BF78607968FA29FBD1C0
S31502004060B8687D2808D07D20CEF2001000BF00BFC0
S31502004070B860B9687D29FBD143F23240C3F22320EE
S31502004080E86042F2201028820520A874FFF7B8FEE5
S315020040901E200121012400F0E4FA78686FF39F20C4
S315020040A0652828BF3C70FFF7ABFE42F200004FF4D2
S315020040B02541C4F200000680BFF35F8F0472BFF38E
S315020040C05F8F018095F8C60040F0400085F8C60073
S315020040D095F9C600B0F1FF3FFADC032085F8C0006F
S315020040E0C92085F8C60095F8C60000F0BF0085F81D
S315020040F0C60000BF00BF00BF95F9C6000028FBD46A
S31502004100012085F83F00002085F82A00802085F8E6
S315020041102A0095F8600040F0400085F8600000BF74
S3150200412095F96000B0F1FF3FFADC072085F85800E8
S315020041304A2085F860000A2085F8600000BF00BFAB
S3150200414095F960000028FBD40720ADF806000DF1B2
S31502004150060000F07DF995F8620040F0400085F80F
S31502004160620000BF00BF00BF95F96200B0F1FF3FD9
S31502004170FADC032085F85A00CA2085F8620095F811
S31502004180620000F0BF0085F8620000BF00BF00BFFA
S3150200419095F962000028FBD495F8410040F04000F2
S315020041A085F8410000BF00BF95F94100B0F1FF3F1D
S315020041B0FADC022085F84000CA2085F8410095F80D
S315020041C0410000F0BF0085F8410000BF00BF00BFFC
S315020041D095F941000028FBD495F8430040F04000D1
S315020041E085F8430000BF00BF95F94300B0F1FF3FD9
S315020041F0FADC002085F84200C72085F8430095F8CE
S31502004200430000F0BF0085F8430000BF00BF00BFB7
S3150200421095F943000028FBD495F8490040F0400088
S3150200422085F8490000BF00BF95F94900B0F1FF3F8C
S31502004230FADC012085F84800C62085F8490095F881
S31502004240490000F0BF0085F8490000BF00BF00BF6B
S3150200425095F949000028FBD495F8640040F0400027
S3150200426085F8640000BF00BF95F96400B0F1FF3F16
S31502004270FADC022085F85C00C92085F8640095F80E
S31502004280640000F0BF0085F8640000BF00BF00BFF5
S3150200429095F964000028FBD495F84B0040F04000E5
S315020042A085F84B0000BF00BF95F94B00B0F1FF3F08
S315020042B0FADC012085F84A00CA2085F84B0095F8F9
S315020042C04B0000F0BF0085F84B0000BF00BF00BFE7
S315020042D095F94B000028FBD495F8630040F04000A6
S315020042E085F8630000BF00BF95F96300B0F1FF3F98
S315020042F0FADC042085F85B00CA2085F8630095F88D
S31502004300630000F0BF0085F8630000BF00BF00BF76
S3150200431095F963000028FBD495F8470040F0400069
S3150200432085F8470000BF00BF95F94700B0F1FF3F8F
S31502004330FADC022085F84600CA2085F8470095F87F
S31502004340470000F0BF0085F8470000BF00BF00BF6E
S3150200435095F947000028FBD495F8C70040F04000C5
S3150200436085F8C70000BF00BF95F9C700B0F1FF3F4F
S31502004370FADC022085F8C100C52085F8C70095F849
S31502004380C70000F0BF0085F8C70000BF00BF00BF2E
S3150200439095F9C7000028FBD495F8C80040F0400004
S315020043A085F8C80000BF00BF95F9C800B0F1FF3F0D
S315020043B0FADC012085F8C200C52085F8C80095F808
S315020043C0C80000F0BF0085F8C80000BF00BF00BFEC
S315020043D095F9C8000028FBD495F8CA0040F04000C1
S315020043E085F8CA0000BF00BF95F9CA00B0F1FF3FC9
S315020043F0FADC092085F8C400C92085F8CA0095F8B8
S31502004400CA0000F0BF0085F8CA0000BF00BF00BFA7
S3150200441095F9CA000028FBD44FF42540A8F80000FD
S3150200442002B0BDE8F0814FF47A7000F0C2F899E567
S31502004430006CDC0200127A000080000000366E0179
S315020044400080000000CA9A3B0046C3235543DE1390
S315020044502DE9F04F81B04EF2FA3143F20406C4F26E
S3150200446001018246C4F220064AF20350B1F80090D6
S3150200447008804FF0010B00254FF4803401270020FD
S3150200448004FA00F132680A4210D1EFF310888BF376
S31502004490108832680BFA00F0114331603168054327
S315020044A01E20012100F0DDF888F31088F8074FF08E
S315020044B001004FF00007E3D14EF2750744F22001E6
S315020044C0C4F20107C2F20021387800F00F0051F859
S315020044D0200017F8081C01F00F01022901D8012259
S315020044E00BE0CA1E052A06D246F28851C0F20721FF
S315020044F051F8221003E00839102202FA01F1B0FB4A
S31502004500F1F04DF68361C4F21B31A0FB01016FF09D
S31502004510010000EA5140012100F0A3F8387840F08A
S315020045204000387000BF00BF97F90000B0F1FF3FAE
S31502004530FADC9AF8010007F8080C9AF8000040F035
S31502004540400038709AF80000387000BF00BF00BF04
S3150200455097F900000028FBD400204FF0010A4FF41F
S315020045608038012400BF00BF25FA00F1C90710D028
S31502004570EFF310878AF3108808FA00F0316821EA0F
S315020045800000306030681E20012100F06AF887F3CF
S315020045901088E0074FF001004FF00004E4D14EF21C
S315020045A0FA3149F42540C4F20101088001B0BDE8A0
S315020045B0F08F704744F22001C2F2002151F8200028
S315020045C07047D4D4D4D4D4D4B0B542F22404C8208B
S315020045D0C4F2200401210025257100F042F825705D
S315020045E0207808B12FF005C0207840F00200207034
S315020045F020788007FCD4002004F8020C00BF00BF1C
S3150200460014F8020C08B12FF005C84FF0030E002073
S3150200461004F11C0100BF00BF11F8102002F07F0256
S3150200462001F8102000BF00BF11F91020002AFBD4A8
S3150200463001300FF00FC8012000F0B9F84EF64C41D8
S315020046400120C4F2010100220A70BDE8B04000F068
S3150200465087B8D4D4D4D4D4D400BE00BF00BF00BF20
S31502004660FEE744F6003241F20023C2F20922C0F20A
S315020046707A03484312689A420FD344F23F21C0F2AA
S315020046800F0111444DF68362C4F21B32A1FB0212E2
S31502004690910CA0FB0101C9B11BE04CF60021C3F647
S315020046A09A31B1FBF2F148F63812C0F24102904259
S315020046B005D24FF47A725043B0FBF1F006E0B0FB3C
S315020046C0F1F0904205D24FF47A71484328B100F0D6
S315020046D007B84FF0FF3000F003B87047D4D4D4D4F3
S315020046E001380028FCD17047F0B581B04CF20015B4
S315020046F044F67427C4F200050024C2F2092728688A
S31502004700296A01EA000600BF26FA04F0C00703D0B0
S31502004710396809B12046884701340437152CF3D18C
S315020047202E6100BF00BF00BF286A3042FCD101B033
S31502004730F0BDD4D4D4D4D4D480B54FF00A0E4CF202
S31502004740003046F25821C4F20000C0F2072100BF31
S3150200475031F8022B02B1026004300FF007C880BDA7
S31502004760EFF31081012282F3108844F6F422C2F29A
S31502004770092232F8103023B132F81030013B22F808
S31502004780103032F810207AB94EF2FA3246F29C5CB8
S31502004790C4F20102C0F2072C13883CF8100043F45D
S315020047A0254323EA0000108081F31088704710B574
S315020047B0EFF31081012282F3108844F6F422C2F24A
S315020047C0092232F8103083B94EF2FA3E46F29C5C68
S315020047D0C4F2010EC0F2072CBEF800403CF81030BD
S315020047E0234343F42543AEF8003032F81030013348
S315020047F022F8103081F3108810BDD4D480B5054854
S315020048007844026802F024F901464FF0FF300C2387
S315020048108B5080BD3C21070070B543F60045044627
S31502004820C4F2000500BF00BF95F8500008B12FF092
S3150200483005C84FF08700A8844FF0100028709CB17D
S315020048400020FFF7B4FF4EF253000126C4F2010026
S3150200485006700020FFF784FF85F8206000BF00BFC6
S3150200486095F850000007FBD40120A870002068705C
S3150200487095F8500008B12FF005C842F20350C0F275
S315020048800500ACB14FF40C71A5F8481000BF00BF8B
S3150200489095F85010C907FBD16864002085F84000DE
S315020048A047F2A830A8820120A8751120287070BD91
S315020048B06864002085F8400047F2A830A8820120EB
S315020048C0A87500BF00BF00BF2878C007FCD195F8C5
S315020048D0500008B12FF009C00120287470BDD4D44D
S315020048E000F006F8FCF7B9FFFEE700BE7047D4D425
S315020048F070B54EF6005540F20120CEF20005C0F228
S315020049000E004EF200066861CEF20106BFF34F8F2B
S31502004910BFF36F8F2968C1F3035001285FEA1F9224
S3150200492011F00F0F5FEA0F911142316811D102287F
S315020049300FD241F0040030604EF20800BFF34F8FF1
S31502004940CEF20000BFF36F8F016841F4803101603F
S3150200495002E021F004003060BFF34F8FBFF36F8F88
S315020049604FF4700040F20001C5F888000020C0F242
S315020049700021A9600024FCF7E7FEFFF799FA4EF240
S31502004980FA304EF6B022C4F20100C4F201024AF233
S315020049900251018014704FF4254101800120FCF779
S315020049A0D3FE40F22000C2F2002080F30A8830686B
S315020049B0800721D5A868B0F1007F1DD130694FF478
S315020049C00071C0F3C300726901FA00F3C2F3C300B7
S315020049D081400020DA08CB080146064642F005C0AF
S315020049E0E6E802010FF005C04FF0005243F005C0A1
S315020049F0E2E802010FF005C0002000F099F8FFF787
S31502004A00FFF9FFF7E1FD0320FFF7D1FE4FF00E0E8F
S31502004A1040F63050C4F2400020F8044B0FF005C0B7
S31502004A204EF210140320C4F20104FFF799FE03208C
S31502004A30FFF7BDFE44F204000021C4F2200001602B
S31502004A4041608160C1600320FFF78AFED4F8C80284
S31502004A50800714D42078A0B10120FFF7A8FE00BF7A
S31502004A6094F9000010F1410FFADC0020207000BF1B
S31502004A7020783F28FCD80120FFF772FE01E0D4F827
S31502004A80C802D4F8C802400715D42079A8B101207B
S31502004A90FFF78DFE00BF00BF94F9040010F1410F2D
S31502004AA0FADC0020207100BF20793F28FCD80120C3
S31502004AB0FFF756FE01E0D4F8C802012000F038F8EC
S31502004AC04CF67C54C2F20924204601F09FFF204690
S31502004AD001F0B0FFBFF34F8FBFF36F8F0020C5F811
S31502004AE0500246F6441046F64411C0F20720C0F2C0
S31502004AF00721BFF34F8F081ABFF36F8F8410012C63
S31502004B000BDB46F64415C0F2072500BF00BF00BF07
S31502004B1055F8040B8047013CFAD10220FCF714FE3B
S31502004B20FFF70AFE0020BDE8704000F030B8D4D48A
S31502004B30F0B581B046F25C350446C0F207252E6810
S31502004B4076B16868071D00BF7879844204D157E9B7
S31502004B500101091A01F062FE013E07F10C07F3D1C9
S31502004B60AE6896B1E86800F1080500BF00BF00BF55
S31502004B706879844205D155E902022968121A01F0C0
S31502004B8051FE013E05F11005F2D101B0F0BD7047AC
S31502004B9070B5002841D044F61436A0F10805C2F2D9
S31502004BA009260446B54254D347F6FF70304485427F
S31502004BB04FD854F8040C00285BD52968002968D11F
S31502004BC020F0004044F8040C00F094FE44F608304D
S31502004BD044F60C33C2F2092054F8041CC2F209232B
S31502004BE002680A4402601A4610461268AA42FBD3B9
S31502004BF0984206D0B0425CD347F6FF7333449842DC
S31502004C0057D84368C618AE4202D1194405464160D8
S31502004C106B18934202D013460CE070BD44F604337F
S31502004C20C2F209231B689A4204D052681144696091
S31502004C3001680B68A8422B6018BF05604CF6143059
S31502004C40C2F20920016801310160BDE8704000F03E
S31502004C50ABBE45F2FA4045F27E6245F2C313C0F29C
S31502004C600720C0F20722C0F207234FF4B571FFF7FF
S31502004C70F3FC45F2FA4045F27E6245F29B53C0F2DE
S31502004C800720C0F20722C0F2072340F26B11FFF79A
S31502004C90E3FC45F2FA4045F27E6245F62613C0F27F
S31502004CA00720C0F20722C0F207234FF4B671FFF7BE
S31502004CB0D3FC45F2FA4045F2322245F24D23C0F2C8
S31502004CC00720C0F20722C0F207234FF4FD71FFF757
S31502004CD0C3FC01464FF0FF3241F8082F0022C0E91B
S31502004CE00311C0E900217047002101617047426843
S31502004CF04A6093688B60596091600861016801316E
S31502004D0001607047D4D4D4D480B5D1F800C01CF168
S31502004D10010207D000F108029646526813686345FD
S31502004D20FAD903E0D0F810E0DEF804204A60916078
S31502004D30C1F808E0CEF8041008610168013101608B
S31502004D4080BDD0E901230169936042685A604A68CE
S31502004D50824201D182684A600022026108680138F3
S31502004D600860704770B500284BD00446C06BC0B3CC
S31502004D700E46216CA0FB010199BBFDF7C6F9D4E9E9
S31502004D800F010025226801FB00230138A56300FB01
S31502004D900120C4E90123E060FF2084F8440084F87E
S31502004DA0450004F110004EB1FFF793FF04F1240011
S31502004DB0FFF78FFFFDF7D7F9012070BD01680029C3
S31502004DC0F8D001F004F90028F4D04EF604504FF062
S31502004DD08051CEF200000160BFF34F8FBFF36F8F99
S31502004DE0E8E745F2536045F6DF0245F65403C0F2A2
S31502004DF00720C0F20722C0F207234FF4B671FFF76D
S31502004E002BFC45F2536045F6DF0245F61603C0F267
S31502004E100720C0F20722C0F2072340F23711FFF73C
S31502004E201BFC10B582B05BB3D0B11C4601B9BAB94E
S31502004E3001B1AAB148230193019B482B30D1019BB2
S31502004E40002954EA0282C4E90F0101212046012306
S31502004E5084F846302260FFF785FF204602B010BD77
S31502004E6045F2536045F2B74245F27073C0F207202D
S31502004E70C0F20722C0F207234FF4D871FFF7ECFB0A
S31502004E8045F2536045F2B74245F20D33C0F20720B0
S31502004E90C0F20722C0F207234FF4C271FFF7DCFB10
S31502004EA045F2536045F2B74245F26C43C0F2072021
S31502004EB0C0F20722C0F207234FF4CB71FFF7CCFBF7
S31502004EC0B0B582B060B10D46814209D814460021C0
S31502004ED000222346FFF7A5FFA563204602B0B0BD18
S31502004EE045F2536045F20E6245F21B33C0F20720CB
S31502004EF0C0F20722C0F207234FF45E71FFF7ACFB44
S31502004F002DE9F04F85B00028049200F0A1800446F6
S31502004F109946154619B9206C002840F0C980B9F1A6
S31502004F20020F03D1E06B012840F0B280019101F03B
S31502004F303AF910B9002D40F09B80FDF7E6F8B9F179
S31502004F40020FA06B5DD0E16B88425AD304F11007C1
S31502004F50012002AE4FF0000B04AD00BF00BF00BF40
S31502004F600499002968D0C00702D0304601F0B7F88C
S31502004F70FDF7F9F800F0BEFCFDF7C7F894F8440017
S31502004F80FF2808BF84F844B094F84500FF2808BFFC
S31502004F9084F845B0FDF7E7F83046294601F0ACF84B
S31502004FA000284CD1FDF7B1F8D4F838A0D4F83C80EB
S31502004FB0FDF7D9F8C24517D10499384600F0AAFF81
S31502004FC0204600F0B5F800F0EFFC90B94EF604501A
S31502004FD04FF08051CEF200000160BFF34F8FBFF356
S31502004FE06F8F06E000BF00BF204600F0A1F800F078
S31502004FF0DBFCFDF78AF8A06BE16B88424FF00000FC
S31502005000AED2204601994A4600F062F854F8240FBF
S3150200501070B1204600F0DBFF50B14EF604504FF05F
S315020050208051CEF200000160BFF34F8FBFF36F8F46
S31502005030FDF799F8012008E0FDF795F804E020460F
S3150200504000F076F800F0B0FC002005B0BDE8F08F65
S3150200505045F2536045F25E1245F61603C0F207208A
S31502005060C0F20722C0F2072340F2B631FFF7F4FA84
S3150200507045F2536045F25E1245F27013C0F2072004
S31502005080C0F20722C0F2072340F2BB31FFF7E4FA6F
S3150200509045F2536045F25E1245F22333C0F2072011
S315020050A0C0F20722C0F207234FF46E71FFF7D4FA5B
S315020050B045F2536045F25E1245F6A713C0F2072089
S315020050C0C0F20722C0F2072340F2B731FFF7C4FA53
S315020050D070B5866B036C04462BB31546B2B1E06815
S315020050E01A4601F09FFB2168E268206C121AE26000
S315020050F08A4203D24042A1680844E060022D5FEA78
S315020051001F90002E5FEA0080361A0CE060681A468D
S3150200511001F088FBD4E90101226C104460608842E8
S3150200512001D320686060701CA06370BDD4D4D4D44F
S31502005130F0B581B00446FCF7E8FF94F94560012E0C
S315020051400EDB04F1240500BF286848B1284600F0AA
S315020051503EFF08B101F020F870B2013E0128F3DCEF
S31502005160FF2684F84560FCF7FEFFFCF7CEFF94F9B4
S315020051704470012F10DB04F1100500BF00BF00BF11
S31502005180286848B1284600F022FF08B101F004F869
S3150200519078B2013F0128F3DC84F8446001B0BDE82F
S315020051A0F040FCF7E0BFD4D42DE9F04F83B00028DD
S315020051B0029200F0AA8004461646894619B9206C66
S315020051C0002840F0C28000F0EEFF10B9002E40F039
S315020051D0AC80FCF79AFFD4F838A0BAF1000F29D0B8
S315020051E0226C52B1D4E902011144E160814201D339
S315020051F02168E160484601F015FB54F8100F0028BB
S31502005200AAF10100A0620ED0204600F0E0FE50B1E5
S315020052104EF604504FF08051CEF200000160BFF30B
S315020052204F8FBFF36F8F0124FCF79DFF204603B01B
S31502005230BDE8F08F04F1240801206F464FF0000B01
S3150200524002AE00BF00BF00BF0299002959D0C007B5
S3150200525002D0384600F043FFFCF785FF00F04AFB18
S31502005260FCF753FF94F84400FF2808BF84F844B0C3
S3150200527094F84500FF2808BF84F845B0FCF773FF91
S315020052803846314600F038FF70B12046FFF750FF2E
S3150200529000F08AFBFCF739FFA56BFCF764FF95B3B8
S315020052A026E000BF00BF00BFFCF72FFFA56BFCF78F
S315020052B05AFF2DB12046FFF73BFF00F075FB17E0C2
S315020052C00299404600F026FE2046FFF731FF00F025
S315020052D06BFB68B94EF604504FF08051CEF20000D7
S315020052E00160BFF34F8FBFF36F8F00BF00BF00BFD8
S315020052F0FCF70BFFD4F838A00020BAF1000FA3D0B8
S315020053006EE7002490E7002490E745F2536045F2E9
S31502005310326245F2F123C0F20720C0F20722C0F240
S31502005320072340F2E951FFF797F945F2536045F238
S31502005330326245F27013C0F20720C0F20722C0F2B1
S31502005340072340F2F251FFF787F945F2536045F21F
S31502005350326245F27B73C0F20720C0F20722C0F226
S31502005360072340F2ED51FFF777F9D4D4D4D4D4D43D
S315020053702DE9F04F83B00028029100F09080044698
S31502005380006C002840F09B800D4600F00CFF10B91F
S31502005390002D40F0A480FCF7B8FEA06BD0B154F803
S315020053A0101F0138A06271B1204600F010FE50B104
S315020053B04EF604504FF08051CEF200000160BFF36A
S315020053C04F8FBFF36F8F0124FCF7CDFE204603B04B
S315020053D0BDE8F08F4EF6045904F1240801216E4609
S315020053E04FF0000B02AFCEF200094FF0805A00BF19
S315020053F0029800284FD0C80702D0304600F06FFE50
S31502005400FCF7B1FE00F076FAFCF77FFE94F8440052
S31502005410FF2808BF84F844B094F84500FF2808BF67
S3150200542084F845B0FCF79FFE3046394600F064FE2C
S3150200543070B12046FFF77CFE00F0B6FAFCF765FE77
S31502005440A56BFCF790FE45B31EE000BF00BF00BF90
S31502005450FCF75BFEA56BFCF786FE2DB12046FFF737
S3150200546067FE00F0A1FA0FE00299404600F052FDF5
S315020054702046FFF75DFE00F097FA28B9C9F800A0AA
S31502005480BFF34F8FBFF36F8FFCF73FFEA06B002178
S315020054900028ADD083E7002496E7002496E745F27C
S315020054A0536045F2874245F2F123C0F20720C0F26B
S315020054B00722C0F2072340F28261FFF7CDF845F2D8
S315020054C0536045F2874245F64C13C0F20720C0F2FC
S315020054D00722C0F2072340F28661FFF7BDF845F2C4
S315020054E0536045F2874245F27013C0F20720C0F2BC
S315020054F00722C0F2072340F28B61FFF7ADF8D4D43E
S3150200550010B508B3D9B14CF618324FF0000C0A2385
