S0130000766973696F6E5F435055302E7372656302
S315020000000051002271090302590703027B09030208
S315020000107B0903027B0903027B0903027B090302B4
S31502000020000000000000000000000000F9D30202F8
S315020000307B0903020000000011D4020279D40202F5
S31502000040DBF1020269F3020289F4020271F502028D
S31502000050E7FD0202A9DF0202C3DE02022FE002026C
S3150200006081E0020265D8020207E7020289E702027C
S30D020000706FFA02026FFA0202A6
S31502000078000000002E250A0227200A028C8177003A
S31502000088000000000000000000000000010000005F
S31502000098FD190A028F240A023037DE00BA00000070
S315020000A8D6000000480000000200000026260A02C8
S315020000B89C290A02A0377000F1000000A80000007F
S315020000C84000000003000000C3260A02041A0A02BE
S315020000D84BA54E008E000000EE0000004500000011
S315020000E818120A2200000000000000007000002218
S315020000F800000000000000000000000000000800E8
S3150200010800000000000000000000000000001008C7
S31502000118000000000000000000000000104000007F
S31502000128A0380A0250390A02003A0A02B03A0A020A
S31502000138A0380A02A0380A02A0380A02A0380A021F
S315020001480000000000000000043B0A02543B0A02B9
S31502000158A43B0A02F43B0A02043B0A02043B0A02D3
S31502000168043B0A02043B0A020000000000000000E9
S31502000180B0B5054614469FED090A4FF4D8324FF032
S31502000190FF330846294600F0A7F84FF4D832204626
S315020001A02946BDE8B04032F0C4BD00BF8180003CA4
S315020001B02DE9F04F9BB044F2445E0DF1580CC0F2AB
S315020001C0032E67469EE8700387E8700344F2585888
S315020001D00DF1440EC0F20328F2460DF1300998E8FB
S315020001E0F00844F26C58C0F203288AE8F0084D463B
S315020001F098E8D00C85E8D00C06469A4693464FF40A
S315020002005872052308463146DDF89080CDF800C0C5
S31502000210CDE901E900F094F89FED120A4FF4587205
S315020002200023304641464FF0000900F075F844F2CB
S31502000230905008AAC0F20320114604AB90E8F000E1
S3150200024044F28050C0F20320F0C1194690E8F00053
S31502000250F0C158465146CDE9009900F0A9F81BB005
S31502000260BDE8F08F6F0E003F2DE9F04792B044F2E1
S31502000270C05E0DF1340CC0F2032E634644F2D4592B
S315020002809EE8F001C0F203290DF1200E83E8F00189
S31502000290F2460DF10C0899E8F80044F2E859C0F26A
S315020002A003298AE8F800444699E8E80484E8E80461
S315020002B0054614464FF45862052308462946CDF8EA
S315020002C000C0CDE901E800F03BF89FED060A4FF4C5
S315020002D0586200232846214600F01EF812B0BDE8F7
S315020002E0F08700BF2EB8953E9AB100BF00BF00BF8F
S315020002F0B0EC011A81EE001AB8FE411ABDEEC11A1F
S31502000300013A11EE10CA9C440CF3070C01F801CB1A
S31502000310EED17047D4D4D4D480B542F00FC000BF1A
S3150200032010F9012BD21A01EE102AB8EEC11A20EEEC
S31502000330011AA1EC011A0FF00DC880BDD4D4D4D491
S31502000340012AB8BF70472DE9F04F9A46DDE90998B0
S315020003504FF0000B00BF00BFBAF1010F1CDB4AF0E1
S3150200036001E0002647464C460B9B00BF00BF00BF7C
S3150200037057F8045B9BFBF5FC0CFB15BC53F8045BBE
S315020003809CFBF5FC54F8045B0CFB05660FF011C0F0
S3150200039003E000BF00BF00BF0026835D01F80B30FB
S315020003A00BF1010B9345D7D1BDE8F04F7047D4D47A
S315020003B02DE9F04F8DB01E680296012E089053DB90
S315020003C09768D0680790784352680590504306971D
S315020003D00190D86804900C461799169E5D68D3F86A
S315020003E008A00023DDF81880049F09920A9500BF31
S315020003F0012D03932FDB0020009109992A463346EB
S315020004000B90B34600F034F8BAF1010F1CDB059AE3
S31502000410089900FB02104FF000095546079E0C9002
S31502000420179800904846414652465B4600F020F82F
S315020004300C9900FB061120463A4632F07AFC013D41
S315020004403C4409F10109EBD10B980A9D0130179939
S31502000450A8425E46D0D1039B02980133019A834299
S31502000460089810440890C3D10DB0BDE8F08FD4D4DB
S3150200047080B5DDF808C06BB1022A0BDBA1F1010ED3
S3150200048000EE10EA013A01EE102AB8EEC00AB8EE02
S31502000490411A07E000EE101A01EE102AB8EEC00A61
S315020004A0B8EEC11ABCF1000F03EE100A80EE010A83
S315020004B09FED112AB6EE001AB8EEC33A02FE011AF1
S315020004C031EE031A21EE000A23B1B8FE400ABDEE50
S315020004D0C00A05E0B7EEC00ABBFE400BBDEEC00B7C
S315020004E010EE100A0139884250EAB180BCF1000FC1
S315020004F018BF20EAE07080BD0000000045F24010FF
S31502000500C2F20020704741F24010C2F20720704743
S3150200051044F24070C2F2072070472DE9F04782B0DC
S31502000520044645F62030C0F2092040F20001C6F624
S31502000530000145F62C330068C0F209230A1845F675
S315020005402430C0F209204CF20006C6F60606006800
S3150200055001EB000A18680F1845F62830C0F2092088
S3150200056041F2B843C0F20A2300680D1845F2C040B2
S3150200057045F240111B68C2F20720C2F2002106EBC7
S315020005800308FFF7FDFD204600F03AF840F62C0975
S3150200059044F2407140F2C540C2F20929C2F2072173
S315020005A0C2F20920009139462A464B46FFF700FE61
S315020005B041F2B4404FF45862C0F20A205146006834
S315020005C0304432F0B6FB41F2B0404FF45852C0F21A
S315020005D00A2049460068304432F0ABFB204600F060
S315020005E08FF843F62C6041F24012C2F20920C2F2A1
S315020005F00722414602B0BDE8F047FFF735BED4D424
S31502000600B0B598B046F6B45240F20004C0F20322E6
S3150200061046F6C0510025C6F600040028C0F20321A2
S315020006200B950A9111680391CDE90C454FF4D82137
S315020006304FF4D8300690CDE90E45CDE90411CDE947
S3150200064010450AD004F510504FF4586132F06DFB94
S315020006504FF48751204632F068FB04F51050CDE97D
S3150200066012054FF458604FF4585ECDE91445CDE9B2
S31502000670070004F55860CDE916054FF45870099045
S3150200068044F2FC50BFF34F8FC0F203204EF65C7566
S31502000690CEF20005026800BFEC6020340FF005C000
S315020006A0BFF34F8FBFF36F8F072003A9CDE9001069
S315020006B041F2182044F20061C2F20A20C0F203217C
S315020006C00AAB0024029403F014FABFF34F8F4FF4DF
S315020006D0585E40F20001C6F6000100BF00BF00BF2F
S315020006E0296020310FF005C0BFF34F8FBFF36F8F24
S315020006F001305FEA1FA018B0B0BDD4D4D4D4D4D48C
S31502000700B0B596B045F664724CF20004C0F2092206
S3150200071045F67071C6F60604C0F209210A911168FF
S31502000720049104F5AB4110912FA100250B950F956D
S31502000730CDE90C4591ED001F0E9411951395129477
S315020007408DED051F28B104F558604FF4586132F05B
S31502000750ECFA04F55860CDE914054FF45860099097
S3150200076045F6303040F25C4EBFF34F8FC0F209209F
S315020007704EF65C75CEF20005026800BF00BF00BFF0
S31502000780EC6020340FF005C0BFF34F8FBFF36F8FBD
S31502000790062004A9CDE9001041F2182045F64031A1
S315020007A0C2F20A20C0F209210AAB0024029403F025
S315020007B0A0F9BFF34F8F40F25C4E4CF20001C6F631
S315020007C0060100BF00BF00BF296020310FF005C03F
S315020007D0BFF34F8FBFF36F8F01305FEA1FA016B0D2
S315020007E0B0BD00BF00BF00BF808B0000808B000041
S315020007F000360000800D000080B542F68061C0F22E
S315020008000A2107C91268904700285FEA1F910E283D
S315020008105FEA1F90084344F6B131C2F2092108701B
S3150200082080BDD4D4D4D4D4D42DE9F04F81B02DEDEB
S31502000830048B86B0814600284FF000001CBF0F468D
S31502000840002905D106B0BDEC048B01B0BDE8F08FDE
S315020008501D46002BF6D044F6B1341646C2F20924E0
S31502000860DDF85080207800284FF00000286013D170
S3150200087042F68061C0F20A2107C9126890470E2823
S315020008805FEA1F9100285FEA1F9241EA0201217086
S3150200089018BF0E2840F09C81CDE90276002404950B
S315020008A0FFF72CFE4AF6AB2B9FEDCE0A4FF0FC0A61
S315020008B0C4EB0413C0211B0141F001E09BB2A44624
S315020008C003FB0BF30025DB0D03EB83039E010346BB
S315020008D0C5EB051401352401A4B204FB0BF406EBA7
S315020008E0D454283409EB440819F8144098F8012026
S315020008F002F0F80141EA521101EE101A44EA022707
S31502000900B8EE411A0AEAD701C2F34102114481EE56
S31502000910001A02EE101AC4F3820141EAC40103F579
S31502000920902703F51032C9B2A3EC011A01EE101A90
S31502000930B8EE422AB8EE411A82EE002A82ED002A69
S3150200094081EE001A87ED001A0FF03FC00CF1010488
S3150200095000F54070C02CABD10120FFF7DEFD4FF051
S315020009600009CDF81490FFF7CEFD42F6B82205AF86
S31502000970C0F20A22B3EE000A0C213B4600F03CF913
S31502000980FFF7C6FD42F6D0229FED970AC0F20A2271
S3150200099006213B4600F030F9DDF814A0BAF1000F4B
S315020009A000F0AC8044F6B43C44F69458C2F2092CEA
S315020009B04FF0000BC2F209280CF10C0E9FED8B0AC8
S315020009C09FED8B1A4FF00009B9F1000F00F08180FC
S315020009D00BEB4B074E4608EBC70577466C6900BF23
S315020009E0BA68944271D117ED032A95ED003AB4EE36
S315020009F0423A17ED024AF1EE10FA95ED015A17ED59
S31502000A00017AB4EE445AD5ED020A33FE026AD7EDF4
S31502000A10002AF1EE10FAB4EE607AD5ED033A30EE22
S31502000A20C33A75FE041AF1EE10FAF4EE632A33EEB7
S31502000A30C55A70FE874AF1EE10FA34EEC66A37EEF0
S31502000A40422A73FEA24A74EEE11AB5EE406AF1EE4C
S31502000A5010FAF5EE401A48BFB0EE406AF1EE10FA0F
S31502000A60B5EE403A48BFF0EE401AF1EE10FAB5EE96
S31502000A70405A32EEC44A48BFB0EE403AF1EE10FA9E
S31502000A80B5EE402A48BFB0EE405AF1EE10FAB5EE86
S31502000A90404A48BFB0EE402AF1EE10FA48BFB0EE27
S31502000AA0404A22EE044A03EE054A26EE212A34EE95
S31502000AB0423AB5EE403AF1EE10FA06DD82EE032A2C
S31502000AC0B4EE412AF1EE10FA10DC013E07F11807E6
S31502000AD086D10BEB4B0409EB490209F1010908EB3C
S31502000AE0C4040CEBC20294E8EB00EBC20BF1010B5F
S31502000AF0D34538BFB9F1100FFFF466AF0398149DC2
S31502000B00814559EA3089B9F1000F5CD0029844F662
S31502000B10B43444F6345841F27E6A00F10807C2F250
S31502000B200924B7EE048A9FED339AC2F20928C0F26D
S31502000B300A2A4E4600BF00BF94ED000A94ED022A2F
S31502000B40B0EE491A6369A0EE081A94ED010AB0EEF6
S31502000B50493AA2EE083A94ED032A20EE080A47F82B
S31502000B60083C22EE082ABDEEC11ABDEEC33ABDEE1E
S31502000B70C00ABDEEC22A11EE100A13EE101A12EEC8
S31502000B80102A084410EE101A114400EBD0704FEAF6
S31502000B90600047F8040C01EBD1714FEA61023A603A
S31502000BA05DB16021CDE900024046524632F0DEF9DF
S31502000BB001385E2801D84046A847013E04F11804D0
S31502000BC007F10C07B8D10498C0F80090012039E665
S31502000BD0B8F1000F04D042F27D30C0F20A20C047BD
S31502000BE000202FE600007F430000004200000000C4
S31502000BF06666E63E000020422DE9F04F81B02DEDFB
S31502000C00088B8EB001FB01F61D46034600F1140760
S31502000C1000F118097001B3EE001A0026BBEE002A95
S31502000C209FED0C3AB7EE004A4FF0020CB0EE005AB6
S31502000C309FED097ABEEE006ADFED080AF6EE001AAB
S31502000C400292F6EE082A0190480105900B91CDE931
S31502000C50097305E00000803D0000000000004043EB
S31502000C6006FB01F003960690029800EBC6000026EA
S31502000C700C90CDF8109000BF069803EE906A3218D9
S31502000C80F8EE633A4A434FF000080896CDF81C90F6
S31502000C900D9200BF00BF00BF08EB02064FF0000A2C
S31502000CA007EB461403EB4616D4ED004A4C46F4EE27
S31502000CB0414AF1EE10FA71FE244AB4EE642AF1EECC
S31502000CC010FA72FE244AF5EE404AF1EE645AF1EE4B
S31502000CD010FA48BFF0EE654AF0EE445AD6ED017AB4
S31502000CE044EE835A96ED029A96ED038AD6ED046A8D
S31502000CF065EEA54A64EEA44A64EEA44A64EEA44AEA
S31502000D00C4EE244A74EE844AC4EE244A74EE645A4B
S31502000D1064FEA54AD6ED005A4CF001E0012600BF5A
S31502000D20B4EC01AAB4EE41AAF1EE10FA31FE0AAA17
S31502000D30B4EE4A2AF1EE10FA32FE0AAAB5EE40AA3B
S31502000D40B1EE4ABAF1EE10FA48BFB0EE4BAAB0EED7
S31502000D5044BA0AEE03BA2BEE0BAA2AEE0AAA2AEE26
S31502000D600AAA2AEE0AAA84EE0AAA3AEE04AA84EE8D
S31502000D700AAA34EE4ABA2AFE0BAAB4EE64AAF1EE25
S31502000D8010FA56EACA8A06F101067AFE244A0FF0DA
S31502000D9039C8F4EE415AF1EE10FA71FE255AB4EE54
S31502000DA0652AF1EE10FA72FE255AF5EE405AB1EEB8
S31502000DB065AAF1EE10FA48BFF0EE4A5AB0EE44AA1E
S31502000DC005EE83AAF4EE417A6AEE0A5A65EEA55A50
S31502000DD065EEA55A65EEA55AC4EE255A75EE845AF5
S31502000DE0C4EE255A34EE65AA65FE8A5AF1EE10FA69
S31502000DF071FE277AB4EE672AF1EE10FA72FE277AAE
S31502000E00F5EE407AB1EE67AAF1EE10FA48BFF0EEBF
S31502000E104A7AB0EE44AA07EE83AAB4EE419A6AEE83
S31502000E200A7A67EEA77A67EEA77A67EEA77AC4EE22
S31502000E30277A77EE847AC4EE277A34EE67AA67FEBB
S31502000E408A7AF1EE10FA31FE099AB4EE492AF1EEE7
S31502000E5010FA32FE099AB5EE409AB1EE49AAF1EEBF
S31502000E6010FA48BFB0EE4A9AB0EE44AA09EE03AAB7
S31502000E70B4EE418A2AEE0A9A29EE099A29EE099ACD
S31502000E8029EE099A84EE099A39EE049A84EE099AB1
S31502000E9034EE49AA29FE0A9AF1EE10FA31FE088AC0
S31502000EA0B4EE482AF1EE10FA32FE088AB5EE408A0E
S31502000EB0B1EE48AAF1EE10FA48BFB0EE4A8AB0EE99
S31502000EC044AA08EE03AAF4EE416A2AEE0A8A28EE3A
S31502000ED0088A28EE088A28EE088A84EE088A38EEFE
S31502000EE0048A84EE088A34EE48AA28FE0A8AF1EEBB
S31502000EF010FA71FE266AB4EE662AF1EE10FA72FE56
S31502000F00266AF5EE406AB1EE66AAF1EE10FA48BF1D
S31502000F10F0EE4A6AB0EE44AA06EE83AA6AEE0A6ABE
S31502000F2066EEA66A66EEA66A66EEA66AC4EE266A4B
S31502000F3076EE846AC4EE266A34EE66AA66FE8A6A8B
S31502000F4066EEA44AF4EE624AF1EE10FA00F18780E8
S31502000F500C98D5F800B02B46BBF1000F90ED00AA15
S31502000F60D0ED016A1DD00BEB4B0644F69450C2F24B
S31502000F70092000EBC60600BF16ED02BAB4EE64BA4B
S31502000F80F1EE10FA73D5BBF13F0FA6F1180E04D895
S31502000F90744694E8A71086E8A710BBF1010B7646C3
S31502000FA0EAD14FF0000BB0EE46BA0BEB4B00A5EEC2
S31502000FB085BA44F6945105EE908AC2F20921F8EEFA
S31502000FC0655A01EBC00038EE088A7BEE255AC0ED61
S31502000FD0044AB0EE46BAC0F814A0A7EE85BA79EE76
S31502000FE0097A28EE088A67EEA77A3BEE239A60EE24
S31502000FF0255A67EE8A7A20EE099A68EE266AB0EEDC
S31502001000658AE7EEA15AA7EE868AF0EE497AE6EEFF
S31502001010867AA6EEA19AC5FE875AC8FE076AC7FE59
S31502001020877AC5FEE05AC0ED025AC9FE075AC6FEC5
S31502001030E06AC0ED006AC7FEE07AC0ED017AC5FE3D
S31502001040E05AC0ED035A1E681D463F2E0B99DDE994
S3150200105009734FF0020C0D9A01D8701C286008F132
S31502001060010809F1200988457FF416AE04E0BBF1B8
S315020010703F0F98D9E7E700BF089E05980136DDF8CD
S315020010801C908E4281447FF4F7AD039EDDF81090EA
S3150200109001360198032E81447FF4E2AD0EB0BDEC19
S315020010A0088B01B0BDE8F08F90B1007945F2943219
S315020010B0C2F209220128A0F101005FEA1F9102286B
S315020010C0117005D845F295300121C2F2092001704E
S315020010D0704798B145F298310122C2F20921C0F255
S315020010E0810200680B68104240EA0300086005D0DE
S315020010F045F29C300121C2F209200170704710B5F9
S3150200110082B00DF1070143F20A0000248DF8074070
S315020011108DF8064000F013F870B10DF1060143F2A6
S315020011200B0000F00CF830B19DF807009DF8061090
S3150200113041EA002400E00024A0B202B010BD2DE96D
S31502001140F04782B040BAADF8060042F6F87045F2B2
S315020011509539C0F20A2045F2943AC2F20929C2F23E
S31502001160092A8768002489F800408AF80040066840
S315020011708846BD680DF10601022201233046A847C2
S3150200118088B9002400F0B4F968B189F800408AF8F9
S3150200119000407F680122002330464146B84710B915
S315020011A000F0A6F90446204602B0BDE8F08709B170
S315020011B0FFF7C5BF0020704745F29830C2F20920FA
S315020011C00068704745F2A030C2F2092000687047F5
S315020011D048B1B0B545F2A431C2F2092191E83C50BA
S315020011E080E83C50B0BD7047F0B581B045F2A035FD
S315020011F00020C2F20925286000F068F800F0B9F86C
S3150200120042F6F870C0F20A208668D0E900413268D8
S31502001210204690470E2818BF002846D1032700BF54
S3150200122043F20310032100F08FF928B143F20800BC
S31502001230822100F089F948B9F1682046884700F012
S3150200124098F8013FECD1012002213CE0642030F005
S31502001250A9FDFFF754FF45F24061884228D142F6C4
S31502001260E820C0F20A2000F0AFF820B342F6305070
S31502001270C0F20A2000F0A8F800B342F6E850C0F225
S315020012800A2000F0A1F8E0B142F6BC71C0F20A21D0
S3150200129007C912689047014600284FF0000018BFA0
S315020012A00E2911D0032008210DE0012101200AE0B8
S315020012B00220032107E00120042104E00120052188
S315020012C001E001200621296001B0F0BDF0B581B030
S315020012D042F68C6040F20045C0F20A20C0F6017563
S315020012E005F504664FF48061876804682046324635
S315020012F0FB689847FB6840F2014120463246984710
S31502001300FB6840F2054120462A469847FB6840F2B0
S31502001310064120462A469847FB6840F20E4120467F
S315020013202A469847FB6840F20F4120462A469847CC
S31502001330FB684FF4E06120462A469847FB6840F274
S31502001340017120462A469847FB6840F20271204600
S315020013502A469847FB6840F2037120462A46984778
S31502001360FB684FF4E16120462A4601B0BDE8F04031
S315020013701847B0B542F68C6040F20971C0F20A20F5
S315020013800022856804682046EB699847EB6940F2BB
S315020013900A71012220469847322030F003FDEB699C
S315020013A040F20A71002220469847322030F0FAFCB9
S315020013B0EB6940F20971012220469847C820BDE830
S315020013C0B04030F0EFBCD4D470B5841C4FF6FE7535
S315020013D04FF6FF7600BF00BF34F8020CA84207D0D2
S315020013E0B0420AD0217800F0AFF840B103E000BF66
S315020013F0207830F0D7FC0434EEE7012070BD0020DF
S3150200140070BDD4D4D4D4D4D42DE9F041064630F0FC
S31502001410B5FE002E4FD00546FFF758FF45F29C3821
S3150200142045F29837C2F20928C2F2092745F2A434D6
S315020014300020C2F2092488F80000386018212046EC
S3150200144031F073FC42F6BC70C0F20A208168006873
S315020014508A6831469047E0B998F8000088B900BF1B
S3150200146030F08CFE401BB0F57A7F27D8386810F42E
S31502001470010F23D1012030F095FC98F800000128D5
S31502001480EED1386810F4010F4FF0000008BFBDE836
S31502001490F081206048F20000C4F234000168616005
S315020014A0C16FA160416FE160D0F88410216180684C
S315020014B0606100F005F80320BDE8F0810020E8E74E
S315020014C070B542F6BC75C0F20A25AE682C68204695
S315020014D071688847072818BF002808D1012030F014
S315020014E061FC326869682046BDE87040104770BDED
S315020014F0B0B530F043FE45F29535C2F2092529789A
S3150200150071B9044600BF00BF30F038FE001BB0F5CB
S31502001510FA7F0DD8012030F045FC28780128F3D156
S3150200152045F29430C2F20920007880F0010008E00A
S3150200153042F6F870C0F20A2081680068C9688847D6
S31502001540002000F00100B0BD10B582B08DF8071082
S3150200155042F6F871020A8DF805208DF8060045F26A
S315020015609530C0F20A2145F29432C2F20920C2F243
S3150200157009228B680024047014700868D3F808C026
S315020015800DF1050103220023E04710B9FFF7B0FF72
S315020015900446204602B010BD8CB042F67870C0F206
S315020015A00A208568D0E900412A68204690470E281D
S315020015B018BF002811D141F63B0145F2BC33AF6991
S315020015C0C0F20021C2F2092300222046B84741F6A2
S315020015D02750C0F20A2000F03BF9FFF705FE20B3C0
S315020015E00446FFF78CFD0546FFF7ECFD45F28C43FA
S315020015F042F62202C2F20923C0F20A22C021CDE932
S3150200160000051846234631F0B1FC0138BE2807D83A
S3150200161045F28C40C2F2092000F01AF900BF00BF61
S315020016204FF47A7030F0BEFBFAE7FFF7E5F80028D0
S3150200163000F0D98042F29030C0F20A2000F008F998
S3150200164043F20A0000F049F943F20B0000F045F9B3
S315020016504FF4864000F041F945F21F0000F03DF9D3
S3150200166044F2407000F039F944F2417000F035F965
S3150200167045F23D0000F031F943F2350000F02DF954
S3150200168043F2360000F029F943F6200000F025F96E
S3150200169043F6210000F021F943F6240000F01DF97B
S315020016A044F6370000F019F943F2064000F015F946
S315020016B045F2811000F011F945F2861000F00DF99D
S315020016C045F2871000F009F945F2881000F005F995
S315020016D045F2891000F001F945F28A1000F0FDF892
S315020016E045F28B1000F0F9F845F28C1000F0F5F88F
S315020016F045F28D1000F0F1F845F28E1000F0EDF88B
S3150200170045F28F1000F0E9F845F2901000F0E5F886
S3150200171041F2DE60C0F20A2000F09AF840F2DC5094
S3150200172030F040FB44F680340525C6F6070400BFB8
S315020017302046FFF769FE642030F034FB013DF7D105
S3150200174044F6803445F2CC3A45F28C4841F68B1B7E
S31502001750C6F60704C2F2092A0DF11809C2F20928CF
S31502001760C0F20A2B00BF00BF2046FFF74DFEB8B1FC
S31502001770FFF722FD05464846FFF72AFD06AF0B9EF8
S315020017808FCF8DE80F00C02140465A462B46CDE941
S31502001790047631F0EBFB0138BE2820D840461CE027
S315020017A00020069041F651001022C0F2002000905F
S315020017B0204651464B46FFF737F850B1069971B1AC
S315020017C0504601F011F9E0B941F64210C0F20A2082
S315020017D003E042F26E50C0F20A2000F039F80A2005
S315020017E030F0E0FAC0E742F68020C0F20A2000F0AC
S315020017F02FF800BF00BF00BF4FF47A7030F0D2FA64
S31502001800FAE745F28C4042F20852069BC2F20920E0
S31502001810C0F20A22C02131F0A9FB0138BE2807D83E
S3150200182045F28C40C2F2092000F012F800BF00BF58
S315020018304FF47A7030F0B6FAFAE740B1007902282E
S3150200184005D145F24C500021C2F2092001707047C1
S31502001850002841D0F0B581B0054631F07BFA064644
S3150200186030F08CFC45F24C570446C2F2092739780F
S3150200187001290ED100BF00BF30F080FC001BB0F57D
S315020018807A7F26D8012030F08DFA387808B12FF009
S315020018900DC842F678700122C0F20A203A7032462A
S315020018A0816800688B682946984710B10020387015
S315020018B00FE0387801280CD130F060FC001BB0F53F
S315020018C07A7FF3D8012030F06DFA387808B12FF01C
S315020018D00DC801B0BDE8F040704710B584B00446AB
S315020018E000208DF80F000DF10F012046FFF75FFC77
S315020018F041F68A1142F21512C0F20A21C0F20A22F8
S31502001900002851EA128C9DF80F3045F28C4042F2C3
S315020019107C52C2F20920C0F20A22C021CDE900C3DC
S31502001920234631F023FB0138BE2805D845F28C4008
S31502001930C2F20920FFF78CFF04B010BD80B500F09B
S3150200194004F8BDE8804000F0FBB870B545F24D558D
S31502001950C2F209252878002840F0EF8045F250545B
S31502001960C2F20924204615F017FB4FF2F750C0F2D7
S31502001970F20014F02DFA20F07F41204615F0AFFC5C
S31502001980FF21204615F0B0FC0021204615F097FCF9
S315020019900021204615F097FC0021204615F087FC11
S315020019A00021204615F087FC45F25C54C2F2092458
S315020019B0204615F0F1FA14F0F4F920F07F412046A2
S315020019C015F08DFCFF21204615F08EFC08212046DD
S315020019D015F0F9FC01212046012615F09BFC4DF677
S315020019E0E860C0F2D80014F0F3F920F07F412046F7
S315020019F015F087FC0A21204615F061FC0A212046D3
S31502001A0015F061FC0A21204615F051FC0A212046F8
S31502001A1015F051FC0821204615F099FC19212046A3
S31502001A2015F0A6FC0321204615F095FC45F26854F4
S31502001A30C2F20924204615F0AFFA47F65A20C0F240
S31502001A401F0014F0C5F920F07F41204615F047FC2F
S31502001A50FF21204615F048FC0721204615F0B3FC6D
S31502001A600021204615F056FC14F09BF920F07F4128
S31502001A70204615F097FC4CF61C112046C0F20A21AE
S31502001A8015F095FC45F27454C2F20924204615F06D
S31502001A9083FA44F25A40C0F2310014F099F920F068
S31502001AA07F41204615F01BFCFF21204615F01CFC49
S31502001AB00721204615F087FC0021204615F02AFC56
S31502001AC014F06FF920F07F41204615F06BFC49F2C5
S31502001AD0D0312046C0F20A2115F069FC45F2805445
S31502001AE0C2F20924204615F057FA4EF6F260C0F209
S31502001AF0E80014F06DF920F07F41204615F0EFFB67
S31502001B00FF21204615F0F0FB0821204615F05BFC6C
S31502001B100021204615F0FEFB0821204615F0CFFBDA
S31502001B200821204615F0CFFB0421204615F0BFFB05
S31502001B300421204615F0BFFB2E7070BDD4D4D4D438
S31502001B402DE9F04F85B045F28C5040F20001C2F209
S31502001B500920C2F2002104220C46007800BF00BF11
S31502001B602378834204D0013A04F11C04F8D10C46CE
S31502001B7000F003F924F0FBF8054647F65A20C0F2B6
S31502001B801F0014F025F941F2F0614CF61C1320F007
S31502001B907F420E201426C0F20A21C0F20A23CDE9A2
S31502001BA0016028464FF00109CDF8009000F0FCF8DC
S31502001BB024F0DDF843F23F0B0546C0F2200B5846EF
S31502001BC014F006F942F68F2145F2901320F07F4277
S31502001BD02A200290C0F20A21C0F20B232846CDE940
S31502001BE0009600F0E1F824F0C2F8074647F2856055
S31502001BF0C0F2680014F0ECF846F2F46A42F2995127
S31502001C00C0F20A2A20F07F424A20C0F20A2102903C
S31502001C10384653460196CDF8009000F0C5F824F0F8
S31502001C20A6F8142168224FF487734FF09608CDF870
S31502001C30008000F0DAF80746584614F0C9F841F673
S31502001C40E21140F23C7320F07F42C0F20A21C0F258
S31502001C500B2338460025CDF80090CDE9015500F05A
S31502001C60A3F845F26640C0F2430014F0B1F842F21E
S31502001C70D15149F2D03320F07F42C0F20A21C0F29C
S31502001C800A2338464FF0240BCDF80090CDE9015BCC
S31502001C9000F08AF8384624F098FE064628F0B2FF8D
S31502001CA045F280510022C2F20921304628F084FD15
S31502001CB07C211C22304626F005FC0421002200234A
S31502001CC0304626F0C1FC44F25A40C0F2310014F00C
S31502001CD07FF842F21A0120F07F42C0F20A21304612
S31502001CE0534609270097CDE9015500F05DF824F027
S31502001CF03EF84FF49B7168229623CDF8008000F0DF
S31502001D0074F8064648F28C10C0F2770014F060F8B8
S31502001D1041F6C42120F07F42C0F20A2130465346E2
S31502001D20CDF80090CDE9015500F03EF8A07BA289DE
S31502001D304CF61C136168C0F20A23CDE9007542EA2B
S31502001D40004208200290304600F02EF824F00FF8E8
S31502001D50CC21CDE9001B42F2747141F69D67C0F2B7
S31502001D600A218A224FF48973C0F20027CDE902754F
S31502001D7000F060F805B0BDE8F08F10B523F0F7FF6C
S31502001D800446FFF7E2FD204629F0DAFF45F25051FC
S31502001D900022C2F20921204628F00EFD102120461B
S31502001DA0BDE8104024F07EBE2DE9F0479846144661
S31502001DB00D46DDE9089A0A9F07F0CDFD294606463B
S31502001DC007F0D6FD24F07F410022304629F038FE86
S31502001DD000223046414629F03AFE304649465246EE
S31502001DE03B46BDE8F04726F02FBC2DE9F0411D46E3
S31502001DF017460E46DDF8188024F0E7FD044628F063
S31502001E0001FF45F25C510022C2F20921204628F068
S31502001E10D3FC204631463A4625F008FE204629469E
S31502001E20424626F04FFB1021204624F03BFE204678
S31502001E30BDE8F0812DE9F04F81B00DF1280A9B46ED
S31502001E40144688469AE860060DF01FFA074628F0FF
S31502001E50D9FE45F268510022C2F20921384628F01D
S31502001E60ABFC384621465A4625F0E0FD384629465F
S31502001E70324626F027FB0A2238464946534625F0C3
S31502001E8081FD384607F067FD4146044607F070FDBE
S31502001E90204601B0BDE8F04F27F02CBB80B514F008
S31502001EA08AF90A2818BF80BDBDE8804000F000B854
S31502001EB070B584B0FFF761FF23F059FF42F221614A
S31502001EC041F6EB72C0F20A21C0F2002200F061F87C
S31502001ED023F04DFF044643F23F00C0F2200013F008
S31502001EE077FF42F64A1140F23C7320F07F421020FF
S31502001EF00290C0F20A21C0F20B23204600250226D8
S31502001F00CDE90065FFF750FF23F031FF044647F2A3
S31502001F108560C0F2680013F05BFF41F6F82146F2D5
S31502001F20F46320F07F422E20C0F20A21C0F20A2377
S31502001F30CDE9015020460096FFF736FF01200E211B
S31502001F4000F05EF80220AB2100F05AF803204FF4AD
S31502001F50A47100F055F823F00AFF044648F28C10EB
S31502001F60C0F2770013F034FF42F2574144F2602385
S31502001F7020F07F420520CDE90005C0F20A21C0F219
S31502001F800A236FF00B0002902046FFF70DFF04B004
S31502001F9070BD70B515460C460DF077F9064628F069
S31502001FA031FE45F274510022C2F20921304628F070
S31502001FB003FC0C210C22304625F038FD44211E225A
S31502001FC0304626F07FFA0A2200233046294625F0BB
S31502001FD0D9FC304607F0BFFC2146054607F0C8FC8F
S31502001FE02846BDE8704027F085BA80B514F0E3F8BC
S31502001FF00A2818BF80BDBDE88040FFF7A1BDD4D432
S315020020002DE9F04184B00D46044623F0B0FE4E227F
S315020020108A23C62100912946FFF7E7FE40F2000116
S315020020200546C2F2002104200F4600BF00BF00BFD2
S315020020303A78A24204D0013807F11C07F8D10F46BC
S315020020400021002228464FF0000829F0D4FC002186
S315020020500022284629F0D5FC00210022284629F034
S31502002060BEFC00210022284629F0BFFC43F23F00B5
S315020020707E68C0F2200013F0ABFE46F2F46320F055
S315020020807F420E2002210091C0F20A23CDE901808F
S3150200209028463146FFF788FE012C38D143F6353003
S315020020A0C0F2D80013F094FE20F07F4035215A2268
S315020020B034230090284600F0A6F945F24800C0F203
S315020020C0E80013F085FE20F07F4055215C22322382
S315020020D00090284600F097F948F63E20C0F23F00ED
S315020020E013F076FE20F07F40392138220D2300902E
S315020020F0284600F088F94AF24D20C0F25A0013F041
S3150200210067FE20F07F404A2136220B233FE0B87B50
S31502002110B9893E22162341EA00463921284600960D
S3150200212000F071F951213E2216232846009600F04E
S315020021306AF92D21522216232846009600F063F9E9
S315020021404521522216232846009600F05CF95D21AD
S31502002150522216232846009600F055F939216722A5
S3150200216016232846009600F04EF9512167221623BF
S315020021702846009600F047F948F63D40C0F24D0069
S3150200218013F026FE20F07F40452128220A230090E4
S31502002190284600F038F947F28560BE68C0F268004A
S315020021A013F016FE0223009344F2602320F07F42CE
S315020021B084200021C0F20A23CDE9011028463146C7
S315020021C0FFF7F2FD42F2F11020215E22CDE9002155
S315020021D042F6A321C0F20020C0F20A2116229A2357
S315020021E0CDE902042846FFF725FE04B0BDE8F081DA
S315020021F02DE9F04F9DB0044613F0DDFF0A2840F0AA
S31502002200FF80204613F0DDFF45F28C5340F20002B8
S31502002210C2F20923C2F20022C1B216461870042085
S3150200222033788B4204D0013806F11C06F8D11646E3
S31502002230FFF7A3FD23F09BFD41F6734142F267428D
S31502002240C0F20A21C0F20022FFF7A3FE23F08FFD9F
S31502002250044643F23F00C0F2200013F0B9FD40F2FB
S315020022603C770221009141F2FF51C0F20B2720F088
S315020022707F4210200025C0F20A21CDE901502046F6
S315020022803B46FFF791FD23F072FD14213E22962371
S315020022904FF05208CDF80080FFF7A7FD48F28C1ADE
S315020022A00446C0F2770A504613F092FD46F2F469EC
S315020022B041F6F211C0F20A2920F07F42C0F20A2149
S315020022C020464B464FF0010BCDF800B0CDE9015543
S315020022D0FFF76AFDB07BB28971680923CDE9003543
S315020022E03B4642EA00420C2002902046FFF75CFD84
S315020022F023F03DFDBC213E224FF48873CDF80080C9
S31502002300FFF773FD0746504613F062FD41F6623150
S3150200231020F07F42C0F20A2138464B46CDF800B083
S31502002320CDE90155FFF740FD41F2BC4205ACD6E9C5
S315020023300430C0F20A22B6696021CDE900062046C1
S3150200234030F014FE43F23F00C0F2200013F040FDCD
S315020023504CF61C1320F07F420E2009210091C0F298
S315020023600A23CDE9015038462146FFF71DFD23F029
S31502002370FEFC1421A4224FF4DC7356270097FFF7C4
S3150200238034FD0446504613F023FD42F6911120F027
S315020023907F42C0F20A2120464B46CDF800B0CDE975
S315020023A00155FFF701FD45F26640C0F2430013F006
S315020023B00FFD42F27A7149F2D03320F07F421E209D
S315020023C0C0F20A21C0F20A23CDE901502046CDF817
S315020023D000B0FFF7E9FC23F0CAFC2421CC22CDE9A8
S315020023E0002142F2215141F6EB77C0F20A218A22FC
S315020023F04FF48773C0F20027CDE90275FFF71AFD85
S315020024001DB0BDE8F08F2DE9F0411E46069B23F074
S315020024107F48A1EB5607A2EB560524F0D6FA0446EE
S3150200242028F0F0FB204639462A4625F0FFFA2046D8
S315020024303146324626F046F847F6FF71002220461C
S3150200244029F011FB00222046414629F0E0FAFF213D
S315020024500022204629F0E2FA002100222046BDE8A9
S31502002460F04129F0E7BA80B513F0A5FE0A2818BF95
S3150200247080BDBDE88040FFF71BBDD4D4D4D4D4D4EC
S31502002480EFF31080012181F3108841F6F421C2F2A4
S315020024900B210A683AB940F614520023C4F24002EC
S315020024A0137040231370B0B50A6841F260240132FA
S315020024B00A60C2F20A2480F3108840F6020104225E
S315020024C020462CF013FA4FF40061042220462CF029
S315020024D00DFA40F60101042220462CF007FA40F6D6
S315020024E00201012220462CF0A4FA4FF400610122D7
S315020024F020462CF09EFA40F60101002220460025D5
S315020025002CF097FA14204FF47A712EF0E2F840F686
S315020025100101012220462CF08CFA4FF496704FF4FA
S315020025207A712EF0D6F800F03AF9702000F064F9CC
S3150200253000F0A2F968B9802000F05EF900F09CF97B
S3150200254038B9202000F058F900F096F908B900F0E1
S3150200255020FA45F28D504FF0100EC2F20920057096
S3150200256045F28E50C2F20920057045F28F50C2F232
S31502002570092000BF00BF00BF00F8015B0FF005C0D5
S3150200258045F29F51A320C2F20921012200F07CF8F4
S3150200259045F2A051A820C2F20921012200F074F8E6
S315020025A045F2A151AC20C2F209210122BDE8B04098
S315020025B000F06AB8D4D4D4D42DE9F04182B04FF0F9
S315020025C00005B8B30580857045604FF0100E45F2E0
S315020025D08F58C2F209280446404600BF00BF00BF1A
S315020025E000F8015B0FF005C045F28D570DF10301AE
S315020025F0C2F209270220012200253D70012600F0C1
S3150200260043F8B8B99DF8030088F802003E7000F05E
S315020026100F05E81E10F1020F45F28E50C2F2092094
S31502002620057006D301A903200422042600F02CF823
S3150200263020B10025284602B0BDE8F08146F001E04F
S3150200264008F1030001A900BF11F8012B00F8012BC4
S315020026500FF007C09DF804009DF805109DF80620AE
S315020026609DF8073000F00F0780096070257041EA77
S31502002670072002F00F01A0801009A07043EA012092
S31502002680E0800125D6E7D4D42DE9F04F81B09146FA
S315020026908846064600F083F8702000F0ADF800F098
S315020026A0EBF868B9304600F0A7F800F0E5F838B95B
S315020026B000F075F8712000F09FF800F0DDF818B10F
S315020026C0012001B0BDE8F08F41F260264FF0000A0A
S315020026D0C2F20A260DF1030740F602010022304635
S315020026E000242CF003F91E2001212DF0F2FF08250B
S315020026F04FF40061002230462CF09BF9052001219F
S315020027002DF0E7FF4FF40061012230462CF091F9DB
S31502002710052001212DF0DDFF40F6020130463A4642
S315020027202CF076F99DF8030000285FEA0F90013D30
S3150200273040EA4404DCD10AF101054FF400610022AB
S3150200274030464D455FEA3F9B2CF073F940F6020195
S31502002750042230462CF0CAF840F6020130465A46A8
S315020027602CF067F9052001212DF0B3FF4FF400612B
S31502002770012230462CF05DF9052001212DF0A9FF3A
S315020027804FF40061002230462CF053F94D4508F80B
S315020027900A40AA46A0D100F0FCF8002091E710B545
S315020027A041F2602440F60201C2F20A2404222046C3
S315020027B02CF09CF840F60201012220462CF039F951
S315020027C04FF40061012220462CF033F91E2001212C
S315020027D02DF07FFF40F60201002220462CF029F957
S315020027E0052001212DF075FF4FF4006100222046DD
S315020027F0BDE810402CF01DB970B541F260250446C3
S31502002800C2F20A2540F60201042228462CF06EF88E
S31502002810082600BF00BF00BF4FF400610022284611
S315020028202CF007F9052001212DF053FFE0B240F606
S315020028300201C20928462CF0FCF8052001212DF0E0
S3150200284048FF4FF40061012228462CF0F2F80520D9
S3150200285001212DF03EFF013E4FEA4404DCD141F254
S3150200286060204FF40061C2F20A200022BDE87040E7
S315020028702CF0DFB8D4D4D4D470B582B041F260243F
S3150200288040F60201C2F20A24002220462CF02EF85B
S3150200289040F60201012220462CF0CBF84FF40061EB
S315020028A0002220462CF0C5F8052001212DF011FF4B
S315020028B04FF40061012220462CF0BBF805200121CD
S315020028C02DF007FF0DF1070240F6020120462CF01B
S315020028D09FF89DF80700C8B141F260240026C2F2B3
S315020028E00A240DF1070500BFFA2E1AD2052001218E
S315020028F001362DF0EEFE40F6020120462A462CF065
S3150200290087F89DF8070008B12FF013C041F2602046
S315020029104FF40061C2F20A20002200242CF089F84A
S3150200292034E041F2602440F60201C2F20A24042293
S3150200293020462BF0DBFF40F60201012220462CF056
S3150200294078F8092500BF00BF4FF400610022204637
S315020029502CF06FF8052001212DF0BBFE4FF400612B
S31502002960012220462CF065F8052001212DF0B1FE4A
S31502002970013DE9D141F260204FF40061C2F20A2022
S3150200298000222CF056F800F004F80124204602B08A
S3150200299070BD10B541F2602440F60201C2F20A246B
S315020029A0042220462BF0A2FF4FF4006101222046AA
S315020029B02CF03FF81E2001212DF08BFE40F602017D
S315020029C0002220462CF035F8052001212DF081FE4B
S315020029D040F60201012220462CF02BF805200121A7
S315020029E0BDE810402DF075BEF0B581B0A0B30C461F
S315020029F0102931D845F242450746C4F245452FF023
S31502002A00BDFB06462846314600F02AF820B320468A
S31502002A10314600F025F8F8B1BCB1083700BF00BF57
S31502002A2057F8080C314600F01BF8A8B157F8040C09
S31502002A30314600F015F878B13868314600F010F8E2
S31502002A4050B1013C07F10C07EAD1E81C314601B04E
S31502002A50BDE8F04000F004B8002001B0F0BDD4D4C7
S31502002A60F0B581B042F638720C46C0F20A2205462B
S31502002A709768166800BF00BF7A68304629469047B5
S31502002A800C2808D12FF07AFB001B632807D80120F7
S31502002A902FF088F9F0E700285FEA1F9000E0002097
S31502002AA001B0F0BD80B582B00021019145F2A85176
S31502002AB00079C2F20921087045F2AC50C2F209202F
S31502002AC0016889B1006801AA00212FF017FD01985B
S31502002AD050B14EF604504FF08051CEF20000016024
S31502002AE0BFF34F8FBFF36F8F02B080BDD4D4D4D45F
S31502002AF02DE9F04381B000294FF0000558D0064673
S31502002B00002855D045F2B050C2F2092000780028BC
S31502002B104ED006F01F000C460844203838BF00206D
S31502002B20B1F5803F06D345F2A4501721C2F209201F
S31502002B3001603DE01F300121BFF34F8F01EB501EB4
S31502002B404EF66870CEF20000314600BF00BF00BFED
S31502002B50016020310FF005C0BFF34F8FBFF36F8FB7
S31502002B602FF05BFC45F2AC590121C2F20929002281
S31502002B700025C9F8000000202FF068FC42F61C7000
S31502002B8045F2A858C0F20A20C2F2092807232246B3
S31502002B90816888F8005000688F683146B84745F268
S31502002BA0A454C2F209242060206828B1C9F8005052
S31502002BB0284601B0BDE8F083002001214FF47A7265
S31502002BC000252FF043FC38B1C9F8005098F80000F0
S31502002BD0012804D10125EBE714202060E6E7002551
S31502002BE064202060E4E7D4D42DE9F04F81B00028B8
S31502002BF05BD041F260268346C2F20A2689464FF42A
S31502002C008171012230464FF0010A2BF012FF40F289
S31502002C100F51002230462BF00CFFB9F1000F3AD0CB
S31502002C2045F2C050F826C2F20920FC270230009075
S31502002C30C846B9F5165F28BF4FF4165848F001E0AA
S31502002C405846009900BF00BF30F8022B06EA12234D
S31502002C5002F01C0543EA523301F8023C07EAD203AA
S31502002C60C2F34124D200234401F8013C42EA950210
S31502002C7001F8032B0FF019C045F2C05008EB4801CA
S31502002C80C2F20920FFF734FF824620B1B9EB0809E8
S31502002C900BEB480BCCD141F2602040F20F51C2F24D
S31502002CA00A2001222BF0C5FE01E04FF0000A504631
S31502002CB001B0BDE8F08FB0B582B041F2602405469E
S31502002CC0C2F20A2440F20F51002220462BF0B1FE36
S31502002CD04FF48171002220462BF0ABFE0DF1070066
S31502002CE001218DF80750FFF703FF40F20F51012231
S31502002CF020462BF09EFE02B0B0BDB0B582B041F2C6
S31502002D0060240546C2F20A2440F20F5100222046F0
S31502002D102BF08FFE4FF48171012220462BF089FEA3
S31502002D200DF1070001218DF80750FFF7E1FE40F291
S31502002D300F51012220462BF07CFE02B0B0BDF0B549
S31502002D4081B007462A201C4616460D46FFF7B3FFFA
S31502002D50380AFFF7D2FFF8B2FFF7CFFF300AFFF7C4
S31502002D60CCFFF0B2FFF7C9FF2B20FFF7A4FF280A1A
S31502002D70FFF7C3FFE8B2FFF7C0FF200AFFF7BDFF68
S31502002D80E0B2FFF7BAFF2C2001B0BDE8F040FFF732
S31502002D9092BFD4D4D4D4D4D4EFF31080012181F3DA
S31502002DA0108841F6F421C2F20B210A683AB940F6BC
S31502002DB014520023C4F2400213704023137070B5FC
S31502002DC082B00A6841F2602401320A60C2F20A2421
S31502002DD080F3108840F20F5140F6054220462BF050
S31502002DE085FD4FF4C06140F6054220462BF07EFD7C
S31502002DF04FF4817140F6044220462BF077FD4FF4E2
S31502002E00837140F6044220462BF070FD40F20F51CA
S31502002E100122204601252BF00CFE42F61C71C0F25F
S31502002E200A2107C91268904745F2A451C2F2092144
S31502002E3008600868002840F0298145F2B05041F246
S31502002E406024C2F20920C2F20A244FF4C0610122B0
S31502002E50057020462BF0EDFD01204FF47A712DF01E
S31502002E6038FC4FF4C061002220462BF0E2FD0A2016
S31502002E704FF47A712DF02DFC4FF4C06101222046E9
S31502002E802BF0D7FD96204FF47A712DF022FC4FF4E9
S31502002E908371012220462BF0CCFDF720FFF70BFFB2
S31502002EA0A920FFF72AFF5120FFF727FF2C20FFF763
S31502002EB024FF8220FFF721FFEC20FFF7FCFE002013
S31502002EC0FFF71BFF0220FFF718FF0320FFF715FF8E
S31502002ED07A20FFF712FFC020FFF7EDFE1320FFF75F
S31502002EE00CFF1320FFF709FFC120FFF7E4FE412084
S31502002EF0FFF703FFC520FFF7DEFE0020FFF7FDFE0A
S31502002F002820FFF7FAFE8020FFF7F7FEB020FFF732
S31502002F10D2FE0020FFF7F1FEB120FFF7CCFEB02073
S31502002F20FFF7EBFE1120FFF7E8FEB420FFF7C3FE22
S31502002F300220FFF7E2FEB620FFF7BDFE0220FFF7F2
S31502002F40DCFE2220FFF7D9FEB720FFF7B4FEC6202B
S31502002F50FFF7D3FEBE20FFF7AEFE0020FFF7CDFE41
S31502002F600420FFF7CAFEE920FFF7A5FE0020FFF7BF
S31502002F70C4FEF420FFF79FFE0020FFF7BEFE0020EE
S31502002F80FFF7BBFE0F200F25FFF7B7FEE020FFF786
S31502002F9092FE4FF48171012220462BF04AFD40F247
S31502002FA00F51002220462BF044FD42F648660DF1F1
S31502002FB00604C0F20A2600BF16F8010B01218DF89D
S31502002FC006002046FFF794FD013DF5D141F260244B
S31502002FD040F20F51C2F20A24012220462BF029FDAB
S31502002FE0E120FFF768FE4FF48171012220462BF0A3
S31502002FF020FD40F20F51002220462BF01AFD42F628
S3150200300057660F25C0F20A260DF1070400BF00BF5E
S3150200301016F8010B01218DF807002046FFF768FD1F
S31502003020013DF5D141F2602040F20F51C2F20A2071
S3150200303001222BF0FEFCF420FFF73DFE0020FFF7F5
S315020030405CFE0020FFF759FE0F20FFF756FE3620E2
S31502003050FFF731FEA820FFF750FE3A20FFF72BFEBE
S315020030606620FFF74AFE2120FFF725FE1120FFF713
S3150200307022FE78204FF47A712DF02BFB2920FFF7E0
S315020030801AFE32204FF47A712DF023FB02B070BD86
S3150200309010B582B04FF4F0704FF4A07122F0F4FB39
S315020030A01221044622F0CBFD43F2D3012046C0F2A0
S315020030B0002122F0BBFD4CF240610022C2F209213E
S315020030C04FF4964300200090204622F048FD02B0BD
S315020030D010BD2DE9F0411446804691E82D00191ADB
S315020030E0AE1A4F1C80B291B201369AB2ABB2FFF75A
S315020030F026FE06FB07F12046FFF776FD4046BDE8B1
S31502003100F04122F0B6BD10B5FFF7BAF941F2401010
S3150200311041F24412C2F20A20C2F20A2200210160DE
S31502003120116041F2481041F24912C2F20A20C2F27B
S315020031300A220170117016F043FF41F24C1401216C
S31502003140C2F20A24206017F009FC43F25D112068DE
S31502003150C0F20021BDE8104017F007BCB0B582B03E
S3150200316068460C460025CDE90055FFF725FA41F2DF
S31502003170401141F2441CC2F20A21C2F20A2CE0B109
S31502003180BDF8062040F2DF1041F24913801AC2F25E
S315020031900A23BDF8042020EAE070086041F24810D4
S315020031A01D70C2F20A20B2F59F7F88BF40F23F121D
S315020031B0CCF800200122027013E041F24813C2F259
S315020031C00A23187801280AD141F24912C2F20A22C8
S315020031D01578012D03D8681C1070012201E0002227
S315020031E01A7008682060DCF800006060A27402B001
S315020031F0B0BD80B54FF244000021C4F20000C0F217
S315020032000E214AF2015201600021017442F6387120
S31502003210C0F20A2102848B68D1E900011A6890473C
S3150200322010B100202EF08CFBBDE88040FEF7B4B949
S3150200323082B0FFF7B1FD2AF091F8FFF729FFFFF7F9
S3150200324062FFFEF77BFB2EF099FF01AC019000BFF7
S3150200325005200DF0CAFA14F077FD052120462EF05E
S315020032600DFCF5E7022818BF704780B541F26020D1
S3150200327043F25C31C2F20A20C0F20A212BF020FB93
S315020032800120BDE880402DF00FBB80B584B041F22D
S315020032907C3042F66863C2F20A2041F2501C49F6BB
S315020032A0C05EC0F20A2301684FF400620131016078
S315020032B00320009043F2F32041F2FC61C0F20020A9
S315020032C0C0F20A21C2F20A2CC2F20B2ECDE901EC9F
S315020032D02EF031FA41F2B011C2F20A21086008B1A9
S315020032E004B080BD0020002104B0BDE8804000F09B
S315020032F055B810B5044600F053F82046BDE8104014
S31502003300FFF777BF80B584B041F27C3042F66C633A
S31502003310C2F20A2041F2B41C4BF6C05EC0F20A2386
S3150200332001684FF4FD62013101600320009043F20F
S315020033306D3042F6A911C0F20020C0F20A21C2F293
S315020033400A2CC2F20B2ECDE901EC2EF0F4F941F271
S315020033501421C2F20A21086008B104B080BD00201F
S31502003360002104B0BDE8804000F018B810B504464C
S3150200337000F016F82046BDE81040FFF759BF704727
S3150200338041F29820C2F20A202BF0ABB941F2982002
S31502003390C2F20A202BF0ADB9FFF7F1BF00BE7047AB
S315020033A0B0B541F274344FF0FF31C2F20A242068FC
S315020033B02EF0A2F8012803D020680021FFF7EEFFC5
S315020033C041F27830C2F20A20017801B1B0BD012182
S315020033D00170FFF7E1FF41F27C35C2F20A2500BF18
S315020033E0286801382860F1D02068002100220023D5
S315020033F02DF04AFE0128F3D020680021FFF7CEFF08
S31502003400EEE780B541F2783241F27C30C2F20A220E
S31502003410C2F20A200021117041F280320160C2F22A
S315020034200A224FF4807001212DF00EFE41F2743112
S31502003430C2F20A21086018B900200021FFF7AEFF88
S31502003440FFF723FFFFF75EFF2EF030FD002080BD61
S3150200345041F2C83C41F22843C2F20A2CC2F20A23C4
S31502003460C0F800C00B6080201060704741F2286CE3
S3150200347041F28863C2F20A2CC2F20A23C0F800C0E3
S315020034800B60802010607047704780E80E008A6AE1
S315020034900021B1EB127F07D180B500F009F80028B0
S315020034A05FEA1F91BDE8804008467047D4D4D4D461
S315020034B090E80E00002B5FEA0F93002A48F29F6203
S315020034C008BF0233CB60C0F20102016800BF00BF31
S315020034D04B681B0703D5002AA2F10102F8D14A68FC
S315020034E0120726D44A6A4368002B5FEA1F9312F03A
S315020034F0020F5FEA1F9293421BD04A6A836802F068
S315020035000102002B5FEA1F93934212D00222CA6184
S31502003510016845F25352CA6300220168C0F61F725F
S315020035200A6401684A6401688A640068C264002009
S3150200353000E0FF2040B27047F0B581B0069F092F28
S315020035403ADA1C460B461646054600214FF0FF3274
S315020035501846FFF799FF00293DD12968012F086116
S315020035602868066211DB0026D4E900013246FFF71D
S315020035708BFF91B92968013F01EBC60106F10106ED
S3150200358004F10804C1F88000EED12868816801F0D0
S315020035900C010131816001B0F0BD41F20A7042F6C0
S315020035A05E1241F20D63C0F20A20C0F20A22C0F294
S315020035B00A23A4212DF088F841F20A7042F65E121F
S315020035C042F25013C0F20A20C0F20A22C0F20A23C3
S315020035D094212DF079F841F20A7042F65E1242F613
S315020035E05203C0F20A20C0F20A22C0F20A2398212C
S315020035F02DF06AF8704701688A6802F00C020232FE
S315020036008A600068416849075CBF41685FEAC16138
S3150200361001D500207047416809065CBF41685FEA30
S31502003620C151F6D44068C0F340107047D0F800C0CC
S31502003630012ADCF8080000F0040308BF0833022A56
S3150200364008BF00F00C0303F00800012908BF04308C
S31502003650022953EA00810020CCF80810704780B591
S315020036600368986AD3F800E0814201D101200FE095
S31502003670FF2380EA010CCFF200031CEA030F5FEA84
S315020036801F9311F0006F5FEA1F9141EAD060184064
S315020036908EEA02010023B3EB117F07D1C2F3075171
S315020036A0CEF307528A4238BF002080BD002080BD7B
S315020036B041F68800C2F20A207047002070470020B7
S315020036C0704780B501202FF0D1FB08B100210170AF
S315020036D080BD2FF047BBD4D40278014600BF00BF9D
S315020036E012B920BF0A78FBE70020013A0A70704738
S315020036F001780131017040BF002070477047704762
S31502003700B0B50446407C012808BFB0BD204602255C
S315020037102574FFF770FF002818BF00256574E06A5C
S31502003720BDE8B040FFF7E4BF2DE9F04381B041F6B2
S315020037308C081E46C2F20A280D460446D8F80070C6
S31502003740002F174604D1FFF7B3FFC8F80000C8B32D
S3150200375041F69009C2F20A29D9F8000020B9FFF70A
S31502003760B0FFC9F8000068B3DDE908230020C4E908
S315020037700C702946C4E90E6040F20220A4F841000A
S315020037802046FFF782FEE8B1FFF79BFFE062C8B171
S3150200379004F110001C212FF0C8FAD8F80000FFF738
S315020037A08CFF41F69400C2F20A2001680460D8F840
S315020037B00000E160FFF783FFD9F80000FFF798FFEA
S315020037C0002001E04FF0FF3001B0BDE8F083D4D411
S315020037D0B0B541F68C050446C2F20A252868FFF701
S315020037E06CFF41F69400C2F20A200068E0B1A042E2
S315020037F009D000BF00BF00BF0146C068A0B1A04209
S31502003800FAD10C3103E041F69401C2F20A2141F6E3
S315020038109002C068C2F20A2208604FF0FF331068B5
S315020038204FF0FF32FFF758FF2868FFF748FFE06ABC
S31502003830BDE8B040FFF74DBF10B50446FFF738FEAE
S3150200384010B14FF0FF3010BDE06B00285FEA1F9108
S3150200385020460A46FFF7EAFE002010BD10B50446D0
S31502003860C06B002800F10100E06301D0002010BD0A
S315020038702046FFF7E1FF0028F8D0E06B0138E0634D
S315020038804FF0FF3010BDD4D4F0B581B004460546E2
S3150200389014F8100F00284ED0022803D0012847D171
S315020038A0002953D0686A012813DB0026002700BFCF
S315020038B095F84210F940C90707D0D5E907018059A2
S315020038C051F827102AF050F8686A013708368742FD
S315020038D0EEDBE86A4FF0FF324FF0FF33FFF7FCFEF4
S315020038E000280CD501206874297C022907D1687446
S315020038F04FF0FF32E86A4FF0FF33FFF7EDFEA96A99
S315020039002846FFF7FCFEE86B38B10138E86304D1BC
S31502003910012101222846FFF789FE687C70B1687C86
S31502003920022802D12846FFF765FE2846FFF784FFE4
S315020039304FF0FF3503E06FF0010504E000251C217E
S3150200394020462FF0F2F9284601B0F0BD0125FAE72C
S315020039502DE9F04F83B0002900F09B80002B00F088
S31502003960A88004460C98002800F0B380254615F876
S31502003970107F17BB0026267404F11406DDE90DEC50
S3150200398020620EC69607C4E909EC12D144F64377C3
S315020039900E68C3F25017BE420BD1BEF1030F13DB02
S315020039A0D4E90C7C57EA0C060ED0A66B8068B042AE
S315020039B008D91C2128462FF0B8F94FF0FF3003B082
S315020039C0BDE8F08FC3E9047C02EB01080F1D4745F1
S315020039D05DD23878052858D002280AD00128E8D1C5
S315020039E0D7E901122046FFF73AFE0028E1D00C374C
S315020039F0EDE707F1040B5FEA0B70DAD178787E887F
S31502003A000290606A012824DBE169024600BF00BF1A
S31502003A100B781B07CDD1013A01F10801F8D14FF01D
S31502003A20000A4FF0000900BF94F8411021FA09F18B
S31502003A30C90708D0D4E9070150F80A0051F829103D
S31502003A4029F042FF606A09F101090AF1080A814573
S31502003A50EADB2046FFF702FF0028AAD1029846EACF
S31502003A600046012020742046A16A4FEA8609FFF724
S31502003A7045FEE369606A0090204659464A46FFF7CA
S31502003A805BFD07EB8600071DA1E704379FE70020D1
S31502003A9095E742F2A43042F2994241F63853C0F217
S31502003AA00A20C0F20A22C0F20A2340F282212CF036
S31502003AB00BFE42F2A43042F2994242F21433C0F2B1
S31502003AC00A20C0F20A22C0F20A2340F283212CF015
S31502003AD0FBFD42F2A43042F2994242F23103C0F2B5
S31502003AE00A20C0F20A22C0F20A234FF421712CF0F6
S31502003AF0EBFD70B584B008AD064631CD8DE83100D8
S31502003B003046FFF725FF002806D40121304604B0CF
S31502003B10BDE87040FFF7B8BE4FF0FF3004B070BD8D
S31502003B2070B508460C4627F0FFFF054624F0EAFA70
S31502003B300646284624F090FB02462046314624F0EB
S31502003B40C1FC0121204615F0BAFD204622F03DFFB8
S31502003B500646204627F0F0FF21F0F6FF642500EB2B
S31502003B60D070C2F2000542103046294624F0AAFC63
S31502003B700021304615F0A3FD002102220223304621
S31502003B8015F0A9FD204622F020FF0121044615F07A
S31502003B90BAFD20462946BDE8704024F09EBC10B509
S31502003BA00C466421C2F2000120460A4624F08AFC31
S31502003BB043F601410E22C0F200210023204623F0E3
S31502003BC0E1FE8021204622F00FFF0321204625F048
S31502003BD0BEFC03212046BDE8104025F0C7BC10B547
S31502003BE00C466421C2F2000120460A4624F06AFC11
S31502003BF02046BDE8104024F0D3BCD4D4D4D4D4D4C7
S31502003C002DE9F04383B0044612F0D5FA0546204664
S31502003C1012F0CDFA0E2D4ED1044616F099FE10B1D1
S31502003C20007A012847D0204624F06FFA054620463E
S31502003C3024F015FB064601A9204625F076FE20460D
S31502003C40DDE9017828F0C2F838B305EBD57006EB4A
S31502003C50D67107EB600008EB610190FBF5F091FB72
S31502003C60F6F100FB05F8002501FB06F900BF00BFCF
S31502003C702046294628F08FF9064624F04FFF0746CC
S31502003C80304624F076FF474501D1484507D0204605
S31502003C90013528F09BF88542EAD30F2507E0E66254
S31502003CA0232196F82C500022204623F0DDFD2046E3
S31502003CB0294625F038FC03B0BDE8F083D4D4D4D429
S31502003CC0B0B527A00C46002290ED001FE26391F8E2
S31502003CD0640081ED101F91F8701040F0030084F823
S31502003CE0640001F0F10084F87000204680EF500075
S31502003CF084ED0B1F05F02FFE0546E062642011F0ED
S31502003D0053FF0146284624F0E8FB41F68A11E06A91
S31502003D10C0F20A2105F02CFE44F61B45E06AC0F209
S31502003D20002532220023294623F02CFEE06A3122A6
S31502003D300023294623F026FE4FF48061204622F016
S31502003D4053FE4FF40061204622F0ACFE00212046CD
S31502003D5000F09EFB2046BDE8B04000F05DBD00BF0E
S31502003D6000000000DC050000000000000100000069
S31502003D7010B5486B0C4618B110F04EFB002060637C
S31502003D80A06B18B110F048FB0020A063206B18B19D
S31502003D9010F042FB0020206310BDD4D42DE9F04F71
S31502003DA0BFB043F2F0300D46C0F20A2023F0D4FD34
S31502003DB0012840F07881284612F0FDF90646284689
S31502003DC012F0F5F9102E55DC701E032802D30B2EC5
S31502003DD040F0698116F0BCFD002800F064810646B9
S31502003DE0284612F0E4F9044690F86400800740F190
S31502003DF05A81304616F0BCFD022800F05481304646
S31502003E0016F0B6FD042800F04E81E06A23A924F0DC
S31502003E10E4FA01A9304616F027FE1FA9304616F02D
S31502003E204BFE0198002800F13E810299002900F11B
S31502003E303A81DDE92323861AC81A1D9028461C9664
S31502003E4012F0B9F90546E06A24F05CF9002ED4F8BE
S31502003E502C8000F15F81864280F267811CAE0122CE
S31502003E604046314606F024FA0746E06A314606F035
S31502003E701FFB5DE11C2E0CDC0446112E00F09D801A
S31502003E80132E40F0108120463FB0BDE8F04F00F0FF
S31502003E90C3BC1D2E00F0A780202E40F004812846C8
S31502003EA012F085F90646284623F08EFD8146F06A11
S31502003EB006F0DAF896F86410C90700F0F48023AF2A
S31502003EC08046384621F012F84FF4C02130463A4671
S31502003ED0CDF89C9023F030F8F06A06F150052ECD0D
S31502003EE0D0E9050401441F91A1182091184421909C
S31502003EF0601922901FAA4846394621F065F84FF408
S31502003F00C0213022304626F051FF07464FF4C02129
S31502003F101222304626F04AFFC5194FF4C02110225C
S31502003F20304626F043FF44F24021C4190020CDE971
S31502003F301C00306EC0F20A2108EB000709683846F9
S31502003F4088470DF170080246404639460FF038FEA2
S31502003F50DDE91F01582228441F9060182090F06A5C
S31502003F60002126F023FF01AD0746284620F05DFA20
S31502003F704FF4C02130462A46CDF8149023F029FA90
S31502003F809DF8AC0002280CD89DF83200BDF830200E
S31502003F9027F07F4142EA004011F013FF002840F06B
S31502003FA08280BDF85F00CDF8208001A91FAA40F4E7
S31502003FB08070ADF85F00484673E0284612F0FFF8BD
S31502003FC00168881E122800F27180DFE800F00A8577
S31502003FD0979797977F97939797979797978D9D7CA4
S31502003FE0770000217AE0284612F0E1F804462846D6
S31502003FF023F0EAFC0546E06A06F036F80078002867
S3150200400051D1206B00284ED0007800284BD023AE29
S31502004010304620F00AFA4FF4002120463246279510
S3150200402023F0D7F994F87000000705D5BDF8E7002C
S3150200403040F00800ADF8E70000211222204626F0E3
S31502004040B5FE804600211322204626F0AFFE8146A9
S3150200405000211022204626F0A9FE824600211122C6
S31502004060204626F0A3FE834600213022204626F073
S315020040709DFE04F1140300EB0806276A0ECB3144B9
S31502004080019100EB0901591A00EB0A035844039106
S3150200409099180291381A0490206B2A9023A901AA32
S315020040A0284620F0FCF93FB0BDE8F08F7F2925D1E4
S315020040B020463FB0BDE8F04F00F02EBBE06C002872
S315020040C0F1D0411E0AE0E06C411C07E020463FB0F9
S315020040D0BDE8F04F00F0D7BA47F6FF7120463FB071
S315020040E0BDE8F04F00F0D4B920463FB0BDE8F04F2E
S315020040F000F069BD94F8700000070ED420463FB068
S31502004100BDE8F04F00F088B820463FB0BDE8F04F5A
S3150200411000F02BBD002700200AE0262100222046BF
S315020041203FB0BDE8F04F23F09FBB002047F6FF7774
S3150200413094F870108A0728D511F0010F5FEA1F92D2
S315020041401040012808BF012D05D0C80711D0022D45
S315020041500FD1E76619E04FF6FF70C4E91A7041F015
S31502004160010084F870004FF44071204622F09AFC58
S3150200417010E050B125F00800032806D14FF4407133
S31502004180204622F031FC94F87010C80702D1012DA6
S315020041907FF489AF2046394600F07AF994F8700028
S315020041A0C0073FF480AFD4E91A0188420BD9D8F888
S315020041B044208A4203D1D8F8482082421FD0C8F848
S315020041C04410A06E16E0D8F8442009D2824203D1E8
S315020041D0D8F848208A4212D0C8F84400E06E09E0B6
S315020041E04FF6FF70824203D1D8F84810814206D0BA
S315020041F0C8F84400C8F84800204624F0D7F825F04D
S31502004200080003287FF44FAF94F8700000F0FE0018
S3150200421084F8700047E7D4D4F0B585B0044690F828
S315020042207000000703D50A2918BF0D2975D002911F
S3150200423000200390019102A9204600F070F80028A0
S315020042406BD044F248200021C0F20A20076801A878
S31502004250B847216C054689B144F2582194F870009A
S31502004260C0F20A2140070E6803D4E06A05F0FCFE9C
S3150200427000E0606BB047216C88424ED2E06B80B1A1
S31502004280007870B104AE0020049000BF00BF00BFEA
S31502004290E06B0499415C00293FD03146B847A842F9
S315020042A0F6D194F87000400702D5204600F058F87F
S315020042B0206B38B1E06A05F0D7FE007810B92046C7
S315020042C024F074F8E06AE16C02AA06F0E9F92046E5
S315020042D000F08DF894F87000400714D5606B0FF06B
S315020042E0C2FD054602A80FF0BEFD2844411C606BC4
S315020042F010F09DF8606380B1E16C02AA13F09CFC99
S31502004300204600F08FF8E06C411C204600F0C0F811
S3150200431023210022204623F0A7FA05B0F0BD70B58E
S3150200432041F698060D46C2F20A26044600202421CA
S31502004330306020462A4623F097FA306858B1017851
S3150200434039B129460FF0CCFD28B13168204600F07C
S3150200435017F9002070BD012070BDD4D4D4D4D4D4B2
S315020043602DE9F047814690F87000400701D4BDE878
S31502004370F087D9F82C0005F077FE44F25821C0F2F6
S315020043800A2109688847002808BFBDE8F087054664
S31502004390484600F0BDFB06460FF065FD00FB05FA38
S315020043A007460AF1010010F018F88046044600BFDD
S315020043B0204631463A460FF003FC013D3C44F7D114
S315020043C0002008F80A00D9F82C00414605F0D0FA78
S315020043D0404610F021F844F655414846C0F2002105
S315020043E010F02EFE4846BDE8F04700F05ABAB0B5C6
S315020043F00446C06A06F04BF94FF6FF75A84205D18E
S31502004400E06A06F046F9A84208BFB0BDE06A4FF678
S31502004410FF7105F023FEE06A4FF6FF71BDE8B0407A
S3150200442005F01FBEB0B598B00546406C50B36C4659
S31502004430204610F0AFFC2046294610F0EBFE44F66B
S3150200444055412046C0F2002110F0E6FE696C204676
S3150200445010F0E4FE00210122204610F0E4FE45F2AF
S31502004460E3112046C0F2012110F0E3FE44F6A74113
S315020044702046C0F2002110F0E0FE204610F0B9FC02
S3150200448018B0B0BD284618B0BDE8B040FFF768BF07
S31502004490F0B583B00446C06C88426BD044F2582013
S315020044A00D46C0F20A200668E06A05F0DDFDB04757
S315020044B0002D47F6FF7148BF0544854255EAB08292
S315020044C08D4250EA02852046E56424F069F800210F
S315020044D05A22204626F06AFC0646E06A01AA2946C6
S315020044E005F0C6FD304617F056FF05462046029EE9
S315020044F025F07BF8864204DA02990122204625F04D
S31502004500B5FB204623F0ABFE0299064620464F191C
S3150200451025F06BF8381AB04206DD0298A91B014451
S315020045200122204625F0A2FB2046019E25F0E4F852
S31502004530864204DA01990122204625F07FFB2046B5
S3150200454023F0E3FD0199064620464F1925F0D4F8DB
S31502004550381AB04206DD0198A91B01440122204601
S3150200456025F06CFB0198A064204600F055F9204620
S3150200457000F097F903B0F0BDC06C7047D4D4D4D420
S315020045802DE9F04182B0804690F870000D46400752
S3150200459002D54046FFF7E4FED8F83C0010B9D8F839
S315020045A0400008B3287800284FF00000019018D088
S315020045B044F2482001AEC0F20A20076844F24420C1
S315020045C0C0F20A20046800BF28463146B847A04711
S315020045D001464046FFF720FE0198285C08B12FF0FD
S315020045E00DC802B0BDE8F08140462946FFF797FEA6
S315020045F00028F6D0D8F8300040B1D8F82C0005F0E3
S3150200460033FD007810B9404623F0D0FED8F82C00CE
S31502004610D8F84C102A4606F043F84046FFF7E7FE64
S3150200462098F87000400719D5D8F834000FF01BFC33
S31502004630064628460FF017FC3044411CD8F83400D1
S315020046400FF0F5FE0028C8F83400CAD0D8F84C108E
S315020046502A4613F0F1FA4046FFF7E4FE44F25820E8
S31502004660D8F84C40C0F20A2001682846884701194A
S315020046704046FFF70DFF23210022404602B0BDE867
S31502004680F04123F0F1B8B0B582B00446C06C002800
S3150200469040D07F20ADF806000DF106012046FFF757
S315020046A03EFEB8B3E06A05F0DFFCE16C0122013997
S315020046B0054613F0EDFAE06A294605F059F9204657
S315020046C0FFF795FE206B38B1E06A05F0CDFC007865
S315020046D010B9204623F06AFE94F8700040070FD501
S315020046E0E16C606B0139012213F0D2FA656B284640
S315020046F00FF0B9FB411C28460FF099FE606348B1E2
S31502004700E06C411E2046FFF7C3FE2321002220460D
S3150200471023F0AAF802B0B0BDB0B5C56C0446691C58
S31502004720FFF7B6FEE06C854208BFB0BD2046BDE885
S31502004730B040FFF7A8BFD4D42DE9F04182B00D46B0
S315020047408046FFF754FED8F83C0010B9D8F840006E
S3150200475098B341F68A11D8F82C00C0F20A2105F066
S3150200476007F947F6FF714046FFF792FE98F8700088
S31502004770400703D5D8F834000021017028780028B4
S315020047804FF00000019022D044F2482001AEC0F260
S315020047900A20076844F24420C0F20A20046800BFD7
S315020047A028463146B847A04701464046FFF734FD42
S315020047B00198285C58B12FF00DC8D8F82C0029466C
S315020047C005F0D6F847F6FF714046FFF761FED8F8C6
S315020047D0300040B1D8F82C0005F046FC007810B93C
S315020047E0404623F0E3FD98F8700040070CD5D8F850
S315020047F034000FF011FE28460FF083FBC8F8340090
S3150200480038B14046FFF7ACFD23210022404623F093
S315020048102BF802B0BDE8F08170B598B04FF4C02114
S315020048206722054626F0C2FA60B36C460646204663
S3150200483010F0B0FA2046294610F0ECFC44F6574137
S315020048402046C0F2002110F0E7FC2046314610F067
S31502004850E5FC2046314610F0F4FC012100222046F8
S3150200486010F0E1FC45F2E3112046C0F2012110F0FE
S31502004870E0FC4FF0FF31204610F0E7FC204610F036
S31502004880B8FA0CE044F657412846C0F2002110F06F
S31502004890D7FB95F8640040F0010085F8640018B073
S315020048A070BD2DE9F04F8BB000215A22044626F046
S315020048B07DFA054600215C22204626F077FA029010
S315020048C0E06AD4F84C8005F0CFFB44F2502106464C
S315020048D0C0F20A210A6841469047074644F2482038
S315020048E0C0F20A2006EB070B002102685846019225
S315020048F090478246284617F04EFD5146BAF10D0FF3
S3150200490008BF2021BAF10A0F4FF0000208BF20218A
S3150200491004902846BAF1000F08BF2021039517F02C
S31502004920F8FC8146E06A09AA414605F0A1FBE56A60
S31502004930284605F099FB02460021284626F0E1FEAC
S31502004940E26A099949445369D269194491422CDDB4
S3150200495094F87010090728D4032826D00499029ADD
S31502004960002011440A9ABAF1000F099011440A91E3
S315020049700BD044F24020C0F20A200168584688470C
S3150200498007440021F019019A904701460A2808BFF8
S31502004990202100284FF0000208BF20210D2808BF61
S315020049A02021039817F0B5FC81464FF4C02130222E
S315020049B02046276626F0FAF906464FF4C021102251
S315020049C0204626F0F3F980464FF4C02111222046F4
S315020049D026F0ECF982464FF4C0211222204626F038
S315020049E0E5F907464FF4C0211322204626F0DEF9E8
S315020049F0B919DDE90923A2EB010B711E01EB0905C9
S31502004A0008EB06072844A3EB070800EB0209049803
S31502004A100844E16A04F15007504400EB030AD1E965
S31502004A200501E4CF024405924A1905AD30440790C8
S31502004A30C819089020462946069224F039FCE06AF5
S31502004A40C4E914B8C4E9169AD0E9050100EB0B02D1
S31502004A50059201EB08024844079001EB0A00089010
S31502004A6020462946069224F023FC0BB0BDE8F08FBF
S31502004A7090F8642002F0FD0261F3410280F864209E
S31502004A807047B0B5044690F8700010F0080F5FEA60
S31502004A901F9291EA020F18BFB0BD00F0F7000D4653
S31502004AA061F3C30084F87000642011F07DF8002DD4
S31502004AB00546E06A0ED06FF0404123F00EFDE06A33
S31502004AC00022294626F06DFF6FF04041204623F072
S31502004AD01AFD0CE0294623F000FDE06A00210022BF
S31502004AE026F05FFF02210022204626F069FA002105
S31502004AF0002200232046BDE8B04025F091B890F888
S31502004B007010490702D4C06A05F0AEBA406B70470E
S31502004B10816BC9B980B588B000215A2226F046F9C0
S31502004B20694642F22202002317F0BEFB41F680419B
S31502004B3042F23352C0F20A21C0F20A22002851EA96
S31502004B40128108B0BDE880400846704790F87000B0
S31502004B50C0F3C0007047C16C0131FFF799BCC16C4C
S31502004B6011B10139FFF794BC7047B0B582B0044663
S31502004B70C06A6A46E16C05F07BFA00215C22204697
S31502004B8026F014F9054600215A22204626F00EF98F
S31502004B9017F001FC019928440844A16C451CE06AFF
S31502004BA00195009123F058FB85420ADAE06A6946CC
S31502004BB0012205F07DFB01462046A56CFFF768FC45
S31502004BC0A56402B0B0BD70B582B004466D46C06A37
S31502004BD02A46E16C05F04CFA00215C22204626F0BA
S31502004BE0E5F8064600215A22204626F0DFF817F09D
S31502004BF0D2FB01993044081AA16C01300190E06A97
S31502004C0000910122294605F053FB01462046A56C78
S31502004C10FFF73EFCA56402B070BDB0B5044611F0C4
S31502004C20CAFA0546204611F0C2FA044626F07CFF6F
S31502004C30A5F13101012988BFB0BD054600212046F4
S31502004C4004F096FE2846FFF72CFE2846BDE8B04043
S31502004C50FFF7E2BD704790F8642002F00103994223
S31502004C6008BF704710B584B000295FEA0F9102F0C1
S31502004C70FE0200F1500E114480F86410C16A9EE8EB
S31502004C800C50D1E905140A446144029104EB0E0169
S31502004C90039169460092E218019224F009FB04B0DE
S31502004CA0BDE8104070470068FFF75ABB70B50C4666
S31502004CB0002081F830006421C2F2000120460A4633
S31502004CC023F000FC204621F080FE204621F07DFEE6
S31502004CD00021054614F0F3FC44F65F763322C0F257
S31502004CE0002600232846314622F04CFE0E220023DF
S31502004CF02846314622F046FE0021284624F0FFFBD4
S31502004D000421204600F09CF88021284621F06CFE02
S31502004D104FF480612846BDE8704021F0C3BEB0B5AD
S31502004D2043F214400C46C0F20A2022F015FE012876
S31502004D3018BFB0BD204611F03EFA0546204611F0D6
S31502004D4036FA312D05D1C16A0022BDE8B04000F025
S31502004D5003B8B0BDD4D4D4D42DE9F0470C46C16211
S31502004D6001219046064627F016F9074600213046ED
S31502004D7027F011F905460021304627F00CF943F6D3
S31502004D80C451C0F20A2127F04FF9844256D2002FAD
S31502004D9054D0304623F004FC96F83000002110F07F
S31502004DA00C0F19D01522384626F000F881463846EF
S31502004DB023F0ABF9824600212722304625F0F6FF82
S31502004DC00AEB0901C0B26143012800D149423846C3
S31502004DD0424624F033FF0EE01422384625F0E6FF61
S31502004DE00646384623F03BFA3044424600FB04F1BD
S31502004DF0384624F03BFF43F6C4520021C0F20A2291
S31502004E00284627F0D9F8002808BFBDE8F08743F600
S31502004E10C4570126C0F20A27002C5FEA1F9201211D
S31502004E2021F085FF284631463A4627F0C5F8A4F117
S31502004E30010406F1010608B12FF013C0BDE8F087A0
S31502004E40F0B581B04B1E0C46072B054600F2748066
S31502004E5000210122DFE803F00504702A7070702930
S31502004E600821284614F02BFC0021284627F093F847
S31502004E7006460121284627F08EF864210746C2F22B
S31502004E80000123F040FB0121384614F03CFC0121CD
S31502004E90304614F014FC0121384614F010FC0021AF
S31502004EA0384624F054FB032124E009222846114601
S31502004EB014F005FC0021284627F06DF8064601216C
S31502004EC0284627F068F864210746C2F2000123F05B
S31502004ED004FB0121384614F016FC0021304614F07A
S31502004EE0EEFB0021384614F0EAFB0321384624F093
S31502004EF02EFB0021384624F039FB95F8300014F0D9
S31502004F000C0F5FEA0F9110F00C0F5FEA1F90414001
S31502004F1021D1284626F010FE20F016FE0746642010
S31502004F2010F042FE14F00C0F03460FD007EBD770B9
S31502004F301946421030460CE00021284627F02BF88D
S31502004F4006460121284627F026F8D6E73046394696
S31502004F501A4623F0B7FA85F8304001B0F0BD70B5B5
S31502004F6082B0044611F023F90546204611F023F9D2
S31502004F700646284626F0D8FD0E2E044609D0332EC4
S31502004F8048D1E16A0022204602B0BDE87040FFF730
S31502004F90E3BE15F0DDFC10B1007A01283AD069466D
S31502004FA0284624F0C2FC94F8300010F00C0F14D0FE
S31502004FB0284623F0AAF8054600212722204625F096
S31502004FC0F5FEC0B2009905EBD572012851EA11B07F
S31502004FD000EB620090FBF5F009E0284623F03FF96A
S31502004FE000EBD071019A02EB610191FBF0F020EA2D
S31502004FF0E075E66A15F0ACFC00285FEA0F922046DF
S315020050002946FFF7A9FEB54204D0232100222046F5
S3150200501022F02AFC02B070BD10B50120C1E90B00D6
S3150200502004200C460FF0D9F9216BE06388000FF0DB
S31502005030D4F9E16BA06382200860A16B0860D4E911
S315020050400B014143606B89000FF0F1F960630021A7
S3150200505001604FF6FF70C4E9100010BDD4D4D4D459
S3150200506070B50C46D1E90B1202FB01F000B3002524
S31502005070002600BF00BF00BF606B50F8260090B14B
S31502005080416849B108460FF0C7F9606B50F826002F
S315020050904560606B50F826000FF0BEF9606B40F871
S315020050A02650D4E90B1202FB01F001368642E3D305
S315020050B0606B08B10FF0B0F9A06B08B10FF0ACF954
S315020050C0E06B18B1BDE870400FF0A6B970BDD4D43C
S315020050D02DE9F04782B043F238400D46C0F20A206D
S315020050E022F03AFC012840F08B80284611F063F842
S315020050F00646284611F05BF8342E824607D0322E39
S315020051001AD1504602B0BDE8F04700F04DB9284624
S3150200511011F055F8DAF82C10002958D0DAF83C309C
S31502005120002221F001E000BFB3EC041FF9FE202F9C
S315020051301FF007C0511E4CE0701E01281FD815F043
S3150200514007FC15F015FC00F0FD00012858D115F0FA
S31502005150FFFB694615F088FC5046009D24F037FA9D
S31502005160054400212722504625F020FEC0B2012820
S3150200517049D1DAF81C002F461322054646E0A6F16D
S315020051800B004FEA700009283AD8DFE800F005392B
S31502005190395DC3393939397E504623F007F915F09E
S315020051A0D7FB15F07FFC4FF6FF71DAF840208A42F2
S315020051B040F0B68015F0CCFB15F0DAFB00F0FD00EE
S315020051C001281DD14FF6FF70CAE9100018E04FF012
S315020051D0FF31DAF830207AB10026DAF8383022F0D8
S315020051E001E000BF00BF00BFB3EC041FF9FE206F51
S315020051F01FF007C0721E01E04FF0FF32C0E9001235
S3150200520002B0BDE8F087DAF8147012220021504687
S31502005210002625F0CBFDDAF82C1000293BD03844C5
S31502005220DAF83C20281A0026002300BF00BF00BF80
S3150200523052F8047B3B4498425FEABF972CDB013667
S31502005240B142F5D10E4627E0284610F0B8FF4FF6D8
S31502005250FF73DAF84010994256D0DAF844209A429F
S3150200526052D0DAE90B7300240668B94251EAB480D7
S315020052709A42A6F1110552EAB486032DC0D8DFE898
S3150200528005F002646062013E60E0284602B0BDE8B5
S31502005290F04700F02DB901275046DDF8048024F0CE
S315020052A09DF90546002110225046DAF8189025F09D
S315020052B07DFDDAF830100029A2D005EB0802484439
S315020052C0121ADAF838300020002500BF00BF00BFEE
S315020052D053F8044B2544AA4204DB013081423FF4D1
S315020052E08FAFF5E7002F7FF48BAFDAF84010B142AB
S315020052F004D1DAF8441081423FF482AFCAE9106061
S31502005300504623F053F87BE70020CAE910005046C6
S3150200531000F0B7F8504602B0BDE8F04723F046B8B1
S31502005320DAF844208A423FF445AF00287FF442AFC0
S3150200533023210022504622F097FA01283FF43AAF81
S315020053405EE7013002E0013800E00136B84206DAD3
S31502005350B0F1FF3F0DDC56B1781E013E09E0581E42
S31502005360864202DA0136002003E0781E01E00020C0
S3150200537000265F1E9E42B8BF26EAE677814208BF34
S31502005380BA423FF43DAFCAE91007504623F00EF881
S31502005390504600F076F823210022504602B0BDE8BE
S315020053A0F04722F061BAD4D42DE9F04F89B04FF418
S315020053B0A0211222044625F0F9FC08904FF4A02100
S315020053C01322204625F0F2FC07904FF4A02110226A
S315020053D0204625F0EBFC06904FF4A0211122204630
S315020053E025F0E4FC83464FF4A0215B22204625F0FB
S315020053F0DDFC06464FF4A0215C22204625F0D6FCB1
S3150200540007464FF4A0215A22204625F0CFFC054636
S315020054104FF4A0210622204625F0C8FC80464FF410
S31502005420A0210722204625F0C1FC216B01B381464B
S315020054304FF0000A00BF00BF00975146089801903E
S31502005440079802900698CDE9030B20462A46334672
S3150200545000F0C6FA484550EAB980A16B804558EA81
S31502005460C08041F82A000AF1010A206B8245E3D383
S31502005470204623F0D6FB204609B0BDE8F04F22F0C5
S3150200548095BFB0B584B0D0E910216B46044600F052
S315020054903FFB0098B0F1FF3F0ADD2046029D22F055
S315020054A031FE85420ADD204622F02CFE411B00E039
S315020054B0414200220123204624F070FA0198B0F1FD
S315020054C0FF3F0ADD2046039D22F0C6FE85420DDD22
S315020054D0204622F0C1FE421B00E042420021012387
S315020054E0204604B0BDE8B04024F058BA04B0B0BDBE
S315020054F02DE9F04FADF51B7D054610F058FE8346AB
S31502005500284622F061FA00F118040DF517780546CF
