S0130000766973696F6E5F435055302E7372656302
S3150200000020500022414C0002294A00024B4C0002B9
S315020000104B4C00024B4C00024B4C00024B4C000274
S315020000200000000000000000000000007121000234
S315020000304B4C00020000000089210002F12100025F
S315020000408B380002193A0002393B0002213C0002B9
S31502000050B7400002B92C0002D32B00023F2D00024A
S30D02000060912D00027125000238
S31502000068C854092200000000000000000000002217
S315020000780000000000000000000000001040000020
S31502000090B0B5054614469FED090A4FF4D8324FF023
S315020000A0FF330846294600F0A7F84FF4D832204617
S315020000B02946BDE8B04006F0E1BD00BF8180003CA4
S315020000C02DE9F04F9BB048F2844E0DF1580CC0F268
S315020000D0002E67469EE8700387E8700348F2984848
S315020000E00DF1440EC0F20028F2460DF1300998E8EF
S315020000F0F00848F2AC48C0F200288AE8F0084D46FB
S3150200010098E8D00C85E8D00C06469A4693464FF4FA
S315020001105872052308463146DDF89080CDF800C0B6
S31502000120CDE901E900F094F89FED120A4FF45872F6
S315020001300023304641464FF0000900F075F848F2B8
S31502000140D04008AAC0F20020114604AB90E8F000A5
S3150200015048F2C040C0F20020F0C1194690E8F00013
S31502000160F0C158465146CDE9009900F0A9F81BB0F6
S31502000170BDE8F08F6F0E003F2DE9F04792B048F2CE
S31502000180E04E0DF1340CC0F2002E634648F2F449FB
S315020001909EE8F001C0F200290DF1200E83E8F0017D
S315020001A0F2460DF10C0899E8F80048F20859C0F237
S315020001B000298AE8F800444699E8E80484E8E80455
S315020001C0054614464FF45862052308462946CDF8DB
S315020001D000C0CDE901E800F03BF89FED060A4FF4B6
S315020001E0586200232846214600F01EF812B0BDE8E8
S315020001F0F08700BF2EB8953E9AB100BF00BF00BF80
S31502000200B0EC011A81EE001AB8FE411ABDEEC11A0F
S31502000210013A11EE10CA9C440CF3070C01F801CB0B
S31502000220EED17047D4D4D4D480B542F00FC000BF0B
S3150200023010F9012BD21A01EE102AB8EEC11A20EEDD
S31502000240011AA1EC011A0FF00DC880BDD4D4D4D482
S31502000250012AB8BF70472DE9F04F9A46DDE90998A1
S315020002604FF0000B00BF00BFBAF1010F1CDB4AF0D2
S3150200027001E0002647464C460B9B00BF00BF00BF6D
S3150200028057F8045B9BFBF5FC0CFB15BC53F8045BAF
S315020002909CFBF5FC54F8045B0CFB05660FF011C0E1
S315020002A003E000BF00BF00BF0026835D01F80B30EC
S315020002B00BF1010B9345D7D1BDE8F04F7047D4D46B
S315020002C02DE9F04F8DB01E680296012E089053DB81
S315020002D09768D0680790784352680590504306970E
S315020002E00190D86804900C461799169E5D68D3F85B
S315020002F008A00023DDF81880049F09920A9500BF22
S31502000300012D03932FDB0020009109992A463346DB
S315020003100B90B34600F034F8BAF1010F1CDB059AD4
S31502000320089900FB02104FF000095546079E0C90F3
S31502000330179800904846414652465B4600F020F820
S315020003400C9900FB061120463A4606F097FC013D41
S315020003503C4409F10109EBD10B980A9D013017992A
S31502000360A8425E46D0D1039B02980133019A83428A
S31502000370089810440890C3D10DB0BDE8F08FD4D4CC
S3150200038080B5DDF808C06BB1022A0BDBA1F1010EC4
S3150200039000EE10EA013A01EE102AB8EEC00AB8EEF3
S315020003A0411A07E000EE101A01EE102AB8EEC00A52
S315020003B0B8EEC11ABCF1000F03EE100A80EE010A74
S315020003C09FED112AB6EE001AB8EEC33A02FE011AE2
S315020003D031EE031A21EE000A23B1B8FE400ABDEE41
S315020003E0C00A05E0B7EEC00ABBFE400BBDEEC00B6D
S315020003F010EE100A0139884250EAB180BCF1000FB2
S3150200040018BF20EAE07080BD0000000045F25000EF
S31502000410C2F20020704741F25000C2F20720704734
S3150200042044F25060C2F2072070472DE9F04782B0CD
S31502000430044649F64020C0F2062040F20001C6F604
S31502000440000149F64C230068C0F206230A1849F651
S315020004504420C0F206204CF20006C6F606060068E4
S3150200046001EB000A18680F1849F64820C0F2062068
S3150200047045F2D833C0F2072300680D1845F2D03092
S3150200048045F250011B68C2F20720C2F2002106EBB8
S315020004900308FFF7FDFD204600F03AF840F23C79EA
S315020004A044F2506140F2D530C2F20929C2F2072164
S315020004B0C2F20920009139462A464B46FFF700FE52
S315020004C045F2D4304FF45862C0F207205146006814
S315020004D0304406F0D3FB45F2D0304FF45852C0F206
S315020004E0072049460068304406F0C8FB204600F063
S315020004F08FF843F63C5041F25002C2F20920C2F292
S315020005000722414602B0BDE8F047FFF735BED4D414
S31502000510B0B598B04AF6D44240F20004C0F20022C6
S315020005204AF6E0410025C6F600040028C0F2002182
S315020005300B950A9111680391CDE90C454FF4D82128
S315020005404FF4D8300690CDE90E45CDE90411CDE938
S3150200055010450AD004F510504FF4586106F08AFB94
S315020005604FF48751204606F085FB04F51050CDE97D
S3150200057012054FF458604FF4585ECDE91445CDE9A3
S31502000580070004F55860CDE916054FF45870099036
S3150200059048F21C50BFF34F8FC0F200204EF65C7536
S315020005A0CEF20005026800BFEC6020340FF005C0F1
S315020005B0BFF34F8FBFF36F8F072003A9CDE900105A
S315020005C045F2C84048F22051C2F20920C0F2002189
S315020005D00AAB0024029401F0B4FDBFF34F8F4FF42F
S315020005E0585E40F20001C6F6000100BF00BF00BF20
S315020005F0296020310FF005C0BFF34F8FBFF36F8F15
S3150200060001305FEA1FA018B0B0BDD4D4D4D4D4D47C
S31502000610B0B596B049F684624CF20004C0F20622E6
S3150200062049F69061C6F60604C0F206210A911168DF
S31502000630049104F5AB4110912FA100250B950F955E
S31502000640CDE90C4591ED001F0E9411951395129468
S315020006508DED051F28B104F558604FF4586106F078
S3150200066009FB04F55860CDE914054FF4586009906A
S3150200067049F6502040F25C4EBFF34F8FC0F206207F
S315020006804EF65C75CEF20005026800BF00BF00BFE1
S31502000690EC6020340FF005C0BFF34F8FBFF36F8FAE
S315020006A0062004A9CDE9001045F2C84049F66021AA
S315020006B0C2F20920C0F206210AAB0024029401F01C
S315020006C040FDBFF34F8F40F25C4E4CF20001C6F67E
S315020006D0060100BF00BF00BF296020310FF005C030
S315020006E0BFF34F8FBFF36F8F01305FEA1FA016B0C3
S315020006F0B0BD00BF00BF00BF808B0000808B000032
S3150200070000360000800D000080B546F2E021C0F2FE
S31502000710072107C91268904700285FEA1F910E2831
S315020007205FEA1F90084344F6C121C2F2092108700C
S3150200073080BDD4D4D4D4D4D42DE9F04F81B02DEDDC
S31502000740048B86B0814600284FF000001CBF0F467E
S31502000750002905D106B0BDEC048B01B0BDE8F08FCF
S315020007601D46002BF6D044F6C1241646C2F20924D1
S31502000770DDF85080207800284FF00000286013D161
S3150200078046F2E021C0F2072107C9126890470E28F7
S315020007905FEA1F9100285FEA1F9241EA0201217077
S315020007A018BF0E2840F09C81CDE9027600240495FC
S315020007B0FFF72CFE4AF6AB2B9FEDCE0A4FF0FC0A52
S315020007C0C4EB0413C0211B0141F001E09BB2A44615
S315020007D003FB0BF30025DB0D03EB83039E010346AC
S315020007E0C5EB051401352401A4B204FB0BF406EB98
S315020007F0D454283409EB440819F8144098F8012017
S3150200080002F0F80141EA521101EE101A44EA0227F7
S31502000810B8EE411A0AEAD701C2F34102114481EE47
S31502000820001A02EE101AC4F3820141EAC40103F56A
S31502000830902703F51032C9B2A3EC011A01EE101A81
S31502000840B8EE422AB8EE411A82EE002A82ED002A5A
S3150200085081EE001A87ED001A0FF03FC00CF1010479
S3150200086000F54070C02CABD10120FFF7DEFD4FF042
S315020008700009CDF81490FFF7CEFD45F63C7205AFA0
S31502000880C0F20722B3EE000A0C213B4600F03CF907
S31502000890FFF7C6FD45F654729FED970AC0F207228E
S315020008A006213B4600F030F9DDF814A0BAF1000F3C
S315020008B000F0AC8044F6C42C44F6A448C2F2092CDB
S315020008C04FF0000BC2F209280CF10C0E9FED8B0AB9
S315020008D09FED8B1A4FF00009B9F1000F00F08180ED
S315020008E00BEB4B074E4608EBC70577466C6900BF14
S315020008F0BA68944271D117ED032A95ED003AB4EE27
S31502000900423A17ED024AF1EE10FA95ED015A17ED49
S31502000910017AB4EE445AD5ED020A33FE026AD7EDE5
S31502000920002AF1EE10FAB4EE607AD5ED033A30EE13
S31502000930C33A75FE041AF1EE10FAF4EE632A33EEA8
S31502000940C55A70FE874AF1EE10FA34EEC66A37EEE1
S31502000950422A73FEA24A74EEE11AB5EE406AF1EE3D
S3150200096010FAF5EE401A48BFB0EE406AF1EE10FA00
S31502000970B5EE403A48BFF0EE401AF1EE10FAB5EE87
S31502000980405A32EEC44A48BFB0EE403AF1EE10FA8F
S31502000990B5EE402A48BFB0EE405AF1EE10FAB5EE77
S315020009A0404A48BFB0EE402AF1EE10FA48BFB0EE18
S315020009B0404A22EE044A03EE054A26EE212A34EE86
S315020009C0423AB5EE403AF1EE10FA06DD82EE032A1D
S315020009D0B4EE412AF1EE10FA10DC013E07F11807D7
S315020009E086D10BEB4B0409EB490209F1010908EB2D
S315020009F0C4040CEBC20294E8EB00EBC20BF1010B50
S31502000A00D34538BFB9F1100FFFF466AF0398149DB2
S31502000A10814559EA3089B9F1000F5CD0029844F653
S31502000A20C42444F6444845F2225A00F10807C2F2A9
S31502000A300924B7EE048A9FED339AC2F20928C0F25E
S31502000A40072A4E4600BF00BF94ED000A94ED022A23
S31502000A50B0EE491A6369A0EE081A94ED010AB0EEE7
S31502000A60493AA2EE083A94ED032A20EE080A47F81C
S31502000A70083C22EE082ABDEEC11ABDEEC33ABDEE0F
S31502000A80C00ABDEEC22A11EE100A13EE101A12EEB9
S31502000A90102A084410EE101A114400EBD0704FEAE7
S31502000AA0600047F8040C01EBD1714FEA61023A602B
S31502000AB05DB16021CDE900024046524606F0F6F9E4
S31502000AC001385E2801D84046A847013E04F11804C1
S31502000AD007F10C07B8D10498C0F80090012039E656
S31502000AE0B8F1000F04D045F6CF30C0F20720C04758
S31502000AF000202FE600007F430000004200000000B5
S31502000B006666E63E000020422DE9F04F81B02DEDEB
S31502000B10088B8EB001FB01F61D46034600F1140751
S31502000B2000F118097001B3EE001A0026BBEE002A86
S31502000B309FED0C3AB7EE004A4FF0020CB0EE005AA7
S31502000B409FED097ABEEE006ADFED080AF6EE001A9C
S31502000B500292F6EE082A0190480105900B91CDE922
S31502000B60097305E00000803D0000000000004043DC
S31502000B7006FB01F003960690029800EBC6000026DB
S31502000B800C90CDF8109000BF069803EE906A3218CA
S31502000B90F8EE633A4A434FF000080896CDF81C90E7
S31502000BA00D9200BF00BF00BF08EB02064FF0000A1D
S31502000BB007EB461403EB4616D4ED004A4C46F4EE18
S31502000BC0414AF1EE10FA71FE244AB4EE642AF1EEBD
S31502000BD010FA72FE244AF5EE404AF1EE645AF1EE3C
S31502000BE010FA48BFF0EE654AF0EE445AD6ED017AA5
S31502000BF044EE835A96ED029A96ED038AD6ED046A7E
S31502000C0065EEA54A64EEA44A64EEA44A64EEA44ADA
S31502000C10C4EE244A74EE844AC4EE244A74EE645A3C
S31502000C2064FEA54AD6ED005A4CF001E0012600BF4B
S31502000C30B4EC01AAB4EE41AAF1EE10FA31FE0AAA08
S31502000C40B4EE4A2AF1EE10FA32FE0AAAB5EE40AA2C
S31502000C50B1EE4ABAF1EE10FA48BFB0EE4BAAB0EEC8
S31502000C6044BA0AEE03BA2BEE0BAA2AEE0AAA2AEE17
S31502000C700AAA2AEE0AAA84EE0AAA3AEE04AA84EE7E
S31502000C800AAA34EE4ABA2AFE0BAAB4EE64AAF1EE16
S31502000C9010FA56EACA8A06F101067AFE244A0FF0CB
S31502000CA039C8F4EE415AF1EE10FA71FE255AB4EE45
S31502000CB0652AF1EE10FA72FE255AF5EE405AB1EEA9
S31502000CC065AAF1EE10FA48BFF0EE4A5AB0EE44AA0F
S31502000CD005EE83AAF4EE417A6AEE0A5A65EEA55A41
S31502000CE065EEA55A65EEA55AC4EE255A75EE845AE6
S31502000CF0C4EE255A34EE65AA65FE8A5AF1EE10FA5A
S31502000D0071FE277AB4EE672AF1EE10FA72FE277A9E
S31502000D10F5EE407AB1EE67AAF1EE10FA48BFF0EEB0
S31502000D204A7AB0EE44AA07EE83AAB4EE419A6AEE74
S31502000D300A7A67EEA77A67EEA77A67EEA77AC4EE13
S31502000D40277A77EE847AC4EE277A34EE67AA67FEAC
S31502000D508A7AF1EE10FA31FE099AB4EE492AF1EED8
S31502000D6010FA32FE099AB5EE409AB1EE49AAF1EEB0
S31502000D7010FA48BFB0EE4A9AB0EE44AA09EE03AAA8
S31502000D80B4EE418A2AEE0A9A29EE099A29EE099ABE
S31502000D9029EE099A84EE099A39EE049A84EE099AA2
S31502000DA034EE49AA29FE0A9AF1EE10FA31FE088AB1
S31502000DB0B4EE482AF1EE10FA32FE088AB5EE408AFF
S31502000DC0B1EE48AAF1EE10FA48BFB0EE4A8AB0EE8A
S31502000DD044AA08EE03AAF4EE416A2AEE0A8A28EE2B
S31502000DE0088A28EE088A28EE088A84EE088A38EEEF
S31502000DF0048A84EE088A34EE48AA28FE0A8AF1EEAC
S31502000E0010FA71FE266AB4EE662AF1EE10FA72FE46
S31502000E10266AF5EE406AB1EE66AAF1EE10FA48BF0E
S31502000E20F0EE4A6AB0EE44AA06EE83AA6AEE0A6AAF
S31502000E3066EEA66A66EEA66A66EEA66AC4EE266A3C
S31502000E4076EE846AC4EE266A34EE66AA66FE8A6A7C
S31502000E5066EEA44AF4EE624AF1EE10FA00F18780D9
S31502000E600C98D5F800B02B46BBF1000F90ED00AA06
S31502000E70D0ED016A1DD00BEB4B0644F6A440C2F23C
S31502000E80092000EBC60600BF16ED02BAB4EE64BA3C
S31502000E90F1EE10FA73D5BBF13F0FA6F1180E04D886
S31502000EA0744694E8A71086E8A710BBF1010B7646B4
S31502000EB0EAD14FF0000BB0EE46BA0BEB4B00A5EEB3
S31502000EC085BA44F6A44105EE908AC2F20921F8EEEB
S31502000ED0655A01EBC00038EE088A7BEE255AC0ED52
S31502000EE0044AB0EE46BAC0F814A0A7EE85BA79EE67
S31502000EF0097A28EE088A67EEA77A3BEE239A60EE15
S31502000F00255A67EE8A7A20EE099A68EE266AB0EECC
S31502000F10658AE7EEA15AA7EE868AF0EE497AE6EEF0
S31502000F20867AA6EEA19AC5FE875AC8FE076AC7FE4A
S31502000F30877AC5FEE05AC0ED025AC9FE075AC6FEB6
S31502000F40E06AC0ED006AC7FEE07AC0ED017AC5FE2E
S31502000F50E05AC0ED035A1E681D463F2E0B99DDE985
S31502000F6009734FF0020C0D9A01D8701C286008F123
S31502000F70010809F1200988457FF416AE04E0BBF1A9
S31502000F803F0F98D9E7E700BF089E05980136DDF8BE
S31502000F901C908E4281447FF4F7AD039EDDF81090DB
S31502000FA001360198032E81447FF4E2AD0EB0BDEC0A
S31502000FB0088B01B0BDE8F08F90B1007945F2A4220A
S31502000FC0C2F209220128A0F101005FEA1F9102285C
S31502000FD0117005D845F2A5200121C2F2092001703F
S31502000FE0704798B145F2A8210122C2F20921C0F246
S31502000FF0810200680B68104240EA0300086005D0CF
S3150200100045F2AC200121C2F209200170704710B5E9
S3150200101082B00DF1070143F20A0000248DF8074061
S315020010208DF8064000F013F870B10DF1060143F297
S315020010300B0000F00CF830B19DF807009DF8061081
S3150200104041EA002400E00024A0B202B010BD2DE95E
S31502001050F04782B040BAADF8060046F2C83045F213
S31502001060A529C0F2072045F2A42AC2F20929C2F232
S31502001070092A8768002489F800408AF80040066831
S315020010808846BD680DF10601022201233046A847B3
S3150200109088B9002400F0B4F968B189F800408AF8EA
S315020010A000407F680122002330464146B84710B906
S315020010B000F0A6F90446204602B0BDE8F08709B161
S315020010C0FFF7C5BF0020704745F2A820C2F20920EB
S315020010D00068704745F2B020C2F2092000687047E6
S315020010E048B1B0B545F2B421C2F2092191E83C50AB
S315020010F080E83C50B0BD7047F0B581B045F2B025EE
S315020011000020C2F20925286000F068F800F0B9F85C
S3150200111046F2C830C0F207208668D0E9004132683C
S31502001120204690470E2818BF002846D1032700BF45
S3150200113043F20310032100F08FF928B143F20800AD
S31502001140822100F089F948B9F1682046884700F003
S3150200115098F8013FECD1012002213CE0642004F022
S315020011601DFFFFF754FF45F24061884228D145F63C
S315020011706C70C0F2072000F0AFF820B346F2B4104C
S31502001180C0F2072000F0A8F800B346F26C20C0F2C5
S31502001190072000F0A1F8E0B146F28C31C0F2072137
S315020011A007C912689047014600284FF0000018BF91
S315020011B00E2911D0032008210DE0012101200AE0A9
S315020011C00220032107E00120042104E00120052179
S315020011D001E001200621296001B0F0BDF0B581B021
S315020011E046F2EC2040F20045C0F20720C0F6017537
S315020011F005F504664FF48061876804682046324626
S31502001200FB689847FB6840F2014120463246984700
S31502001210FB6840F2054120462A469847FB6840F2A1
S31502001220064120462A469847FB6840F20E41204670
S315020012302A469847FB6840F20F4120462A469847BD
S31502001240FB684FF4E06120462A469847FB6840F265
S31502001250017120462A469847FB6840F202712046F1
S315020012602A469847FB6840F2037120462A46984769
S31502001270FB684FF4E16120462A4601B0BDE8F04022
S315020012801847B0B546F2EC2040F20971C0F20720C9
S315020012900022856804682046EB699847EB6940F2AC
S315020012A00A71012220469847322004F077FEEB6944
S315020012B040F20A71002220469847322004F06EFE60
S315020012C0EB6940F20971012220469847C820BDE821
S315020012D0B04004F063BED4D470B5841C4FF6FE75DC
S315020012E04FF6FF7600BF00BF34F8020CA84207D0C3
S315020012F0B0420AD0217800F0AFF840B103E000BF57
S31502001300207804F04BFE0434EEE7012070BD002085
S3150200131070BDD4D4D4D4D4D42DE9F041064605F018
S315020013201FF8002E4FD00546FFF758FF45F2AC28AE
S3150200133045F2A827C2F20928C2F2092745F2B424C7
S315020013400020C2F2092488F80000386018212046DD
S3150200135005F090FC46F28C30C0F2072081680068E6
S315020013608A6831469047E0B998F8000088B900BF0C
S3150200137004F0F6FF401BB0F57A7F27D8386810F4E0
S31502001380010F23D1012004F009FE98F8000001287C
S31502001390EED1386810F4010F4FF0000008BFBDE827
S315020013A0F081206048F20000C4F2340001686160F6
S315020013B0C16FA160416FE160D0F88410216180683D
S315020013C0606100F005F80320BDE8F0810020E8E73F
S315020013D070B546F28C35C0F20725AE682C682046F9
S315020013E071688847072818BF002808D1012004F031
S315020013F0D5FD326869682046BDE87040104770BD69
S31502001400B0B504F0ADFF45F2A525C2F2092529784B
S3150200141071B9044600BF00BF04F0A2FF001BB0F57D
S31502001420FA7F0DD8012004F0B9FD28780128F3D1FE
S3150200143045F2A420C2F20920007880F0010008E0FB
S3150200144046F2C830C0F2072081680068C96888473A
S31502001450002000F00100B0BD10B582B08DF8071073
S3150200146046F2C831020A8DF805208DF8060045F2CB
S31502001470A520C0F2072145F2A422C2F20920C2F237
S3150200148009228B680024047014700868D3F808C017
S315020014900DF1050103220023E04710B9FFF7B0FF63
S315020014A00446204602B010BD8CB046F24830C0F267
S315020014B007208568D0E900412A68204690470E2811
S315020014C018BF002811D141F24B7145F2CC23AF6906
S315020014D0C0F20021C2F2092300222046B84745F68F
S315020014E04610C0F2072000F03BF9FFF705FE20B3D5
S315020014F00446FFF78CFD0546FFF7ECFD45F29C33EB
S3150200150045F6B652C2F20923C0F20722C021CDE93E
S3150200151000051846234605F0C9FC0138BE2807D83F
S3150200152045F29C30C2F2092000F01AF900BF00BF52
S315020015304FF47A7004F032FDFAE7FFF7E5F8002877
S3150200154000F0D98045F6E230C0F2072000F008F933
S3150200155043F20A0000F049F943F20B0000F045F9A4
S315020015604FF4864000F041F945F21F0000F03DF9C4
S3150200157044F2407000F039F944F2417000F035F956
S3150200158045F23D0000F031F943F2350000F02DF945
S3150200159043F2360000F029F943F6200000F025F95F
S315020015A043F6210000F021F943F6240000F01DF96C
S315020015B044F6370000F019F943F2064000F015F937
S315020015C045F2811000F011F945F2861000F00DF98E
S315020015D045F2871000F009F945F2881000F005F986
S315020015E045F2891000F001F945F28A1000F0FDF883
S315020015F045F28B1000F0F9F845F28C1000F0F5F880
S3150200160045F28D1000F0F1F845F28E1000F0EDF87B
S3150200161045F28F1000F0E9F845F2901000F0E5F877
S3150200162045F25450C0F2072000F09AF840F2DC501E
S3150200163004F0B4FC44F680340525C6F6070400BF60
S315020016402046FFF769FE642004F0A8FC013DF7D1AD
S3150200165044F6803445F2DC2A45F29C3845F25D7B3D
S31502001660C6F60704C2F2092A0DF11809C2F20928C0
S31502001670C0F2072B00BF00BF2046FFF74DFEB8B1F0
S31502001680FFF722FD05464846FFF72AFD06AF0B9EE9
S315020016908FCF8DE80F00C02140465A462B46CDE932
S315020016A0047605F003FC0138BE2820D840461CE02B
S315020016B00020069041F261701022C0F200200090D4
S315020016C0204651464B46FFF737F850B1069971B19D
S315020016D0504600F0BDF8E0B945F22E70C0F2072080
S315020016E003E045F6E140C0F2072000F039F80A208F
S315020016F004F054FCC0E745F62370C0F2072000F060
S315020017002FF800BF00BF00BF4FF47A7004F046FC0A
S31502001710FAE745F29C3045F6B542069BC2F209202D
S31502001720C0F20722C02105F0C1FB0138BE2807D846
S3150200173045F29C30C2F2092000F012F800BF00BF49
S315020017404FF47A7004F02AFCFAE740B100790228D5
S3150200175005D145F25C400021C2F2092001707047B2
S31502001760002841D0F0B581B0054605F097FA064645
S3150200177004F0F6FD45F25C470446C2F209273978C1
S3150200178001290ED100BF00BF04F0EAFD001BB0F52F
S315020017907A7F26D8012004F001FC387808B12FF0B0
S315020017A00DC846F248300122C0F207203A7032468E
S315020017B0816800688B682946984710B10020387006
S315020017C00FE0387801280CD104F0CAFD001BB0F5F1
S315020017D07A7FF3D8012004F0E1FB387808B12FF0C4
S315020017E00DC801B0BDE8F040704710B584B004469C
S315020017F000208DF80F000DF10F012046FFF75FFC68
S3150200180045F25C7145F61622C0F20721C0F20722A4
S31502001810002851EA128C9DF80F3045F29C3045F6AD
S31502001820EF42C2F20920C0F20722C021CDE900C36D
S31502001830234605F03BFB0138BE2805D845F29C300D
S31502001840C2F20920FFF78CFF04B010BDD4D4D4D461
S31502001850F0B581B0A0B30C46102931D845F2424505
S315020018600746C4F2454504F07BFD06462846314646
S3150200187000F02AF820B32046314600F025F8F8B1E8
S31502001880BCB1083700BF00BF57F8080C314600F05C
S315020018901BF8A8B157F8040C314600F015F878B1D8
S315020018A03868314600F010F850B1013C07F10C07D8
S315020018B0EAD1E81C314601B0BDE8F04000F004B8B8
S315020018C0002001B0F0BDD4D4F0B581B046F20832A2
S315020018D00C46C0F2072205469768166800BF00BF8D
S315020018E07A683046294690470C2808D104F038FD1C
S315020018F0001B632807D8012004F050FBF0E70028FC
S315020019005FEA1F9000E0002001B0F0BD80B54FF203
S3150200191044004FF00271C4F200004AF20152016023
S315020019200021017446F20831C0F2072102848B6855
S31502001930D1E900011A68904710B1002004F068F955
S31502001940BDE88040FFF7B0BD022818BF704780B5DA
S3150200195045F2105046F23471C2F20920C0F2072154
S3150200196001F007FB0120BDE8804003F005B980B510
S3150200197084B045F2D05046F2CC23C2F2092045F299
S31502001980604C4DF6086EC0F2072301684FF4006200
S31502001990013101600320009041F6D71045F26651ED
S315020019A0C0F20020C0F20721C2F2092CC2F2092EAF
S315020019B0CDE901EC04F027F845F2C041C2F2092153
S315020019C0086008B104B080BD0020002104B0BDE863
S315020019D0804000F00CB810B5044600F00DF8204621
S315020019E0BDE81040FFF792BF7047FFF7FDBF00BE8C
S315020019F07047D4D4D4D4D4D4B0B545F2C8544FF039
S31502001A00FF31C2F20924206803F0DEFE012803D06A
S31502001A1020680021FFF7EBFF45F2CC50C2F2092005
S31502001A20017801B1B0BD01210170FFF7DEFF45F279
S31502001A30D055C2F2092500BF286801382860F1D0C6
S31502001A40206800210022002303F086FC0128F3D03F
S31502001A5020680021FFF7CBFFEEE780B545F2CC52B6
S31502001A6045F2D050C2F20922C2F2092000211170B9
S31502001A7045F2D4520160C2F209224FF4807001216C
S31502001A8003F04AFC45F2C851C2F20921086018B9AE
S31502001A9000200021FFF7ABFFFFF769FF04F002FB0E
S31502001AA0002080BD45F21C6C45F27C63C2F2092C13
S31502001AB0C2F20923C0F800C00B6080201060704794
S31502001AC045F67C0C45F6DC03C2F2092CC2F2092368
S31502001AD0C0F800C00B60802010607047704780E835
S31502001AE00E008A6A0021B1EB127F07D180B500F0A1
S31502001AF007F800285FEA1F91BDE880400846704754
S31502001B0090E80E00002B5FEA0F93002A48F29F62CC
S31502001B1008BF0233CB60C0F20102016800BF00BFFA
S31502001B204B681B0703D5002AA2F10102F8D14A68C5
S31502001B30120726D44A6A4368002B5FEA1F9312F003
S31502001B40020F5FEA1F9293421BD04A6A836802F031
S31502001B500102002B5FEA1F93934212D00222CA614E
S31502001B60016845F25352CA6300220168C0F61F7229
S31502001B700A6401684A6401688A640068C2640020D3
S31502001B8000E0FF2040B27047F0B581B0069F092FF2
S31502001B903ADA1C460B461646054600214FF0FF323E
S31502001BA01846FFF79BFF00293DD12968012F0861DE
S31502001BB02868066211DB0026D4E900013246FFF7E7
S31502001BC08DFF91B92968013F01EBC60106F10106B5
S31502001BD004F10804C1F88000EED12868816801F09A
S31502001BE00C010131816001B0F0BD45F2745045F639
S31502001BF0636245F2C443C0F20720C0F20722C0F274
S31502001C000723A42102F0C8FE45F2745045F663622A
S31502001C1045F62D23C0F20720C0F20722C0F20723A1
S31502001C20942102F0B9FE45F2745045F6636245F618
S31502001C30E653C0F20720C0F20722C0F2072398211A
S31502001C4002F0AAFE704701688A6802F00C020232AC
S31502001C508A600068416849075CBF41685FEAC16102
S31502001C6001D500207047416809065CBF41685FEAFA
S31502001C70C151F6D44068C0F340107047D0F800C096
S31502001C80012ADCF8080000F0040308BF0833022A20
S31502001C9008BF00F00C0303F00800012908BF043056
S31502001CA0022953EA00810020CCF80810704780B55B
S31502001CB00368986AD3F800E0814201D101200FE05F
S31502001CC0FF2380EA010CCFF200031CEA030F5FEA4E
S31502001CD01F9311F0006F5FEA1F9141EAD06018402E
S31502001CE08EEA02010023B3EB117F07D1C2F307513B
S31502001CF0CEF307528A4238BF002080BD002080BD45
S31502001D0045F6DC20C2F20920704700207047002009
S31502001D10704780B5012005F04DF808B10021017029
S31502001D2080BD04F0C3BFD4D40278014600BF00BF11
S31502001D3012B920BF0A78FBE70020013A0A70704701
S31502001D4001780131017040BF00207047704770472B
S31502001D50B0B50446407C012808BFB0BD2046022526
S31502001D602574FFF770FF002818BF00256574E06A26
S31502001D70BDE8B040FFF7E4BF2DE9F04381B045F678
S31502001D80E0281E46C2F209280D460446D8F800701D
S31502001D90002F174604D1FFF7B3FFC8F80000C8B3F7
S31502001DA045F6E429C2F20929D9F8000020B9FFF75D
S31502001DB0B0FFC9F8000068B3DDE908230020C4E9D2
S31502001DC00C702946C4E90E6040F20220A4F84100D4
S31502001DD02046FFF784FEE8B1FFF79BFFE062C8B139
S31502001DE004F110001C2104F045FFD8F80000FFF7AB
S31502001DF08CFF45F6E820C2F2092001680460D8F893
S31502001E000000E160FFF783FFD9F80000FFF798FFB3
S31502001E10002001E04FF0FF3001B0BDE8F083D4D4DA
S31502001E20B0B545F6E0250446C2F209252868FFF753
S31502001E306CFF45F6E820C2F209200068E0B1A04234
S31502001E4009D000BF00BF00BF0146C068A0B1A042D2
S31502001E50FAD10C3103E045F6E821C2F2092145F632
S31502001E60E422C068C2F2092208604FF0FF3310680C
S31502001E704FF0FF32FFF758FF2868FFF748FFE06A86
S31502001E80BDE8B040FFF74DBF10B50446FFF738FE78
S31502001E9010B14FF0FF3010BDE06B00285FEA1F91D2
S31502001EA020460A46FFF7EAFE002010BD10B504469A
S31502001EB0C06B002800F10100E06301D0002010BDD4
S31502001EC02046FFF7E1FF0028F8D0E06B0138E06317
S31502001ED04FF0FF3010BDD4D4F0B581B004460546AC
S31502001EE014F8100F00284ED0022803D0012847D13B
S31502001EF0002953D0686A012813DB0026002700BF99
S31502001F0095F84210F940C90707D0D5E9070180596B
S31502001F1051F8271000F0B0FB686A0137083687428D
S31502001F20EEDBE86A4FF0FF324FF0FF33FFF7FCFEBD
S31502001F3000280CD501206874297C022907D168740F
S31502001F404FF0FF32E86A4FF0FF33FFF7EDFEA96A62
S31502001F502846FFF7FCFEE86B38B10138E86304D186
S31502001F60012101222846FFF789FE687C70B1687C50
S31502001F70022802D12846FFF765FE2846FFF784FFAE
S31502001F804FF0FF3503E06FF0010504E000251C2148
S31502001F90204604F06FFE284601B0F0BD0125FAE79F
S31502001FA02DE9F04F83B0002900F09B80002B00F052
S31502001FB0A88004460C98002800F0B380254615F840
S31502001FC0107F17BB0026267404F11406DDE90DEC1A
S31502001FD020620EC69607C4E909EC12D144F643778D
S31502001FE00E68C3F25017BE420BD1BEF1030F13DBCC
S31502001FF0D4E90C7C57EA0C060ED0A66B8068B04278
S3150200200008D91C21284604F035FE4FF0FF3003B0F4
S31502002010BDE8F08FC3E9047C02EB01080F1D4745BA
S315020020205DD23878052858D002280AD00128E8D18E
S31502002030D7E901122046FFF73AFE0028E1D00C3715
S31502002040EDE707F1040B5FEA0B70DAD178787E8848
S315020020500290606A012824DBE169024600BF00BFE4
S315020020600B781B07CDD1013A01F10801F8D14FF0E7
S31502002070000A4FF0000900BF94F8411021FA09F155
S31502002080C90708D0D4E9070150F80A0051F8291007
S3150200209000F0A2FA606A09F101090AF1080A81450B
S315020020A0EADB2046FFF702FF0028AAD1029846EA99
S315020020B00046012020742046A16A4FEA8609FFF7EE
S315020020C045FEE369606A0090204659464A46FFF794
S315020020D05BFD07EB8600071DA1E704379FE700209B
S315020020E095E745F6F63045F6A14245F65713C0F296
S315020020F00720C0F20722C0F2072340F2822102F033
S315020021004BFC45F6F63045F6A14245F68633C0F25B
S315020021100720C0F20722C0F2072340F2832102F011
S315020021203BFC45F6F63045F6A14245F68913C0F268
S315020021300720C0F20722C0F207234FF4217102F0F2
S315020021402BFC70B584B008AD064631CD8DE8310062
S315020021503046FFF725FF002806D40121304604B099
S31502002160BDE87040FFF7B8BE4FF0FF3004B070BD57
S315020021701EF0040F0CBFEFF30880EFF3098001494C
S3150200218008470000172200020F4B1968EFF3098275
S315020021901EF0100F08BF22ED108A22E9F04FEFF36E
S315020021A00B8342F8043D0A604FF0100080F3118859
S315020021B0BFF34F8FBFF36F8F03F022FF4FF0000084
S315020021C080F3118800F002B8ECDB092207480168A7
S315020021D00A6802CA81F30B88B2E8F04F1EF0100FAC
S315020021E008BFB2EC108A82F309887047ECDB092239
S315020021F010B51020EFF3118480F3118803F0D4FF99
S3150200220030B14EF604504FF08051CEF2000001601C
S3150200221084F3118810BD806910F8020C022801D1DE
S31502002220FFF7D4BF042838BF704780B545F2024095
S3150200223045F6A01245F23E53C0F20720C0F207222D
S31502002240C0F207234FF47E7102F0A6FB283140F854
S31502002250481D42F279214FF0807CC0F2002122F023
S315020022600102C1630264C0F844C06FF00201C0E912
S3150200227009137047D4D4D4D400BE00BF00BF00BF38
S31502002280FEE7D4D4D4D4D4D44EF62250F021CEF2E2
S315020022900000017000F016F84EF63470CEF200001F
S315020022A0016841F04041016062B6BFF36F8FEFF300
S315020022B0148C2CF0040C8CF31488BFF36F8F02DF9E
S315020022C000BEFDE745F6843044F6D351C2F209203A
S315020022D0C1F262010068A0FB01014FF0FF3000EB82
S315020022E091110020B0EB116F18BF70474EF2100229
S315020022F0F023CEF2000251604EF62351CEF20001D7
S315020023000B709060072010607047EFF31180102168
S3150200231081F3118845F6EC21C2F209210A68002AE6
S3150200232002F101020A6018BF704745F6F021C2F2B7
S31502002330092108604EF60450CEF200000068C0057E
S3150200234000D1704780B545F2024045F2284245F673
S31502002350CD03C0F20720C0F20722C0F2072340F2E3
S31502002360A44102F019FB45F6EC20C2F209200168ED
S3150200237059B10139016018BF704745F6F020C2F223
S315020023800920006880F31188704780B545F2024043
S3150200239045F6FC5245F2DC33C0F20720C0F20722B2
S315020023A0C0F2072340F2AD4102F0F6FA80B598B3C7
S315020023B04EF6902EC4F2010E9EF800100A0722D0A5
S315020023C04EF2FA324AF2025CC4F20102CFF6FF7C06
S315020023D000201388A2F800C08EF8000043F42540BE
S315020023E01080BFF34F8F30BFBFF36F8F62B6BFF35C
S315020023F06F8F72B61088A2F800C08EF8001040F4F3
S315020024002540108080BDBFF34F8F30BFBFF36F8F63
S3150200241062B6BFF36F8F72B680BD80B572B603F037
S3150200242095FC0120FFF7C2FF62B6BDE8804003F0CB
S31502002430E7BCF0B583B0EFF31086012282F3108871
S3150200244043F20002C4F220020D4607461E2013681C
S31502002450012123F480331360126802F0A2FA86F394
S3150200246010880021B8686E7BAC7BC4F21401006848
S3150200247000220023CDE90064FFF77EFC08B10320A9
S3150200248041E095F90C102A7A4EF200100029CEF29C
S3150200249000004FEA021203D4431883F8002306E031
S315020024A04EF6145601F00F03CEF200069A5545F683
S315020024B04C320126C2F2092242F821704CF2003255
S315020024C0C4F2000252F8213023F4803342F821305C
S315020024D052F821204A0901F01F01BFF35F8F00EB7A
S315020024E0820306FA01F1C3F8801140F822107D60DA
S315020024F02868F86068687861002044F25451C5F291
S315020025004D213861396003B0F0BD8446C1600020B8
S31502002510CCE904327047B0B541684EF28013CEF270
S315020025200003012491F90C1001F01F02490904FA73
S3150200253002F243F82120BFF34F8FBFF36F8F8068FB
S315020025400068FFF76DFC43F20000EFF31085C4F25A
S31502002550200084F31088016841F48031016000682C
S315020025601E20012102F01DFA85F310880020B0BD5D
S31502002570B0B582B04FF07041EFF3038001EB00601B
S3150200258045F64C328115C2F2092204165558A9683D
S315020025900868FFF7DDFBE86868B1286910B10168D1
S315020025A0019100E001A869690160E9688847286924
S315020025B008B1019901604CF20030C4F2000050F8F3
S315020025C0241021F4803140F8241050F8240002B07F
S315020025D0B0BDD4D4D4D4D4D4B0B5D8B10129B8BFFF
S315020025E0B0BD00F01F021144A1F1200202EAE2721C
S315020025F0BFF34F8FD2431144012202EB511E4EF616
S315020026008051CEF2000100BFC1F8E80120300FF080
S3150200261005C829E04EF680500021CEF2000043F6AE
S31502002620E07C4160BFF34F8F0268C2F34E31D3089C
S31502002630C2F3C902541C9A074B0100BF00BF00BF78
S3150200264003EA0C0544F001E0154400BF00BF00BFD9
S31502002650C0F8EC5105F140450FF007C00029A1F181
S315020026600101A3F12003EBD1BFF34F8FBFF36F8FAD
S31502002670B0BDD4D4D4D4D4D4B0B5D8B10129B8BF5E
S31502002680B0BD00F01F021144A1F1200202EAE2727B
S31502002690BFF34F8FD2431144012202EB511E4EF675
S315020026A08051CEF2000100BFC1F8F00120300FF0D8
S315020026B005C829E04EF680500021CEF2000043F60E
S315020026C0E07C4160BFF34F8F0268C2F34E31D308FC
S315020026D0C2F3C902541C9A074B0100BF00BF00BFD8
S315020026E003EA0C0544F001E0154400BF00BF00BF39
S315020026F0C0F8F45105F140450FF007C00029A1F1D9
S315020027000101A3F12003EBD1BFF34F8FBFF36F8F0C
S31502002710B0BDD4D4D4D4D4D42DE9F0410D46097831
S3150200272048F200020446C4F2350202EB012060625E
S31502002730002020702562A2786969A162A969C4E9AC
S315020027400B0122F00300D5F81C80411CA1706978A8
S3150200275011B940F00200A070A97A95F90B20204623
S3150200276000F059FB297995F90520204600F053FB24
S31502002770A97995F90720204600F04DFB297A95F9AB
S315020027800920204600F047FB0120EFF3108780F373
S3150200279010884FF00041287821FA00F043F2040134
S315020027A0C4F220010A6822EA0000086008681E20B6
S315020027B0012102F0F6F887F310884FF48061606A0F
S315020027C04FF480428160E869E9786F78437802EADB
S315020027D08131067867F30921DA03437B92B206F068
S315020027E0030703F00103114441EA4352636A42EAD2
S315020027F00762416802F580525A61027802F0FE03CE
S31502002800022B07D14FF60471022ACFF6007108BFD8
S31502002810203100E00968626A11610C22017BAB7803
S31502002820877862F39F014FF44072022B08BF4FF480
S315020028308072002B07F00103676A18BF114341EA51
S315020028400371F960626A002191612A78092A04D823
S31502002850626A0023C1F61F735362B0F80F20807BB1
S31502002860636A40EA022041F60172C0F21F0210407A
S3150200287018632046C4E90411C4E9061100F075F98B
S31502002880606AB8F80A101022A181C9F60752826658
S31502002890206A90F905304CF20030C4F200005F095C
S315020028A003F01F0650F8231021F4803140F823105C
S315020028B050F823104EF200110123CEF2000103FA62
S315020028C006F601F5C072BFF35F8F42F8276041F842
S315020028D02760276A97F90B7050F8276026F480362E
S315020028E040F8276050F827607E0907F01F07BFF3FC
S315020028F05F8F03FA07F742F8267041F82670276AB7
S3150200290097F9077050F8276026F4803640F827605A
S3150200291050F827607E0907F01F07BFF35F8F03FA9F
S3150200292007F742F8267041F82670276A97F9097068
S3150200293050F8276026F4803640F8276050F82700C2
S31502002940780907F01F07BFF35F8FBB4042F82030BC
S3150200295041F8203040F21141606AC0F20101816003
S31502002960606A00BF00BF00BF017FC907FCD044F602
S3150200297042110020C5F243316160BDE8F081034691
S315020029800020C3E906127047D0F824C0DCF80830EC
S3150200299023F44013CCF80830D0F824C000BF00BF9F
S315020029A0DCF848305B00FBD5DCF8083023F0100376
S315020029B0CCF80830D0F824C09CF81C30DB06FBD4D7
S315020029C0C0E904120020DCF8081041F01011CCF81E
S315020029D00810704770B50446406A4FF6EE720D460F
S315020029E08168CFF6CE7221F4401611408160002034
S315020029F02061204600F0B9F8606A2968016100206A
S31502002A00616A8E6070BD00204FF0FF32C1E900227C
S31502002A107047D4D4D4D4D4D48A0701D4062214E07D
S31502002A20426A936823F440139360426A00BF00BF70
S31502002A30936C5B00FCD5936823F010039360426AA3
S31502002A40137FDB06FCD400224261C90701D00022B3
S31502002A50C26110467047844681620020CCE90B327F
S31502002A607047D4D4D4D4D4D4B0B544F64211044673
S31502002A70C5F24331406888426AD1606A816821F4AE
S31502002A8040118160606A816821F010018160606A8C
S31502002A90017FC906FCD4206A4EF28011CEF20001F3
S31502002AA090F90700430900F01F02012000FA02F222
S31502002AB041F82320BFF34F8FBFF36F8F226A92F93B
S31502002AC00920530902F01F0200FA02F241F82320FC
S31502002AD0BFF34F8FBFF36F8F626A936823F480331D
S31502002AE09360226A92F90520530902F01F0200FA46
S31502002AF002F241F82320BFF34F8FBFF36F8F226A92
S31502002B0092F90B20530902F01F0200FA02F241F871
S31502002B10232043F20401BFF34F8FBFF36F8FEFF30E
S31502002B20108580F31088206AC4F220014FF000421B
S31502002B3000780B6822FA00F01843086008681E2025
S31502002B40012101F02EFF85F3108800206060B0BDE0
S31502002B500720B0BD0246C069086000200021D1618D
S31502002B607047062070470620704770B50446006A13
S31502002B70C5690020A060687C50B34EF25400C4F2CE
S31502002B800100017801F00F01022901D801220BE0B0
S31502002B90CA1E052A06D246F28C71C0F2072151F8E6
S31502002BA0226003E00839102202FA01F6407800F0AA
S31502002BB00F0001F09FFE45F68432697CC2F20922BB
S31502002BC0B0FBF6F012685143B1FBF0F00130A060A1
S31502002BD070BDB0B54FF07041EFF3038001EB0060BA
S31502002BE04CF200318015C4F20001425822F48032C0
S31502002BF0425045F64C324158C2F209221458206A14
S31502002C0000690028606918D1C0B1A07800F00300FD
S31502002C100228206905D10088616A20F4DC404860F8
S31502002C2002E0616A00780871A078226900F0030167
S31502002C306069401A606111442161B8B9616A022271
S31502002C408D68A06862F3155510B101F0E9FE616A5C
S31502002C508D60A06A00284FF00000206106D0002196
S31502002C6080222046BDE8B04000F001B8B0BD2DE993
S31502002C70F04385B08146C06A0DF1040830B10546BD
S31502002C80C44695E8D8008CE8D80000E04046D9F85A
S31502002C9020301B78816003600271D9F83010C16060
S31502002CA0D9F828108847D9F82C0010B198E88E0078
S31502002CB08EC005B0BDE8F08310B582B04FF070410A
S31502002CC0EFF3038001EB00604CF200318015C4F291
S31502002CD00001425822F48032425045F64C324158A5
S31502002CE0C2F209221458A07800F00302606A022A8E
S31502002CF003D101686FF35F2100E00178E069019179
S31502002D0090B1A06901A903F0B9FFA078D4E906122F
S31502002D1000F003000144101AC4E906100DD1A06A9E
S31502002D2058B10021012202E0A06A30B104222046F5
S31502002D3002B0BDE81040FFF79ABF02B010BD10B551
S31502002D404FF07041EFF3038001EB006145F64C3220
S31502002D508815C2F209224FF6EF741058CFF6CF74D7
S31502002D60426A936823409360826A0C161AB1002164
S31502002D700222FFF77CFF4CF20030C4F2000050F84A
S31502002D80241021F4803140F8241050F8240010BD9C
S31502002D904FF07041EFF3038001EB006C45F64C31C6
S31502002DA04FEAAC50C2F2092108588178436A01F011
S31502002DB00301022903D119686FF35F2100E0197834
S31502002DC070B59A6C20244FF0080E04EAD2441026FD
S31502002DD00EEA126516EA126204EB0506324403D0C5
S31502002DE09E6C360458BF40329E6E4FEA2C6446F003
S31502002DF0C8569E66836A0BB1FFF739FF4CF2003064
S31502002E00C4F2000050F8241021F4803140F8241056
S31502002E1050F8240070BD10B54EF2801C4FEA521EC7
S31502002E20CEF2000C02F01F030124002A04FA03F377
S31502002E304CF82E304CF200334FEA0111BFF34F8F9C
S31502002E40C4F20003BFF36F8F53F8224024F4803498
S31502002E5043F8224053F8223004D40CEB020383F8E1
S31502002E60801206E04EF6145402F00F03CEF200046E
S31502002E70195545F64C31C2F2092141F8220010BD1E
S31502002E80024641608868C0231061C4F20203C86822
S31502002E90906100205061086803EB4010403090605A
S31502002EA0086803EB4010D06091F9040000282CD486
S31502002EB080B54EF2001C4979CEF2000C00EB0C03F1
S31502002EC0090183F8001345F64C31C2F2092141F893
S31502002ED020204CF20031C4F2000151F8203023F4D4
S31502002EE0803341F8203051F82010410900F01F00CC
S31502002EF001230CEB810E03FA00F0BFF35F8FCEF8CD
S31502002F0080014CF82100BDE8804045F243010020D3
S31502002F10C5F249211160704780680268920302D4A3
S31502002F208160002070470C20704782680020516043
S31502002F307047844601610020CCE90532704701469C
S31502002F40406890F9040000280FD44EF2801C00F06D
S31502002F501F024009CEF2000C012303FA02F24CF8DA
S31502002F602020BFF34F8FBFF36F8F002000220A602D
S31502002F70704780B545F25422C5F24F0202600846F8
S31502002F8000F01EF9002080BD0146002000220A60E2
S31502002F90704780B5084600F013F9002080BD70B571
S31502002FA086B001A8049003A814460D46ADF8081091
S31502002FB001920126ADF80C6000F066F945F648303C
S31502002FC0EFF31081C2F2092086F3108802683AB93B
S31502002FD040F614520023C4F24002137040231370C9
S31502002FE002680132026081F31088E10340F60001B3
S31502002FF04FEA1522C4F2400101D4EBB20CE001EB18
S315020030008216EBB256F8235025F4803546F8235043
S3150200301024F4803546F8235001EB8211012241F84F
S315020030202340EFF3108182F31088026812B102681E
S31502003030013A0260006838B940F614500022C4F220
S31502003040400002708022027081F31088002006B0D0
S3150200305070BD04200023C4F24000CFF6FF7340EA9D
S31502003060D100C9B220F01B00006843EA104020FAE2
S3150200307001F1002001F001011170704710B56FF0E7
S315020030800100CBB200EAD11001210C2401FA03FEA1
S315020030900101C4F2400444EA001C4FF48030012AC4
S315020030A0625800FA03F004D122EA000040EA0E0256
S315020030B003E022EA0E0141EA00020020CCF80020D9
S315020030C010BD6FF03F00CBB200EA910040F600015E
S315020030D000EB8300C4F2400141580020C1F34001D5
S315020030E01170704710B5CBB2012098406FF0010EF7
S315020030F084B20EEAD110002A40F208024FF4803C54
S315020031004FEA0011C4F240024FF0000008BF0CFA69
S3150200311003F4545010BD80B56FF0010040F2000C6C
S3150200312000EAD110C4F2400C010103EA020E62EA7F
S3150200313003025CF801004EEA000E002002EA0E02CB
S315020031404CF8012080BD6FF0010000EAD110042185
S315020031500001C4F2400109580020090C1180704791
S315020031606FF0010003EA020C00EAD11023EA020121
S315020031700C230201C4F2400300204CEA014199509B
S3150200318070476FF00100042300EAD110C4F2400335
S31502003190010100205958118070476FF0010003EABF
S315020031A0020C00EAD11023EA020108230201C4F24A
S315020031B0400300204CEA014199507047D4D4D4D43C
S315020031C070B5044600F060F845F6483CEFF310810E
S315020031D0C2F2092C012080F31088DCF8000038B90D
S315020031E040F614500022C4F24000027040220270DF
S315020031F0DCF800000130CCF8000081F3108820884A
S3150200320028B340F6000E0021C4F2400E00BF00BFF4
S31502003210606800EBC10250F831309288D8034FEA59
S315020032201220D2B20BD50EEB801555F8226026F489
S31502003230803645F8226023F4803645F822600EEB8C
S315020032408010013140F8223020888142E0D30120EB
S31502003250EFF3108180F31088DCF8000020B1DCF86F
S3150200326000000138CCF80000DCF8000038B940F65E
S3150200327014500022C4F2400002708022027081F3D0
S31502003280108870BDD4D4D4D42DE9F04F81B0044651
S315020032900088002865D04EF64C4B0025C4F2010B7F
S315020032A04FF0010A00BF00BF46F2E87642F240083C
S315020032B00027C0F20726C4F2200800BF00BF00BFE5
S315020032C0606836F8021B00EBC50082888A423FD14D
S315020032D000689BF8001000F0B8500AFA07F9B0F13E
S315020032E0807F09EA010017D158B9012001F0FFFBDE
S315020032F09BF8000040EA09008BF80000012001F06B
S31502003300CFFB98F90000002822D498F8000040F07C
S31502003310800017E000BF00BF58B1012001F0E7FBB3
S315020033209BF8000020EA09008BF80000012001F05A
S31502003330B7FB98F90000B0F1FF3F09DC98F80000EE
S3150200334000F07F0088F80000C820012101F029FB67
S31502003350013708F10208032FB2D1208801358542D0
S31502003360A2D301B0BDE8F08F70B50D4609784EF2D2
S3150200337000020446C4F2250202EB01202061256008
S31502003380A8686060287B2072E8696063286AE06347
S315020033900020A063C4E90500C4E9070084F82900F7
S315020033A084F82A0084F82B0084F82C000120EFF31D
S315020033B0108680F310882978C1F10901884043F20A
S315020033C00401C4F220010A6822EA000008600868C3
S315020033D01E20012101F0E5FA86F3108820462946CF
S315020033E000F0B2F844F643110020C5F24921E1602B
S315020033F070BD9C46012380F82AC000F09DB99C4608
S31502003400002380F82AC000F097B9B0B504460069D7
S315020034100025C5712046216800F096F894F826002A
S31502003420216984F82800A069C4E90750002084F8BD
S315020034302C5084F82A50B322CA71B0BD034600202C
S3150200344059601A727047844641630020CCE90E32F5
S31502003450704744F64312C068C5F2492290425FEAB9
S315020034601F9200200A707047B0B504460069002515
S31502003470C5712046216800F067F894F82600A16914
S3150200348084F828002069C4E90751B32184F82C5036
S3150200349084F82A50C1714EF280112069CEF20001E1
S315020034A0C571E560206890F91100430900F01F021A
S315020034B0012000FA02F241F82320BFF34F8FBFF337
S315020034C06F8F226892F90E20530902F01F0200FA4A
S315020034D002F241F82320BFF34F8FBFF36F8F2268AA
S315020034E092F91020530902F01F0200FA02F241F883
S315020034F02320BFF34F8FBFF36F8F226892F90F20FD
S31502003500530902F01F0200FA02F241F8232043F2A5
S315020035100402BFF34F8FBFF36F8FEFF3108580F373
S3150200352010882168C4F2200209781368C1F10901E2
S31502003530884001211843106010681E2001F031FAFC
S3150200354085F310880020B0BDF0B502690023137020
S31502003550402302691370026913785B06FCD5C02307
S3150200356013700268036908254EF6185C526ACEF299
S31502003570000C127942F0E0021A7402680369526A78
S31502003580D27842F0E0025A7402680369526A92786B
S3150200359062F306159D7002680569526A13785278BD
S315020035A0012B5FEA1F9343EA420242F00402EA70E9
S315020035B0026844F24025C0F20F0503695268AA4226
S315020035C04FF0770208BF6FF008025A7100230269B2
S315020035D09371B3230269D3714EF2001291F911402D
S315020035E04B7BCEF20002002C4FEA031303D41519CB
S315020035F085F8003304E004F00F05654405F8043C41
S3150200360045F64C3E4CF20033C2F2092EC4F20003D8
S3150200361001274EF8240053F8245025F4803543F848
S31502003620245053F82450650904F01F04BFF35F8F3A
S3150200363002EB850607FA04F4C6F8804142F82540F3
S3150200364091F90F404D7B002C4FEA051503D416194C
S3150200365086F8005304E004F00F06664406F8045C9C
S315020036604EF8240053F8245025F4803543F82450AC
S3150200367053F82450650904F01F04BFF35F8F02EB71
S31502003680850607FA04F4C6F8804142F8254091F906
S3150200369010404D7B002C4FEA051503D4161986F807
S315020036A0005304E004F00F06664406F8045C4EF884
S315020036B0240053F8245025F4803543F8245053F857
S315020036C02450650904F01F04BFF35F8F02EB8506E1
S315020036D007FA04F4C6F8804142F8254091F90E40F3
S315020036E0497B002C4FEA011103D4171987F80013FE
S315020036F005E004F00F0505EB0C0707F8041C4EF86D
S31502003700240004F01F0753F82410012621F4803107
S3150200371043F8241053F82410610906FA07F7BFF399
S315020037205F8F02EB8103C3F8807142F821709F21FB
S3150200373000690170F0BDD4D490F808C0C0E9051242
S31502003740BCF1010F09D190F804C04FF48071A0F8C2
S31502003750251043EA4C0180F8241010B581B04EF2D0
S31502003760200180F82930C4F201010968009100990C
S3150200377001F00F210091DDF800E0DDF800C00169DB
S315020037800B7C90F82C40B4B9CEF30322A2EB1C6258
S3150200379003FA02F2042A09D3920800BF00BF00BF4F
S315020037A091F90130002B03D5013AF9D1082169E0DC
S315020037B00022CA7182690021C0E9072190F82620F9
S315020037C080F8281080F8272080F82B1080F82D101A
S315020037D080F82E1080F82F1080F830100168496AA0
S315020037E00A784B7891F805C08C79012A5FEA1F9214
S315020037F042EA4302036942EA0C1242EAC41242F066
S315020038000402DA700269137943F010031371026934
S31502003810137903F0F70313710269137903F0EF03C7
S3150200382013710269C979137903F07F0343EAC1115F
S31502003830117101694A7942F001024A71016891F9EE
S315020038400F1000290BD401F01F02012303FA02F222
S315020038504EF200134909CEF2000343F82120016912
S315020038604A7A02F0F3024A720169BF22CA7190F8DB
S315020038702C1019B1002180F82C1003E000690221F6
S3150200388041700021084601B010BD10B582B04FF05C
S315020038907041EFF3038001EB00604CF200328015B9
S315020038A0C4F20002835823F4803383508058EFF326
S315020038B0038001EB006045F64C318015C2F2092106
S315020038C00C5894F82D00B8B1E069002862D021683E
S315020038D0496AC979012904D10521204600F03CFA3A
S315020038E0E069012858D0022833D0032840D1206944
S315020038F0017941F040013AE0A069022804D8206922
S31502003900017941F040010171E06901280ED1206977
S31502003910017941F0100101712069017941F0080134
S3150200392001712069017901F0EF0101712068406A95
S31502003930C079012803D10521204600F00DFA20693D
S31502003940C07C8DF807009DF80700012084F82D0041
S3150200395020E02069017941F01001017120690179A5
S3150200396041F0080101712069017901F0EF0101714D
S31502003970D4E90401C07C226A8854D4E907010138DB
S3150200398001F10101C4E9070104D12069017901F0BD
S31502003990BF01017102B010BD94F82A00012831D18D
S315020039A020684EF28013CEF2000390F90F0042090E
S315020039B000F01F01012000FA01F143F82210BFF3C3
S315020039C04F8FBFF36F8F2169CA7942F08002CA71A5
S315020039D021690A7942F010020A7121690A7902F014
S315020039E0F7020A7121690A7902F0EF020A71216966
S315020039F004224A7021694A7902F0FE024A7184F869
S31502003A002C00B5E72069417A01F0F701417220697D
S31502003A1008214170ACE7D4D4B0B54FF07041EFF352
S31502003A20038001EB00604CF200358015C4F20005FC
S31502003A30425922F4803242514059EFF3038001EB9E
S31502003A40006045F64C318015C2F209210C5894F8F3
S31502003A502700C8B194F82600032806D194F8280056
S31502003A60022802D194F8300070B3206994F8241029
S31502003A70817494F8280094F82710013084F82800FD
S31502003A80481E84F82700B0BD94F82900E0B92068E2
S31502003A90406AC079012808D194F82B0028B9206A17
S31502003AA018B10521204600F057F9E06968B1D4E95A
S31502003AB00401226A895C8174D4E90701013801F1A3
S31502003AC00101C4E9070100D0B0BD2069C17901F046
S31502003AD07F01C17120696FF0BE0100BF00BF00BF48
S31502003AE090F90720B2F1FF3F03DC002901F1010141
S31502003AF0F6D1206890F9100055F8201021F4803193
S31502003B0045F8201055F82000206890F9100000288A
S31502003B100BD44EF2802300F01F014009CEF20003BF
S31502003B20012202FA01F143F820102069C17941F01D
S31502003B304001C171B0BDD4D410B54FF07041EFF35E
S31502003B40038001EB006045F64C318015C2F2092173
S31502003B500C582068406AC079012803D10521204605
S31502003B6000F0FAF894F82900012806D194F8270003
S31502003B70012802D194F8300080B3E06970BB94F852
S31502003B802A00012822D120684EF28013CEF20003C9
S31502003B90012290F90F0000F01F01400902FA01F11B
S31502003BA043F82010BFF34F8FBFF36F8F2069C1799F
S31502003BB041F08001C1712069042141702069417977
S31502003BC001F0FE01417184F82C2007E02069417A58
S31502003BD001F0F70141722069082141702069C1791B
S31502003BE001F0BF01C17120696FF0BE0100BF00BFC5
S31502003BF0C279520603D5002901F10101F8D14FF02D
S31502003C007041EFF3038001EB00604CF20031801546
S31502003C10C4F20001425822F480324250405810BD8C
S31502003C20B0B54FF07041EFF3038001EB006045F64B
S31502003C304C318015C2F209210C5821694A7A4B7A15
S31502003C4002F01F0002F003020F2803F0E0034B729A
S31502003C5001D83AB923E021694B785B0658BF42F096
S31502003C600102CAB1012084F82B0020690025C57122
S31502003C7020462168FFF768FC94F82600A16984F8BB
S31502003C8028002069C4E90751B32184F82C5084F82E
S31502003C902A50C17101214BE04A78520611D401071C
S31502003CA006D494F82C20012A31D110F004022ED029
S31502003CB0E06910B994F82B0090B3002919D40120B9
S31502003CC035E0012084F82B0008204870206823691B
S31502003CD0406A41790278807942EA011141EAC010CC
S31502003CE040F00200D8702069417941F0010141712A
S31502003CF021E00020A169C4E9070194F8261084F89E
S31502003D00281084F82C0084F82A0001200CE04007D1
S31502003D1011D52068406AC07901280CD1042107E038
S31502003D2094F8290080F003002169B322CA71C1B256
S31502003D30204600F011F84FF07041EFF3038001EBDB
S31502003D4000604CF200318015C4F20001425822F4A0
S31502003D50803242504058B0BD10B582B00446806BE6
S31502003D6020B1D0E90023CDE9002300E06846E26BEA
S31502003D7002600171616B8847A06B18B1DDE9001220
S31502003D80C0E90012002084F82B0002B010BDD4D482
S31502003D902DE9F04F85B00D4601604E69814649888E
S31502003DA0287AF27800FB01F73178531C002A5FEA81
S31502003DB01F92B7FBF3F8EB88029228FA02FA51B97E
S31502003DC031690A0403D0B6F814A00AFB00F7B1F56C
S31502003DD0803F80F0E0801946E868C9F81400307820
S31502003DE0CDE903370191022801D1B06801E001FB58
S31502003DF007F0C9F80C00EFF3108B012080F310884E
S31502003E0043F2080048F20004C4F22000C4F234046B
S31502003E10016821F48031016000681E20012100F052
S31502003E20C0FD8BF3108800BFE06FC007FCD100BF56
S31502003E302068C003FCD4306920634FF0000CC4F83C
S31502003E4018C0717B4FF440126FF35F3802EA0151DA
S31502003E5061607179B2793378F07801F001013779CE
S31502003E6062F34101727803F0030300F0010002F0ED
S31502003E7003026FF31F3A41EA031141EA022107F0F6
S31502003E80010241EA0030C7F3400140EA0260C7F38B
S31502003E90800240EA8160002140EAC260A060E888B0
S31502003EA0C0F6FF716A8801F1405101EA00406FF3E2
S31502003EB09F321044E060288802998840A9886FF3EF
S31502003EC05F3061F31B40039961F31B482061C4F81C
S31502003ED014800198C4F85CC060F31B4AC4F834A08D
S31502003EE03078049900285FEA1F9021FA00F0A06357
S31502003EF0C4F860C0307BB17800F0070061F30410AB
S31502003F00606644F25550D9F80010C5F24320C9E95B
S31502003F10010C48698169C9F8101090F91D10027FD9
S31502003F204EF200100029CEF200004FEA021203D42C
S31502003F30431883F8002306E04EF6145701F00F03E8
S31502003F40CEF20007DA5545F64C320127C2F20922B3
S31502003F5042F821904CF20032C4F2000252F82130AB
S31502003F6023F4803342F8213052F821204A0901F025
S31502003F701F01BFF35F8F00EB820307FA01F1C3F85B
S31502003F80801140F8221000206067D9F810102167CE
S31502003F9005B0BDE8F08FF18A1EE7B0B548F2000C15
S31502003FA04FF0000EC4F2340C4EF28015CEF200052C
S31502003FB00124CCF870E003685B6993F91D1001F0E7
S31502003FC01F02490904FA02F245F8212045F64C324D
S31502003FD0BFF34F8FBFF36F8F93F91D10C2F2092201
S31502003FE042F821E04FF48031CCF80010C0F804E02A
S31502003FF043F20800EFF31085C4F2200084F3108820
S31502004000016841F48031016000681E20012100F040
S31502004010C8FC85F310880020B0BD48F20002C4F245
S315020040203402D36FDB0723D11368DB0320D4136872
S31502004030DB071FD10368D3F814C081609CF80030F7
S31502004040022B07D1C36819440123013963F3040122
S31502004050D1658168D1639CF8001021B9D0E90201CB
S3150200406000EB510010640020506701211160704777
S31502004070082070471E207047844641610020CCE923
S315020040800632704748F20002C4F234021368DB03B8
S3150200409006D4D36FDB0705D1136803F0010302E0F0
S315020040A0022300E001230B70806848600020D2F8EA
S315020040B084208A607047F0B58BB048F27401C4F26E
S315020040C034010868C2430A604FF07042EFF303817D
S315020040D002EB01614CF200328915C4F200028B58E0
S315020040E023F480338B5045F64C338A58C2F20923A7
S315020040F05C58616911B322690DF1040E10400190FA
S315020041000020CDE90200A069E369A2680492059342
S3150200411060B103460DF1180C93E8E6008CE8E60060
S3150200412001469EE8EC00ECC1616900E070468847F2
S31502004130A06918B106A991E8EC00ECC00BB0F0BD7D
S315020041404EF22401C4F201018878098801F00F02B7
S31502004150A2F1080103293BD8DFE801F0022C101E68
S3150200416045F22001C2F2002151F820004AF6AB21A5
S31502004170CAF6AA21A0FB0101480830E045F2200157
S31502004180C2F2002151F820004AF6AB21CAF6AA2152
S31502004190A0FB0101C80822E045F22001C2F200217B
S315020041A051F820004AF6AB21CAF6AA21A0FB01016A
S315020041B0080914E045F22001C2F2002151F820005C
S315020041C04AF6AB21CAF6AA21A0FB0101880806E03D
S315020041D045F22001C2F2002151F82000D04045F6F6
S315020041E08431C2F2092108607047D4D4D4D4D4D41D
S315020041F02DE9F04182B00FF278504EF2FA38C4F24D
S3150200420001084AF20151CFF6FF7190ED001F45F207
S3150200421020000231A8F80010C2F200200FF260510D
S315020042204EF6014680ED001F4EF600474EF214058B
S3150200423091ED001F48F2004140F6000280ED041F96
S315020042402030C1F2D77143F60003C4F20106C4F26C
S315020042500107C4F20105C2F6AF72C1F69C430EC055
S31502004260FFF76EFF4FF650600A21CFF6FF70395402
S31502004270092085F88E00387818B93078800700F062
S315020042807282387858B901203870C820012100F0AE
S3150200429088FB00BF00BF00BF38780128FCD1002090
S315020042A0307038704AF20156002085F82200A8774D
S315020042B095F828000007FBD542F602314EF6145057
S315020042C0C0F20101C5F8B41040F223416987002209
S315020042D085F836204FF60211C5F8981040F2514182
S315020042E02987CEF200004EF20001BFF34F8FBFF3D3
S315020042F06F8F0368CEF2010123F400330360C0F826
S315020043003C22BFF34F8FBFF36F8F0A6822F44052ED
S315020043100A60BFF34F8FBFF36F8F2A7802F0F8025D
S3150200432001322A7000BF00BF2A78D206FCD40A687E
S3150200433042F440520A60BFF34F8FBFF36F8F01689A
S31502004340890312D4BFF34F8FBFF36F8F0021C0F8DA
S315020043503C12BFF34F8FBFF36F8F016841F40031F8
S315020043600160BFF34F8FBFF36F8F0020A87500BFA8
S3150200437095F828008006FBD54CF200070020C4F20F
S31502004380130738703878387838787868FA2807D07A
S31502004390FA20C1F6006000BF78607968FA29FBD17D
S315020043A0B8687D2808D07D20CEF2001000BF00BF7D
S315020043B0B860B9687D29FBD143F23240C3F22320AB
S315020043C0E86042F2201028820520A874FFF7B8FEA2
S315020043D01E200121012400F0E4FA78686FF39F2081
S315020043E0652828BF3C70FFF7ABFE42F200004FF48F
S315020043F02541C4F200000680BFF35F8F0472BFF34B
S315020044005F8F018095F8C60040F0400085F8C6002F
S3150200441095F9C600B0F1FF3FFADC032085F8C0002B
S31502004420C92085F8C60095F8C60000F0BF0085F8D9
S31502004430C60000BF00BF00BF95F9C6000028FBD426
S31502004440012085F83F00002085F82A00802085F8A3
S315020044502A0095F8600040F0400085F8600000BF31
S3150200446095F96000B0F1FF3FFADC072085F85800A5
S315020044704A2085F860000A2085F8600000BF00BF68
S3150200448095F960000028FBD40720ADF806000DF16F
S31502004490060000F07DF995F8620040F0400085F8CC
S315020044A0620000BF00BF00BF95F96200B0F1FF3F96
S315020044B0FADC032085F85A00CA2085F8620095F8CE
S315020044C0620000F0BF0085F8620000BF00BF00BFB7
S315020044D095F962000028FBD495F8410040F04000AF
S315020044E085F8410000BF00BF95F94100B0F1FF3FDA
S315020044F0FADC022085F84000CA2085F8410095F8CA
S31502004500410000F0BF0085F8410000BF00BF00BFB8
S3150200451095F941000028FBD495F8430040F040008D
S3150200452085F8430000BF00BF95F94300B0F1FF3F95
S31502004530FADC002085F84200C72085F8430095F88A
S31502004540430000F0BF0085F8430000BF00BF00BF74
S3150200455095F943000028FBD495F8490040F0400045
S3150200456085F8490000BF00BF95F94900B0F1FF3F49
S31502004570FADC012085F84800C62085F8490095F83E
S31502004580490000F0BF0085F8490000BF00BF00BF28
S3150200459095F949000028FBD495F8640040F04000E4
S315020045A085F8640000BF00BF95F96400B0F1FF3FD3
S315020045B0FADC022085F85C00C92085F8640095F8CB
S315020045C0640000F0BF0085F8640000BF00BF00BFB2
S315020045D095F964000028FBD495F84B0040F04000A2
S315020045E085F84B0000BF00BF95F94B00B0F1FF3FC5
S315020045F0FADC012085F84A00CA2085F84B0095F8B6
S315020046004B0000F0BF0085F84B0000BF00BF00BFA3
S3150200461095F94B000028FBD495F8630040F0400062
S3150200462085F8630000BF00BF95F96300B0F1FF3F54
S31502004630FADC042085F85B00CA2085F8630095F849
S31502004640630000F0BF0085F8630000BF00BF00BF33
S3150200465095F963000028FBD495F8470040F0400026
S3150200466085F8470000BF00BF95F94700B0F1FF3F4C
S31502004670FADC022085F84600CA2085F8470095F83C
S31502004680470000F0BF0085F8470000BF00BF00BF2B
S3150200469095F947000028FBD495F8C70040F0400082
S315020046A085F8C70000BF00BF95F9C700B0F1FF3F0C
S315020046B0FADC022085F8C100C52085F8C70095F806
S315020046C0C70000F0BF0085F8C70000BF00BF00BFEB
S315020046D095F9C7000028FBD495F8C80040F04000C1
S315020046E085F8C80000BF00BF95F9C800B0F1FF3FCA
S315020046F0FADC012085F8C200C52085F8C80095F8C5
S31502004700C80000F0BF0085F8C80000BF00BF00BFA8
S3150200471095F9C8000028FBD495F8CA0040F040007D
S3150200472085F8CA0000BF00BF95F9CA00B0F1FF3F85
S31502004730FADC092085F8C400C92085F8CA0095F874
S31502004740CA0000F0BF0085F8CA0000BF00BF00BF64
S3150200475095F9CA000028FBD44FF42540A8F80000BA
S3150200476002B0BDE8F0814FF47A7000F0C2F899E524
S31502004770006CDC0200127A000080000000366E0136
S315020047800080000000CA9A3B0046C3235543DE134D
S315020047902DE9F04F81B04EF2FA3143F20406C4F22B
S315020047A001018246C4F220064AF20350B1F8009093
S315020047B008804FF0010B00254FF4803401270020BA
S315020047C004FA00F132680A4210D1EFF310888BF333
S315020047D0108832680BFA00F01143316031680543E4
S315020047E01E20012100F0DDF888F31088F8074FF04B
S315020047F001004FF00007E3D14EF2750745F22001A2
S31502004800C4F20107C2F20021387800F00F0051F815
S31502004810200017F8081C01F00F01022901D8012215
S315020048200BE0CA1E052A06D246F67021C0F20721FF
S3150200483051F8221003E00839102202FA01F1B0FB06
S31502004840F1F04DF68361C4F21B31A0FB01016FF05A
S31502004850010000EA5140012100F0A3F8387840F047
S315020048604000387000BF00BF97F90000B0F1FF3F6B
S31502004870FADC9AF8010007F8080C9AF8000040F0F2
S31502004880400038709AF80000387000BF00BF00BFC1
S3150200489097F900000028FBD400204FF0010A4FF4DC
S315020048A08038012400BF00BF25FA00F1C90710D0E5
S315020048B0EFF310878AF3108808FA00F0316821EACC
S315020048C00000306030681E20012100F06AF887F38C
S315020048D01088E0074FF001004FF00004E4D14EF2D9
S315020048E0FA3149F42540C4F20101088001B0BDE85D
S315020048F0F08F704745F22001C2F2002151F82000E4
S315020049007047D4D4D4D4D4D4B0B542F22404C82047
S31502004910C4F2200401210025257100F042F8257019
S31502004920207808B12FF005C0207840F002002070F0
S3150200493020788007FCD4002004F8020C00BF00BFD8
S3150200494014F8020C08B12FF005C84FF0030E002030
S3150200495004F11C0100BF00BF11F8102002F07F0213
S3150200496001F8102000BF00BF11F91020002AFBD465
S3150200497001300FF00FC8012000F0B9F84EF64C4195
S315020049800120C4F2010100220A70BDE8B04000F025
S3150200499087B8D4D4D4D4D4D400BE00BF00BF00BFDD
S315020049A0FEE745F6843241F20023C2F20922C0F242
S315020049B07A03484312689A420FD344F23F21C0F267
S315020049C00F0111444DF68362C4F21B32A1FB02129F
S315020049D0910CA0FB0101C9B11BE04CF60021C3F604
S315020049E09A31B1FBF2F148F63812C0F24102904216
S315020049F005D24FF47A725043B0FBF1F006E0B0FBF9
S31502004A00F1F0904205D24FF47A71484328B100F092
S31502004A1007B84FF0FF3000F003B87047D4D4D4D4AF
S31502004A2001380028FCD17047F0B581B04CF2001570
S31502004A3045F6F427C4F200050024C2F209272868C5
S31502004A40296A01EA000600BF26FA04F0C00703D06D
S31502004A50396809B12046884701340437152CF3D149
S31502004A602E6100BF00BF00BF286A3042FCD101B0F0
S31502004A70F0BDD4D4D4D4D4D480B54FF00A0E4CF2BF
S31502004A80003046F24071C4F20000C0F2072100BFB6
S31502004A9031F8022B02B1026004300FF007C880BD64
S31502004AA0EFF31081012282F3108845F67432C2F2C6
S31502004AB0092232F8103023B132F81030013B22F8C5
S31502004AC0103032F810207AB94EF2FA3246F6842CB9
S31502004AD0C4F20102C0F2072C13883CF8100043F41A
S31502004AE0254323EA0000108081F31088704710B531
S31502004AF0EFF31081012282F3108845F67432C2F276
S31502004B00092232F8103083B94EF2FA3E46F6842C68
S31502004B10C4F2010EC0F2072CBEF800403CF8103079
S31502004B20234343F42543AEF8003032F81030013304
S31502004B3022F8103081F3108810BDD4D445F68031A6
S31502004B40C2F209210A681318B3F5805F0AD980B543
S31502004B5008487844016802F0A3F90C2242504FF04B
S31502004B60FF3080BD40F220000B60C2F200201044EC
S31502004B70704700BFD222070070B543F600450446CF
S31502004B80C4F2000500BF00BF95F8500008B12FF02F
S31502004B9005C84FF08700A8844FF0100028709CB11A
S31502004BA00020FFF7A4FF4EF253000126C4F20100D3
S31502004BB006700020FFF774FF85F8206000BF00BF73
S31502004BC095F850000007FBD40120A87000206870F9
S31502004BD095F8500008B12FF005C842F20350C0F212
S31502004BE00500ACB14FF40C71A5F8481000BF00BF28
S31502004BF095F85010C907FBD16864002085F840007B
S31502004C0047F2A830A8820120A8751120287070BD2D
S31502004C106864002085F8400047F2A830A882012087
S31502004C20A87500BF00BF00BF2878C007FCD195F861
S31502004C30500008B12FF009C00120287470BDD4D4E9
S31502004C4000F006F8FCF709FFFEE700BE7047D4D471
S31502004C5070B54EF6005540F20120CEF20005C0F2C4
S31502004C600E004EF200066861CEF20106BFF34F8FC8
S31502004C70BFF36F8F29683368C1F3035043F004030F
S31502004C8001285FEA1F92336011F00F0F5FEA0F915E
S31502004C90BFF34F8FBFF36F8F11420DD101280BD88F
S31502004CA04EF20800CEF20000016841F48031016044
S31502004CB0BFF34F8FBFF36F8F4FF4700040F20001C6
S31502004CC0C5F888000020C0F20021A9600024FCF784
S31502004CD03BFEFFF78DFA4EF2FA304EF6B022C4F2E0
S31502004CE00100C4F201024AF20251018014704FF42B
S31502004CF0254101800120FCF727FE41F22000C2F285
S31502004D00002080F30A883068800721D5A868B0F1B0
S31502004D10007F1DD130694FF40071C0F3C300726980
S31502004D2001FA00F3C2F3C30081400020DA08CB087F
S31502004D300146064642F005C0E6E802010FF005C04C
S31502004D404FF0005243F005C0E2E802010FF005C041
S31502004D50002000F019F9FFF7F3F9FFF7D5FD03205C
S31502004D60FFF7C5FE4FF00E0E40F63050C4F240007B
S31502004D7020F8044B0FF005C04EF210140320C4F2C3
S31502004D800104FFF78DFE0320FFF7B1FE44F2040093
S31502004D900021C4F22000016041608160C1600320ED
S31502004DA0FFF77EFED4F8C802800714D42078A0B19B
S31502004DB00120FFF79CFE00BF94F9000010F1410F9D
S31502004DC0FADC0020207000BF20783F28FCD80120A2
S31502004DD0FFF766FE01E0D4F8C802D4F8C80240071D
S31502004DE015D42079A8B10120FFF781FE00BF00BFCC
S31502004DF094F9040010F1410FFADC0020207100BF83
S31502004E0020793F28FCD80120FFF74AFE01E0D4F8BA
S31502004E10C802012000F0B8F84DF60064C2F2092477
S31502004E20204602F01FF8204602F030F8BFF34F8FFB
S31502004E30BFF36F8F0020C5F8500246F62C6046F687
S31502004E402C61C0F20720C0F20721BFF34F8F081A68
S31502004E50BFF36F8F8410012C0BDB46F62C66C0F273
S31502004E60072600BF00BF00BF56F8040B8047013C6F
S31502004E70FAD10220FCF768FDFFF7FEFD002000F0E4
S31502004E80B2F846F64400D5F8C010C0F20720442214
S31502004E9062F30701C5F8C010D0F810C0D5F890101B
S31502004EA0BCF1000F2BD0C1F3072EBEF1000F26D0A6
S31502004EB04269002400200023002600BF00BF00BF75
S31502004EC002EBC0014868202812D3096820F01F00AF
S31502004ED021F01F01203888420AD3013340F0010035
S31502004EE041F00101C5F89840C5F89C10C5F8A0002C
S31502004EF00136F0B2844584BFDCB2A645E0D8BFF3E2
S31502004F005F8F0520C5F89400686A40F480306862B5
S31502004F10BFF34F8FBFF36F8F6869C00348BF70BD81
S31502004F200020C5F88400BFF34F8FD5F8801043F6F2
S31502004F30E073C1F34E30CA08C1F3C9014E1C910792
S31502004F40420100BF00BF00BF02EA030446F001E0CF
S31502004F500C4400BF00BF00BFC5F8604204F14044E4
S31502004F600FF007C00028A0F10100A2F12002EBD148
S31502004F70BFF34F8F686940F480306861BFF34F8F8B
S31502004F80BFF36F8F70BDD4D4F0B581B046F6440539
S31502004F900446C0F207252E6876B16868071D00BF71
S31502004FA07879844204D157E90101091A01F062FEB7
S31502004FB0013E07F10C07F3D1AE6896B1E86800F13D
S31502004FC0080500BF00BF00BF6879844205D155E9D4
S31502004FD002022968121A01F051FE013E05F110057E
S31502004FE0F2D101B0F0BD704770B5002841D045F648
S31502004FF09836A0F10805C2F209260446B54254D3F2
S3150200500047F6FF70304485424FD854F8040C002806
S315020050105BD52968002968D120F0004044F8040CC9
S3150200502000F094FE45F68C3045F69033C2F2092024
S3150200503054F8041CC2F2092302680A4402601A46A2
S3150200504010461268AA42FBD3984206D0B0425CD3FD
S3150200505047F6FF733344984257D84368C618AE42A0
S3150200506002D11944054641606B18934202D0134699
S315020050700CE070BD45F68833C2F209231B689A42DA
S3150200508004D052681144696001680B68A8422B601B
S3150200509018BF05604DF69830C2F209200168013149
S315020050A00160BDE8704000F0ABBE45F6B21045F6B1
S315020050B0363245F21363C0F20720C0F20722C0F26D
S315020050C007234FF4B571FFF767FC45F6B21045F6B4
S315020050D0363245F65323C0F20720C0F20722C0F249
S315020050E0072340F26B11FFF757FC45F6B21045F65F
S315020050F0363245F60E63C0F20720C0F20722C0F22E
S3150200510007234FF4B671FFF747FC45F6B21045F296
S31502005110826245F29D63C0F20720C0F20722C0F206
S3150200512007234FF4FD71FFF737FC01464FF0FF32BC
S3150200513041F8082F0022C0E90311C0E90021704797
S3150200514000210161704742684A6093688B6059602A
S31502005150916008610168013101607047D4D4D4D4EA
S3150200516080B5D1F800C01CF1010207D000F1080297
S315020051709646526813686345FAD903E0D0F810E000
S31502005180DEF804204A609160C1F808E0CEF8041007
S31502005190086101680131016080BDD0E9012301691E
S315020051A0936042685A604A68824201D182684A60C4
S315020051B000220261086801380860704770B500284D
S315020051C04BD00446C06BC0B30E46216CA0FB010156
S315020051D099BBFDF79AF8D4E90F010025226801FB75
S315020051E000230138A56300FB0120C4E90123E06026
S315020051F0FF2084F8440084F8450004F110004EB103
S31502005200FFF793FF04F12400FFF78FFFFDF7ABF8DA
S31502005210012070BD01680029F8D001F004F90028C8
S31502005220F4D04EF604504FF08051CEF200000160E9
S31502005230BFF34F8FBFF36F8FE8E745F60B3045F6A6
S31502005240975245F60C53C0F20720C0F20722C0F26D
S3150200525007234FF4B671FFF79FFB45F60B3045F671
S31502005260975245F6CE43C0F20720C0F20722C0F29B
S31502005270072340F23711FFF78FFB10B582B05BB3FD
S31502005280D0B11C4601B9BAB901B1AAB148230193FA
S31502005290019B482B30D1019B002954EA0282C4E9C2
S315020052A00F0101212046012384F846302260FFF7D0
S315020052B085FF204602B010BD45F60B3045F66F124B
S315020052C045F62843C0F20720C0F20722C0F20723A0
S315020052D04FF4D871FFF760FB45F60B3045F66F12B7
S315020052E045F2B473C0F20720C0F20722C0F20723C8
S315020052F04FF4C271FFF750FB45F60B3045F66F12BD
S3150200530045F61313C0F20720C0F20722C0F20723A4
S315020053104FF4CB71FFF740FBB0B582B060B10D46DA
S31502005320814209D81446002100222346FFF7A5FF31
S31502005330A563204602B0B0BD45F60B3045F6C6223F
S3150200534045F2C273C0F20720C0F20722C0F2072359
S315020053504FF45E71FFF720FB2DE9F04F85B0002870
S31502005360049200F0A18004469946154619B9206CAC
S31502005370002840F0C980B9F1020F03D1E06B012881
S3150200538040F0B280019101F03AF910B9002D40F0D7
S315020053909B80FCF7BAFFB9F1020FA06B5DD0E16BFF
S315020053A088425AD304F11007012002AE4FF0000BD7
S315020053B004AD00BF00BF00BF0499002968D0C00732
S315020053C002D0304601F0B7F8FCF7CDFF00F0BEFC84
S315020053D0FCF79BFF94F84400FF2808BF84F844B00A
S315020053E094F84500FF2808BF84F845B0FCF7BBFFD8
S315020053F03046294601F0ACF800284CD1FCF785FF6F
S31502005400D4F838A0D4F83C80FCF7ADFFC24517D1DA
S315020054100499384600F0AAFF204600F0B5F800F0DD
S31502005420EFFC90B94EF604504FF08051CEF20000D8
S315020054300160BFF34F8FBFF36F8F06E000BF00BF5F
S31502005440204600F0A1F800F0DBFCFCF75EFFA06B43
S31502005450E16B88424FF00000AED2204601994A46DF
S3150200546000F062F854F8240F70B1204600F0DBFF1A
S3150200547050B14EF604504FF08051CEF2000001605A
S31502005480BFF34F8FBFF36F8FFCF76DFF012008E06C
S31502005490FCF769FF04E0204600F076F800F0B0FC65
S315020054A0002005B0BDE8F08F45F60B3045F2AE524E
S315020054B045F6CE43C0F20720C0F20722C0F2072308
S315020054C040F2B631FFF768FA45F60B3045F2AE52B6
S315020054D045F2C053C0F20720C0F20722C0F20723EA
S315020054E040F2BB31FFF758FA45F60B3045F2AE52A1
S315020054F045F2CA73C0F20720C0F20722C0F20723A0
S315020055004FF46E71FFF748FA45F60B3045F2AE528C
