S0130000766973696F6E5F435055302E7372656302
S315020000002040002241230002612100024B2300020C
S315020000104B2300024B2300024B2300024B23000218
S315020000200000000000000000000000001D040002A5
S315020000304B23000200000000350400029D0400026A
S31502000040E7120002791400029915000281160002D5
S31502000050EF170002810C00029B0B0002070D000243
S30902000060590D00022C
S31502000064554152543920616C6976650D0A000000C7
S309020000741040000030
S31502000078B0B545F62840C0F200208568D0E90041AF
S315020000882A682046904700B100BE40F2AB01AD692E
S31502000098C0F20021002200232046A84700B100BE74
S315020000A8B0BDB0B582B0017901293ED0042906D087
S315020000B8022940D144F25800C2F2002039E0806891
S315020000C8C1B20D2918BF0A2937D144F2A00444F255
S315020000D86001C2F20024C2F20021002520880D54D4
S315020000E808B344F2600045F2E351C2F20020C0F2BE
S315020000F8002101AA6B46CDE9005503F0FFFF02284D
S3150200010811D144F24C000199C2F20020016044F276
S315020001185001C2F200210098086044F25400C2F26B
S31502000128002001210170258005E044F25C00C2F23C
S3150200013800200121016002B0B0BD44F2A001C2F262
S3150200014800210A883E2A07D844F26005531CC2F2E7
S3150200015800250B80A854EEE700200880EBE7D4D4EC
S3150200016880B545F6284C0A46C0F2002C0146DCF852
S315020001780830DCF800009B68984700B180BD44F25D
S315020001885801C2F2002100BF0A680AB92FF005C059
S3150200019800220A6080BDD4D484B04FF244004FF0E6
S315020001A80271C4F200004AF2015201600021017490
S315020001B845F6E831C0F2002102848D68D1E9004192
S315020001C82A682046904710B1002003F021F8FFF76D
S315020001D84FFF10B1002003F01BF803F0C1FB44F2F5
S315020001E854090646C2F200290DF1040A00BF00BFEF
S315020001F803F0B6FB0746801BB0F57A7F07D340F2B9
S3150200020800000D21C2F20020FFF7AAFF3E4699F828
S315020002180000012833D100F0C8F944F24C004FF02F
S31502000228000BC2F20020076844F25000C2F2002016
S31502000238D0F8008089F800B000F0E5F944F652706B
S3150200024801A9C4F24F3081E8810100BF00BF00BF97
S315020002585AF82B7000BF00BF6A6820463946904795
S315020002680C2805D1012003F099F9F5E700BF00BF74
S3150200027800B100BE0BF1010BBBF1030FE8D101205F
S3150200028803F08CF9B4E7022818BF704780B544F228
S31502000298081045F69471C2F20020C0F2002100F05F
S315020002A848FE0120BDE8804001F0E2BF80B584B077
S315020002B844F2681045F6D433C2F2002044F2A40C84
S315020002C84CF6701EC0F2002301684FF480620131B9
S315020002D801600320009040F21D3045F2DC31C0F285
S315020002E80020C0F20021C2F2002CC2F2002ECDE993
S315020002F801EC02F088FE44F20411C2F20021086001
S3150200030808B104B080BD0020002104B0BDE88040D9
S3150200031800F00CB810B5044600F00AF82046BDE80D
S315020003281040FFF739BF7047FFF7FDBF00BE7047A1
S31502000338B0B544F260144FF0FF31C2F200242068CF
S3150200034802F042FD012803D020680021FFF7EEFFE4
S3150200035844F26410C2F20020017801B1B0BD012155
S315020003680170FFF7E1FF44F26815C2F2002500BFEB
S31502000378286801382860F1D020680021002200236D
S3150200038802F0EAFA0128F3D020680021FFF7CEFF2F
S31502000398EEE780B544F2641244F26810C2F2002213
S315020003A8C2F200200021117044F26C120160C2F2FE
S315020003B800224FF48070012102F0AEFA44F2601175
S315020003C8C2F20021086018B900200021FFF7AEFF2B
S315020003D8FFF76CFF03F066F9002080BD44F2B41CF7
S315020003E844F21423C2F2002CC2F20023C0F800C061
S315020003F80B6080201060704744F2144C44F2744338
S31502000408C2F2002CC2F20023C0F800C00B608020A2
S31502000418106070471EF0040F0CBFEFF30880EFF36D
S315020004280980014908470000C30400020F4B1968F6
S31502000438EFF309821EF0100F08BF22ED108A22E997
S31502000448F04FEFF30B8342F8043D0A604FF01000B9
S3150200045880F31188BFF34F8FBFF36F8F03F0D0F885
S315020004684FF0000080F3118800F002B86CC7002232
S31502000478074801680A6802CA81F30B88B2E8F04F96
S315020004881EF0100F08BFB2EC108A82F30988704773
S315020004986CC7002210B51020EFF3118480F311887F
S315020004A803F082F930B14EF604504FF08051CEF285
S315020004B80000016084F3118810BD806910F8020CEF
S315020004C8022801D1FFF7D4BF042838BF704780B588
S315020004D845F21A3045F2A57245F23243C0F20020BF
S315020004E8C0F20022C0F200234FF47E7101F0ECFD47
S315020004F8283140F8481D40F221514FF0807CC0F265
S31502000508002122F00102C1630264C0F844C06FF000
S315020005180201C0E90913704700BE00BF00BF00BF51
S31502000528FEE7D4D4D4D4D4D44EF62250F021CEF257
S315020005380000017000F016F84EF63470CEF2000094
S31502000548016841F04041016062B6BFF36F8FEFF375
S31502000558148C2CF0040C8CF31488BFF36F8F02DF13
S3150200056800BEFDE744F2047044F6D351C2F20020FD
S31502000578C1F262010068A0FB01014FF0FF3000EBF7
S3150200058891110020B0EB116F18BF70474EF210029E
S31502000598F023CEF2000251604EF62351CEF200014C
S315020005A80B709060072010607047EFF311801021DE
S315020005B881F3118844F27461C2F200210A68002AA2
S315020005C802F101020A6018BF704744F27861C2F26A
S315020005D8002108604EF60450CEF200000068C005FD
S315020005E800D1704780B545F21A3045F2403245F2DD
S315020005F80273C0F20020C0F20022C0F2002340F2C9
S31502000608A44101F061FD44F27460C2F2002001685F
S3150200061859B10139016018BF704744F27860C2F2D5
S315020006280020006880F31188704780B545F21A30B9
S3150200063845F6C92245F2F423C0F20020C0F2002290
S31502000648C0F2002340F2AD4101F03EFD80B598B3F9
S315020006584EF6902EC4F2010E9EF800100A0722D01A
S315020006684EF2FA324AF2025CC4F20102CFF6FF7C7B
S3150200067800201388A2F800C08EF8000043F4254033
S315020006881080BFF34F8F30BFBFF36F8F62B6BFF3D1
S315020006986F8F72B61088A2F800C08EF8001040F468
S315020006A82540108080BDBFF34F8F30BFBFF36F8FD9
S315020006B862B6BFF36F8F72B680BD80B572B602F0AE
S315020006C845FE0120FFF7C2FF62B6BDE8804002F090
S315020006D897BED4D4D4D4D4D42DE9F0410D460978A2
S315020006E848F200020446C4F2350202EB01206062B7
S315020006F8002020702562A2786969A162A969C4E905
S315020007080B0122F00300D5F81C80411CA170697800
S3150200071811B940F00200A070A97A95F90B2020467B
S3150200072800F059FB297995F90520204600F053FB7C
S31502000738A97995F90720204600F04DFB297A95F903
S315020007480920204600F047FB0120EFF3108780F3CB
S3150200075810884FF00041287821FA00F043F204018C
S31502000768C4F220010A6822EA0000086008681E200E
S31502000778012101F0AEFC87F310884FF48061606AAC
S315020007884FF480428160E869E9786F78437802EA33
S315020007988131067867F30921DA03437B92B206F0C0
S315020007A8030703F00103114441EA4352636A42EA2A
S315020007B80762416802F580525A61027802F0FE0326
S315020007C8022B07D14FF60471022ACFF6007108BF31
S315020007D8203100E00968626A11610C22017BAB785C
S315020007E8877862F39F014FF44072022B08BF4FF4D9
S315020007F88072002B07F00103676A18BF114341EAAA
S315020008080371F960626A002191612A78092A04D87B
S31502000818626A0023C1F61F735362B0F80F20807B09
S31502000828636A40EA022041F60172C0F21F021040D2
S3150200083818632046C4E90411C4E9061100F075F9E3
S31502000848606AB8F80A101022A181C9F607528266B0
S31502000858206A90F905304CF20030C4F200005F09B4
S3150200086803F01F0650F8231021F4803140F82310B4
S3150200087850F823104EF200110123CEF2000103FABA
S3150200088806F601F5C072BFF35F8F42F8276041F89A
S315020008982760276A97F90B7050F8276026F4803686
S315020008A840F8276050F827607E0907F01F07BFF354
S315020008B85F8F03FA07F742F8267041F82670276A0F
S315020008C897F9077050F8276026F4803640F82760B3
S315020008D850F827607E0907F01F07BFF35F8F03FAF8
S315020008E807F742F8267041F82670276A97F90970C1
S315020008F850F8276026F4803640F8276050F827001B
S31502000908780907F01F07BFF35F8FBB4042F8203014
S3150200091841F8203040F21141606AC0F2010181605B
S31502000928606A00BF00BF00BF017FC907FCD044F65A
S3150200093842110020C5F243316160BDE8F0810346E9
S315020009480020C3E906127047D0F824C0DCF8083044
S3150200095823F44013CCF80830D0F824C000BF00BFF7
S31502000968DCF848305B00FBD5DCF8083023F01003CE
S31502000978CCF80830D0F824C09CF81C30DB06FBD42F
S31502000988C0E904120020DCF8081041F01011CCF876
S315020009980810704770B50446406A4FF6EE720D4667
S315020009A88168CFF6CE7221F440161140816000208C
S315020009B82061204600F0B9F8606A296801610020C2
S315020009C8616A8E6070BD00204FF0FF32C1E90022D5
S315020009D87047D4D4D4D4D4D48A0701D4062214E0D6
S315020009E8426A936823F440139360426A00BF00BFC9
S315020009F8936C5B00FCD5936823F010039360426AFC
S31502000A08137FDB06FCD400224261C90701D000220B
S31502000A18C26110467047844681620020CCE90B32D7
S31502000A287047D4D4D4D4D4D4B0B544F642110446CB
S31502000A38C5F24331406888426AD1606A816821F406
S31502000A4840118160606A816821F010018160606AE4
S31502000A58017FC906FCD4206A4EF28011CEF200014B
S31502000A6890F90700430900F01F02012000FA02F27A
S31502000A7841F82320BFF34F8FBFF36F8F226A92F993
S31502000A880920530902F01F0200FA02F241F8232054
S31502000A98BFF34F8FBFF36F8F626A936823F4803375
S31502000AA89360226A92F90520530902F01F0200FA9E
S31502000AB802F241F82320BFF34F8FBFF36F8F226AEA
S31502000AC892F90B20530902F01F0200FA02F241F8CA
S31502000AD8232043F20401BFF34F8FBFF36F8FEFF367
S31502000AE8108580F31088206AC4F220014FF0004274
S31502000AF800780B6822FA00F01843086008681E207E
S31502000B08012101F0E6FA85F3108800206060B0BD85
S31502000B180720B0BD0246C069086000200021D161E5
S31502000B287047062070470620704770B50446006A6B
S31502000B38C5690020A060687C50B34EF25400C4F226
S31502000B480100017801F00F01022901D801220BE008
S31502000B58CA1E052A06D245F6E071C0F2002151F8EE
S31502000B68226003E00839102202FA01F6407800F002
S31502000B780F0001F057FA44F20472697CC2F20022AD
S31502000B88B0FBF6F012685143B1FBF0F00130A060F9
S31502000B9870BDB0B54FF07041EFF3038001EB006012
S31502000BA84CF200318015C4F20001425822F4803218
S31502000BB8425044F2D4624158C2F200221458206AC2
S31502000BC800690028606918D1C0B1A07800F0030056
S31502000BD80228206905D10088616A20F4DC40486051
S31502000BE802E0616A00780871A078226900F00301C0
S31502000BF86069401A606111442161B8B9616A0222CA
S31502000C088D68A06862F3155510B101F0A1FA616A00
S31502000C188D60A06A00284FF00000206106D00021EE
S31502000C2880222046BDE8B04000F001B8B0BD2DE9EB
S31502000C38F04385B08146C06A0DF1040830B1054615
S31502000C48C44695E8D8008CE8D80000E04046D9F8B2
S31502000C5820301B78816003600271D9F83010C160B8
S31502000C68D9F828108847D9F82C0010B198E88E00D0
S31502000C788EC005B0BDE8F08310B582B04FF0704162
S31502000C88EFF3038001EB00604CF200318015C4F2E9
S31502000C980001425822F48032425044F2D46241584A
S31502000CA8C2F200221458A07800F00302606A022AEF
S31502000CB803D101686FF35F2100E00178E0690191D1
S31502000CC890B1A06901A903F0EAF9A078D4E906125D
S31502000CD800F003000144101AC4E906100DD1A06AF7
S31502000CE858B10021012202E0A06A30B1042220464E
S31502000CF802B0BDE81040FFF79ABF02B010BD10B5AA
S31502000D084FF07041EFF3038001EB006144F2D462C5
S31502000D188815C2F200224FF6EF741058CFF6CF7438
S31502000D28426A936823409360826A0C161AB10021BC
S31502000D380222FFF77CFF4CF20030C4F2000050F8A2
S31502000D48241021F4803140F8241050F8240010BDF4
S31502000D584FF07041EFF3038001EB006C44F2D4616B
S31502000D684FEAAC50C2F2002108588178436A01F072
S31502000D780301022903D119686FF35F2100E019788C
S31502000D8870B59A6C20244FF0080E04EAD244102655
S31502000D980EEA126516EA126204EB0506324403D01D
S31502000DA89E6C360458BF40329E6E4FEA2C6446F05B
S31502000DB8C8569E66836A0BB1FFF739FF4CF20030BC
S31502000DC8C4F2000050F8241021F4803140F82410AF
S31502000DD850F8240070BD10B54EF2801C4FEA521E20
S31502000DE8CEF2000C02F01F030124002A04FA03F3D0
S31502000DF84CF82E304CF200334FEA0111BFF34F8FF5
S31502000E08C4F20003BFF36F8F53F8224024F48034F0
S31502000E1843F8224053F8223004D40CEB020383F839
S31502000E28801206E04EF6145402F00F03CEF20004C6
S31502000E38195544F2D461C2F2002141F8220010BDCC
S31502000E48024641608868C0231061C4F20203C8687A
S31502000E58906100205061086803EB401040309060B2
S31502000E68086803EB4010D06091F9040000282CD4DE
S31502000E7880B54EF2001C4979CEF2000C00EB0C0349
S31502000E88090183F8001344F2D461C2F2002141F841
S31502000E9820204CF20031C4F2000151F8203023F42C
S31502000EA8803341F8203051F82010410900F01F0024
S31502000EB801230CEB810E03FA00F0BFF35F8FCEF825
S31502000EC880014CF82100BDE8804045F2430100202C
S31502000ED8C5F249211160704780680268920302D4FC
S31502000EE88160002070470C2070478268002051609C
S31502000EF87047844601610020CCE9053270470146F5
S31502000F08406890F9040000280FD44EF2801C00F0C5
S31502000F181F024009CEF2000C012303FA02F24CF832
S31502000F282020BFF34F8FBFF36F8F002000220A6085
S31502000F38704780B545F25422C5F24F020260084650
S31502000F4800F002F8002080BD70B5044600F060F893
S31502000F5844F2D06CEFF31081C2F2002C012080F328
S31502000F681088DCF8000038B940F614500022C4F2A2
S31502000F784000027040220270DCF800000130CCF812
S31502000F88000081F31088208828B340F6000E00215D
S31502000F98C4F2400E00BF00BF606800EBC10250F801
S31502000FA831309288D8034FEA1220D2B20BD50EEB13
S31502000FB8801555F8226026F4803645F8226023F417
S31502000FC8803645F822600EEB8010013140F8223057
S31502000FD820888142E0D30120EFF3108180F3108844
S31502000FE8DCF8000020B1DCF800000138CCF800007B
S31502000FF8DCF8000038B940F614500022C4F240006A
S3150200100802708022027081F3108870BDD4D4D4D4C1
S315020010182DE9F04F81B004460088002865D04EF6C7
S315020010284C4B0025C4F2010B4FF0010A00BF00BF6A
S3150200103846F2080642F240080027C0F20026C4F229
S31502001048200800BF00BF00BF606836F8021B00EB2D
S31502001058C50082888A423FD100689BF8001000F0DA
S31502001068B8500AFA07F9B0F1807F09EA010017D1E8
S3150200107858B9012001F0D3F89BF8000040EA0900AC
S315020010888BF80000012001F0A3F898F90000002867
S3150200109822D498F8000040F0800017E000BF00BF95
S315020010A858B1012001F0BBF89BF8000020EA0900BC
S315020010B88BF80000012001F08BF898F90000B0F1D6
S315020010C8FF3F09DC98F8000000F07F0088F800006E
S315020010D8C820012100F0FDFF013708F10208032F9D
S315020010E8B2D1208801358542A2D301B0BDE8F08F7E
S315020010F8F0B502690023137040230269137002696E
S3150200110813785B06FCD5C0231370026803690825A9
S315020011184EF6185C526ACEF2000C127942F0E002E0
S315020011281A7402680369526AD27842F0E0025A7463
S3150200113802680369526A927862F306159D7002681C
S315020011480569526A13785278012B5FEA1F9343EABC
S31502001158420242F00402EA70026844F24025C0F2F2
S315020011680F0503695268AA424FF0770208BF6FF06B
S3150200117808025A71002302699371B3230269D37173
S315020011884EF2001291F911404B7BCEF20002002C6E
S315020011984FEA031303D4151985F8003304E004F063
S315020011A80F05654405F8043C44F2D46E4CF200334C
S315020011B8C2F2002EC4F2000301274EF8240053F8A7
S315020011C8245025F4803543F8245053F824506509F1
S315020011D804F01F04BFF35F8F02EB850607FA04F4D7
S315020011E8C6F8804142F8254091F90F404D7B002C04
S315020011F84FEA051503D4161986F8005304E004F0DD
S315020012080F06664406F8045C4EF8240053F8245088
S3150200121825F4803543F8245053F82450650904F020
S315020012281F04BFF35F8F02EB850607FA04F4C6F8BC
S31502001238804142F8254091F910404D7B002C4FEA37
S31502001248051503D4161986F8005304E004F00F06B0
S31502001258664406F8045C4EF8240053F8245025F434
S31502001268803543F8245053F82450650904F01F04C6
S31502001278BFF35F8F02EB850607FA04F4C6F88041CE
S3150200128842F8254091F90E40497B002C4FEA01119C
S3150200129803D4171987F8001305E004F00F0505EBC8
S315020012A80C0707F8041C4EF8240004F01F0753F82D
S315020012B82410012621F4803143F8241053F824100F
S315020012C8610906FA07F7BFF35F8F02EB8103C3F8DA
S315020012D8807142F821709F2100690170F0BD10B536
S315020012E882B04FF07041EFF3038001EB00604CF2DD
S315020012F800328015C4F20002835823F480338350E7
S315020013088058EFF3038001EB006044F2D461801544
S31502001318C2F200210C5894F82D00B8B1E0690028F1
S3150200132862D02168496AC979012904D10521204672
S3150200133800F03EFAE069012858D0022833D0032883
S3150200134840D12069017941F040013AE0A0690228BA
S3150200135804D82069017941F040010171E069012848
S315020013680ED12069017941F01001017120690179D4
S3150200137841F0080101712069017901F0EF0101715B
S315020013882068406AC079012803D10521204600F069
S315020013980FFA2069C07C8DF807009DF80700012026
S315020013A884F82D0020E02069017941F010010171CD
S315020013B82069017941F0080101712069017901F07A
S315020013C8EF010171D4E90401C07C226A8854D4E988
S315020013D80701013801F10101C4E9070104D12069B5
S315020013E8017901F0BF01017102B010BD94F82A001B
S315020013F8012831D120684EF28013CEF2000390F90B
S315020014080F00420900F01F01012000FA01F143F81A
S315020014182210BFF34F8FBFF36F8F2169CA7942F04B
S315020014288002CA7121690A7942F010020A71216999
S315020014380A7902F0F7020A7121690A7902F0EF02C3
S315020014480A71216904224A7021694A7902F0FE0268
S315020014584A7184F82C00B5E72069417A01F0F70150
S315020014684172206908214170ACE7D4D4D4D4D4D4CB
S31502001478B0B54FF07041EFF3038001EB00604CF218
S3150200148800358015C4F20005425922F480324251D1
S315020014984059EFF3038001EB006044F2D4618015F2
S315020014A8C2F200210C5894F82700C8B194F8260015
S315020014B8032806D194F82800022802D194F83000AD
S315020014C870B3206994F82410817494F8280094F86B
S315020014D82710013084F82800481E84F82700B0BD7A
S315020014E894F82900E0B92068406AC079012808D131
S315020014F894F82B0028B9206A18B10521204600F075
S3150200150857F9E06968B1D4E90401226A895C8174F1
S31502001518D4E90701013801F10101C4E9070100D044
S31502001528B0BD2069C17901F07F01C17120696FF0F0
S31502001538BE0100BF00BF00BF90F90720B2F1FF3F0E
S3150200154803DC002901F10101F6D1206890F91000A7
S3150200155855F8201021F4803145F8201055F820005E
S31502001568206890F9100000280BD44EF2802300F070
S315020015781F014009CEF20003012202FA01F143F8E3
S3150200158820102069C17941F04001C171B0BDD4D49F
S3150200159810B54FF07041EFF3038001EB006044F29F
S315020015A8D4618015C2F200210C582068406AC079BD
S315020015B8012803D10521204600F0FAF894F82900FB
S315020015C8012806D194F82700012802D194F83000A0
S315020015D880B3E06970BB94F82A00012822D12068FA
S315020015E84EF28013CEF20003012290F90F0000F0AA
S315020015F81F01400902FA01F143F82010BFF34F8F89
S31502001608BFF36F8F2069C17941F08001C1712069EA
S31502001618042141702069417901F0FE01417184F883
S315020016282C2007E02069417A01F0F701417220690E
S31502001638082141702069C17901F0BF01C171206991
S315020016486FF0BE0100BF00BFC279520603D500295A
S3150200165801F10101F8D14FF07041EFF3038001EB7C
S3150200166800604CF200318015C4F20001425822F49F
S3150200167880324250405810BDB0B54FF07041EFF37A
S31502001688038001EB006044F2D4618015C2F20021A6
S315020016980C5821694A7A4B7A02F01F0002F00302BB
S315020016A80F2803F0E0034B7201D83AB923E0216907
S315020016B84B785B0658BF42F00102CAB1012084F892
S315020016C82B0020690025C57120462168FFF710FD09
S315020016D894F82600A16984F828002069C4E907510C
S315020016E8B32184F82C5084F82A50C17101214BE0A9
S315020016F84A78520611D4010706D494F82C20012AF6
S3150200170831D110F004022ED0E06910B994F82B00FA
S3150200171890B3002919D4012035E0012084F82B0062
S315020017280820487020682369406A417902788079DE
S3150200173842EA011141EAC01040F00200D87020695D
S31502001748417941F00101417121E00020A169C4E912
S31502001758070194F8261084F8281084F82C0084F8D7
S315020017682A0001200CE0400711D52068406AC0799A
S3150200177801280CD1042107E094F8290080F003001F
S315020017882169B322CA71C1B2204600F011F84FF09E
S315020017987041EFF3038001EB00604CF200318015D3
S315020017A8C4F20001425822F4803242504058B0BD79
S315020017B810B582B00446806B20B1D0E90023CDE98A
S315020017C8002300E06846E26B02600171616B88479C
S315020017D8A06B18B1DDE90012C0E90012002084F8F6
S315020017E82B0002B010BDF0B58BB048F27401C4F2FA
S315020017F834010868C2430A604FF07042EFF303816E
S3150200180802EB01614CF200328915C4F200028B58D0
S3150200181823F480338B5044F2D4638A58C2F20023ED
S315020018285C58616911B322690DF1040E10400190EA
S315020018380020CDE90200A069E369A2680492059333
S3150200184860B103460DF1180C93E8E6008CE8E60051
S3150200185801469EE8EC00ECC1616900E070468847E3
S31502001868A06918B106A991E8EC00ECC00BB0F0BD6E
S315020018784EF22401C4F201018878098801F00F02A8
S31502001888A2F1080103293BD8DFE801F0022C101E59
S3150200189844F22001C2F2002151F820004AF6AB2197
S315020018A8CAF6AA21A0FB0101480830E044F2200149
S315020018B8C2F2002151F820004AF6AB21CAF6AA2143
S315020018C8A0FB0101C80822E044F22001C2F200216D
S315020018D851F820004AF6AB21CAF6AA21A0FB01015B
S315020018E8080914E044F22001C2F2002151F820004E
S315020018F84AF6AB21CAF6AA21A0FB0101880806E02E
S3150200190844F22001C2F2002151F82000D04044F2EC
S315020019180471C2F2002108607047D4D4D4D4D4D456
S315020019282DE9F04182B00FF278504EF2FA38C4F23D
S3150200193801084AF20151CFF6FF7190ED001F44F2F9
S3150200194820000231A8F80010C2F200200FF26051FE
S315020019584EF6014680ED001F4EF600474EF214057C
S3150200196891ED001F48F2004140F6000280ED041F87
S315020019782030C1F2D77143F60003C4F20106C4F25D
S315020019880107C4F20105C2F6AF72C1F69C430EC046
S31502001998FFF76EFF4FF650600A21CFF6FF703954F3
S315020019A8092085F88E00387818B93078800700F053
S315020019B87282387858B901203870C820012100F09F
S315020019C888FB00BF00BF00BF38780128FCD1002081
S315020019D8307038704AF20156002085F82200A8773E
S315020019E895F828000007FBD542F602314EF6145048
S315020019F8C0F20101C5F8B41040F2234169870022FA
S31502001A0885F836204FF60211C5F8981040F2514172
S31502001A182987CEF200004EF20001BFF34F8FBFF3C3
S31502001A286F8F0368CEF2010123F400330360C0F816
S31502001A383C22BFF34F8FBFF36F8F0A6822F44052DE
S31502001A480A60BFF34F8FBFF36F8F2A7802F0F8024E
S31502001A5801322A7000BF00BF2A78D206FCD40A686F
S31502001A6842F440520A60BFF34F8FBFF36F8F01688B
S31502001A78890312D4BFF34F8FBFF36F8F0021C0F8CB
S31502001A883C12BFF34F8FBFF36F8F016841F40031E9
S31502001A980160BFF34F8FBFF36F8F0020A87500BF99
S31502001AA895F828008006FBD54CF200070020C4F200
S31502001AB8130738703878387838787868FA2807D06B
S31502001AC8FA20C1F6006000BF78607968FA29FBD16E
S31502001AD8B8687D2808D07D20CEF2001000BF00BF6E
S31502001AE8B860B9687D29FBD143F23240C3F223209C
S31502001AF8E86042F2201028820520A874FFF7B8FE93
S31502001B081E200121012400F0E4FA78686FF39F2071
S31502001B18652828BF3C70FFF7ABFE42F200004FF47F
S31502001B282541C4F200000680BFF35F8F0472BFF33B
S31502001B385F8F018095F8C60040F0400085F8C60020
S31502001B4895F9C600B0F1FF3FFADC032085F8C0001C
S31502001B58C92085F8C60095F8C60000F0BF0085F8CA
S31502001B68C60000BF00BF00BF95F9C6000028FBD417
S31502001B78012085F83F00002085F82A00802085F894
S31502001B882A0095F8600040F0400085F8600000BF22
S31502001B9895F96000B0F1FF3FFADC072085F8580096
S31502001BA84A2085F860000A2085F8600000BF00BF59
S31502001BB895F960000028FBD40720ADF806000DF160
S31502001BC8060000F07DF995F8620040F0400085F8BD
S31502001BD8620000BF00BF00BF95F96200B0F1FF3F87
S31502001BE8FADC032085F85A00CA2085F8620095F8BF
S31502001BF8620000F0BF0085F8620000BF00BF00BFA8
S31502001C0895F962000028FBD495F8410040F040009F
S31502001C1885F8410000BF00BF95F94100B0F1FF3FCA
S31502001C28FADC022085F84000CA2085F8410095F8BA
S31502001C38410000F0BF0085F8410000BF00BF00BFA9
S31502001C4895F941000028FBD495F8430040F040007E
S31502001C5885F8430000BF00BF95F94300B0F1FF3F86
S31502001C68FADC002085F84200C72085F8430095F87B
S31502001C78430000F0BF0085F8430000BF00BF00BF65
S31502001C8895F943000028FBD495F8490040F0400036
S31502001C9885F8490000BF00BF95F94900B0F1FF3F3A
S31502001CA8FADC012085F84800C62085F8490095F82F
S31502001CB8490000F0BF0085F8490000BF00BF00BF19
S31502001CC895F949000028FBD495F8640040F04000D5
S31502001CD885F8640000BF00BF95F96400B0F1FF3FC4
S31502001CE8FADC022085F85C00C92085F8640095F8BC
S31502001CF8640000F0BF0085F8640000BF00BF00BFA3
S31502001D0895F964000028FBD495F84B0040F0400092
S31502001D1885F84B0000BF00BF95F94B00B0F1FF3FB5
S31502001D28FADC012085F84A00CA2085F84B0095F8A6
S31502001D384B0000F0BF0085F84B0000BF00BF00BF94
S31502001D4895F94B000028FBD495F8630040F0400053
S31502001D5885F8630000BF00BF95F96300B0F1FF3F45
S31502001D68FADC042085F85B00CA2085F8630095F83A
S31502001D78630000F0BF0085F8630000BF00BF00BF24
S31502001D8895F963000028FBD495F8470040F0400017
S31502001D9885F8470000BF00BF95F94700B0F1FF3F3D
S31502001DA8FADC022085F84600CA2085F8470095F82D
S31502001DB8470000F0BF0085F8470000BF00BF00BF1C
S31502001DC895F947000028FBD495F8C70040F0400073
S31502001DD885F8C70000BF00BF95F9C700B0F1FF3FFD
S31502001DE8FADC022085F8C100C52085F8C70095F8F7
S31502001DF8C70000F0BF0085F8C70000BF00BF00BFDC
S31502001E0895F9C7000028FBD495F8C80040F04000B1
S31502001E1885F8C80000BF00BF95F9C800B0F1FF3FBA
S31502001E28FADC012085F8C200C52085F8C80095F8B5
S31502001E38C80000F0BF0085F8C80000BF00BF00BF99
S31502001E4895F9C8000028FBD495F8CA0040F040006E
S31502001E5885F8CA0000BF00BF95F9CA00B0F1FF3F76
S31502001E68FADC092085F8C400C92085F8CA0095F865
S31502001E78CA0000F0BF0085F8CA0000BF00BF00BF55
S31502001E8895F9CA000028FBD44FF42540A8F80000AB
S31502001E9802B0BDE8F0814FF47A7000F0C2F899E515
S31502001EA8006CDC0200127A000080000000366E0127
S31502001EB80080000000CA9A3B0046C3235543DE133E
S31502001EC82DE9F04F81B04EF2FA3143F20406C4F21C
S31502001ED801018246C4F220064AF20350B1F8009084
S31502001EE808804FF0010B00254FF4803401270020AB
S31502001EF804FA00F132680A4210D1EFF310888BF324
S31502001F08108832680BFA00F01143316031680543D4
S31502001F181E20012100F0DDF888F31088F8074FF03B
S31502001F2801004FF00007E3D14EF2750744F2200193
S31502001F38C4F20107C2F20021387800F00F0051F806
S31502001F48200017F8081C01F00F01022901D8012206
S31502001F580BE0CA1E052A06D246F25C21C0F200210F
S31502001F6851F8221003E00839102202FA01F1B0FBF7
S31502001F78F1F04DF68361C4F21B31A0FB01016FF04B
S31502001F88010000EA5140012100F0A3F8387840F038
S31502001F984000387000BF00BF97F90000B0F1FF3F5C
S31502001FA8FADC9AF8010007F8080C9AF8000040F0E3
S31502001FB8400038709AF80000387000BF00BF00BFB2
S31502001FC897F900000028FBD400204FF0010A4FF4CD
S31502001FD88038012400BF00BF25FA00F1C90710D0D6
S31502001FE8EFF310878AF3108808FA00F0316821EABD
S31502001FF80000306030681E20012100F06AF887F37D
S315020020081088E0074FF001004FF00004E4D14EF2C9
S31502002018FA3149F42540C4F20101088001B0BDE84D
S31502002028F08F704744F22001C2F2002151F82000D5
S315020020387047D4D4D4D4D4D4B0B542F22404C82038
S31502002048C4F2200401210025257100F042F825700A
S31502002058207808B12FF005C0207840F002002070E1
S3150200206820788007FCD4002004F8020C00BF00BFC9
S3150200207814F8020C08B12FF005C84FF0030E002021
S3150200208804F11C0100BF00BF11F8102002F07F0204
S3150200209801F8102000BF00BF11F91020002AFBD456
S315020020A801300FF00FC8012000F0B9F84EF64C4186
S315020020B80120C4F2010100220A70BDE8B04000F016
S315020020C887B8D4D4D4D4D4D400BE00BF00BF00BFCE
S315020020D8FEE744F2047241F20023C2F20022C0F281
S315020020E87A03484312689A420FD344F23F21C0F258
S315020020F80F0111444DF68362C4F21B32A1FB021290
S31502002108910CA0FB0101C9B11BE04CF60021C3F6F4
S315020021189A31B1FBF2F148F63812C0F24102904206
S3150200212805D24FF47A725043B0FBF1F006E0B0FBE9
S31502002138F1F0904205D24FF47A71484328B100F083
S3150200214807B84FF0FF3000F003B87047D4D4D4D4A0
S3150200215801380028FCD17047F0B581B04CF2001561
S3150200216844F27C67C4F200050024C2F200272868FC
S31502002178296A01EA000600BF26FA04F0C00703D05E
S31502002188396809B12046884701340437152CF3D13A
S315020021982E6100BF00BF00BF286A3042FCD101B0E1
S315020021A8F0BDD4D4D4D4D4D480B54FF0090E4CF2B1
S315020021B8003045F6A071C4F20000C0F2002100BF4B
S315020021C831F8022B02B1026004300FF007C880BD55
S315020021D8EFF31081012282F3108844F2F862C2F208
S315020021E8002232F8103023B132F81030013B22F8BF
S315020021F8103032F810207AB94EF2FA3246F2702CC2
S31502002208C4F20102C0F2002C13883CF8100043F411
S31502002218254323EA0000108081F31088704710B521
S31502002228EFF31081012282F3108844F2F862C2F2B7
S31502002238002232F8103083B94EF2FA3E46F2702C7A
S31502002248C4F2010EC0F2002CBEF800403CF8103071
S31502002258234343F42543AEF8003032F810300133F5
S3150200226822F8103081F3108810BDD4D4D4D4D4D433
S3150200227870B543F600450446C4F2000500BF00BF28
S3150200228895F8500008B12FF005C84FF08700A884CA
S315020022984FF0100028709CB10020FFF7C0FF4EF2E5
S315020022A853000126C4F2010006700020FFF790FFD2
S315020022B885F8206000BF00BF95F850000007FBD4E0
S315020022C80120A8700020687095F8500008B12FF018
S315020022D805C842F20350C0F20500ACB14FF40C71C6
S315020022E8A5F8481000BF00BF95F85010C907FBD1E2
S315020022F86864002085F8400047F2A830A8820120C9
S31502002308A8751120287070BD6864002085F8400001
S3150200231847F2A830A8820120A87500BF00BF00BFF7
S315020023282878C007FCD195F8500008B12FF009C0EB
S315020023380120287470BDD4D400F006F8FEF729F8F7
S31502002348FEE700BE7047D4D470B54EF6005540F28B
S315020023580120CEF20005C0F20E004EF200066861B8
S31502002368CEF20106BFF34F8FBFF36F8F2968C1F311
S31502002378035001285FEA1F9211F00F0F5FEA0F91CF
S315020023881142316811D102280FD241F0040030609F
S315020023984EF20800BFF34F8FCEF20000BFF36F8FE5
S315020023A8016841F48031016002E021F004003060E6
S315020023B8BFF34F8FBFF36F8F4FF4700040F20001E7
S315020023C8C5F888000020C0F20021A9600024FDF7A4
S315020023D85AFFFFF7A5FA4EF2FA304EF6B022C4F2C9
S315020023E80100C4F201024AF20251018014704FF44C
S315020023F8254101800120FDF746FF40F22000C2F286
S31502002408002080F30A883068800721D5A868B0F1D1
S31502002418007F1DD130694FF40071C0F3C3007269A1
S3150200242801FA00F3C2F3C30081400020DA08CB08A0
S315020024380146064642F005C0E6E802010FF005C06D
S315020024484FF0005243F005C0E2E802010FF005C062
S31502002458002000F099F8FFF70BFAFFF7EDFD0320CD
S31502002468FFF7DDFE4FF00E0E40F63050C4F2400084
S3150200247820F8044B0FF005C04EF210140320C4F2E4
S315020024880104FFF7A5FE0320FFF7C9FE44F2040084
S315020024980021C4F22000016041608160C16003200E
S315020024A8FFF796FED4F8C802800714D42078A0B1A4
S315020024B80120FFF7B4FE00BF94F9000010F1410FA6
S315020024C8FADC0020207000BF20783F28FCD80120C3
S315020024D8FFF77EFE01E0D4F8C802D4F8C802400726
S315020024E815D42079A8B10120FFF799FE00BF00BFD5
S315020024F894F9040010F1410FFADC0020207100BFA4
S3150200250820793F28FCD80120FFF762FE01E0D4F8C3
S31502002518C802012000F038F84CF67014C2F2002402
S31502002528204601F0CDFD204601F0DEFDBFF34F8FB8
S31502002538BFF36F8F0020C5F8500246F29E7046F22E
S315020025489E71C0F20020C0F20021BFF34F8F081A15
S31502002558BFF36F8F8410012C0BDB46F29E75C0F217
S31502002568002500BF00BF00BF55F8040B8047013C99
S31502002578FAD10220FDF787FEFFF716FE0020BDE816
S31502002588704000F030B8D4D4F0B581B046F23005C8
S315020025980446C0F200252E6876B16868071D00BF9A
S315020025A87879844204D157E90101091A01F073FDC9
S315020025B8013E07F10C07F3D1AE6896B1E86800F15F
S315020025C8080500BF00BF00BF6879844205D155E9F6
S315020025D802022968121A01F062FD013E05F1100590
S315020025E8F2D101B0F0BD704770B5002841D044F26F
S315020025F81876A0F10805C2F200260446B54254D35D
S3150200260847F6FF70304485424FD854F8040C002828
S315020026185BD52968002968D120F0004044F8040CEB
S3150200262800F094FE44F20C7044F21073C2F20020D9
S3150200263854F8041CC2F2002302680A4402601A46CD
S3150200264810461268AA42FBD3984206D0B0425CD31F
S3150200265847F6FF733344984257D84368C618AE42C2
S3150200266802D11944054641606B18934202D01346BB
S315020026780CE070BD44F20873C2F200231B689A424A
S3150200268804D052681144696001680B68A8422B603D
S3150200269818BF05604CF21870C2F2002001680131B9
S315020026A80160BDE8704000F0ABBE45F2B77045F672
S315020026B8101245F2AD43C0F20020C0F20022C0F269
S315020026C800234FF4B571FFF7FFFC45F2B77045F6E4
S315020026D8101245F62D03C0F20020C0F20022C0F205
S315020026E8002340F26B11FFF7EFFC45F2B77045F68F
S315020026F8101245F6DB23C0F20020C0F20022C0F217
S3150200270800234FF4B671FFF7DFFC45F2B77045F2C6
S315020027181C5245F23753C0F20020C0F20022C0F222
S3150200272800234FF4FD71FFF7CFFC01464FF0FF324D
S3150200273841F8082F0022C0E90311C0E900217047B9
S3150200274800210161704742684A6093688B6059604C
S31502002758916008610168013101607047D4D4D4D40C
S3150200276880B5D1F800C01CF1010207D000F10802B9
S315020027789646526813686345FAD903E0D0F810E022
S31502002788DEF804204A609160C1F808E0CEF8041029
S31502002798086101680131016080BDD0E90123016940
S315020027A8936042685A604A68824201D182684A60E6
S315020027B800220261086801380860704770B500286F
S315020027C84BD00446C06BC0B30E46216CA0FB010178
S315020027D899BBFDF7EAFED4E90F010025226801FB41
S315020027E800230138A56300FB0120C4E90123E06048
S315020027F8FF2084F8440084F8450004F110004EB125
S31502002808FFF793FF04F12400FFF78FFFFDF7FBFEA6
S31502002818012070BD01680029F8D001F004F90028EA
S31502002828F4D04EF604504FF08051CEF2000001600B
S31502002838BFF34F8FBFF36F8FE8E745F6E50045F61E
S31502002848AE2245F62323C0F20020C0F20022C0F2CF
S3150200285800234FF4B671FFF737FC45F6E50045F657
S31502002868AE2245F61023C0F20020C0F20022C0F2C2
S31502002878002340F23711FFF727FC10B582B05BB38D
S31502002888D0B11C4601B9BAB901B1AAB1482301931C
S31502002898019B482B30D1019B002954EA0282C4E9E4
S315020028A80F0101212046012384F846302260FFF7F2
S315020028B885FF204602B010BD45F6E50045F28B724B
S315020028C845F69713C0F20020C0F20022C0F2002398
S315020028D84FF4D871FFF7F8FB45F6E50045F28B721F
S315020028E845F2E953C0F20020C0F20022C0F20023EA
S315020028F84FF4C271FFF7E8FB45F6E50045F28B7225
S3150200290845F24873C0F20020C0F20022C0F200234A
S315020029184FF4CB71FFF7D8FBB0B582B060B10D4664
S31502002928814209D81446002100222346FFF7A5FF53
S31502002938A563204602B0B0BD45F6E50045F6A002FD
S3150200294845F2F753C0F20020C0F20022C0F200237B
S315020029584FF45E71FFF7B8FB2DE9F04F85B00028FA
S31502002968049200F0A18004469946154619B9206CCE
S31502002978002840F0C980B9F1020F03D1E06B0128A3
S3150200298840F0B280019101F03AF910B9002D40F0F9
S315020029989B80FDF70AFEB9F1020FA06B5DD0E16BD1
S315020029A888425AD304F11007012002AE4FF0000BF9
S315020029B804AD00BF00BF00BF0499002968D0C00754
S315020029C802D0304601F0B7F8FDF71DFE00F0BEFC56
S315020029D8FDF7EBFD94F84400FF2808BF84F844B0DD
S315020029E894F84500FF2808BF84F845B0FDF70BFEAA
S315020029F83046294601F0ACF800284CD1FDF7D5FD42
S31502002A08D4F838A0D4F83C80FDF7FDFDC24517D1AD
S31502002A180499384600F0AAFF204600F0B5F800F0FF
S31502002A28EFFC90B94EF604504FF08051CEF20000FA
S31502002A380160BFF34F8FBFF36F8F06E000BF00BF81
S31502002A48204600F0A1F800F0DBFCFDF7AEFDA06B16
S31502002A58E16B88424FF00000AED2204601994A4601
S31502002A6800F062F854F8240F70B1204600F0DBFF3C
S31502002A7850B14EF604504FF08051CEF2000001607C
S31502002A88BFF34F8FBFF36F8FFDF7BDFD012008E03F
S31502002A98FDF7B9FD04E0204600F076F800F0B0FC38
S31502002AA8002005B0BDE8F08F45F6E50045F248423C
S31502002AB845F61023C0F20020C0F20022C0F200231D
S31502002AC840F2B631FFF700FB45F6E50045F248420B
S31502002AD845F25A43C0F20020C0F20022C0F2002397
S31502002AE840F2BB31FFF7F0FA45F6E50045F24842F7
S31502002AF845F2FF53C0F20020C0F20022C0F20023C2
S31502002B084FF46E71FFF7E0FA45F6E50045F24842E2
S31502002B1845F63E33C0F20020C0F20022C0F200237E
S31502002B2840F2B731FFF7D0FA70B5866B036C0446EC
S31502002B382BB31546B2B1E0681A4601F0B0FA21681D
S31502002B48E268206C121AE2608A4203D24042A16805
S31502002B580844E060022D5FEA1F90002E5FEA0080BB
S31502002B68361A0CE060681A4601F099FAD4E90101AE
S31502002B78226C10446060884201D320686060701C31
S31502002B88A06370BDD4D4D4D4F0B581B00446FDF7A1
S31502002B980CFD94F94560012E0EDB04F1240500BFF5
S31502002BA8286848B1284600F03EFF08B101F020F82F
S31502002BB870B2013E0128F3DCFF2684F84560FDF772
S31502002BC822FDFDF7F2FC94F94470012F10DB04F1A3
S31502002BD8100500BF00BF00BF286848B1284600F0AC
S31502002BE822FF08B101F004F878B2013F0128F3DCAC
S31502002BF884F8446001B0BDE8F040FDF704BDD4D4C2
S31502002C082DE9F04F83B00028029200F0AA8004460C
S31502002C181646894619B9206C002840F0C28000F091
S31502002C28EEFF10B9002E40F0AC80FDF7BEFCD4F8DA
S31502002C3838A0BAF1000F29D0226C52B1D4E90201A8
S31502002C481144E160814201D32168E160484601F0FE
S31502002C5826FA54F8100F0028AAF10100A0620ED035
S31502002C68204600F0E0FE50B14EF604504FF0805177
S31502002C78CEF200000160BFF34F8FBFF36F8F0124BE
S31502002C88FDF7C1FC204603B0BDE8F08F04F1240825
S31502002C9801206F464FF0000B02AE00BF00BF00BF17
S31502002CA80299002959D0C00702D0384600F043FFDE
S31502002CB8FDF7A9FC00F04AFBFDF777FC94F84400FF
S31502002CC8FF2808BF84F844B094F84500FF2808BFD7
S31502002CD884F845B0FDF797FC3846314600F038FFD0
S31502002CE870B12046FFF750FF00F08AFBFDF75DFC46
S31502002CF8A56BFDF788FC95B326E000BF00BF00BFB1
S31502002D08FDF753FCA56BFDF77EFC2DB12046FFF7B8
S31502002D183BFF00F075FB17E00299404600F026FEDD
S31502002D282046FFF731FF00F06BFB68B94EF60450F8
S31502002D384FF08051CEF200000160BFF34F8FBFF310
S31502002D486F8F00BF00BF00BFFDF72FFCD4F838A075
S31502002D580020BAF1000FA3D06EE7002490E7002402
S31502002D6890E745F6E50045F6C40245F2C853C0F2B7
S31502002D780020C0F20022C0F2002340F2E951FFF718
S31502002D88A3F945F6E50045F6C40245F25A43C0F2F0
S31502002D980020C0F20022C0F2002340F2F251FFF7EF
S31502002DA893F945F6E50045F6C40245F6A213C0F2C4
S31502002DB80020C0F20022C0F2002340F2ED51FFF7D4
S31502002DC883F9D4D4D4D4D4D42DE9F04F83B00028CF
S31502002DD8029100F090800446006C002840F09B8027
S31502002DE80D4600F00CFF10B9002D40F0A480FDF747
S31502002DF8DCFBA06BD0B154F8101F0138A06271B188
S31502002E08204600F010FE50B14EF604504FF08051A5
S31502002E18CEF200000160BFF34F8FBFF36F8F01241C
S31502002E28FDF7F1FB204603B0BDE8F08F4EF60459D4
S31502002E3804F1240801216E464FF0000B02AFCEF2D0
S31502002E4800094FF0805A00BF029800284FD0C807E1
S31502002E5802D0304600F06FFEFDF7D5FB00F076FA99
S31502002E68FDF7A3FB94F84400FF2808BF84F844B092
S31502002E7894F84500FF2808BF84F845B0FDF7C3FB60
S31502002E883046394600F064FE70B12046FFF77CFEF4
S31502002E9800F0B6FAFDF789FBA56BFDF7B4FB45B35F
S31502002EA81EE000BF00BF00BFFDF77FFBA56BFDF765
S31502002EB8AAFB2DB12046FFF767FE00F0A1FA0FE044
S31502002EC80299404600F052FD2046FFF75DFE00F0EB
S31502002ED897FA28B9C9F800A0BFF34F8FBFF36F8FCF
S31502002EE8FDF763FBA06B00210028ADD083E7002421
S31502002EF896E7002496E745F6E50045F2637245F241
S31502002F08C853C0F20020C0F20022C0F2002340F2E9
S31502002F188261FFF7D9F845F6E50045F2637245F690
S31502002F280133C0F20020C0F20022C0F2002340F2B0
S31502002F388661FFF7C9F845F6E50045F2637245F280
S31502002F485A43C0F20020C0F20022C0F2002340F227
S31502002F588B61FFF7B9F8D4D410B508B3D9B14CF2DE
S31502002F681C724FF0000C0A23C2F200224FF0000E28
S31502002F785468A04210D0BEF1000F03D11468002C89
S31502002F8852EA0C8E013B02F10802F1D1BEF1000FA2
S31502002F9818BFCEE9001010BD9646CEE9001010BD46
S31502002FA845F6E50045F2063245F65D23C0F20020F5
S31502002FB8C0F20022C0F2002340F6C931FFF784F8B6
S31502002FC870B515460E460446FDF7EFFA94F8440026
S31502002FD8FF2802D1002084F8440094F84500FF280F
S31502002FE802D1002084F84500FDF70DFBA06B28B935
S31502002FF804F1240031462A4600F0D9FC2046BDE8F1
S315020030087040FFF7C1BD2DE9F04786B0DDF83C9068
S315020030180746B9F1000F4FF00000049026D0109C25
S31502003028A4B360200590059860283FD10E460598FE
S315020030386021204698461546DDF838A001F02BF89F
S31502003048C4F83090022084F85D0004A8CDE900A0F7
S31502003058384631462A464346029400F0E5FD2046A4
S3150200306800F036F8049806B0BDE8F08745F6601019
S3150200307845F61A1245F2E933C0F20020C0F20022E0
S31502003088C0F2002340F2F141FFF71EF845F6601040
S3150200309845F61A1245F2BC63C0F20020C0F20022BD
S315020030A8C0F2002340F2F241FFF70EF845F660102F
S315020030B845F61A1245F69433C0F20020C0F20022F1
S315020030C8C0F2002340F2FA41FEF7FEFFD4D4D4D46C
S315020030D82DE9F04381B00446FDF767FA4CF2907089
S315020030E84CF26C77C2F20020C2F200274CF27479D5
S315020030F80168C2F2002901310160396851B1D9F873
S315020031080000002842D13868E16AC06A884298BF3E
S315020031183C603BE03C600068012837D14CF29C7564
S315020031280526C2F2002500BF2846FFF7FEFA013E31
S3150200313805F11405F8D14CF64808C2F200284046B3
S31502003148FFF7F3FA4CF65C05C2F200252846FFF7AC
S31502003158ECFA4CF61C00C2F20020FFF7E6FA4CF233
S315020031687870C2F20020FFF7E0FA4CF60400C2F2C9
S315020031780020FFF7DAFA4CF63C004CF64001C2F2A0
S315020031880020C2F20021C0F800800D604CF2707077
S31502003198231DC2F200200168013101604CF60001CC
S315020031A8E06AC2F200210A68904288BF086000EB12
S315020031B880004CF29C71C2F2002101EB800040684B
S315020031C8A0608268E26053608360E06A00EB800078
S315020031D801EB8002626151F82020013241F8202079
S315020031E8FDF711FAD9F8000078B13868E16AC06AC1
S315020031F888420AD24EF604504FF08051CEF20000B1
S315020032080160BFF34F8FBFF36F8F01B0BDE8F08344
S31502003218F0B581B00446FDF7C8F94CF26C76C2F2F5
S31502003228002604B93468251D2846FFF7B6FAA06AAF
S3150200323818B104F11800FFF7B0FA4CF270704CF2AC
S315020032487477C2F20020C2F20027016801310160D8
S315020032583068396891B1844210D14CF278702946A7
S31502003268C2F20020FFF76FFA4CF28C70C2F200200D
S31502003278016801310160FDF7C6F91DE04CF2907054
S31502003288C2F200200168013901604CF63C00C2F224
S3150200329800200168096819B10068C068006801E081
S315020032A84FF0FF304CF63001C2F200210860FDF7FC
S315020032B8AAF9204600F028F8386898B1306884429E
S315020032C810D14CF29470C2F20020006860B94EF632
S315020032D804504FF08051CEF200000160BFF34F8FC9
S315020032E8BFF36F8F01B0F0BD45F6601045F68B123D
S315020032F845F2AE53C0F20020C0F20022C0F200230B
S3150200330840F61411FEF7E0FE10B5044690F85D008B
S31502003318022808BF10BD012803D038B9206BFFF771
S3150200332863F92046BDE81040FFF75EB945F660101E
S3150200333845F2676245F62E13C0F20020C0F200225B
S31502003348C0F2002341F62E11FEF7BEFE4CF294702F
S31502003358C2F2002001680131016070472DE9F0438D
S3150200336881B04CF298724CF63C03C2F200224CF23F
S315020033786C74C2F20023C2F2002415684CF64002AD
S31502003388C2F20022D3F8008006460F46D2F8009011
S315020033982268101DFFF701FA701C16D1AFB14CF660
S315020033A80400C2F20020D0E90012236801319A60B3
S315020033B893682768FB60276804375F6023680433CD
S315020033C8936022680160506117E02068AD19456074
S315020033D8206800F1040105D3484601B0BDE8F04370
S315020033E8FFF7BEB94046FFF7BBF94CF63000C2F20A
S315020033F8002001688D4238BF056001B0BDE8F08340
S315020034082DE9F047FDF7D1F84CF29470C2F200208C
S315020034180168002900F0B28001680139016000687C
S3150200342828B10024FDF7EFF82046BDE8F0874CF2F4
S315020034389070C2F2002000680028F2D04CF61C00F8
S315020034484CF6180AC2F200204CF26C79C2F2002A33
S31502003458C2F200290168002967D04CF6000E4CF228
S315020034689C730021C2F2002EC2F200234FF0010C17
S31502003478C768FC6804F11802D4E90775A66ABD6034
S31502003488E7696F607568954201D1226A7260A16226
S315020034983268013A3260261DD4E9022567699560C9
S315020034A8A2686A607A68B24201D1E2687A606161AA
S315020034B83A68013A3A60E76ADEF80020974207EB73
S315020034C8870288BFCEF8007003EB82025268A260B8
S315020034D89568E5606E609660E26A02EB820203EB2B
S315020034E88205656153F82250013543F82250E26A93
S315020034F8D9F80040E46AA24288BFCAF800C0026846
S315020035080AB12FF04BC84CF63C00C2F20020016803
S31502003518096819B10068C068006801E04FF0FF3019
S315020035284CF63001C2F2002108604CF63808C2F2A5
S315020035380028D8F800606EB1012400BF00BF00BFA2
S3150200354800F032F908B1CAF80040013EF8D100206D
S31502003558C8F80000DAF8000000283FF462AFD9F88C
S3150200356800004EF60450CEF200004FF080510124BE
S315020035780160BFF34F8FBFF36F8F53E745F66010B5
S3150200358845F2746245F67823C0F20020C0F20022A2
S31502003598C0F2002340F68B71FEF796FD80B580B126
S315020035A84CF29471C2F200210A6801320A60096873
S315020035B8012912D10021FFF7D1FEFFF721FF00B141
S315020035C880BD4EF604504FF08051CEF200000160E5
S315020035D8BFF34F8FBFF36F8F80BD45F6601045F678
S315020035E8182245F2F473C0F20020C0F20022C0F29B
S315020035F8002340F68E11FEF767FDD4D4D4D4D4D472
S3150200360880B54CF29470C2F20020006830B14CF6D4
S3150200361818000121C2F20020016080BD4CF6180094
S315020036284CF6000CC2F20020C2F2002C00214CF229
S315020036389C730160C2F20023DCF8001001EB8102E0
S3150200364853F8220003EB820248B900BF00BF00BF4D
S31502003658C1B152F8140D013908B92FF007C85368D9
S3150200366802F108005B685360834201D1D368536054
S315020036784CF26C72D868C2F200221060CCF80010C4
S31502003688106880BD45F6601045F2C93245F63033FA
S31502003698C0F20020C0F20022C0F2002341F2FA3141
S315020036A8FEF712FD10B58AB044F2494004A9C4F2E5
S315020036B84C50069005A803AA00248DF81C40CDE9B3
S315020036C80444FCF78BFE0DF10C0E43F6C940C0F21A
S315020036D8002006A99EE8045000230094CDE901CEF5
S315020036E8FFF791FC4CF63401C2F20021086060B380
S315020036F800F0FFFA012811D0013026D145F66010F4
S3150200370845F6642245F61B03C0F20020C0F20022E9
S31502003718C0F2002340F6A961FEF7D6FC4CF630014A
S315020037280120C2F2002180F310884FF0FF320A60AE
S315020037384CF27471C2F2002108604CF29870C2F21F
S31502003748002000210160FCF7EFFE46F27C20C0F261
S31502003758002000680AB010BDF0B581B04CF28C7535
S31502003768C2F200252868E8B14CF278764CF29077D6
S31502003778C2F20026C2F20027FCF717FFF068C468F7
S31502003788201DFFF70AF838680138386028680138BA
S315020037982860FCF738FF2046FFF7B6FD286808B10F
S315020037A82FF017C001B0F0BD2DE9F04F81B04CF2F1
S315020037B89470C2F20020006840B14CF63800C2F29A
S315020037C800200168013101600020B6E04CF29870D1
S315020037D84CF6300CC2F20020C2F2002C016811F13C
S315020037E8010BC0F800B022D34CF63C00C2F200200E
S315020037F801680968002940F0A3804CF64003016875
S31502003808C2F200231F68076019604CF64401C2F22F
S3150200381800210B6801330B600168096819B1006859
S31502003828C068006801E04FF0FF30CCF80000DCF811
S315020038380000834501D2002077E04CF63C0A4FF09F
S315020038480009C2F2002ADAF800000068002867D0E8
S315020038584CF6000E4CF29C744CF26C78C2F2002EB6
S31502003868C2F20024C2F20028002000BF00BF00BF37
S31502003878DAF80050ED68EE68374657F8045FAB454C
S3150200388851D3D6E9021375698B60B16859606968C4
S31502003898B94201D1F1686960C6F8149029680139FC
S315020038A82960B56A85B1D6E9071306F118028B6055
S315020038B8F16959606968914201D1316A6960C6F84D
S315020038C82890296801392960F56ADEF800108D42C8
S315020038D805EB850188BFCEF8005004EB81014968E3
S315020038E8B1608A68F26057608F60F16A01EB810104
S315020038F804EB8102726154F82120013244F8212036
S31502003908F16AD8F80020D26ADAF80030914288BF04
S315020039180120196809B12FF055C84FF0FF3502E0AA
S315020039284FF0FF350020CCF800504CF61801C2F2D1
S3150200393800210968002918BF012001B0BDE8F08FEF
S3150200394845F6601045F6D20245F25333C0F200201E
S31502003958C0F20022C0F2002341F25F21FEF7B4FB57
S315020039684CF29870C2F200200068704710B570B128
S315020039780C464CF26C71C2F2002109681831FEF746
S31502003988EFFE01212046BDE81040FFF7E7BC45F6E9
S31502003998601045F6472245F60F03C0F20020C0F232
S315020039A80022C0F200234FF4A451FEF78DFB10B596
S315020039B848B34CF26C7CD0F804E0C2F2002C002A20
S315020039C8DCF80030C3F81CE0DEF80830DCF800400A
S315020039D82362DCF8004004F118045C60DCF800306D
S315020039E803F11803CEF80830DCF80030986218BFE5
S315020039F84FF0FF3103680133036008461146BDE8FC
S31502003A081040FFF7ABBC45F6601045F2836245F6F7
S31502003A180F03C0F20020C0F20022C0F2002341F2D6
S31502003A28BE41FEF751FB80B5C068C068002872D057
S31502003A38D0E9073100F1180C826A9960C3694B60B4
S31502003A485168614501D1016A51600021816211689C
S31502003A58013911604CF29471C2F20021096891B1E0
S31502003A684CF61C0EC2F2002EDEE90023C3619968E9
S31502003A780162C1F804C0C3F808C0C0F828E0511CA6
S31502003A88CEF8001035E0D0E9023100F1040C4269A3
S31502003A98996083684B605168614501D1C16851607C
S31502003AA8002141614CF600031168C2F20023013974
S31502003AB81160C26A19688A4288BF1A6002EB8201DB
S31502003AC84CF29C72C2F2002202EB810149688160C3
S31502003AD88B68C360C3F804C0C1F808C0C16A01EBA9
S31502003AE8810102EB8103436152F82130013342F826
S31502003AF821304CF26C71C06AC2F200210968C96AA7
S31502003B08884206D94CF618010120C2F20021086043
S31502003B1880BD002080BD45F6601045F2A36245F2DD
S31502003B28D453C0F20020C0F20022C0F2002341F2B0
S31502003B38F541FEF7C9FA4CF64401C2F200210968BA
S31502003B4801604CF29871C2F200210968416070471F
S31502003B5870B568B30D46D9B30446FCF726FD4CF298
S31502003B68987EC2F2002EDEF8003029684A1C16D06A
S31502003B784CF6440CD4E90002C2F2002CDCF80060D0
S31502003B88864201D093420CD29A1A914209D9881ACE
S31502003B982860DCF800002060DEF80000606000247F
S31502003BA802E0012400202860FCF72DFD204670BDA6
S31502003BB845F6601045F6FB1245F24C63C0F200204A
S31502003BC8C0F20022C0F2002341F2A551FEF77CFAA8
S31502003BD845F6601045F6FB1245F2EC63C0F200208A
S31502003BE8C0F20022C0F2002341F2A651FEF76CFA97
S31502003BF84CF618000121C2F20020016070474CF20F
S31502003C087470C2F20020006850B14CF29470C2F28D
S31502003C180020006800284FF0000008BF0220704705
S31502003C2801207047D4D4D4D42DE9F04381B00A9F39
S31502003C3898468146089C386B71B107F134030F2602
S31502003C4811F8015B03F8015B1DB1002EA6F101060E
S31502003C58F6D1002187F84310052C1ED200EB82000C
S31502003C68099D0438FC6220F00706381DFEF768FD38
S31502003C7807F11800FEF764FDC4F10500B861396B57
S31502003C8830464A4643463F617F62FCF731FC38605C
S31502003C9805B12F6001B0BDE8F08345F6601045F224
S31502003CA8D76245F25663C0F20020C0F20022C0F283
S31502003CB8002340F26471FEF707FAD4D4D4D4D4D4DC
S31502003CC84CF29C744EF60455C2F20024CEF200055C
S31502003CD84FF0805600BF00BFFFF73EFD206802285E
S31502003CE804D32E60BFF34F8FBFF36F8FFCF7E5FC4B
S31502003CF8F2E780B586B000F03AF84CF67000C2F2E8
S31502003D080020006818B30020CDE9040005A804A91C
S31502003D1803AAFCF771FB0DF10C0E0320009043F683
S31502003D28F15045F6C121C0F200209EE80450C0F2C7
S31502003D3800210023CDE901CEFFF765F94CF674019F
S31502003D48C2F20021086010B1012006B080BD45F21A
S31502003D58064045F61A3245F2FA63C0F20020C0F26E
S31502003D680022C0F200234FF4A371FEF7ADF970B535
S31502003D7882B0FCF71AFC4CF67006C2F200263068CE
S31502003D8868BB4CF68404C2F200242046FEF7CDFC3A
S31502003D984CF69805C2F200252846FEF7C6FC4CF6F4
S31502003DA878004CF67C01C2F20020C2F200214CF6E1
S31502003DB8F4024CF6AC0304600D60C2F20022C2F2B1
S31502003DC800230A200C2100250095FEF756FD3060D7
S31502003DD828B145F24341C0F20021FFF7BDF802B00F
S31502003DE8BDE87040FCF70FBC84B04CF678084CF678
S31502003DF87005C2F2002801ACC2F200254FF0000B92
S31502003E08EA4600BF00BF00BFD8F80000D0F800900D
S31502003E18B9F1000F04D0C068066802E000BF00BF0F
S31502003E280026FFF793FA204600F0AEF8019919B179
S31502003E38FFF7E6FA30E000BF0746B9F1000F08D0EF
S31502003E48BE4206D8FFF7DCFA3046394600F0C9F812
S31502003E5822E0B9F1000F01D0002208E04CF67C00FE
S31502003E68C2F200200068006800285FEA1F922868EC
S31502003E78F11BFFF7A5F8FFF7C3FA68B94EF6045027
S31502003E884FF08051CEF200000160BFF34F8FBFF3AF
S31502003E986F8F00BF00BF00BFCDF80CB0CDE901BBE4
S31502003EA8286800222146FEF7ABFE08B92FF055C056
S31502003EB801980028F4D4039E706910B1301DFEF7EC
S31502003EC86CFC504600F060F8019901390829E7D8D8
S31502003ED80746DFE801F005052E1E4005052E1E00E1
S31502003EE896F82400029BB1693A4640F0010086F82A
S31502003EF824001944304600F0AEF808B92FF031C054
S31502003F0896F8240041071BD400F0FA0086F824002C
S31502003F181DE096F824100298B06141F0010186F876
S31502003F28241000B3C11930463A463B4600F093F8CE
S31502003F38B6E796F8240000F0FE0086F82400AFE7FC
S31502003F480298B169014430463A4600F06DF8316A82
S31502003F5830468847A4E796F824008107EBD4304612
S31502003F68FEF742FB9CE745F2064045F6932245F6E4
S31502003F78AD33C0F20020C0F20022C0F200234FF493
S31502003F888261FEF7A1F8D4D4F0B581B00446FFF7F2
S31502003F98E7FC4CF680060546C2F2002631688842DE
S31502003FA810D24CF67807C2F2002700BF00BF00BF46
S31502003FB83868016841B1C0684FF0FF31006800F007
S31502003FC810F8F5E7002007E04CF67C01C2F2002162
S31502003FD80A68086001203A6020603560284601B008
S31502003FE8F0BD70B54CF678020646C2F200220D46BE
S31502003FF81268D268D468201DFEF7CFFB94F8240015
S31502004008410704D400F0FA0084F8240004E02046AC
S3150200401831462A4600F008F8216A2046BDE8704073
S315020040280847D4D4D4D4D4D470B504468069154686
S315020040380E460144204600BF334600F00CF848B14C
S31502004048A069216A064420468847A0692A4681193A
S315020040582046F1E770BD8C4601469445006141F859
S3150200406804CF08D94CF678009A42C2F200200AD246
S315020040789C4508D30DE08069D21A824209D24CF6D1
S315020040887C00C2F2002080B50068FEF769FB0020BA
S3150200409880BD012070470A46002100F009B810B514
S315020040A8002322B1CC5C013AC4540133F9E710BDAE
S315020040B803461AB103F8011B013AFAE77047D4D44A
S315020040C810B505490446054AFFF7E9FF04480549BC
S315020040D82044FFF7E0FF10BD780000020000000050
S315020040E800000000000000000249401A0249086068
S315020040F8704700BF080000006CC9002282B080B574
S315020041088AB0CDE90C230022CDE90420094806929B
S31502004118CDE90722CDE902204FF4803001900CAA9E
S31502004128099201A800F034F80AB0BDE8804002B04E
S31502004138704700BF4141000202690146107810B17A
S3150200414801320A6170476FF001007047930641BF5A
S31502004158A2F1200100FA01F10020704732B1C2F142
S315020041682003914020FA03F31943904070479306BF
S3150200417841BFA2F1200021FA00F00021704732B1B6
S31502004188C2F12003D04001FA03F31843D140704725
S315020041982DE9F84F2DED161B9FEDBF9B83469FED2C
S315020041A8C0AB00209FEDC0BB0F4647F6FD78002541
S315020041B8CDE90C220B9009903C4614F8016B002EAF
S315020041C800F0C784DFF89809304490F880000007A9
S315020041D800F1AA80252E40F03B8178782A2805D05E
S315020041E80237252800F03381002102E0B878033728
S315020041F80121013741F002024FF0000AA0F1300313
S31502004208DBB2092B09D80AEB8A00791C03EB400AB0
S3150200421817F8010C0F461146F0E78A0711D5C2B204
S31502004228242A10D10D9801220C900430524503DA43
S315020042380C9001320430F9E701EA080117F8010C7B
S31502004248D7E74FF0FF3A7A1EC3B241F00C094C2B5E
S3150200425822D0682B16D06A2B08D06C2B0AD0742B66
S3150200426818BF7A2B1AD11078894619E0107841F0CE
S31502004278080915E010786C280CBF17F8010B41F0F5
S3150200428804090DE01078682812BF41F0200917F8D2
S31502004298010B41F0300903E0107801E08946174620
S315020042A8010600F05684C4B2DFF8B8081422214683
S315020042B800F0ABFC002800F04C8419F0010604D18A
S315020042C80C98011D0C91006800E000201FFA89F184
S315020042D86E2C05D12A460023009100F078FC6BE784
S315020042E85B2C0A9025D0632C79D1880758BF4FF0EA
S315020042F8010A0BA9584600F059FC002800F11E8451
S315020043080A9A4AB15FEA497159BF107001201060D2
S31502004318042002440A9201E000200A900BA9BAF18D
S31502004328010AE7D1099D50E10BA9584600F024FC81
S3150200433899E03846CDF820B010F8011B06965E299A
S3150200434850EA078B00200591079008980BA900F000
S315020043582DFC00225D460021AC1C00262F4617F8CC
S31502004368013B002B00F0E5835D450AD02D2B06D1D3
S31502004378F5074FF001063D46F1D0254605E05D2BCF
S315020043880DD0F40752EA13820135D2B290421A4688
S31502004398E2DB1A469842DFD801211A46DCE70028F2
S315020043A800F11582059A5E2A5FEA1F925140C907F3
S315020043B800F009820A9A4AB15FEA497159BF107038
S315020043C801201060042002440A9201E000200A90AB
S315020043D8BAF1010A4FF001000790B6D1FBE10BA929
S315020043E8584600F0C9FB002800F1A883A4F16F0023
S315020043F809283AD80BADDFE800F00546EEEE0BEEDB
S315020044085BEEEE46CDF820B04FF0080B082454E0D8
S3150200441800F0F3FB002800F1CB81DFF844170A9A73
S31502004428014491F88010090700F1BE814AB15FEA9A
S31502004438497159BF107001201060042002440A9283
S3150200444801E000200A90BAF1010AE1D1B0E13C4646
S315020044580BA9584600F0AAFB002800F16F83C1B2E7
S315020044688E4240F072832746B3E00BAD582C0AD031
S31502004478642C1DD0692C40F0AE80CDF820B0002403
S315020044884FF00A0B19E0CDF820B04FF0100B1024AC
S3150200449813E000BF00BF00BF000000000000F87F65
S315020044A8000000000000F07F00000000000000008D
S315020044B8CDF820B04FF00A0B0A240898294600F0D6
S315020044C875FB2B28069603D02D280CD149F04009F6
S315020044D8BAF1010A00F02D8308980BA900F066FBD1
S315020044E8002800F12683302825D1BAF1010549D0E2
S315020044F82646089C0BA9204600F058FB002841D402
S31502004508D74949F080090140582940F02381102EE5
S3150200451805D0082E00F02181002E40F04381BAF121
S3150200452802052FD00BA9204600F040FB002829D40B
S315020045384FF0100B00E055464FF0000A002449F0F0
S3150200454880010791411E024641F02001392888BFA1
S31502004558A1F12602A2F130065E4517D204FB0BF43E
S31502004568013DEAFB0B641AD008980BA900F01EFB62
S31502004578DDF81C90B246B0F1FF3FE3DCDDF81C9093
S31502004588B24607E04FF0000A00240BE008990BAA8E
S3150200459800F016FB5FEA096040F1CB8202E0DDF823
S315020045A81C90B2461FFA89F000210090DAF1000049
S315020045B8A14119F0400F5AEA00820A9854EA018387
S315020045C800F005FBDDE908B5069E86F00100054404
S315020045D809950B9DF0E500F010FB2B28CDF820B0CD
S315020045E8069604D005462D280FD149F04009BAF19E
S315020045F8010A00F09E8208980BA900F0D7FA002853
S3150200460800F19782DDF820B0054645F020006928BA
S3150200461800F0A680B0EE498BDFF84C656E2800F0F4
S31502004628A38000204FF0000C04900A200790002077
S315020046380026039005905FEA095009D545F0200047
S3150200464800F19F0101F0FE01062901D2A92101E02C
S31502004658D021284608440799C2B2C9B28A4221D251
S3150200466849F08003DC053AD49CB2B64614F00C0F26
S315020046784FF010044FF00F0608BF082408BF07269C
S315020046880A2954EA0684039EA6422ADD49F4C07919
S3150200469876460A2927D1052A25D3053A50EA1280F1
S315020046A8022620E01FFA89F0810504D4FE2A02D1E7
S315020046B849F400793EE025F02001582940F0D480DB
S315020046C8000640F1D180049850EA0C0040F0CC80F4
S315020046D849F40069002004901020079028E09946C2
S315020046E801E0994676461FFA89F25FEAC95312D45F
S315020046F8059B92050CFB01FCC0B203EBE273049A1C
S315020047080593E2FB010C50EA0C010FD00399013123
S31502004718CDE903100EE0000618BF46F00106012097
S31502004728059920EA52200144059103E000200490ED
S315020047384FF0000CBAF1010A00F094800BA9584612
S31502004748644600F033FAA4460546B0F1FF3F3FF748
S3150200475872AF89E016F0170F24D14FF0080BEBE67B
S31502004768B0EE4A8BDFF8046406EB0A0BAAF10101E4
S31502004778354615F8014B8A46DCB3BAF1000F3BD031
S3150200478808980BA900F012FA002837D4AAF10101F9
S3150200479840F020022E46A242EBD008990BAA00F05E
S315020047A80FFA2CE0B346C7E659462A4600F008FA3D
S315020047B80A9900293FF4B6AD099D5FEA497015D4F6
S315020047C80020087001E708990BAA00F0F9F9079882
S315020047D8C00700F0AE810A996F1C00293FF4F2AEB9
S315020047E8DDE908B55FEA4970069EE9D5002008604A
S315020047F8EBE60AF1010A07E05D4600E0751CDB48B4
S315020048080330854240F09581B0EE480B00F05EFD1C
S3150200481818B3DDF820B00BACBAF1010F5BD05846DD
S31502004828214600F0C3F9282853D1AAF10204002C24
S3150200483800F07F81DDF820B00BA9584600F0B6F9E2
S31502004848292848D0C649014491F88010490702D15F
S315020048585F2840F06E81013CE9E7DDF820B03AE0D6
S31502004868DFFFFF7F4FF0000A5FEA096040F16181CE
S315020048781FFA89F0059910F400604FEA902001FAB0
S3150200488800FE4FF0700045F0200108BF6520814206
S31502004898029615D1DDF820B0BAF1010434D0CDF86C
S315020048A814E05846CDF81CC00BA900F07FF9024661
S315020048B82B282BD0069E2D2A33D149F4806926E06F
S315020048C82A46DDF820B00BAD069EBAF1000F68D174
S315020048D870E000F096F9099D069E0A99B1EE480B1A
S315020048E85FEA496058BFB0EE480B00293FF46DAE47
S315020048F81FFA89F010F00C0F06BFB7EEC00B81ED58
S31502004908000A81ED000B60E6069E53E0069EBAF1A8
S31502004918020441D00BA95846924600F047F90246CE
S3150200492801E04FF0FF3A8E48104490F880004007A5
S315020049380CD40BAC104600F064F91AF1010002D04F
S31502004948504600F05EF92A46254626E0601E0BAD63
S315020049580024824604EB840040F2D4418C4202EBE6
S315020049684000B8BFA0F13004BAF1000F0AD000F037
S3150200497844F902467A48104490F880004007AAF1A2
S315020049880100E6D45FEA4950DDF814E054EA54B06F
S31502004998DDF81CC0864498E70BADDDF81CC0DDF8CF
S315020049A814E010462A4659466446754600F008F948
S315020049B8AE46A446049D55EA0C0121D01FFA89F495
S315020049C85FEA095120D4039905F001030EEB0102AF
S315020049D802991943013115EB9100099D4CF1000129
S315020049E814F00C0F67D012F5A27F67DDB2F59B7F34
S315020049F880F28880724600F04FF9B0EE408B6CE781
S31502004A08B0EE4B8B099D68E73521059414F00C0F1F
S31502004A1808BF18210391013101EB0E040791079A89
S31502004A2828466146E246FFF7A2FB084306D14FEA4B
S31502004A384A0040EAD57C6D00013CF0E705985146EC
S31502004A484B4E10F00C0F08BF6FF07D0603980796C1
S31502004A5840F00206284632468A46FFF788FB084394
S31502004A6802D10798844209DA5FEA5A0105F001027F
S31502004A784FEA350040EA02050134EBE7029828437B
S31502004A88C1438A0718BF11F0060F1AD1011D6FF02C
S31502004A9803034AF10002C01A099D069E35487AEBBD
S31502004AA8000005D35FEA52034FEA310001340BE0F6
S31502004AB80846134608E012F12D0F32DAB0EE4B8B98
S31502004AC80BE7099D5346069E0399800840EA8370C0
S31502004AD8DDF814A0C1F135029908FFF737FB1AF081
S31502004AE80C0F05D00BE04900013C41EAD0714000A9
S31502004AF80022B2EB115F02D114F57F7FF3DAB4F527
S31502004B08806F02DBB0EE4A8BE7E604F2FF3221F44D
S31502004B188013B1F5801F28BF43EA025141EC180BF6
S31502004B28DBE6272AEEDC714600F0AEF9B7EEC08A5C
S31502004B38D3E60898807810F00C0F0AD00998C0B20C
S31502004B48002808BF4FF0FF3005E00BAA594600F0CF
S31502004B5837F80998C0B2BDEC161B01B0BDE8F08F54
S31502004B688B620002775700028062000283620002AB
S31502004B7802FCFFFFFFFF7F00F8B50B4F0C46054608
S31502004B882846214600F012F80646002809D4B81924
S31502004B9890F880000007F3D430462946224600F0F2
S31502004BA80FF83046F8BD00BF8B62000210B50C46FE
S31502004BB800F035F8002802D421680131216010BDC1
S31502004BC8002802D41368013B136000F04DB888B17F
S31502004BD810B50299CC0607D40C0707D44B0701D4A3
S31502004BE8890608D4026003E0027001E0C0E90023E6
S31502004BF8BDE8104070470280FAE758462946FFF793
S31502004C08D5BF59462246FFF7DBBFC9B22AB1037898
S31502004C188B4203D0013A0130F8E70020704710B5FD
S31502004C2804468078C10705D140F00400A0704FF011
S31502004C38FF3010BD0021D4E85F0FC4E8521F002AD6
S31502004C48F9D108B1013805E0A16820468847B0F1D4
S31502004C58FF3F01DDC0B210BD01304FF0080008BFAA
S31502004C680420A1780843E1E78A78D20711D0421CCA
S31502004C780FD0C0B2421CD1E8DF3F43B9C1E8D32FF7
S31502004C88002BF8D18A7802F0F7028A707047BFF3D0
S31502004C982F8F4FF0FF3070472DE9F04F85B014463D
S31502004CA80E468246002A27D4204600F0B9F9054660
S31502004CB8204600F0BBF9E84607462046414600F082
S31502004CC8DFF9BAFA8AF0314620304246002E18BF7A
S31502004CD8B6FA86F0201A284400F10A0BABEB040553
S31502004CE8E81B00F17D03504600F096F88046894697
S31502004CF8A3452CDA012637E06542284600F096F9E4
S31502004D088046284600F092F9E9460746284649466B
S31502004D1800F01CFABAFA8AF04A462030002E18BF6A
S31502004D28B6FA86F04044211A381A00F1860301F1D0
S31502004D380A0B5046314600F06FF8804689465046BF
S31502004D48314600F083F9A8425FEA3F960CE03F2D10
S31502004D5809DC00F092F826EA01012AEA0000084373
S31502004D685FEA1F9600E00026B8FA88F040F2FE7164
S31502004D782030B9F1000F18BFB9FA89F0ABEB000081
S31502004D8800F23E40884202DD9FED210B3CE020EA1C
S31502004D98E0770128D8BF01204946A0EB0B00A0F214
S31502004DA83445A0F2334440462A46FFF7E0F9C007E5
S31502004DB814D000F062F829EA010128EA0000084343
S31502004DC886F001015FEA0F90084309D14046494639
S31502004DD82246FFF7CCF900F0010502E0002500E0C3
S31502004DE80125404649462246FFF7C1F9401941F1D5
S31502004DF800016FF31F5150EA01025FEA15823A4435
S31502004E0841EA025141EC100B05B0BDE8F08F00BF34
S31502004E18000000000000F07F2DE9F04387B09846B5
S31502004E281546D2E90223074604A8009038460E46DC
S31502004E3800F017FAD5E90023044602A8894600902D
S31502004E483846314600F00DFADDE902010022001962
S31502004E5851EB090142F10004DDE90423012C04D1D6
S31502004E68013243F1000304920593A8F14004009429
S31502004E7800F013FA07B0BDE8F0834FF0FF304FF0A9
S31502004E88FF312A46FFF762B92DE9F041B0FA80F7F9
S31502004E980D460446002914D42846EE1B00F0C0F835
S31502004EA83044C71D28467E1B00F0C0F8301A294632
S31502004EB800F13D02204600F0A2F8AF4225DA0121B0
S31502004EC838E06E42304600F0B1F83844291AC0F18B
S31502004ED807083046CF1D00F0A9F84044314600F1D4
S31502004EE83C02204600F062F8AF4218DA4FF0FF3172
S31502004EF80522B4FBF2F3013103EB8305641B1C465E
S31502004F08F7D0B1425FEA3F9114E01F2E11DC4FF051
S31502004F18FF31B140C9430C425FEA1F910AE0B8F17A
S31502004F281F0F06DC4FF0FF3101FA08F1C9430C42A4
S31502004F38DCD00021B0FA80F2BA1A02F19E03FE2BE7
S31502004F4803DD9FED190ABDE8F081012B23EAE3721E
S31502004F58D8BF0123DC1BA4F19603973C20FA04F57B
S31502004F68ED0711D04FF0FF3581F0010105FA04F47F
S31502004F78E44320425FEA0F94214306BF20FA03F175
S31502004F8801F00101012100E00021D84008446FF335
S31502004F98DF5000285FEA1181114440EAC15000EE51
S31502004FA8100ABDE8F08100BF0000807FB0B586B068
S31502004FB814460A4602A90546104600F0C7F8DDE976
S31502004FC804010094421C41F10003284600F002F84D
S31502004FD806B0B0BDA2FB00120021E3FB0021009837
S31502004FE84028A2BF403821FA00F07047A0F12003FA
S31502004FF8C0F14000DA4001FA00F010437047B0B53C
S3150200500886B014460A4602A90546104600F038F844
S31502005018DDE9042328460094FFF7DCFF06B0B0BD9D
S3150200502801494843C00C70474F931200024948434E
S31502005038012101EBD04070474F93120002494843C1
S31502005048012101EBD04070474F931200F0B50A4B8D
S3150200505802460A4D4FF0FF304FF0CC34A2FB0367ED
S31502005068013002FB047201FB0321721B71F1333218
S315020050783246F3D3F0BD00BFCDCCCCCC3433333378
S315020050882DE9F04F87B08B461A21B0FBF1F205469F
S3150200509802FB01F62A4800EB0210B54202D100F0E3
S315020050A8C9F849E004A9274A0091A91BC36852F81E
S315020050B8317002EBC101D0E901924C680168019195
S315020050C800F0ACF8824602A8019A88460090384653
S315020050D821464B4600F0C5F801918146DDE90212E8
S315020050E8002011EB0A0758EB020840F100000128DC
S315020050F801D100F097F82846FFF7A0FF044630468C
S31502005108FFF79CFF0199241A48463A4643460094FB
S3150200511800F0C3F81E226FF0030302EA450203EA0F
S315020051289503094DEB5800F08DF800F093F80094BA
S3150200513800F0B3F8CBE9020107B0BDE8F08F00BF73
S3150200514810640002E0640002B06500022DE9F04F27
S3150200515887B08B46054619301A21B0FBF1F22C4866
S3150200516802FB01F600EB0210AE4202D100F062F831
S315020051784BE004A9274A0091711BD0E900A852F80E
S31502005188317002EBC101D0E902234C6800F046F8FF
S31502005198019002A8BAF1010268F10003894600905B
S315020051A800F03CF88A46DDE9013104460020039AFC
S315020051B8CF1852EB090840F10000012801D100F08E
S315020051C831F83046FFF73AFF06462846FFF736FF1C
S315020051D8361A204651463A464346009600F05DF88E
S315020051E86FF003030C4C03EA95031E2202EA4502FA
S315020051F8E35800F027F8013041F1000100F02AF8DF
S31502005208009600F04AF8CBE9020107B0BDE8F08F34
S3150200521808660002E0640002F86600023846214683
S3150200522800F01FB8DDE904010130049041F10000E5
S315020052380590704790E80E00C0688BE80E00CBF820
S315020052480C00704723FA02F202F00302801841F1B9
S3150200525800017047DDE90423CBE9000138464146DF
S315020052687047F0B5A3FB0145DDF814C0A2FB011691
S31502005278A2FB00277F18744145F1000539462646E8
S31502005288E3FB0016A3FB0003C01954EB030045F128
S315020052980000CCE900601046F0BD2DE9F041DDF8CA
S315020052A8188017460C460546C8F140023846194684
S315020052B8FEF74CFF07460E46284621464246FEF7AB
S315020052C856FF38433143BDE8F081D4D451EC100B74
S315020052D80028054821F0004118BF41F0010181422A
S315020052E85FEA9F90704700BF0000F07F75784372AF
S315020052F869746963616C4E657374696E6700765189
S3150200530875657565416464546F526567697374722D
S3150200531879002E2E2F72612F6673702F7372632F88
S31502005328726D5F6672656572746F735F706F7274A1
S315020053382F706F72742E630076506F7274456E7496
S315020053486572437269746963616C00282028202893
S31502005358202820707844656C617965645461736BA2
S315020053684C69737420292D3E75784E756D62657287
S315020053784F664974656D73203D3D2028205542616C
S315020053887365547970655F74202920302029203F7F
S31502005398202820282042617365547970655F74203D
S315020053A82920312029203A202820282042617365A5
S315020053B8547970655F7420292030202920292029F4
S315020053C800765461736B537769746368436F6E74BE
S315020053D86578740055617274395F746872656164C0
S315020053E800707578537461636B42756666657220E0
S315020053F8213D202828766F69642A293029002E2E15
S315020054082F72612F6177732F4672656552544F5317
S315020054182F4672656552544F532F536F75726365E3
S315020054282F74696D6572732E630075635356434E06
S31502005438756D626572203C3D203300546D725100D1
S3150200544878517565756547656E6572696353656EEC
S3150200545864002128202820785461736B47657453A9
S3150200546863686564756C657253746174652829206E
S315020054783D3D202820282042617365547970655F76
S315020054887420292030202920292026262028207821
S315020054985469636B73546F5761697420213D2030D8
S315020054A820292029002820282075696E74385F74FF
S315020054B8202A202920282070784C696E6B20292002
S315020054C83E3D202628207563486561705B203020A2
S315020054D85D20292029202626202820282075696E65
S315020054E874385F74202A202920282070784C696E27
