S0130000766973696F6E5F435055302E7372656302
S3150200000000400022191B000239190002231B0002BC
S31502000010231B0002231B0002231B0002231B0002D8
S3150200002000000000000000000000000019020002AB
S31502000030231B0002000000003102000299020002A6
S31502000040CF0A0002610C0002810D0002690E000255
S31502000050D70F0002C1050002DB04000247060002B8
S3090200006099060002F3
S31502000068022818BF704780B544F22C0043F638714F
S31502000078C2F20020C0F2002100F04DFB0120BDE8CB
S31502000088804001F0E1BC4FF244004FF00271C4F225
S3150200009800000160002101744AF20151018470478F
S315020000A87047FFF7FDBF00BE7047D4D4D4D4D4D46A
S315020000B8B0B544F234044FF0FF31C2F2002420688E
S315020000C802F0C2F9012803D020680021FFF7EBFFEE
S315020000D844F23800C2F20020017801B1B0BD012114
S315020000E80170FFF7DEFF44F23C05C2F2002500BFAD
S315020000F8286801382860F1D02068002100220023F0
S3150200010801F06AFF0128F3D020680021FFF7CBFF30
S31502000118EEE780B544F2380244F23C00C2F200220D
S31502000128C2F200200021117044F240020160C2F2BC
S3150200013800224FF48070012101F02BFF44F23401B2
S31502000148C2F20021086018B900200021FFF7ABFFB0
S3150200015800F020F802F042FD002080BD44F2880C2F
S3150200016844F2E803C2F2002CC2F20023C0F800C02F
S315020001780B6080201060704744F2E82C44F2483342
S31502000188C2F2002CC2F20023C0F800C00B60802025
S315020001981060704780B584B044F23C0043F28C5339
S315020001A8C2F2002044F2485C44F6980EC0F20023DC
S315020001B801684FF48072013101600120009040F21B
S315020001C8052043F62211C0F20020C0F20021C2F235
S315020001D8002CC2F2002ECDE901EC02F055FA44F2E7
S315020001E8A851C2F20021086008B104B080BD0020FF
S315020001F8002104B0BDE88040FFF755BF10B504469C
S31502000208FFF756FF2046BDE81040FFF73CBFD4D49F
S315020002181EF0040F0CBFEFF30880EFF309800149C3
S3150200022808470000BF0200020F4B1968EFF3098264
S315020002381EF0100F08BF22ED108A22E9F04FEFF3E5
S315020002480B8342F8043D0A604FF0100080F31188D0
S31502000258BFF34F8FBFF36F8F02F06EFC4FF00000B3
S3150200026880F3118800F002B8904600220748016818
S315020002780A6802CA81F30B88B2E8F04F1EF0100F23
S3150200028808BFB2EC108A82F30988704790460022AA
S3150200029810B51020EFF3118480F3118802F01CFDCB
S315020002A830B14EF604504FF08051CEF20000016094
S315020002B884F3118810BD806910F8020C022801D156
S315020002C8FFF7D4BF042838BF704780B543F2B6504B
S315020002D843F6F20243F2C163C0F20020C0F20022E2
S315020002E8C0F200234FF47E7101F0DAFA283140F8A1
S315020002F8481D40F221314FF0807CC0F2002122F0E5
S315020003080102C1630264C0F844C06FF00201C0E989
S3150200031809137047D4D4D4D400BE00BF00BF00BFAF
S31502000328FEE7D4D4D4D4D4D44EF62250F021CEF259
S315020003380000017000F016F84EF63470CEF2000096
S31502000348016841F04041016062B6BFF36F8FEFF377
S31502000358148C2CF0040C8CF31488BFF36F8F02DF15
S3150200036800BEFDE744F23C6044F6D351C2F20020D7
S31502000378C1F262010068A0FB01014FF0FF3000EBF9
S3150200038891110020B0EB116F18BF70474EF21002A0
S31502000398F023CEF2000251604EF62351CEF200014E
S315020003A80B709060072010607047EFF311801021E0
S315020003B881F3118844F2AC51C2F200210A68002A7C
S315020003C802F101020A6018BF704744F2B051C2F244
S315020003D8002108604EF60450CEF200000068C005FF
S315020003E800D1704780B543F2B65043F2DC5243F669
S315020003F86303C0F20020C0F20022C0F2002340F2DA
S31502000408A44101F04DFA44F2AC50C2F20020016850
S3150200041859B10139016018BF704744F2B050C2F2AF
S315020004280020006880F31188704780B543F2B65001
S3150200043843F6033243F29053C0F20020C0F2002280
S31502000448C0F2002340F2AD4101F02AFA80B598B312
S315020004584EF6902EC4F2010E9EF800100A0722D01C
S315020004684EF2FA324AF2025CC4F20102CFF6FF7C7D
S3150200047800201388A2F800C08EF8000043F4254035
S315020004881080BFF34F8F30BFBFF36F8F62B6BFF3D3
S315020004986F8F72B61088A2F800C08EF8001040F46A
S315020004A82540108080BDBFF34F8F30BFBFF36F8FDB
S315020004B862B6BFF36F8F72B680BD80B572B602F0B0
S315020004C810FA0120FFF7C2FF62B6BDE8804002F0CB
S315020004D863BAB0B54FF07041EFF3038001EB0060E9
S315020004E84CF200318015C4F20001425822F48032DF
S315020004F8425044F20C624158C2F200221458206A51
S3150200050800690028606918D1C0B1A07800F003001C
S315020005180228206905D10088616A20F4DC40486017
S3150200052802E0616A00780871A078226900F0030186
S315020005386069401A606111442161B8B9616A022290
S315020005488D68A06862F3155510B101F0EDF9616A7C
S315020005588D60A06A00284FF00000206106D00021B5
S3150200056880222046BDE8B04000F001B8B0BD2DE9B2
S31502000578F04385B08146C06A0DF1040830B10546DC
S31502000588C44695E8D8008CE8D80000E04046D9F879
S3150200059820301B78816003600271D9F83010C1607F
S315020005A8D9F828108847D9F82C0010B198E88E0097
S315020005B88EC005B0BDE8F08310B582B04FF0704129
S315020005C8EFF3038001EB00604CF200318015C4F2B0
S315020005D80001425822F48032425044F20C624158D9
S315020005E8C2F200221458A07800F00302606A022AB6
S315020005F803D101686FF35F2100E00178E069019198
S3150200060890B1A06901A902F08EFFA078D4E906127A
S3150200061800F003000144101AC4E906100DD1A06ABD
S3150200062858B10021012202E0A06A30B10422204614
S3150200063802B0BDE81040FFF79ABF02B010BD10B570
S315020006484FF07041EFF3038001EB006144F20C6254
S315020006588815C2F200224FF6EF741058CFF6CF74FF
S31502000668426A936823409360826A0C161AB1002183
S315020006780222FFF77CFF4CF20030C4F2000050F869
S31502000688241021F4803140F8241050F8240010BDBB
S315020006984FF07041EFF3038001EB006C44F20C61FA
S315020006A84FEAAC50C2F2002108588178436A01F039
S315020006B80301022903D119686FF35F2100E0197853
S315020006C870B59A6C20244FF0080E04EAD24410261C
S315020006D80EEA126516EA126204EB0506324403D0E4
S315020006E89E6C360458BF40329E6E4FEA2C6446F022
S315020006F8C8569E66836A0BB1FFF739FF4CF2003083
S31502000708C4F2000050F8241021F4803140F8241075
S3150200071850F8240070BD80B545F25422C5F24F0246
S315020007280260084600F004F8002080BDD4D4D4D470
S3150200073870B5044600F060F844F2086CEFF31081D5
S31502000748C2F2002C012080F31088DCF8000038B9C8
S3150200075840F614500022C4F2400002704022027091
S31502000768DCF800000130CCF8000081F310882088FC
S3150200077828B340F6000E0021C4F2400E00BF00BFA7
S31502000788606800EBC10250F831309288D8034FEA0C
S315020007981220D2B20BD50EEB801555F8226026F43C
S315020007A8803645F8226023F4803645F822600EEB3F
S315020007B88010013140F8223020888142E0D301209E
S315020007C8EFF3108180F31088DCF8000020B1DCF822
S315020007D800000138CCF80000DCF8000038B940F611
S315020007E814500022C4F2400002708022027081F383
S315020007F8108870BDD4D4D4D42DE9F04F81B0044604
S315020008080088002865D04EF64C4B0025C4F2010B31
S315020008184FF0010A00BF00BF43F6567642F240087F
S315020008280027C0F20026C4F2200800BF00BF00BF9E
S31502000838606836F8021B00EBC50082888A423FD1FF
S3150200084800689BF8001000F0B8500AFA07F9B0F1F0
S31502000858807F09EA010017D158B9012001F0CBF8C7
S315020008689BF8000040EA09008BF80000012001F01D
S315020008789BF898F90000002822D498F8000040F066
S31502000888800017E000BF00BF58B1012001F0B3F89D
S315020008989BF8000020EA09008BF80000012001F00D
S315020008A883F898F90000B0F1FF3F09DC98F80000D8
S315020008B800F07F0088F80000C820012100F0F5FF4B
S315020008C8013708F10208032FB2D120880135854283
S315020008D8A2D301B0BDE8F08FF0B502690023137008
S315020008E8402302691370026913785B06FCD5C0239C
S315020008F813700268036908254EF6185C526ACEF22E
S31502000908000C127942F0E0021A7402680369526A0C
S31502000918D27842F0E0025A7402680369526A9278FF
S3150200092862F306159D7002680569526A1378527851
S31502000938012B5FEA1F9343EA420242F00402EA707D
S31502000948026844F24025C0F20F0503695268AA42BA
S315020009584FF0770208BF6FF008025A710023026946
S315020009689371B3230269D3714EF2001291F91140C1
S315020009784B7BCEF20002002C4FEA031303D415195F
S3150200098885F8003304E004F00F05654405F8043CD5
S3150200099844F20C6E4CF20033C2F2002EC4F200038B
S315020009A801274EF8240053F8245025F4803543F8DD
S315020009B8245053F82450650904F01F04BFF35F8FCF
S315020009C802EB850607FA04F4C6F8804142F8254088
S315020009D891F90F404D7B002C4FEA051503D41619E1
S315020009E886F8005304E004F00F06664406F8045C31
S315020009F84EF8240053F8245025F4803543F8245041
S31502000A0853F82450650904F01F04BFF35F8F02EB05
S31502000A18850607FA04F4C6F8804142F8254091F99A
S31502000A2810404D7B002C4FEA051503D4161986F89B
S31502000A38005304E004F00F06664406F8045C4EF818
S31502000A48240053F8245025F4803543F8245053F8EB
S31502000A582450650904F01F04BFF35F8F02EB850675
S31502000A6807FA04F4C6F8804142F8254091F90E4087
S31502000A78497B002C4FEA011103D4171987F8001392
S31502000A8805E004F00F0505EB0C0707F8041C4EF801
S31502000A98240004F01F0753F82410012621F480319C
S31502000AA843F8241053F82410610906FA07F7BFF32E
S31502000AB85F8F02EB8103C3F8807142F821709F2190
S31502000AC800690170F0BD10B582B04FF07041EFF3C6
S31502000AD8038001EB00604CF200328015C4F200027A
S31502000AE8835823F4803383508058EFF3038001EB55
S31502000AF8006044F20C618015C2F200210C5894F889
S31502000B082D00B8B1E069002862D02168496AC9791E
S31502000B18012904D10521204600F03EFAE0690128A0
S31502000B2858D0022833D0032840D12069017941F0F0
S31502000B3840013AE0A069022804D82069017941F007
S31502000B4840010171E06901280ED12069017941F05D
S31502000B58100101712069017941F0080101712069CA
S31502000B68017901F0EF0101712068406AC079012814
S31502000B7803D10521204600F00FFA2069C07C8DF8C2
S31502000B8807009DF80700012084F82D0020E020695F
S31502000B98017941F0100101712069017941F00801DA
S31502000BA801712069017901F0EF010171D4E90401AB
S31502000BB8C07C226A8854D4E90701013801F101018F
S31502000BC8C4E9070104D12069017901F0BF01017165
S31502000BD802B010BD94F82A00012831D120684EF2DD
S31502000BE88013CEF2000390F90F00420900F01F01AC
S31502000BF8012000FA01F143F82210BFF34F8FBFF329
S31502000C086F8F2169CA7942F08002CA7121690A790D
S31502000C1842F010020A7121690A7902F0F7020A7192
S31502000C2821690A7902F0EF020A71216904224A70DF
S31502000C3821694A7902F0FE024A7184F82C00B5E766
S31502000C482069417A01F0F701417220690821417051
S31502000C58ACE7D4D4D4D4D4D4B0B54FF07041EFF3C2
S31502000C68038001EB00604CF200358015C4F20005E2
S31502000C78425922F4803242514059EFF3038001EB84
S31502000C88006044F20C618015C2F200210C5894F8F7
S31502000C982700C8B194F82600032806D194F828003C
S31502000CA8022802D194F8300070B3206994F824100F
S31502000CB8817494F8280094F82710013084F82800E3
S31502000CC8481E84F82700B0BD94F82900E0B92068C8
S31502000CD8406AC079012808D194F82B0028B9206AFD
S31502000CE818B10521204600F057F9E06968B1D4E940
S31502000CF80401226A895C8174D4E90701013801F189
S31502000D080101C4E9070100D0B0BD2069C17901F02B
S31502000D187F01C17120696FF0BE0100BF00BF00BF2D
S31502000D2890F90720B2F1FF3F03DC002901F1010126
S31502000D38F6D1206890F9100055F8201021F4803178
S31502000D4845F8201055F82000206890F91000002870
S31502000D580BD44EF2802300F01F014009CEF20003A5
S31502000D68012202FA01F143F820102069C17941F003
S31502000D784001C171B0BDD4D410B54FF07041EFF344
S31502000D88038001EB006044F20C618015C2F2002177
S31502000D980C582068406AC079012803D105212046EB
S31502000DA800F0FAF894F82900012806D194F82700E9
S31502000DB8012802D194F8300080B3E06970BB94F838
S31502000DC82A00012822D120684EF28013CEF20003AF
S31502000DD8012290F90F0000F01F01400902FA01F101
S31502000DE843F82010BFF34F8FBFF36F8F2069C17985
S31502000DF841F08001C171206904214170206941795D
S31502000E0801F0FE01417184F82C2007E02069417A3D
S31502000E1801F0F70141722069082141702069C17900
S31502000E2801F0BF01C17120696FF0BE0100BF00BFAA
S31502000E38C279520603D5002901F10101F8D14FF012
S31502000E487041EFF3038001EB00604CF2003180152C
S31502000E58C4F20001425822F480324250405810BD72
S31502000E68B0B54FF07041EFF3038001EB006044F236
S31502000E780C618015C2F200210C5821694A7A4B7A14
S31502000E8802F01F0002F003020F2803F0E0034B7280
S31502000E9801D83AB923E021694B785B0658BF42F07C
S31502000EA80102CAB1012084F82B0020690025C57108
S31502000EB820462168FFF710FD94F82600A16984F8F8
S31502000EC828002069C4E90751B32184F82C5084F814
S31502000ED82A50C17101214BE04A78520611D4010702
S31502000EE806D494F82C20012A31D110F004022ED00F
S31502000EF8E06910B994F82B0090B3002919D401209F
S31502000F0835E0012084F82B00082048702068236900
S31502000F18406A41790278807942EA011141EAC010B1
S31502000F2840F00200D8702069417941F0010141710F
S31502000F3821E00020A169C4E9070194F8261084F883
S31502000F48281084F82C0084F82A0001200CE04007B7
S31502000F5811D52068406AC07901280CD1042107E01E
S31502000F6894F8290080F003002169B322CA71C1B23C
S31502000F78204600F011F84FF07041EFF3038001EBC1
S31502000F8800604CF200318015C4F20001425822F486
S31502000F98803242504058B0BD10B582B00446806BCC
S31502000FA820B1D0E90023CDE9002300E06846E26BD0
S31502000FB802600171616B8847A06B18B1DDE9001206
S31502000FC8C0E90012002084F82B0002B010BDF0B56B
S31502000FD88BB048F27401C4F234010868C2430A604D
S31502000FE84FF07042EFF3038102EB01614CF20032DB
S31502000FF88915C4F200028B5823F480338B5044F2CD
S315020010080C638A58C2F200235C58616911B32269DB
S315020010180DF1040E104001900020CDE90200A069EE
S31502001028E369A2680492059360B103460DF1180CB0
S3150200103893E8E6008CE8E60001469EE8EC00ECC17F
S31502001048616900E070468847A06918B106A991E867
S31502001058EC00ECC00BB0F0BD4EF22401C4F2010163
S315020010688878098801F00F02A2F1080103293BD802
S31502001078DFE801F0022C101E44F20001C2F2002140
S3150200108851F820004AF6AB21CAF6AA21A0FB0101B3
S31502001098480830E044F20001C2F2002151F820006B
S315020010A84AF6AB21CAF6AA21A0FB0101C80822E02A
S315020010B844F20001C2F2002151F820004AF6AB219F
S315020010C8CAF6AA21A0FB0101080914E044F20001AC
S315020010D8C2F2002151F820004AF6AB21CAF6AA212B
S315020010E8A0FB0101880806E044F20001C2F20021D1
S315020010F851F82000D04044F23C61C2F20021086057
S315020011087047D4D4D4D4D4D42DE9F04182B00FF2A6
S3150200111878504EF2FA38C4F201084AF20151CFF673
S31502001128FF7190ED001F44F200000231A8F800108A
S31502001138C2F200200FF260514EF6014680ED001F02
S315020011484EF600474EF2140591ED001F48F2004193
S3150200115840F6000280ED041F2030C1F2D77143F633
S315020011680003C4F20106C4F20107C4F20105C2F67D
S31502001178AF72C1F69C430EC0FFF76EFF4FF6506082
S315020011880A21CFF6FF703954092085F88E0038787F
S3150200119818B93078800700F07282387858B9012079
S315020011A83870C820012100F080FB00BF00BF00BFD5
S315020011B838780128FCD10020307038704AF201567E
S315020011C8002085F82200A87795F828000007FBD5A5
S315020011D842F602314EF61450C0F20101C5F8B410B7
S315020011E840F223416987002285F836204FF602111C
S315020011F8C5F8981040F251412987CEF200004EF206
S315020012080001BFF34F8FBFF36F8F0368CEF2010160
S3150200121823F400330360C0F83C22BFF34F8FBFF3B9
S315020012286F8F0A6822F440520A60BFF34F8FBFF3EA
S315020012386F8F2A7802F0F80201322A7000BF00BFC7
S315020012482A78D206FCD40A6842F440520A60BFF3EE
S315020012584F8FBFF36F8F0168890312D4BFF34F8F85
S31502001268BFF36F8F0021C0F83C12BFF34F8FBFF355
S315020012786F8F016841F400310160BFF34F8FBFF3EE
S315020012886F8F0020A87500BF95F828008006FBD549
S315020012984CF200070020C4F2130738703878387801
S315020012A838787868FA2807D0FA20C1F6006000BFB5
S315020012B878607968FA29FBD1B8687D2808D07D203C
S315020012C8CEF2001000BF00BFB860B9687D29FBD115
S315020012D843F23240C3F22320E86042F22010288209
S315020012E80520A874FFF7B8FE1E200121012400F08C
S315020012F8DCFA78686FF39F20652828BF3C70FFF7F1
S31502001308ABFE42F200004FF42541C4F2000006800B
S31502001318BFF35F8F0472BFF35F8F018095F8C60033
S3150200132840F0400085F8C60095F9C600B0F1FF3FC7
S31502001338FADC032085F8C000C92085F8C60095F8AE
S31502001348C60000F0BF0085F8C60000BF00BF00BF98
S3150200135895F9C6000028FBD4012085F83F00002035
S3150200136885F82A00802085F82A0095F8600040F062
S31502001378400085F8600000BF95F96000B0F1FF3FB4
S31502001388FADC072085F858004A2085F860000A200A
S3150200139885F8600000BF00BF95F960000028FBD4FD
S315020013A80720ADF806000DF1060000F07DF995F864
S315020013B8620040F0400085F8620000BF00BF00BF2F
S315020013C895F96200B0F1FF3FFADC032085F85A006E
S315020013D8CA2085F8620095F8620000F0BF0085F819
S315020013E8620000BF00BF00BF95F962000028FBD467
S315020013F895F8410040F0400085F8410000BF00BF63
S3150200140895F94100B0F1FF3FFADC022085F8400069
S31502001418CA2085F8410095F8410000F0BF0085F81A
S31502001428410000BF00BF00BF95F941000028FBD468
S3150200143895F8430040F0400085F8430000BF00BF1E
S3150200144895F94300B0F1FF3FFADC002085F8420027
S31502001458C72085F8430095F8430000F0BF0085F8D9
S31502001468430000BF00BF00BF95F943000028FBD424
S3150200147895F8490040F0400085F8490000BF00BFD2
S3150200148895F94900B0F1FF3FFADC012085F84800DA
S31502001498C62085F8490095F8490000F0BF0085F88E
S315020014A8490000BF00BF00BF95F949000028FBD4D8
S315020014B895F8640040F0400085F8640000BF00BF5C
S315020014C895F96400B0F1FF3FFADC022085F85C006A
S315020014D8C92085F8640095F8640000F0BF0085F815
S315020014E8640000BF00BF00BF95F964000028FBD462
S315020014F895F84B0040F0400085F84B0000BF00BF4E
S3150200150895F94B00B0F1FF3FFADC012085F84A0055
S31502001518CA2085F84B0095F84B0000F0BF0085F805
S315020015284B0000BF00BF00BF95F94B000028FBD453
S3150200153895F8630040F0400085F8630000BF00BFDD
S3150200154895F96300B0F1FF3FFADC042085F85B00E9
S31502001558CA2085F8630095F8630000F0BF0085F895
S31502001568630000BF00BF00BF95F963000028FBD4E3
S3150200157895F8470040F0400085F8470000BF00BFD5
S3150200158895F94700B0F1FF3FFADC022085F84600DC
S31502001598CA2085F8470095F8470000F0BF0085F88D
S315020015A8470000BF00BF00BF95F947000028FBD4DB
S315020015B895F8C70040F0400085F8C70000BF00BF95
S315020015C895F9C700B0F1FF3FFADC022085F8C100A1
S315020015D8C52085F8C70095F8C70000F0BF0085F852
S315020015E8C70000BF00BF00BF95F9C7000028FBD49B
S315020015F895F8C80040F0400085F8C80000BF00BF53
S3150200160895F9C800B0F1FF3FFADC012085F8C2005F
S31502001618C52085F8C80095F8C80000F0BF0085F80F
S31502001628C80000BF00BF00BF95F9C8000028FBD458
S3150200163895F8CA0040F0400085F8CA0000BF00BF0E
S3150200164895F9CA00B0F1FF3FFADC092085F8C40013
S31502001658C92085F8CA0095F8CA0000F0BF0085F8C7
S31502001668CA0000BF00BF00BF95F9CA000028FBD414
S315020016784FF42540A8F8000002B0BDE8F0814FF407
S315020016887A7000F0C2F899E5006CDC0200127A0062
S315020016980080000000366E010080000000CA9A3BF6
S315020016A80046C3235543DE132DE9F04F81B04EF2AF
S315020016B8FA3143F20406C4F201018246C4F2200654
S315020016C84AF20350B1F8009008804FF0010B00254A
S315020016D84FF480340127002004FA00F132680A42E6
S315020016E810D1EFF310888BF3108832680BFA00F0EA
S315020016F811433160316805431E20012100F0D5F8F7
S3150200170888F31088F8074FF001004FF00007E3D17D
S315020017184EF2750744F20001C4F20107C2F2002133
S31502001728387800F00F0051F8200017F8081C01F06D
S315020017380F01022901D801220BE0CA1E052A06D288
S3150200174844F2A811C0F2002151F8221003E0083928
S31502001758102202FA01F1B0FBF1F04DF68361C4F2F0
S315020017681B31A0FB01016FF0010000EA5140012183
S3150200177800F09BF8387840F04000387000BF00BF90
S3150200178897F90000B0F1FF3FFADC9AF8010007F872
S31502001798080C9AF8000040F0400038709AF80000E9
S315020017A8387000BF00BF00BF97F900000028FBD4BD
S315020017B800204FF0010A4FF48038012400BF00BF11
S315020017C825FA00F1C90710D0EFF310878AF31088BB
S315020017D808FA00F0316821EA0000306030681E20FD
S315020017E8012100F062F887F31088E0074FF0010044
S315020017F84FF00004E4D14EF2FA3149F42540C4F21E
S315020018080101088001B0BDE8F08F7047D4D4D4D462
S31502001818B0B542F22404C820C4F2200401210025EE
S31502001828257100F042F82570207808B12FF005C01E
S31502001838207840F00200207020788007FCD400202F
S3150200184804F8020C00BF00BF14F8020C08B12FF00E
S3150200185805C84FF0030E002004F11C0100BF00BFAB
S3150200186811F8102002F07F0201F8102000BF00BF15
S3150200187811F91020002AFBD401300FF00FC80120FD
S3150200188800F0B9F84EF64C410120C4F201010022DB
S315020018980A70BDE8B04000F087B8D4D4D4D4D4D402
S315020018A800BE00BF00BF00BFFEE744F23C6241F241
S315020018B80023C2F20022C0F27A03484312689A420F
S315020018C80FD344F23F21C0F20F0111444DF6836251
S315020018D8C4F21B32A1FB0212910CA0FB0101C9B191
S315020018E81BE04CF60021C3F69A31B1FBF2F148F639
S315020018F83812C0F24102904205D24FF47A7250432E
S31502001908B0FBF1F006E0B0FBF1F0904205D24FF4DD
S315020019187A71484328B100F007B84FF0FF3000F05B
S3150200192803B87047D4D4D4D401380028FCD1704700
S31502001938F0B581B04CF2001544F2B457C4F2000572
S315020019480024C2F200272868296A01EA000600BFB5
S3150200195826FA04F0C00703D0396809B12046884739
S3150200196801340437152CF3D12E6100BF00BF00BF26
S31502001978286A3042FCD101B0F0BDD4D4D4D4D4D430
S3150200198880B54FF0090E4CF2003043F64471C4F2AA
S315020019980000C0F2002100BF31F8022B02B102603A
S315020019A804300FF007C880BDEFF31081012282F3DD
S315020019B8108844F23062C2F2002232F8103023B1A3
S315020019C832F81030013B22F8103032F810207AB97A
S315020019D84EF2FA3244F2BC1CC4F20102C0F2002CE6
S315020019E813883CF8100043F4254323EA00001080CC
S315020019F881F31088704710B5EFF31081012282F344
S31502001A08108844F23062C2F2002232F8103083B9EA
S31502001A184EF2FA3E44F2BC1CC4F2010EC0F2002C8D
S31502001A28BEF800403CF81030234343F42543AEF891
S31502001A38003032F81030013322F8103081F3108862
S31502001A4810BDD4D4D4D4D4D470B543F600450446D4
S31502001A58C4F2000500BF00BF95F8500008B12FF088
S31502001A6805C84FF08700A8844FF0100028709CB173
S31502001A780020FFF7C0FF4EF253000126C4F2010010
S31502001A8806700020FFF790FF85F8206000BF00BFB0
S31502001A9895F850000007FBD40120A8700020687052
S31502001AA895F8500008B12FF005C842F20350C0F26B
S31502001AB80500ACB14FF40C71A5F8481000BF00BF81
S31502001AC895F85010C907FBD16864002085F84000D4
S31502001AD847F2A830A8820120A8751120287070BD87
S31502001AE86864002085F8400047F2A830A8820120E1
S31502001AF8A87500BF00BF00BF2878C007FCD195F8BB
S31502001B08500008B12FF009C00120287470BDD4D442
S31502001B1800F006F8FEF7FDFAFEE700BE7047D4D4D9
S31502001B2870B54EF6005540F20120CEF20005C0F21D
S31502001B380E004EF200066861CEF20106BFF34F8F21
S31502001B48BFF36F8F2968C1F3035001285FEA1F921A
S31502001B5811F00F0F5FEA0F911142316811D1022875
S31502001B680FD241F0040030604EF20800BFF34F8FE7
S31502001B78CEF20000BFF36F8F016841F48031016035
S31502001B8802E021F004003060BFF34F8FBFF36F8F7E
S31502001B984FF4700040F20001C5F888000020C0F238
S31502001BA80021A9600024FEF75BFAFFF7ADFA4EF2B0
S31502001BB8FA304EF6B022C4F20100C4F201024AF229
S31502001BC80251018014704FF4254101800120FEF76D
S31502001BD847FA40F20000C2F2002080F30A88306811
S31502001BE8800721D5A868B0F1007F1DD130694FF46E
S31502001BF80071C0F3C300726901FA00F3C2F3C300AD
S31502001C0881400020DA08CB080146064642F005C0A4
S31502001C18E6E802010FF005C04FF0005243F005C096
S31502001C28E2E802010FF005C0002000F099F8FFF77C
S31502001C3813FAFFF7EDFD0320FFF7DDFE4FF00E0E58
S31502001C4840F63050C4F2400020F8044B0FF005C0AD
S31502001C584EF210140320C4F20104FFF7A5FE032076
S31502001C68FFF7C9FE44F204000021C4F22000016015
S31502001C7841608160C1600320FFF796FED4F8C8026E
S31502001C88800714D42078A0B10120FFF7B4FE00BF64
S31502001C9894F9000010F1410FFADC0020207000BF11
S31502001CA820783F28FCD80120FFF77EFE01E0D4F811
S31502001CB8C802D4F8C802400715D42079A8B1012071
S31502001CC8FFF799FE00BF00BF94F9040010F1410F17
S31502001CD8FADC0020207100BF20793F28FCD80120B9
S31502001CE8FFF762FE01E0D4F8C802012000F038F8D6
S31502001CF844F69404C2F20024204601F025FC20464C
S31502001D0801F036FCBFF34F8FBFF36F8F0020C5F883
S31502001D18500244F21A2044F21A21C0F20020C0F2FC
S31502001D280021BFF34F8F081ABFF36F8F8410012C5F
S31502001D380BDB44F21A25C0F2002500BF00BF00BF24
S31502001D4855F8040B8047013CFAD10220FEF788F9C0
S31502001D58FFF716FE0020BDE8704000F030B8D4D474
S31502001D68F0B581B043F67C750446C0F200252E68AC
S31502001D7876B16868071D00BF7879844204D157E9AD
S31502001D880101091A01F0CBFB013E07F10C07F3D159
S31502001D98AE6896B1E86800F1080500BF00BF00BF4B
S31502001DA86879844205D155E902022968121A01F0B6
S31502001DB8BAFB013E05F11005F2D101B0F0BD70473C
S31502001DC801464FF0FF3241F8082F0022C0E90311FD
S31502001DD8C0E900217047002101617047D4D4D4D4E8
S31502001DE880B5D1F800C01CF1010207D000F1080243
S31502001DF89646526813686345FAD903E0D0F810E0AC
S31502001E08DEF804204A609160C1F808E0CEF80410B2
S31502001E18086101680131016080BDD0E901230169C9
S31502001E28936042685A604A68824201D182684A606F
S31502001E3800220261086801380860704770B50028F8
S31502001E484BD00446C06BC0B30E46216CA0FB010101
S31502001E5899BBFEF7AAFAD4E90F010025226801FB0D
S31502001E6800230138A56300FB0120C4E90123E060D1
S31502001E78FF2084F8440084F8450004F110004EB1AE
S31502001E88FFF79EFF04F12400FFF79AFFFEF7BBFA5D
S31502001E98012070BD01680029F8D001F05CF800281D
S31502001EA8F4D04EF604504FF08051CEF20000016095
S31502001EB8BFF34F8FBFF36F8FE8E743F6721043F60F
S31502001EC8E82243F65D23C0F20020C0F20022C0F2E7
S31502001ED800234FF4B671FFF7E3FC43F6721043F69C
S31502001EE8E82243F65523C0F20020C0F20022C0F2CF
S31502001EF8002340F23711FFF7D3FC10B582B043B383
S31502001F08B8B11C4601B9A2B901B192B148230193ED
S31502001F18019B482B2DD1002954EA0282019BC4E970
S31502001F280F01012120462260FFF788FF204602B0F2
S31502001F3810BD43F6721043F6D80243F6DC13C0F21C
S31502001F480020C0F20022C0F200234FF4D871FFF736
S31502001F58A7FC43F6721043F6D80243F25773C0F24F
S31502001F680020C0F20022C0F200234FF4C271FFF72C
S31502001F7897FC43F6721043F6D80243F6A903C0F259
S31502001F880020C0F20022C0F200234FF4CB71FFF703
S31502001F9887FCB0B582B060B10D46814209D81446B5
S31502001FA8002100222346FFF7A8FFA563204602B0B8
S31502001FB8B0BD43F6721043F62D1243F26573C0F2B2
S31502001FC80020C0F20022C0F200234FF45E71FFF730
S31502001FD867FCD4D4D4D4D4D42DE9F04F85B00028E4
S31502001FE8049200F0A18004469946154619B9206C58
S31502001FF8002840F0C980B9F1020F03D1E06B01282D
S3150200200840F0B280019101F092F810B9002D40F02B
S315020020189B80FEF7CAF9B9F1020FA06B5DD0E16B9E
S3150200202888425AD304F11007012002AE4FF0000B82
S3150200203804AD00BF00BF00BF0499002968D0C007DD
S3150200204802D0304601F00FF8FEF7DDF900F049FC40
S31502002058FEF7ABF994F84400FF2808BF84F844B0A9
S3150200206894F84500FF2808BF84F845B0FEF7CBF977
S315020020783046294601F004F800284CD1FEF795F9B6
S31502002088D4F838A0D4F83C80FEF7BDF9C24517D17A
S315020020980499384600F002FF204600F0B5F800F031
S315020020A87BFC90B94EF604504FF08051CEF20000F8
S315020020B80160BFF34F8FBFF36F8F06E000BF00BF0B
S315020020C8204600F0A1F800F067FCFEF76EF9A06B57
S315020020D8E16B88424FF00000AED2204601994A468B
S315020020E800F062F854F8240F70B1204600F033FF6E
S315020020F850B14EF604504FF08051CEF20000016006
S31502002108BFF34F8FBFF36F8FFEF77DF9012008E00B
S31502002118FEF779F904E0204600F076F800F03CFC78
S31502002128002005B0BDE8F08F43F6721043F2D7627D
S3150200213843F65523C0F20020C0F20022C0F2002363
S3150200214840F2B631FFF7ACFB43F6721043F2D762A0
S3150200215843F2E963C0F20020C0F20022C0F2002373
S3150200216840F2BB31FFF79CFB43F6721043F2D7628B
S3150200217843F26D73C0F20020C0F20022C0F20023BF
S315020021884FF46E71FFF78CFB43F6721043F2D76277
S3150200219843F65233C0F20020C0F20022C0F20023F6
S315020021A840F2B731FFF77CFB70B5866B036C0446C9
S315020021B82BB31546B2B1E0681A4601F0B4F92168A4
S315020021C8E268206C121AE2608A4203D24042A1688F
S315020021D80844E060022D5FEA1F90002E5FEA008045
S315020021E8361A0CE060681A4601F09DF9D4E9010135
S315020021F8226C10446060884201D320686060701CBB
S31502002208A06370BDD4D4D4D4F0B581B00446FEF729
S31502002218CCF894F94560012E0EDB04F1240500BFC3
S31502002228286848B1284600F096FE08B100F078FF03
S3150200223870B2013E0128F3DCFF2684F84560FEF7FA
S31502002248E2F8FEF7B2F894F94470012F10DB04F1B4
S31502002258100500BF00BF00BF286848B1284600F035
S315020022687AFE08B100F05CFF78B2013F0128F3DC80
S3150200227884F8446001B0BDE8F040FEF7C4B8D4D48F
S315020022882DE9F04F83B00028029200F0AA80044696
S315020022981646894619B9206C002840F0C28000F01B
S315020022A846FF10B9002E40F0AC80FEF77EF8D4F84F
S315020022B838A0BAF1000F29D0226C52B1D4E9020132
S315020022C81144E160814201D32168E160484601F088
S315020022D82AF954F8100F0028AAF10100A0620ED0BC
S315020022E8204600F038FE50B14EF604504FF08051A9
S315020022F8CEF200000160BFF34F8FBFF36F8F012448
S31502002308FEF781F8204603B0BDE8F08F04F12408F1
S3150200231801206F464FF0000B02AE00BF00BF00BFA0
S315020023280299002959D0C00702D0384600F09BFE10
S31502002338FEF769F800F0D5FAFEF737F894F8440084
S31502002348FF2808BF84F844B094F84500FF2808BF60
S3150200235884F845B0FEF757F83846314600F090FE45
S3150200236870B12046FFF750FF00F016FBFEF71DF886
S31502002378A56BFEF748F895B326E000BF00BF00BF7D
S31502002388FEF713F8A56BFEF73EF82DB12046FFF7C8
S315020023983BFF00F001FB17E00299404600F07EFD84
S315020023A82046FFF731FF00F0F7FA68B94EF60450F7
S315020023B84FF08051CEF200000160BFF34F8FBFF39A
S315020023C86F8F00BF00BF00BFFDF7EFFFD4F838A03C
S315020023D80020BAF1000FA3D06EE7002490E700248C
S315020023E890E743F6721043F6511243F23C73C0F279
S315020023F80020C0F20022C0F2002340F2E951FFF7A2
S315020024084FFA43F6721043F6511243F2E963C0F2E9
S315020024180020C0F20022C0F2002340F2F251FFF778
S315020024283FFA43F6721043F6511243F6E713C0F227
S315020024380020C0F20022C0F2002340F2ED51FFF75D
S315020024482FFAD4D4D4D4D4D42DE9F04F83B00028AB
S31502002458029100F090800446006C002840F09B80B0
S315020024680D4600F064FE10B9002D40F0A480FDF779
S315020024789CFFA06BD0B154F8101F0138A06271B14D
S31502002488204600F068FD50B14EF604504FF08051D8
S31502002498CEF200000160BFF34F8FBFF36F8F0124A6
S315020024A8FDF7B1FF204603B0BDE8F08F4EF604599A
S315020024B804F1240801216E464FF0000B02AFCEF25A
S315020024C800094FF0805A00BF029800284FD0C8076B
S315020024D802D0304600F0C7FDFDF795FF00F001FA7D
S315020024E8FDF763FF94F84400FF2808BF84F844B058
S315020024F894F84500FF2808BF84F845B0FDF783FF26
S315020025083046394600F0BCFD70B12046FFF77CFE26
S3150200251800F042FAFDF749FFA56BFDF774FF45B3D4
S315020025281EE000BF00BF00BFFDF73FFFA56BFDF72A
S315020025386AFF2DB12046FFF767FE00F02DFA0FE07D
S315020025480299404600F0AAFC2046FFF75DFE00F01D
S3150200255823FA28B9C9F800A0BFF34F8FBFF36F8FCC
S31502002568FDF723FFA06B00210028ADD083E70024E6
S3150200257896E7002496E743F6721043F6C40243F23E
S315020025883C73C0F20020C0F20022C0F2002340F2DF
S315020025988261FFF785F943F6721043F6C40243F6E1
S315020025A81533C0F20020C0F20022C0F2002340F226
S315020025B88661FFF775F943F6721043F6C40243F2D1
S315020025C8E963C0F20020C0F20022C0F2002340F202
S315020025D88B61FFF765F9D4D410B508B3D9B144F2C3
S315020025E840624FF0000C0A23C2F200224FF0000E9E
S315020025F85468A04210D0BEF1000F03D11468002C13
S3150200260852EA0C8E013B02F10802F1D1BEF1000F2B
S3150200261818BFCEE9001010BD9646CEE9001010BDCF
S3150200262843F6721043F2A25243F69723C0F20020F1
S31502002638C0F20022C0F2002340F6C931FFF730F992
S3150200264870B515460E460446FDF7AFFE94F84400EB
S31502002658FF2802D1002084F8440094F84500FF2898
S3150200266802D1002084F84500FDF7CDFEA06B28B9FB
S3150200267804F1240031462A4600F031FC2046BDE822
S315020026887040FFF7C1BDD4D42DE9F04782B0DDF81A
S315020026982CA0BAF1000F00F0E4800C9C002C00F08C
S315020026A8F0808146602001900198602840F0F98008
S315020026B80E46019860212046984615460A9F00F064
S315020026C82EFFC4F830A07EB104F134000F2100BFFA
S315020026D816F8012B00F8012B1AB10029A1F1010104
S315020026E8F6D1002084F84300052F80F0EA800AEB31
S315020026F88500251D0438E76220F007062846FFF7FD
S315020027086AFB04F11800FFF766FBC7F10500A06132
S31502002718216B30464A46434624616462FDF7E6FD6C
S315020027282060FDF742FE44F2B46044F2906AC2F2B7
S315020027380020C2F2002A44F298690168C2F200290E
S3150200274801310160DAF8001061B1D9F800000028F9
S3150200275844D1DAF80000E16AC06A884298BFCAF82A
S3150200276800403BE0CAF800400068012836D144F22E
S31502002778C0660527C2F200263046FFF721FB013F55
S3150200278806F11406F8D144F26C78C2F200284046E3
S31502002798FFF716FB44F28076C2F200263046FFF7B0
S315020027A80FFB44F24070C2F20020FFF709FB44F225
S315020027B89C60C2F20020FFF703FB44F22870C2F2C3
S315020027C80020FFF7FDFA44F2607044F26471C2F227
S315020027D80020C2F20021C0F800800E6044F2946024
S315020027E8C2F2002001680131016044F22471E06AF4
S315020027F8C2F200210A68904288BF086000EB800096
S3150200280844F2C061C2F2002101EB80004068A06078
S315020028188268E26055608560E06A00EB800001EB41
S315020028288002626151F82020013241F82020FDF72A
S31502002838EAFDD9F8000080B1DAF80000E16AC06A58
S3150200284888420AD24EF604504FF08051CEF200006A
S315020028580160BFF34F8FBFF36F8F204602B0BDE80A
S31502002868F08743F6B11043F69D1243F27863C0F23D
S315020028780020C0F20022C0F2002340F2F141FFF725
S315020028880FF843F6B11043F69D1243F61D03C0F244
S315020028980020C0F20022C0F2002340F2F241FEF705
S315020028A8FFFF43F6B11043F69D1243F6A833C0F272
S315020028B80020C0F20022C0F2002340F2FA41FEF7DD
S315020028C8EFFF43F6B11043F6380243F2C473C0F27F
S315020028D80020C0F20022C0F2002340F26471FEF723
S315020028E8DFFF44F2B860C2F20020016801310160DC
S315020028F870472DE9F04381B044F2BC6244F260733A
S31502002908C2F2002244F29064C2F20023C2F2002408
S31502002918156844F26472C2F20022D3F800800646B1
S315020029280F46D2F800902268101DFFF776FA701C3F
S3150200293816D1AFB144F22870C2F20020D0E90012D3
S31502002948236801319A6093682768FB602768043711
S315020029585F6023680433936022680160506117E060
S315020029682068AD194560206800F1040105D3484680
S3150200297801B0BDE8F043FFF733BA4046FFF730FA35
S3150200298844F25470C2F2002001688D4238BF0560D5
S3150200299801B0BDE8F083D4D42DE9F047FDF705FD73
S315020029A844F2B860C2F200200168002900F0B28041
S315020029B8016801390160006828B10024FDF723FD8A
S315020029C82046BDE8F08744F2B460C2F200200068EF
S315020029D80028F2D044F2407044F23C7AC2F2002057
S315020029E844F29069C2F2002AC2F20029016800295B
S315020029F867D044F2247E44F2C0630021C2F2002E5C
S31502002A08C2F200234FF0010CC768FC6804F11802F1
S31502002A18D4E90775A66ABD60E7696F60756895426D
S31502002A2801D1226A7260A1623268013A3260261DB9
S31502002A38D4E9022567699560A2686A607A68B24233
S31502002A4801D1E2687A6061613A68013A3A60E76AF6
S31502002A58DEF80020974207EB870288BFCEF800709F
S31502002A6803EB82025268A2609568E5606E60966022
S31502002A78E26A02EB820203EB8205656153F8225091
S31502002A88013543F82250E26AD9F80040E46AA242C4
S31502002A9888BFCAF800C002680AB12FF04BC844F2D0
S31502002AA86070C2F200200168096819B10068C0683E
S31502002AB8006801E04FF0FF3044F25471C2F200217F
S31502002AC8086044F25C78C2F20028D8F800606EB159
S31502002AD8012400BF00BF00BF00F0FEF808B1CAF823
S31502002AE80040013EF8D10020C8F80000DAF80000DC
S31502002AF800283FF462AFD9F800004EF60450CEF231
S31502002B0800004FF0805101240160BFF34F8FBFF3DD
S31502002B186F8F53E743F6B11043F2D57243F6B223E9
S31502002B28C0F20020C0F20022C0F2002340F68B71E8
S31502002B38FEF7B6FED4D4D4D480B544F2B860C2F255
S31502002B480020006830B144F23C700121C2F2002034
S31502002B58016080BD44F23C7044F2247CC2F200203B
S31502002B68C2F2002C002144F2C0630160C2F20023C3
S31502002B78DCF8001001EB810253F8220003EB820213
S31502002B8848B900BF00BF00BFC1B152F8140D0139E0
S31502002B9808B92FF007C8536802F108005B6853604A
S31502002BA8834201D1D368536044F29062D868C2F274
S31502002BB800221060CCF80010106880BD43F6B110F0
S31502002BC843F2656243F64433C0F20020C0F20022A3
S31502002BD8C0F2002341F2FA31FEF762FEB0B58AB0BE
S31502002BE844F2494004A9C4F24C50069005A803AA27
S31502002BF800248DF81C40CDE90444FDF7AFFA43F2F0
S31502002C086110DDE9032CC0F2002006A90023059D08
S31502002C180094CDE901C5FFF737FD44F25870C2F2B8
S31502002C280020056065B300F0B0FA012811D0013022
S31502002C3826D143F6B11043F69E2243F61013C0F28C
S31502002C480020C0F20022C0F2002340F6A961FEF776
S31502002C5827FE44F254710120C2F2002180F3108843
S31502002C684FF0FF320A6044F29861C2F2002108600E
S31502002C7844F2BC60C2F2002000210160FDF754FB59
S31502002C8844F2C810C0F2002000680AB0B0BDD4D41D
S31502002C9870B544F2B064C2F200242068D8B144F296
S31502002CA89C6544F2B466C2F20025C2F2002600BF51
S31502002CB8FDF77BFBE868C0680430FFF7AEF83068BA
S31502002CC801383060206801382060FDF79CFB2068D7
S31502002CD808B12FF013C870BD2DE9F04F81B044F248
S31502002CE8B860C2F20020006840B144F25C70C2F2D9
S31502002CF800200168013101600020B6E044F2BC60A0
S31502002D0844F2547CC2F20020C2F2002C016811F18E
S31502002D18010BC0F800B022D344F26070C2F2002060
S31502002D2801680968002940F0A38044F264730168C7
S31502002D38C2F200231F680760196044F26871C2F282
S31502002D4800210B6801330B600168096819B1006834
S31502002D58C068006801E04FF0FF30CCF80000DCF8EC
S31502002D680000834501D2002077E044F2607A4FF0F2
S31502002D780009C2F2002ADAF800000068002867D0C3
S31502002D8844F2247E44F2C06444F29068C2F2002EF1
S31502002D98C2F20024C2F20028002000BF00BF00BF12
S31502002DA8DAF80050ED68EE68374657F8045FAB4527
S31502002DB851D3D6E9021375698B60B168596069689F
S31502002DC8B94201D1F1686960C6F8149029680139D7
S31502002DD82960B56A85B1D6E9071306F118028B6030
S31502002DE8F16959606968914201D1316A6960C6F828
S31502002DF82890296801392960F56ADEF800108D42A3
S31502002E0805EB850188BFCEF8005004EB81014968BD
S31502002E18B1608A68F26057608F60F16A01EB8101DE
S31502002E2804EB8102726154F82120013244F8212010
S31502002E38F16AD8F80020D26ADAF80030914288BFDF
S31502002E480120196809B12FF055C84FF0FF3502E085
S31502002E584FF0FF350020CCF8005044F23C71C2F224
S31502002E6800210968002918BF012001B0BDE8F08FCA
S31502002E7843F6B11043F65F1243F2EF53C0F2002055
S31502002E88C0F20022C0F2002341F25F21FEF708FDDC
S31502002E9844F2BC60C2F200200068704710B570B1F7
S31502002EA80C4644F29061C2F2002109681831FEF715
S31502002EB897FF01212046BDE81040FFF71ABD43F6E9
S31502002EC8B11043F6812243F60413C0F20020C0F281
S31502002ED80022C0F200234FF4A451FEF7E1FC10B51C
S31502002EE848B344F2906CD0F804E0C2F2002C002AEF
S31502002EF8DCF80030C3F81CE0DEF80830DCF80040E5
S31502002F082362DCF8004004F118045C60DCF8003047
S31502002F1803F11803CEF80830DCF80030986218BFBF
S31502002F284FF0FF3103680133036008461146BDE8D6
S31502002F381040FFF7DEBC43F6B11043F2E47243F6E3
S31502002F480413C0F20020C0F20022C0F2002341F2AC
S31502002F58BE41FEF7A5FC80B5C068C068002872D0DD
S31502002F68D0E9073100F1180C826A9960C3694B608F
S31502002F785168614501D1016A516000218162116877
S31502002F880139116044F2B861C2F20021096891B1AF
S31502002F9844F2407EC2F2002EDEE90023C36199683C
S31502002FA80162C1F804C0C3F808C0C0F828E0511C81
S31502002FB8CEF8001035E0D0E9023100F1040C42697E
S31502002FC8996083684B605168614501D1C168516057
S31502002FD80021416144F224731168C2F200230139C7
S31502002FE81160C26A19688A4288BF1A6002EB8201B6
S31502002FF844F2C062C2F2002202EB81014968816092
S315020030088B68C360C3F804C0C1F808C0C16A01EB83
S31502003018810102EB8103436152F82130013342F800
S31502003028213044F29061C06AC2F200210968C96A75
S31502003038884206D944F23C710120C2F20021086096
S3150200304880BD002080BD43F6B11043F6040243F268
S315020030584873C0F20020C0F20022C0F2002341F2F7
S31502003068F541FEF71DFC44F26871C2F200210968B7
S31502003078016044F2BC61C2F20021096841607047EE
S3150200308870B568B30D46D9B30446FDF78EF944F216
S31502003098BC6EC2F2002EDEF8003029684A1C16D031
S315020030A844F2687CD4E90002C2F2002CDCF8006023
S315020030B8864201D093420CD29A1A914209D9881AA9
S315020030C82860DCF800002060DEF80000606000245A
S315020030D802E0012400202860FDF795F9204670BD1C
S315020030E843F6B11043F6402243F2BA73C0F2002007
S315020030F8C0F20022C0F2002341F2A551FEF7D0FB2E
S3150200310843F6B11043F6402243F64D03C0F20020BF
S31502003118C0F20022C0F2002341F2A651FEF7C0FB1C
S3150200312844F23C700121C2F200200160704744F269
S315020031389860C2F20020006850B144F2B860C2F248
S315020031480020006800284FF0000008BF02207047E0
S3150200315801207047D4D4D4D444F2C0644EF6045540
S31502003168C2F20024CEF200054FF0805600BF00BF1F
S31502003178FFF78EFD2068022804D32E60BFF34F8F17
S31502003188BFF36F8FFDF799F9F2E780B586B000F0C5
S315020031983AF844F29470C2F20020006818B300208C
S315020031A8CDE9040005A804A903AAFCF7E5FF0DF179
S315020031B80C0E0320009043F2892043F6FB21C0F24D
S315020031C800209EE80450C0F200210023CDE901CE7A
S315020031D8FFF75AFA44F29871C2F20021086010B158
S315020031E8012006B080BD43F2956043F62E3243F6BF
S315020031F85B03C0F20020C0F20022C0F200234FF4A3
S31502003208A371FEF74DFB70B582B0FDF7CEF844F216
S315020032189476C2F20026306868BB44F2A874C2F2F9
S3150200322800242046FEF7CCFD44F2BC75C2F2002506
S315020032382846FEF7C5FD44F29C7044F2A071C2F21C
S315020032480020C2F2002144F6180244F2D073046048
S315020032580D60C2F20022C2F200230A200C210025C8
S315020032680095FEF74AFE306028B143F2D261C0F2F9
S315020032780021FFF7B1F902B0BDE87040FDF7C3B807
S3150200328884B044F29C7844F29475C2F2002801ACE8
S31502003298C2F200254FF0000BEA4600BF00BF00BF8E
S315020032A8D8F80000D0F80090B9F1000F04D0C06831
S315020032B8066802E000BF00BF0026FFF712FB2046A1
S315020032C800F0A6F8019919B1FFF766FB30E000BFD6
S315020032D80746B9F1000F08D0BE4206D8FFF75CFBD5
S315020032E83046394600F0C1F822E0B9F1000F01D0A4
S315020032F8002208E044F2A070C2F2002000680068CA
S3150200330800285FEA1F922868F11BFFF799F9FFF771
S3150200331843FB68B94EF604504FF08051CEF20000D6
S315020033280160BFF34F8FBFF36F8F00BF00BF00BFAF
S31502003338CDF80CB0CDE901BB286800222146FEF77C
S315020033489FFF08B92FF055C001980028F4D4039EB0
S31502003358706910B1301DFEF760FD504600F058F84E
S31502003368019901390829E7D80746DFE801F005057A
S315020033781E251E05051E250096F82400029BB16926
S315020033883A4640F0010086F824001944304600F017
S31502003398A6F808B92FF031C096F8240041071BD4C5
S315020033A800F0FA0086F824001DE096F8240000F0E2
S315020033B8FE0086F82400BFE796F824100298B0614A
S315020033C841F0010186F8241088B1C11930463A46FF
S315020033D83B4600F084F8AFE70298B16901443046EB
S315020033E83A4600F065F8316A30468847A4E743F260
S315020033F8956043F6CD2243F6C133C0F20020C0F2EF
S315020034080022C0F200234FF48261FEF749FAD4D4AF
S31502003418F0B581B00446FFF73BFD44F2A4760546B3
S31502003428C2F200263168884210D244F29C77C2F270
S31502003438002700BF00BF00BF3868016841B1C068F5
S315020034484FF0FF31006800F010F8F5E7002007E0BA
S3150200345844F2A071C2F200210A68086001203A60AB
S3150200346820603560284601B0F0BD70B544F29C7202
S315020034780646C2F200220D461268D268D468201D9A
S31502003488FEF7CBFC94F82400410704D400F0FA00B6
S3150200349884F8240004E0204631462A4600F008F85B
S315020034A8216A2046BDE870400847D4D4D4D4D4D47F
S315020034B870B50446806915460E460144204600BF8B
S315020034C8334600F00CF848B1A069216A0644204642
S315020034D88847A0692A4681192046F1E770BD8C46BD
S315020034E801469445006141F804CF08D944F29C701C
S315020034F89A42C2F200200AD29C4508D30DE080699E
S31502003508D21A824209D244F2A070C2F2002080B5D1
S315020035180068FEF765FC002080BD012070470A4658
S31502003528002100F009B810B5002322B1CC5C013A9B
S31502003538C4540133F9E710BD03461AB103F8011B57
S31502003548013AFAE77047D4D410B505490446054A44
S31502003558FFF7E9FF044805492044FFF7E0FF10BDDD
S3150200356864000002000000000000000000000000E5
S315020035780249401A02490860704700BF0800000065
S3150200358890480022000000007578437269746963E6
S31502003598616C4E657374696E6700765175657565FB
S315020035A8416464546F5265676973747279002E2E8A
S315020035B82F72612F6673702F7372632F726D5F6637
S315020035C872656572746F735F706F72742F706F7243
S315020035D8742E630076506F7274456E746572437208
S315020035E869746963616C00282028202820282070C5
S315020035F87844656C617965645461736B4C6973745C
S3150200360820292D3E75784E756D6265724F6649742E
S31502003618656D73203D3D20282055426173655479B6
S3150200362870655F74202920302029203F2028202811
S315020036382042617365547970655F742029203120B0
S3150200364829203A202820282042617365547970651A
S315020036585F742029203020292029202900765461E8
S31502003668736B537769746368436F6E746578740015
S31502003678707578537461636B42756666657220214C
S315020036883D202828766F69642A293029002E2E2F94
S3150200369872612F6177732F4672656552544F532FA5
S315020036A84672656552544F532F536F757263652F71
S315020036B874696D6572732E630075635356434E754E
S315020036C86D626572203C3D203300546D725100785C
S315020036D8517565756547656E6572696353656E648E
S315020036E8002128202820785461736B476574536338
S315020036F8686564756C657253746174652829203D22
S315020037083D202820282042617365547970655F74CC
S3150200371820292030202920292026262028207854CE
S3150200372869636B73546F5761697420213D20302099
S315020037382920290028207078517565756520290089
S315020037487078556E626C6F636B65645443420070A1
S315020037587853746174696351756575650078486153
S315020037686E646C6500212820282078436F70795092
S315020037786F736974696F6E203D3D202820282042A8
S31502003788617365547970655F742029203220292077
S3150200379829202626202820707851756575652D3EC4
S315020037A875784C656E67746820213D203120292082
S315020037B82900707854696D654F7574007578507272
S315020037C8696F72697479203C20283529007854611A
S315020037D8736B526573756D65416C6C0076546173D3
S315020037E86B506C6163654F6E4576656E744C697392
S315020037F8745265737472696374656400785461738C
S315020038086B52656D6F766546726F6D4576656E7439
S315020038184C6973740070785461736B427566666599
S315020038287220213D202828766F69642A29302900CA
S31502003838707276496E697469616C6973654E6577EB
S315020038485461736B0070785469636B73546F576174
S315020038586974007852657475726E00282828534375
S31502003868425F54797065202A292028283078453005
S31502003878303045303030554C29202B2030783044B2
S315020038883030554C2920292D3E49435352202620B3
S31502003898283078314646554C202929203D3D20308E
S315020038A8007853697A65203D3D2073697A656F66AB
S315020038B8282051756575655F7420290078517565EC
S315020038C8756553656D6170686F726554616B6500E5
S315020038D878517565756547656E6572696343726584
S315020038E86174655374617469630076506F727453B8
S315020038F8564348616E646C65725F4300707845761C
S31502003908656E744C697374007852657475726E20AC
S31502003918213D2028202D312029004E657720546824
S31502003928726561640078517565756543726561747F
S3150200393865436F756E74696E6753656D6170686FFE
S315020039487265537461746963007851756575655259
S3150200395865636569766500785461736B496E63724F
S31502003968656D656E745469636B002E2E2F72612F16
S315020039786177732F4672656552544F532F467265A7
S315020039886552544F532F536F757263652F71756560
S3150200399875652E6300707276437265617465537439
S315020039A8617469635461736B002E2E2F72612F61E5
S315020039B877732F4672656552544F532F4672656563
S315020039C852544F532F536F757263652F7461736B1D
S315020039D8732E630070784E6577517565756500219B
S315020039E82820282028207076427566666572202966
S315020039F8203D3D202828766F69642A293029202906
S31502003A08202626202820282070785175657565207D
S31502003A18292D3E75784974656D53697A6520213D6D
S31502003A282028205542617365547970655F74202990
S31502003A382030552029202900785461736B43686524
S31502003A48636B466F7254696D654F75740070785171
S31502003A5875657565007852657475726E20213D200C
S31502003A6828202820282042617365547970655F747E
S31502003A78202920302029202900765461736B506C46
S31502003A886163654F6E4576656E744C69737400782A
S31502003A98517565756500765461736B5374617274FA
S31502003AA85363686564756C657200757853636865F7
S31502003AB864756C657253757370656E6465642021EE
S31502003AC83D2030550070727650726F63657373527B
S31502003AD865636569766564436F6D6D616E647300CF
S31502003AE878517565756547656E6572696352657362
S31502003AF8657400546D72205376630076506F727443
S31502003B0845786974437269746963616C00707851A7
S31502003B18756575652D3E75784974656D53697A655F
S31502003B28203D3D2030007854696D657243726561A7
S31502003B38746554696D65725461736B007578546F58
S31502003B48705072696F726974790021282028207072
S31502003B58764974656D546F5175657565203D3D20CE
S31502003B682828766F69642A293029202920262620C2
S31502003B782820707851756575652D3E757849746586
S31502003B886D53697A6520213D202820554261736567
S31502003B98547970655F742029203055202920290020
S31502003BA87853697A65203D3D2073697A656F662880
S31502003BB8205443425F742029002820707854696D86
S31502003BC865722D3E7854696D6572506572696F64C7
S31502003BD8496E5469636B73203E2030202900D4D481
S31502003BE8004000000000000000400000060000003F
S31502003BF80040000008000000004000000900000024
S31502003C08004000000C000000450000000D00000006
S31502003C18000C011C00010000000C011C010100003F
S31502003C28000C011C02010000000C011C030100002B
S31502003C38000C011C04010000000C011C0501000017
S31502003C48000C011C060100000040000007010000EC
S31502003C584404000009010000104000000B010000A6
S31502003C68000C010B0C010000000C010B0D010000F9
S31502003C78000C010B0E010000000C010B0F010000E5
S31502003C880040000000020000000001000A020000D5
S31502003C98000001000B020000000C010B00030000EB
S31502003CA8000C010B01030000000C010B02030000CB
S31502003CB8040C0000030300000000011202040000C5
S31502003CC8000401130704000000040114080400009C
S31502003CD80004010709040000000401070A040000A1
S31502003CE80000011300050000000C01030105000095
S31502003CF80004011B02050000000C010B030500006D
S31502003D08000C010B04050000000C010B0505000060
S31502003D18000C010B06050000000C010B070500004C
S31502003D28000C010B08050000000C010B0905000038
S31502003D38000C010B0A050000400401070B050000F0
S31502003D48400401070C050000040400000E050000EB
S31502003D58040C000000060000040400000606000029
S31502003D68000C010B07060000000C010B08060000F8
S31502003D78000C010B09060000000C010B0A060000E4
S31502003D88000C010B0B060000000C010B0C060000D0
S31502003D98000C010B0D060000000C010B0E060000BC
S31502003DA8000C010B0F0600000000010F00070000BF
S31502003DB80000010F010700000000010F02070000C2
S31502003DC80000010F030700000404000009070000B1
S31502003DD8000C011C00080000000C011C0108000070
S31502003DE8000C011C02080000000C011C030800005C
S31502003DF8000C011C04080000000C011C0808000045
S31502003E080004011B0C080000000C010B0D08000041
S31502003E18000C01130E080000000C01130F08000025
S31502003E28000C010B000A0000000C010B010A00003D
S31502003E38000C010B020A0000000C010B030A000029
S31502003E48000C010B040A0000000C010B050A000015
S31502003E58000C010B060A0000040C0000070A000009
S31502003E68000C010B080A0000000C010B090A0000ED
S31502003E78000C010B0A0A0000000C010B0B0A0000D9
S31502003E88000C010B0C0A0000000C010B0D0A0000C5
S31502003E98000C010B0E0A0000000C010B0F0A0000B1
S31502003EA8000C010B000C0000000C010B010C0000B9
S31502003EB8000C010B020C0000000C010B030C0000A5
S31502003EC8000C010B040C0000000C010B050C000091
S31502003ED8000C010B060C0000000C010B070C00007D
S31502003EE8000C010B080C0000000C010B090C000069
S31502003EF8000C010B0A0C0000000C010B0B0C000055
S31502003F08000C010B0C0C0000000C010B0D0C000040
S31502003F18000C010B0E0C0000000C010B0F0C00002C
S31502003F28000C010B000D000000040114070D00002F
S31502003F386A000000E83B0002000000009C009D00A9
S31502003F489E009F0097030303040305030603020466
S31502003F5803040404000000680000006800000080F2
S31502003F6800000080000000700000007000000022BF
S31502003F78000000220B000000943F00021900000016
S31502003F8818400002040000005C3F000200000068BE
S31502003F98000000680001000D0000006800000068CB
S31502003FA80001000D000000800000008000010008EA
S31502003FB80000008000000080000100080000007078
S31502003FC8000000700001000A000000700000007086
S31502003FD80001000A000000000000000001000005C0
S31502003FE8000000200000002001000004000000225A
S31502003FF800000022000000032C4000229448002200
S31502004008000000039448002294480022000000039E
S315020040180000006800000068000000900001090D19
S3150200402800000068000000680000007800010B0D1F
S315020040380000006800000068000000270001020D69
S315020040480000006800000068640000020001010D1B
S3150200405800000080000000800000009000010908AE
S3150200406800000080000000800000007800010B08B4
S3150200407800000080000000800000002700010208FE
S3150200408800000080000000806400000200010108B0
S315020040980000007000000070000000900001090A8C
S315020040A800000070000000700000007800010B0A92
S315020040B80000007000000070000000270001020ADC
S315020040C80000007000000070640000020001010A8E
S315020040D80000000000000000000000900101090530
S315020040E800000000000000000000007801010B0536
S315020040F80000000000000000000000270100020581
S315020041080000000000000000640000020100010532
S3150200411800000020000000200000009001010904B0
S3150200412800000020000000200000007801010B04B6
S315020041380000002000000020000000270100020401
S3150200414800000020000000206400000201000104B3
S31502004158000000220000002200000090000109036E
S3150200416800000022000000220000007800010B0374
S3150200417800000022000000220000002700000203BF
S315020041880000002200000022640000020000010371
S3150200419894480022944800226400000200000103A9
S315020041A806000000080000000300000005000000E9
S315020041B80A00000001000200080010002000D4D402
S315020041C80400000000000506362E352E3000427522
S315020041D8696C7420776974682052656E65736173B9
S315020041E820416476616E63656420466C657869620F
S315020041F86C6520536F667477617265205061636BD4
S315020042086167652076657273696F6E20362E352E64
S3070200421830006C
S30902C9F040FFFFFFFFFF
S30902C9F044EFFFFFFF0B
S30902C9F0C0FFFFFFFD81
S30902C9F0C4FFFFFFFF7B
S30902C9F120000000001A
S30902C9F1240000000016
S70502001B19C4
